{"abi":[{"type":"constructor","inputs":[],"stateMutability":"nonpayable"},{"type":"function","name":"DEFAULT_ADMIN_ROLE","inputs":[],"outputs":[{"name":"","type":"bytes32","internalType":"bytes32"}],"stateMutability":"view"},{"type":"function","name":"baseAsset","inputs":[],"outputs":[{"name":"","type":"address","internalType":"address"}],"stateMutability":"view"},{"type":"function","name":"baseDecimals","inputs":[],"outputs":[{"name":"","type":"uint256","internalType":"uint256"}],"stateMutability":"view"},{"type":"function","name":"borrow","inputs":[{"name":"positionId","type":"uint256","internalType":"uint256"},{"name":"amount","type":"uint256","internalType":"uint256"},{"name":"expectedCreditLimit","type":"uint256","internalType":"uint256"},{"name":"maxSlippageBps","type":"uint32","internalType":"uint32"}],"outputs":[],"stateMutability":"nonpayable"},{"type":"function","name":"cVault","inputs":[],"outputs":[{"name":"","type":"address","internalType":"address"}],"stateMutability":"view"},{"type":"function","name":"calculateCollateralValue","inputs":[{"name":"user","type":"address","internalType":"address"},{"name":"positionId","type":"uint256","internalType":"uint256"}],"outputs":[{"name":"value","type":"uint256","internalType":"uint256"}],"stateMutability":"view"},{"type":"function","name":"calculateCreditLimit","inputs":[{"name":"user","type":"address","internalType":"address"},{"name":"positionId","type":"uint256","internalType":"uint256"}],"outputs":[{"name":"","type":"uint256","internalType":"uint256"}],"stateMutability":"view"},{"type":"function","name":"calculateDebtWithInterest","inputs":[{"name":"user","type":"address","internalType":"address"},{"name":"positionId","type":"uint256","internalType":"uint256"}],"outputs":[{"name":"","type":"uint256","internalType":"uint256"}],"stateMutability":"view"},{"type":"function","name":"calculateLimits","inputs":[{"name":"user","type":"address","internalType":"address"},{"name":"positionId","type":"uint256","internalType":"uint256"}],"outputs":[{"name":"credit","type":"uint256","internalType":"uint256"},{"name":"liqLevel","type":"uint256","internalType":"uint256"},{"name":"value","type":"uint256","internalType":"uint256"}],"stateMutability":"view"},{"type":"function","name":"createPosition","inputs":[{"name":"asset","type":"address","internalType":"address"},{"name":"isIsolated","type":"bool","internalType":"bool"}],"outputs":[{"name":"positionId","type":"uint256","internalType":"uint256"}],"stateMutability":"nonpayable"},{"type":"function","name":"depositLiquidity","inputs":[{"name":"amount","type":"uint256","internalType":"uint256"},{"name":"expectedShares","type":"uint256","internalType":"uint256"},{"name":"maxSlippageBps","type":"uint32","internalType":"uint32"}],"outputs":[],"stateMutability":"nonpayable"},{"type":"function","name":"exitPosition","inputs":[{"name":"positionId","type":"uint256","internalType":"uint256"},{"name":"expectedDebt","type":"uint256","internalType":"uint256"},{"name":"maxSlippageBps","type":"uint32","internalType":"uint32"}],"outputs":[],"stateMutability":"nonpayable"},{"type":"function","name":"getAssetTVL","inputs":[{"name":"asset","type":"address","internalType":"address"}],"outputs":[{"name":"tvl","type":"uint256","internalType":"uint256"},{"name":"tvlUSD","type":"uint256","internalType":"uint256"},{"name":"lastUpdate","type":"uint256","internalType":"uint256"}],"stateMutability":"view"},{"type":"function","name":"getBorrowRate","inputs":[{"name":"tier","type":"uint8","internalType":"enum IASSETS.CollateralTier"}],"outputs":[{"name":"","type":"uint256","internalType":"uint256"}],"stateMutability":"view"},{"type":"function","name":"getCollateralAmount","inputs":[{"name":"user","type":"address","internalType":"address"},{"name":"positionId","type":"uint256","internalType":"uint256"},{"name":"asset","type":"address","internalType":"address"}],"outputs":[{"name":"","type":"uint256","internalType":"uint256"}],"stateMutability":"view"},{"type":"function","name":"getConfig","inputs":[],"outputs":[{"name":"","type":"tuple","internalType":"struct IPROTOCOL.ProtocolConfig","components":[{"name":"profitTargetRate","type":"uint256","internalType":"uint256"},{"name":"borrowRate","type":"uint256","internalType":"uint256"},{"name":"rewardAmount","type":"uint256","internalType":"uint256"},{"name":"rewardInterval","type":"uint256","internalType":"uint256"},{"name":"rewardableSupply","type":"uint256","internalType":"uint256"},{"name":"liquidatorThreshold","type":"uint256","internalType":"uint256"},{"name":"flashLoanFee","type":"uint32","internalType":"uint32"}]}],"stateMutability":"view"},{"type":"function","name":"getMainConfig","inputs":[],"outputs":[{"name":"","type":"tuple","internalType":"struct IPROTOCOL.ProtocolConfig","components":[{"name":"profitTargetRate","type":"uint256","internalType":"uint256"},{"name":"borrowRate","type":"uint256","internalType":"uint256"},{"name":"rewardAmount","type":"uint256","internalType":"uint256"},{"name":"rewardInterval","type":"uint256","internalType":"uint256"},{"name":"rewardableSupply","type":"uint256","internalType":"uint256"},{"name":"liquidatorThreshold","type":"uint256","internalType":"uint256"},{"name":"flashLoanFee","type":"uint32","internalType":"uint32"}]}],"stateMutability":"view"},{"type":"function","name":"getPositionCollateralAssets","inputs":[{"name":"user","type":"address","internalType":"address"},{"name":"positionId","type":"uint256","internalType":"uint256"}],"outputs":[{"name":"","type":"address[]","internalType":"address[]"}],"stateMutability":"view"},{"type":"function","name":"getPositionLiquidationFee","inputs":[{"name":"user","type":"address","internalType":"address"},{"name":"positionId","type":"uint256","internalType":"uint256"}],"outputs":[{"name":"","type":"uint256","internalType":"uint256"}],"stateMutability":"view"},{"type":"function","name":"getPositionTier","inputs":[{"name":"user","type":"address","internalType":"address"},{"name":"positionId","type":"uint256","internalType":"uint256"}],"outputs":[{"name":"tier","type":"uint8","internalType":"enum IASSETS.CollateralTier"}],"stateMutability":"view"},{"type":"function","name":"getRoleAdmin","inputs":[{"name":"role","type":"bytes32","internalType":"bytes32"}],"outputs":[{"name":"","type":"bytes32","internalType":"bytes32"}],"stateMutability":"view"},{"type":"function","name":"getSupplyRate","inputs":[],"outputs":[{"name":"","type":"uint256","internalType":"uint256"}],"stateMutability":"view"},{"type":"function","name":"getUserPosition","inputs":[{"name":"user","type":"address","internalType":"address"},{"name":"positionId","type":"uint256","internalType":"uint256"}],"outputs":[{"name":"","type":"tuple","internalType":"struct IPROTOCOL.UserPosition","components":[{"name":"vault","type":"address","internalType":"address"},{"name":"isIsolated","type":"bool","internalType":"bool"},{"name":"status","type":"uint8","internalType":"enum IPROTOCOL.PositionStatus"},{"name":"debtAmount","type":"uint256","internalType":"uint256"},{"name":"lastInterestAccrual","type":"uint256","internalType":"uint256"}]}],"stateMutability":"view"},{"type":"function","name":"getUserPositions","inputs":[{"name":"user","type":"address","internalType":"address"}],"outputs":[{"name":"","type":"tuple[]","internalType":"struct IPROTOCOL.UserPosition[]","components":[{"name":"vault","type":"address","internalType":"address"},{"name":"isIsolated","type":"bool","internalType":"bool"},{"name":"status","type":"uint8","internalType":"enum IPROTOCOL.PositionStatus"},{"name":"debtAmount","type":"uint256","internalType":"uint256"},{"name":"lastInterestAccrual","type":"uint256","internalType":"uint256"}]}],"stateMutability":"view"},{"type":"function","name":"getUserPositionsCount","inputs":[{"name":"user","type":"address","internalType":"address"}],"outputs":[{"name":"","type":"uint256","internalType":"uint256"}],"stateMutability":"view"},{"type":"function","name":"govToken","inputs":[],"outputs":[{"name":"","type":"address","internalType":"address"}],"stateMutability":"view"},{"type":"function","name":"grantRole","inputs":[{"name":"role","type":"bytes32","internalType":"bytes32"},{"name":"account","type":"address","internalType":"address"}],"outputs":[],"stateMutability":"nonpayable"},{"type":"function","name":"hasRole","inputs":[{"name":"role","type":"bytes32","internalType":"bytes32"},{"name":"account","type":"address","internalType":"address"}],"outputs":[{"name":"","type":"bool","internalType":"bool"}],"stateMutability":"view"},{"type":"function","name":"healthFactor","inputs":[{"name":"user","type":"address","internalType":"address"},{"name":"positionId","type":"uint256","internalType":"uint256"}],"outputs":[{"name":"","type":"uint256","internalType":"uint256"}],"stateMutability":"view"},{"type":"function","name":"initialize","inputs":[{"name":"admin","type":"address","internalType":"address"},{"name":"marketOwner","type":"address","internalType":"address"},{"name":"govToken_","type":"address","internalType":"address"},{"name":"assetsModule_","type":"address","internalType":"address"},{"name":"positionVault","type":"address","internalType":"address"}],"outputs":[],"stateMutability":"nonpayable"},{"type":"function","name":"initializeMarket","inputs":[{"name":"_marketInfo","type":"tuple","internalType":"struct IPROTOCOL.Market","components":[{"name":"core","type":"address","internalType":"address"},{"name":"baseVault","type":"address","internalType":"address"},{"name":"baseAsset","type":"address","internalType":"address"},{"name":"assetsModule","type":"address","internalType":"address"},{"name":"porFeed","type":"address","internalType":"address"},{"name":"decimals","type":"uint256","internalType":"uint256"},{"name":"name","type":"string","internalType":"string"},{"name":"symbol","type":"string","internalType":"string"},{"name":"createdAt","type":"uint256","internalType":"uint256"},{"name":"active","type":"bool","internalType":"bool"}]}],"outputs":[],"stateMutability":"nonpayable"},{"type":"function","name":"isCollateralized","inputs":[],"outputs":[{"name":"isProtocolSolvent","type":"bool","internalType":"bool"},{"name":"totalAssetValue","type":"uint256","internalType":"uint256"}],"stateMutability":"view"},{"type":"function","name":"isLiquidatable","inputs":[{"name":"user","type":"address","internalType":"address"},{"name":"positionId","type":"uint256","internalType":"uint256"}],"outputs":[{"name":"","type":"bool","internalType":"bool"}],"stateMutability":"view"},{"type":"function","name":"liquidate","inputs":[{"name":"user","type":"address","internalType":"address"},{"name":"positionId","type":"uint256","internalType":"uint256"},{"name":"expectedCost","type":"uint256","internalType":"uint256"},{"name":"maxSlippageBps","type":"uint32","internalType":"uint32"}],"outputs":[],"stateMutability":"nonpayable"},{"type":"function","name":"loadProtocolConfig","inputs":[{"name":"config","type":"tuple","internalType":"struct IPROTOCOL.ProtocolConfig","components":[{"name":"profitTargetRate","type":"uint256","internalType":"uint256"},{"name":"borrowRate","type":"uint256","internalType":"uint256"},{"name":"rewardAmount","type":"uint256","internalType":"uint256"},{"name":"rewardInterval","type":"uint256","internalType":"uint256"},{"name":"rewardableSupply","type":"uint256","internalType":"uint256"},{"name":"liquidatorThreshold","type":"uint256","internalType":"uint256"},{"name":"flashLoanFee","type":"uint32","internalType":"uint32"}]}],"outputs":[],"stateMutability":"nonpayable"},{"type":"function","name":"market","inputs":[],"outputs":[{"name":"","type":"tuple","internalType":"struct IPROTOCOL.Market","components":[{"name":"core","type":"address","internalType":"address"},{"name":"baseVault","type":"address","internalType":"address"},{"name":"baseAsset","type":"address","internalType":"address"},{"name":"assetsModule","type":"address","internalType":"address"},{"name":"porFeed","type":"address","internalType":"address"},{"name":"decimals","type":"uint256","internalType":"uint256"},{"name":"name","type":"string","internalType":"string"},{"name":"symbol","type":"string","internalType":"string"},{"name":"createdAt","type":"uint256","internalType":"uint256"},{"name":"active","type":"bool","internalType":"bool"}]}],"stateMutability":"view"},{"type":"function","name":"marketFactory","inputs":[],"outputs":[{"name":"","type":"address","internalType":"address"}],"stateMutability":"view"},{"type":"function","name":"mintShares","inputs":[{"name":"shares","type":"uint256","internalType":"uint256"},{"name":"expectedAmount","type":"uint256","internalType":"uint256"},{"name":"maxSlippageBps","type":"uint32","internalType":"uint32"}],"outputs":[],"stateMutability":"nonpayable"},{"type":"function","name":"paused","inputs":[],"outputs":[{"name":"","type":"bool","internalType":"bool"}],"stateMutability":"view"},{"type":"function","name":"redeemLiquidityShares","inputs":[{"name":"shares","type":"uint256","internalType":"uint256"},{"name":"expectedAmount","type":"uint256","internalType":"uint256"},{"name":"maxSlippageBps","type":"uint32","internalType":"uint32"}],"outputs":[],"stateMutability":"nonpayable"},{"type":"function","name":"renounceRole","inputs":[{"name":"role","type":"bytes32","internalType":"bytes32"},{"name":"callerConfirmation","type":"address","internalType":"address"}],"outputs":[],"stateMutability":"nonpayable"},{"type":"function","name":"repay","inputs":[{"name":"positionId","type":"uint256","internalType":"uint256"},{"name":"amount","type":"uint256","internalType":"uint256"},{"name":"expectedDebt","type":"uint256","internalType":"uint256"},{"name":"maxSlippageBps","type":"uint32","internalType":"uint32"}],"outputs":[],"stateMutability":"nonpayable"},{"type":"function","name":"revokeRole","inputs":[{"name":"role","type":"bytes32","internalType":"bytes32"},{"name":"account","type":"address","internalType":"address"}],"outputs":[],"stateMutability":"nonpayable"},{"type":"function","name":"supplyCollateral","inputs":[{"name":"asset","type":"address","internalType":"address"},{"name":"amount","type":"uint256","internalType":"uint256"},{"name":"positionId","type":"uint256","internalType":"uint256"}],"outputs":[],"stateMutability":"nonpayable"},{"type":"function","name":"supportsInterface","inputs":[{"name":"interfaceId","type":"bytes4","internalType":"bytes4"}],"outputs":[{"name":"","type":"bool","internalType":"bool"}],"stateMutability":"view"},{"type":"function","name":"totalAccruedBorrowerInterest","inputs":[],"outputs":[{"name":"","type":"uint256","internalType":"uint256"}],"stateMutability":"view"},{"type":"function","name":"totalBorrow","inputs":[],"outputs":[{"name":"","type":"uint256","internalType":"uint256"}],"stateMutability":"view"},{"type":"function","name":"withdrawCollateral","inputs":[{"name":"asset","type":"address","internalType":"address"},{"name":"amount","type":"uint256","internalType":"uint256"},{"name":"positionId","type":"uint256","internalType":"uint256"},{"name":"expectedCreditLimit","type":"uint256","internalType":"uint256"},{"name":"maxSlippageBps","type":"uint32","internalType":"uint32"}],"outputs":[],"stateMutability":"nonpayable"},{"type":"function","name":"withdrawLiquidity","inputs":[{"name":"amount","type":"uint256","internalType":"uint256"},{"name":"expectedShares","type":"uint256","internalType":"uint256"},{"name":"maxSlippageBps","type":"uint32","internalType":"uint32"}],"outputs":[],"stateMutability":"nonpayable"},{"type":"event","name":"Borrow","inputs":[{"name":"user","type":"address","indexed":true,"internalType":"address"},{"name":"positionId","type":"uint256","indexed":true,"internalType":"uint256"},{"name":"amount","type":"uint256","indexed":false,"internalType":"uint256"}],"anonymous":false},{"type":"event","name":"DepositLiquidity","inputs":[{"name":"user","type":"address","indexed":true,"internalType":"address"},{"name":"amount","type":"uint256","indexed":false,"internalType":"uint256"}],"anonymous":false},{"type":"event","name":"Initialized","inputs":[{"name":"baseAsset","type":"address","indexed":true,"internalType":"address"}],"anonymous":false},{"type":"event","name":"Initialized","inputs":[{"name":"version","type":"uint64","indexed":false,"internalType":"uint64"}],"anonymous":false},{"type":"event","name":"InterestAccrued","inputs":[{"name":"user","type":"address","indexed":true,"internalType":"address"},{"name":"positionId","type":"uint256","indexed":true,"internalType":"uint256"},{"name":"interest","type":"uint256","indexed":false,"internalType":"uint256"}],"anonymous":false},{"type":"event","name":"Liquidated","inputs":[{"name":"user","type":"address","indexed":true,"internalType":"address"},{"name":"positionId","type":"uint256","indexed":true,"internalType":"uint256"},{"name":"liquidator","type":"address","indexed":true,"internalType":"address"}],"anonymous":false},{"type":"event","name":"MintShares","inputs":[{"name":"user","type":"address","indexed":true,"internalType":"address"},{"name":"shares","type":"uint256","indexed":false,"internalType":"uint256"}],"anonymous":false},{"type":"event","name":"Paused","inputs":[{"name":"account","type":"address","indexed":false,"internalType":"address"}],"anonymous":false},{"type":"event","name":"PositionClosed","inputs":[{"name":"user","type":"address","indexed":true,"internalType":"address"},{"name":"positionId","type":"uint256","indexed":true,"internalType":"uint256"}],"anonymous":false},{"type":"event","name":"PositionCreated","inputs":[{"name":"user","type":"address","indexed":true,"internalType":"address"},{"name":"positionId","type":"uint256","indexed":true,"internalType":"uint256"},{"name":"isIsolated","type":"bool","indexed":false,"internalType":"bool"}],"anonymous":false},{"type":"event","name":"ProtocolConfigUpdated","inputs":[{"name":"profitTargetRate","type":"uint256","indexed":false,"internalType":"uint256"},{"name":"borrowRate","type":"uint256","indexed":false,"internalType":"uint256"},{"name":"rewardAmount","type":"uint256","indexed":false,"internalType":"uint256"},{"name":"rewardInterval","type":"uint256","indexed":false,"internalType":"uint256"},{"name":"rewardableSupply","type":"uint256","indexed":false,"internalType":"uint256"},{"name":"liquidatorThreshold","type":"uint256","indexed":false,"internalType":"uint256"}],"anonymous":false},{"type":"event","name":"RedeemShares","inputs":[{"name":"user","type":"address","indexed":true,"internalType":"address"},{"name":"shares","type":"uint256","indexed":false,"internalType":"uint256"},{"name":"amount","type":"uint256","indexed":false,"internalType":"uint256"}],"anonymous":false},{"type":"event","name":"Repay","inputs":[{"name":"user","type":"address","indexed":true,"internalType":"address"},{"name":"positionId","type":"uint256","indexed":true,"internalType":"uint256"},{"name":"amount","type":"uint256","indexed":false,"internalType":"uint256"}],"anonymous":false},{"type":"event","name":"RoleAdminChanged","inputs":[{"name":"role","type":"bytes32","indexed":true,"internalType":"bytes32"},{"name":"previousAdminRole","type":"bytes32","indexed":true,"internalType":"bytes32"},{"name":"newAdminRole","type":"bytes32","indexed":true,"internalType":"bytes32"}],"anonymous":false},{"type":"event","name":"RoleGranted","inputs":[{"name":"role","type":"bytes32","indexed":true,"internalType":"bytes32"},{"name":"account","type":"address","indexed":true,"internalType":"address"},{"name":"sender","type":"address","indexed":true,"internalType":"address"}],"anonymous":false},{"type":"event","name":"RoleRevoked","inputs":[{"name":"role","type":"bytes32","indexed":true,"internalType":"bytes32"},{"name":"account","type":"address","indexed":true,"internalType":"address"},{"name":"sender","type":"address","indexed":true,"internalType":"address"}],"anonymous":false},{"type":"event","name":"SupplyCollateral","inputs":[{"name":"user","type":"address","indexed":true,"internalType":"address"},{"name":"positionId","type":"uint256","indexed":true,"internalType":"uint256"},{"name":"asset","type":"address","indexed":true,"internalType":"address"},{"name":"amount","type":"uint256","indexed":false,"internalType":"uint256"}],"anonymous":false},{"type":"event","name":"TVLUpdated","inputs":[{"name":"asset","type":"address","indexed":true,"internalType":"address"},{"name":"amount","type":"uint256","indexed":false,"internalType":"uint256"}],"anonymous":false},{"type":"event","name":"Unpaused","inputs":[{"name":"account","type":"address","indexed":false,"internalType":"address"}],"anonymous":false},{"type":"event","name":"VaultCreated","inputs":[{"name":"user","type":"address","indexed":true,"internalType":"address"},{"name":"positionId","type":"uint256","indexed":true,"internalType":"uint256"},{"name":"vault","type":"address","indexed":false,"internalType":"address"}],"anonymous":false},{"type":"event","name":"WithdrawCollateral","inputs":[{"name":"user","type":"address","indexed":true,"internalType":"address"},{"name":"positionId","type":"uint256","indexed":true,"internalType":"uint256"},{"name":"asset","type":"address","indexed":true,"internalType":"address"},{"name":"amount","type":"uint256","indexed":false,"internalType":"uint256"}],"anonymous":false},{"type":"event","name":"WithdrawLiquidity","inputs":[{"name":"user","type":"address","indexed":true,"internalType":"address"},{"name":"amount","type":"uint256","indexed":false,"internalType":"uint256"}],"anonymous":false},{"type":"error","name":"AccessControlBadConfirmation","inputs":[]},{"type":"error","name":"AccessControlUnauthorizedAccount","inputs":[{"name":"account","type":"address","internalType":"address"},{"name":"neededRole","type":"bytes32","internalType":"bytes32"}]},{"type":"error","name":"AssetCapacityReached","inputs":[]},{"type":"error","name":"CloneDeploymentFailed","inputs":[]},{"type":"error","name":"CreditLimitExceeded","inputs":[]},{"type":"error","name":"EnforcedPause","inputs":[]},{"type":"error","name":"ExpectedPause","inputs":[]},{"type":"error","name":"FailedDeployment","inputs":[]},{"type":"error","name":"InactivePosition","inputs":[]},{"type":"error","name":"InsufficientBalance","inputs":[{"name":"balance","type":"uint256","internalType":"uint256"},{"name":"needed","type":"uint256","internalType":"uint256"}]},{"type":"error","name":"InvalidAssetForIsolation","inputs":[]},{"type":"error","name":"InvalidBorrowRate","inputs":[]},{"type":"error","name":"InvalidFee","inputs":[]},{"type":"error","name":"InvalidInitialization","inputs":[]},{"type":"error","name":"InvalidInterval","inputs":[]},{"type":"error","name":"InvalidLiquidatorThreshold","inputs":[]},{"type":"error","name":"InvalidPosition","inputs":[]},{"type":"error","name":"InvalidProfitTarget","inputs":[]},{"type":"error","name":"InvalidRewardAmount","inputs":[]},{"type":"error","name":"InvalidSupplyAmount","inputs":[]},{"type":"error","name":"IsolatedAssetViolation","inputs":[]},{"type":"error","name":"IsolationDebtCapExceeded","inputs":[]},{"type":"error","name":"LowBalance","inputs":[]},{"type":"error","name":"LowLiquidity","inputs":[]},{"type":"error","name":"MEVSameBlockOperation","inputs":[]},{"type":"error","name":"MEVSlippageExceeded","inputs":[]},{"type":"error","name":"MaxPositionLimitReached","inputs":[]},{"type":"error","name":"MaximumAssetsReached","inputs":[]},{"type":"error","name":"NoDebt","inputs":[]},{"type":"error","name":"NotEnoughGovernanceTokens","inputs":[]},{"type":"error","name":"NotInitializing","inputs":[]},{"type":"error","name":"NotLiquidatable","inputs":[]},{"type":"error","name":"NotListed","inputs":[]},{"type":"error","name":"PoolLiquidityLimitReached","inputs":[]},{"type":"error","name":"ReentrancyGuardReentrantCall","inputs":[]},{"type":"error","name":"SafeERC20FailedOperation","inputs":[{"name":"token","type":"address","internalType":"address"}]},{"type":"error","name":"Unauthorized","inputs":[]},{"type":"error","name":"ZeroAddressNotAllowed","inputs":[]},{"type":"error","name":"ZeroAmount","inputs":[]}],"bytecode":{"object":"0x608060405234801562000010575f80fd5b506200001b62000021565b620000d5565b7ff0c57e16840df040f15088dc2f81fe391c3923bec73e23a9662efc9c229c6a00805468010000000000000000900460ff1615620000725760405163f92ee8a960e01b815260040160405180910390fd5b80546001600160401b0390811614620000d25780546001600160401b0319166001600160401b0390811782556040519081527fc7f505b2f371ae2175ee4913f4499e1f2633a7b5936321eed1cdaeb6115181d29060200160405180910390a15b50565b61596c80620000e35f395ff3fe608060405234801561000f575f80fd5b5060043610610239575f3560e01c806301ffc9a71461023d57806305268cff1461026557806306ae7095146102845780630ac40e96146102975780631459457a146102b85780631777d0e9146102cd5780631c88ef1e146102e05780631e1cb27f14610300578063248a9ca3146103135780632a6bc2dd146103265780632f2ff15d1461034657806330306e4b1461035957806333f761781461037957806334e2cd0f1461038257806336568abe146103955780633f609131146103a85780633fdfb2aa146103c857806349e3284e146103db5780634a485693146103fa5780634e90c84c1461040d5780635c975abb1461043b5780636188a5c91461044357806365939ebc1461044c57806368099d8c146104745780637067445914610487578063741e147a1461049a57806380f55605146104ad5780638285ef40146104c2578063849f896e146104ca57806384bdc9a8146104dd5780638f805fa0146104e5578063908d18a0146104f857806391d148541461050b578063a217fddf1461051e578063b7575f2f14610525578063c3f909d414610538578063c66288101461059b578063ca948e74146105ae578063cc91495f14610538578063cdf456e1146105c1578063d547741f146105d4578063d60bfcb4146105e7578063da64b4a5146105fa578063e293b6c31461060d578063e2eb67f014610620578063eebfe9e214610633578063f36cc7c614610646578063f4097b4314610659578063f4813b6f1461066c575b5f80fd5b61025061024b366004614b87565b61067f565b60405190151581526020015b60405180910390f35b5f54610277906001600160a01b031681565b60405161025c9190614bbb565b600254610277906001600160a01b031681565b6102aa6102a5366004614bdb565b6106b5565b60405190815260200161025c565b6102cb6102c6366004614c0a565b610724565b005b6102cb6102db366004614c88565b6109cc565b6102f36102ee366004614cbe565b610d2f565b60405161025c9190614d59565b6102cb61030e366004614c88565b610e54565b6102aa610321366004614d67565b610f7b565b610339610334366004614d7e565b610f99565b60405161025c9190614d99565b6102cb610354366004614de6565b61107a565b61036c610367366004614cbe565b611096565b60405161025c9190614e57565b6102aa60055481565b6102aa610390366004614cbe565b611108565b6102cb6103a3366004614de6565b6111d6565b6103bb6103b6366004614cbe565b611209565b60405161025c9190614e69565b6102506103d6366004614cbe565b611352565b6103e3611460565b60408051921515835260208301919091520161025c565b6102cb610408366004614c88565b611629565b61042061041b366004614cbe565b61171a565b6040805193845260208401929092529082015260600161025c565b610250611951565b6102aa60045481565b6102aa61045a366004614d7e565b6001600160a01b03165f908152601a602052604090205490565b6102aa610482366004614cbe565b611979565b610420610495366004614d7e565b611a39565b6102cb6104a8366004614e7c565b611a7c565b6104b5611c7b565b60405161025c9190614f03565b6102aa611e5e565b6102cb6104d8366004614fc8565b611ece565b6102aa6120f8565b6102cb6104f336600461500f565b61213f565b6102cb610506366004615042565b6122c7565b610250610519366004614de6565b61250c565b6102aa5f81565b6102cb610533366004615058565b612540565b610540612611565b60405161025c91905f60e082019050825182526020830151602083015260408301516040830152606083015160608301526080830151608083015260a083015160a083015263ffffffff60c08401511660c083015292915050565b6102cb6105a936600461508a565b61269b565b6102aa6105bc366004614cbe565b6129ca565b600154610277906001600160a01b031681565b6102cb6105e2366004614de6565b6129d5565b6102aa6105f5366004614cbe565b6129f1565b6102cb610608366004614c88565b612a07565b6102aa61061b3660046150c1565b612b97565b6102aa61062e366004614cbe565b612c1d565b600354610277906001600160a01b031681565b6102cb610654366004614c88565b612c59565b6102aa610667366004615102565b612d43565b6102cb61067a36600461500f565b61302d565b5f6001600160e01b03198216637965db0b60e01b14806106af57506301ffc9a760e01b6001600160e01b03198316145b92915050565b601854604051630562074b60e11b81525f916001600160a01b031690630ac40e96906106e5908590600401614e69565b602060405180830381865afa158015610700573d5f803e3d5ffd5b505050506040513d601f19601f820116820180604052508101906106af919061512e565b5f61072d613120565b805490915060ff600160401b82041615906001600160401b03165f811580156107535750825b90505f826001600160401b0316600114801561076e5750303b155b90508115801561077c575080155b1561079a5760405163f92ee8a960e01b815260040160405180910390fd5b84546001600160401b031916600117855583156107c357845460ff60401b1916600160401b1785555b6001600160a01b038a166107ea576040516342bcdf7f60e11b815260040160405180910390fd5b6001600160a01b038916610811576040516342bcdf7f60e11b815260040160405180910390fd5b6001600160a01b038716610838576040516342bcdf7f60e11b815260040160405180910390fd5b6001600160a01b03881661085f576040516342bcdf7f60e11b815260040160405180910390fd5b6001600160a01b038616610886576040516342bcdf7f60e11b815260040160405180910390fd5b61088e613148565b610896613148565b61089e613152565b6108a85f8b613162565b506108c05f805160206158978339815191528b613162565b506108d85f805160206158978339815191528a613162565b506108f05f805160206158b78339815191528b613162565b506109085f805160206158b78339815191528a613162565b506109337f189ab7a9244df0848122154315af71fe140f3db0fe014031783b0946b8c9d2e38b613162565b50601780546001600160a01b03808a166001600160a01b031992831617909255600280548216331790555f80548b8416908316179055600380549289169290911691909117905583156109c057845460ff60401b19168555604051600181527fc7f505b2f371ae2175ee4913f4499e1f2633a7b5936321eed1cdaeb6115181d29060200160405180910390a15b50505050505050505050565b6109d4613200565b6109dc613235565b335f908152601a602052604081208054859081106109fc576109fc615145565b905f5260205f20906003020190505f610a19855f1984878761325b565b825460ff60a81b1916600360a81b17835590508015610ac757600154610a4a906001600160a01b031633308461340d565b601854600154610a67916001600160a01b03918216911683613474565b60185460405163acb7081560e01b81526001600160a01b039091169063acb7081590610a999084903390600401615159565b5f604051808303815f87803b158015610ab0575f80fd5b505af1158015610ac2573d5f803e3d5ffd5b505050505b335f818152601b602090815260408083208984528252808320938352601a9091528120805488908110610afc57610afc615145565b5f91825260208220600390910201546001600160a01b031691508190610b2184613504565b90505f5b81811015610ce6575f80610b39878461350e565b90925090508015610cdc576001600160a01b0382165f90815260196020526040812054610b67908390615184565b604080516060810182528281526017549151637d39d74b60e01b81529293509160208301916001600160a01b031690637d39d74b90610bac9088908790600401615197565b6020604051808303815f875af1158015610bc8573d5f803e3d5ffd5b505050506040513d601f19601f82011682018060405250810190610bec919061512e565b8152426020918201526001600160a01b0385165f81815260198352604090819020845181558484015160018201559381015160029094019390935591518381525f805160206158d7833981519152910160405180910390a2826001600160a01b03168d336001600160a01b03165f8051602061591783398151915285604051610c7791815260200190565b60405180910390a46040516313c5035360e31b81526001600160a01b03871690639e281a9890610cad9086908690600401615197565b5f604051808303815f87803b158015610cc4575f80fd5b505af1158015610cd6573d5f803e3d5ffd5b50505050505b5050600101610b25565b50610cf08461352b565b604051899033907fa9e0cdf27a7965d21573ebb808fbcb2c2a1cfd656e1ecf3f82549437b4740677905f90a3505050505050610d2a613537565b505050565b610d5e6040805160a0810182525f80825260208201819052909182019081526020015f81526020015f81525090565b6001600160a01b0383165f908152601a6020526040902054839083908110610d995760405163673f032f60e11b815260040160405180910390fd5b6001600160a01b0385165f908152601a60205260409020805485908110610dc257610dc2615145565b5f9182526020918290206040805160a081018252600393840290920180546001600160a01b038116845260ff600160a01b820481161515968501969096529294909391850192600160a81b90041690811115610e2057610e20614ce8565b6003811115610e3157610e31614ce8565b81526020016001820154815260200160028201548152505092505b505092915050565b82805f03610e7557604051631f2a200560e01b815260040160405180910390fd5b610e7d613200565b610e85613235565b6001546018546001600160a01b039182169116610ea48233308961340d565b610eb86001600160a01b0383168288613474565b60405186815233907f3bdb4d376f46aac1bdcda94b03200364052b278ed93865d759bf61452bfabdba9060200160405180910390a2604051636e553f6560e01b81525f906001600160a01b03831690636e553f6590610f1d908a903390600401615159565b6020604051808303815f875af1158015610f39573d5f803e3d5ffd5b505050506040513d601f19601f82011682018060405250810190610f5d919061512e565b9050610f6a818787613547565b505050610f75613537565b50505050565b5f80610f8561360e565b5f9384526020525050604090206001015490565b6001600160a01b0381165f908152601a60209081526040808320805482518185028101850190935280835260609492939192909184015b8282101561106f575f8481526020908190206040805160a081018252600380870290930180546001600160a01b038116835260ff600160a01b820481161515968401969096529194909392850192600160a81b909204169081111561103757611037614ce8565b600381111561104857611048614ce8565b81526020016001820154815260200160028201548152505081526020019060010190610fd0565b505050509050919050565b61108382610f7b565b61108c81613632565b610f758383613162565b6001600160a01b0382165f908152601a60205260409020546060908390839081106110d45760405163673f032f60e11b815260040160405180910390fd5b6001600160a01b0385165f908152601b6020908152604080832087845290915290206110ff9061363c565b95945050505050565b6001600160a01b0382165f908152601a60205260408120548390839081106111435760405163673f032f60e11b815260040160405180910390fd5b6001600160a01b0385165f908152601a6020526040812080548690811061116c5761116c615145565b905f5260205f209060030201905080600101545f0361118e575f935050610e4c565b5f6111998787611209565b90505f6111a5826106b5565b90505f8360020154426111b89190615184565b90506111c98460010154838361364f565b9998505050505050505050565b6001600160a01b03811633146111ff5760405163334bd91960e11b815260040160405180910390fd5b610d2a8282613679565b6001600160a01b0382165f908152601a60205260408120548390839081106112445760405163673f032f60e11b815260040160405180910390fd5b6001600160a01b0385165f908152601b6020908152604080832087845290915281209061127082613504565b90505f94505f5b81811015611347575f8061128b858461350e565b9092509050801561133d5760175460405163221c83d960e11b81525f916001600160a01b03169063443907b2906112c6908690600401614bbb565b602060405180830381865afa1580156112e1573d5f803e3d5ffd5b505050506040513d601f19601f8201168201806040525081019061130591906151b0565b905088600381111561131957611319614ce8565b60ff1681600381111561132e5761132e614ce8565b60ff16111561133b578098505b505b5050600101611277565b505050505092915050565b6001600160a01b0382165f908152601a602052604081205483908390811061138d5760405163673f032f60e11b815260040160405180910390fd5b60016001600160a01b0383165f908152601a602052604090208054839081106113b8576113b8615145565b5f918252602090912060039182020154600160a81b900460ff16908111156113e2576113e2614ce8565b1461140057604051631f9c0ddd60e31b815260040160405180910390fd5b6001600160a01b0385165f908152601a6020526040902080548590811061142957611429615145565b905f5260205f209060030201600101545f03611447575f9250610e4c565b5f6114528686612c1d565b600554119695505050505050565b5f805f60185f9054906101000a90046001600160a01b03166001600160a01b0316638285ef406040518163ffffffff1660e01b8152600401602060405180830381865afa1580156114b3573d5f803e3d5ffd5b505050506040513d601f19601f820116820180604052508101906114d7919061512e565b90508060185f9054906101000a90046001600160a01b03166001600160a01b03166301e1d1146040518163ffffffff1660e01b8152600401602060405180830381865afa15801561152a573d5f803e3d5ffd5b505050506040513d601f19601f8201168201806040525081019061154e919061512e565b6115589190615184565b91505f60175f9054906101000a90046001600160a01b03166001600160a01b031663f7e19eff6040518163ffffffff1660e01b81526004015f60405180830381865afa1580156115aa573d5f803e3d5ffd5b505050506040513d5f823e601f3d908101601f191682016040526115d1919081019061520f565b80519091505f5b8181101561161d575f6116038483815181106115f6576115f6615145565b6020026020010151611a39565b509150611612905081876152af565b9550506001016115d8565b50505081101592909150565b82805f0361164a57604051631f2a200560e01b815260040160405180910390fd5b611652613200565b61165a613235565b601854604051632d182be560e21b81525f916001600160a01b03169063b460af949061168e908890339081906004016152c2565b6020604051808303815f875af11580156116aa573d5f803e3d5ffd5b505050506040513d601f19601f820116820180604052508101906116ce919061512e565b90506116db818585613547565b60405185815233907f8291c2165fb22f13d0ed7fc85f1f2ac23027102c70d95f9459c42a59e241eaa5906020015b60405180910390a250610f75613537565b6001600160a01b0382165f908152601a6020526040812054819081908590859081106117595760405163673f032f60e11b815260040160405180910390fd5b6001600160a01b0387165f908152601b6020908152604080832089845290915281209061178582613504565b9050805f0361179e575f805f9650965096505050611948565b60175460015460405163644c79a160e11b81525f926001600160a01b039081169263c898f342926117d59290911690600401614bbb565b608060405180830381865afa1580156117f0573d5f803e3d5ffd5b505050506040513d601f19601f820116820180604052508101906118149190615307565b90505f5b82811015611943575f8061182c868461350e565b91509150805f0361183e57505061193b565b60175460405163644c79a160e11b81525f916001600160a01b03169063c898f3429061186e908690600401614bbb565b608060405180830381865afa158015611889573d5f803e3d5ffd5b505050506040513d601f19601f820116820180604052508101906118ad9190615307565b90505f6118e6825f0151846118c2919061537a565b60055460608501516118d590600a615469565b89516118e1919061537a565b6136ef565b90506118f2818c6152af565b9a5061190981836020015161ffff166103e86136ef565b611913908e6152af565b9c5061192a81836040015161ffff166103e86136ef565b611934908d6152af565b9b50505050505b600101611818565b505050505b50509250925092565b7fcd5ed15c6e187e77e9aee88184c21f4f2182ab5827cb3b7e07fbedcd63f033005460ff1690565b6001600160a01b0382165f908152601a60205260408120548390839081106119b45760405163673f032f60e11b815260040160405180910390fd5b5f6119bf8686611209565b60175460405163023ca84160e31b81529192506001600160a01b0316906311e54208906119f0908490600401614e69565b602060405180830381865afa158015611a0b573d5f803e3d5ffd5b505050506040513d601f19601f82011682018060405250810190611a2f919061512e565b9695505050505050565b6001600160a01b03165f90815260196020908152604091829020825160608101845281548082526001830154938201849052600290920154930183905292909190565b83805f03611a9d57604051631f2a200560e01b815260040160405180910390fd5b335f818152601a602052604090205485908110611acd5760405163673f032f60e11b815260040160405180910390fd5b60016001600160a01b0383165f908152601a60205260409020805483908110611af857611af8615145565b5f918252602090912060039182020154600160a81b900460ff1690811115611b2257611b22614ce8565b14611b4057604051631f9c0ddd60e31b815260040160405180910390fd5b611b48613200565b611b50613235565b335f908152601a60205260408120805488908110611b7057611b70615145565b905f5260205f209060030201905042816002015410611ba257604051630d8e872960e31b815260040160405180910390fd5b4260028201555f611bb333896129f1565b9050611bc0818888613547565b611bcb8a8a8a61379f565b81546040516313c5035360e31b81526001600160a01b03909116908190639e281a9890611bfe908e908e90600401615197565b5f604051808303815f87803b158015611c15575f80fd5b505af1158015611c27573d5f803e3d5ffd5b505050508a6001600160a01b031689336001600160a01b03165f805160206159178339815191528d604051611c5e91815260200190565b60405180910390a4505050611c71613537565b5050505050505050565b60408051610140810182525f8082526020820181905291810182905260608082018390526080820183905260a0820183905260c0820181905260e082015261010081018290526101208101919091526040805161014081018252600680546001600160a01b0390811683526007548116602084015260085481169383019390935260095483166060830152600a549092166080820152600b5460a0820152600c805491929160c084019190611d2f90615477565b80601f0160208091040260200160405190810160405280929190818152602001828054611d5b90615477565b8015611da65780601f10611d7d57610100808354040283529160200191611da6565b820191905f5260205f20905b815481529060010190602001808311611d8957829003601f168201915b50505050508152602001600782018054611dbf90615477565b80601f0160208091040260200160405190810160405280929190818152602001828054611deb90615477565b8015611e365780601f10611e0d57610100808354040283529160200191611e36565b820191905f5260205f20905b815481529060010190602001808311611e1957829003601f168201915b50505091835250506008820154602082015260099091015460ff161515604090910152919050565b6018546040805163020a17bd60e61b815290515f926001600160a01b031691638285ef409160048083019260209291908290030181865afa158015611ea5573d5f803e3d5ffd5b505050506040513d601f19601f82011682018060405250810190611ec9919061512e565b905090565b6001600160a01b0384165f908152601a6020526040902054849084908110611f095760405163673f032f60e11b815260040160405180910390fd5b60016001600160a01b0383165f908152601a60205260409020805483908110611f3457611f34615145565b5f918252602090912060039182020154600160a81b900460ff1690811115611f5e57611f5e614ce8565b14611f7c57604051631f9c0ddd60e31b815260040160405180910390fd5b611f84613200565b611f8c613235565b6015545f546040516370a0823160e01b81526001600160a01b03909116906370a0823190611fbe903390600401614bbb565b602060405180830381865afa158015611fd9573d5f803e3d5ffd5b505050506040513d601f19601f82011682018060405250810190611ffd919061512e565b101561201c5760405163c5ceb1cd60e01b815260040160405180910390fd5b6120268686611352565b61204357604051636ef5bcdd60e11b815260040160405180910390fd5b5f612050878787876139d6565b60015490915061206b906001600160a01b031633308461340d565b601854600154612088916001600160a01b03918216911683613474565b60185460405163acb7081560e01b81526001600160a01b039091169063acb70815906120ba9084908b90600401615159565b5f604051808303815f87803b1580156120d1575f80fd5b505af11580156120e3573d5f803e3d5ffd5b50505050506120f0613537565b505050505050565b60185460408051631097b93560e31b815290515f926001600160a01b0316916384bdc9a89160048083019260209291908290030181865afa158015611ea5573d5f803e3d5ffd5b82805f0361216057604051631f2a200560e01b815260040160405180910390fd5b335f818152601a6020526040902054869081106121905760405163673f032f60e11b815260040160405180910390fd5b60016001600160a01b0383165f908152601a602052604090208054839081106121bb576121bb615145565b5f918252602090912060039182020154600160a81b900460ff16908111156121e5576121e5614ce8565b1461220357604051631f9c0ddd60e31b815260040160405180910390fd5b61220b613200565b612213613235565b6122203388888888613bbd565b604051868152879033907fe1979fe4c35e0cef342fef5668e2c8e7a7e9f5d5d1ca8fee0ac6c427fa4153af9060200160405180910390a3601854604051630967fa2960e31b81526001600160a01b0390911690634b3fd148906122899089903390600401615159565b5f604051808303815f87803b1580156122a0575f80fd5b505af11580156122b2573d5f803e3d5ffd5b505050506122be613537565b50505050505050565b5f805160206158978339815191526122de81613632565b6109c482351015612302576040516302e2acb160e41b815260040160405180910390fd5b612710826020013510156123295760405163042098af60e51b815260040160405180910390fd5b69021e19e0c9bab24000008260400135111561235857604051633853986560e01b815260040160405180910390fd5b6209e34082606001351015612380576040516305fabb6160e41b815260040160405180910390fd5b60055461238f90614e2061537a565b826080013510156123b3576040516325fef1df60e21b815260040160405180910390fd5b678ac7230489e800008260a0013510156123e05760405163012af53560e21b815260040160405180910390fd5b60646123f260e0840160c085016154a9565b63ffffffff1611806124195750600161241160e0840160c085016154a9565b63ffffffff16105b15612437576040516358d620b360e01b815260040160405180910390fd5b81601061244482826154c4565b50506018546040516326f2299d60e11b81526001600160a01b0390911690634de4533a90612476908590600401615525565b5f604051808303815f87803b15801561248d575f80fd5b505af115801561249f573d5f803e3d5ffd5b50506040805185358152602080870135908201528582013581830152606080870135908201526080808701359082015260a0808701359082015290517fa7ae44879451e09ba11e0d98d0c0793f452b2f39015ab78cc5d0a87da03be5b993509081900360c0019150a15050565b5f8061251661360e565b5f948552602090815260408086206001600160a01b03959095168652939052505090205460ff1690565b81805f0361256157604051631f2a200560e01b815260040160405180910390fd5b612569613200565b612571613235565b61257c848484613e55565b335f908152601a6020526040812080548490811061259c5761259c615145565b5f918252602091829020600390910201546040518681526001600160a01b03918216935090871691859133917f6be62352c9e340a8445fc7d888cc052711d247e9668059bbc2949717ad50ac72910160405180910390a46126086001600160a01b03861633838761340d565b50610f75613537565b6126506040518060e001604052805f81526020015f81526020015f81526020015f81526020015f81526020015f81526020015f63ffffffff1681525090565b506040805160e08101825260105481526011546020820152601254918101919091526013546060820152601454608082015260155460a082015260165463ffffffff1660c082015290565b6002546001600160a01b031633146126c5576040516282b42960e81b815260040160405180910390fd5b5f6126d66060830160408401614d7e565b6001600160a01b0316036126fd576040516342bcdf7f60e11b815260040160405180910390fd5b5f61270e60a0830160808401614d7e565b6001600160a01b031603612735576040516342bcdf7f60e11b815260040160405180910390fd5b5f6127466040830160208401614d7e565b6001600160a01b03160361276d576040516342bcdf7f60e11b815260040160405180910390fd5b3061277b6020830183614d7e565b6001600160a01b0316146127a2576040516342bcdf7f60e11b815260040160405180910390fd5b8060066127af82826156fa565b5050600854600180546001600160a01b039283166001600160a01b0319918216811790925560075460188054919094169116179091556040805163313ce56760e01b815290515f929163313ce5679160048083019260209291908290030181865afa158015612820573d5f803e3d5ffd5b505050506040513d601f19601f8201168201806040525081019061284491906157e4565b905061285181600a615469565b6005819055506040518060e001604052806109c4815260200161ea608152602001686c6b935b8bbd40000081526020016213c6808152602001600554620186a061289b919061537a565b815269043c33c1937564800000602080830191909152600960409283015282516010819055908301516011819055838301516012819055606085015160138190556080860151601481905560a0870151601581905560c0909701516016805463ffffffff191663ffffffff909216918217905560185496516326f2299d60e11b81526004810196909652602486019490945260448501929092526064840152608483015260a482019390935260c48101929092526001600160a01b031690634de4533a9060e4015f604051808303815f87803b158015612979575f80fd5b505af115801561298b573d5f803e3d5ffd5b50506008546040516001600160a01b0390911692507f908408e307fc569b417f6cbec5d5a06f44a0a505ac0479b47d421a4b2fd6a1e691505f90a25050565b5f6110ff838361171a565b6129de82610f7b565b6129e781613632565b610f758383613679565b5f806129fd848461171a565b5095945050505050565b82805f03612a2857604051631f2a200560e01b815260040160405180910390fd5b612a30613200565b612a38613235565b60015460185460405163b3d7f6b960e01b8152600481018790526001600160a01b0392831692909116905f90829063b3d7f6b990602401602060405180830381865afa158015612a8a573d5f803e3d5ffd5b505050506040513d601f19601f82011682018060405250810190612aae919061512e565b9050612ac56001600160a01b03841633308461340d565b612ad96001600160a01b0384168383613474565b6040516394bf804d60e01b81525f906001600160a01b038416906394bf804d90612b09908b903390600401615159565b6020604051808303815f875af1158015612b25573d5f803e3d5ffd5b505050506040513d601f19601f82011682018060405250810190612b49919061512e565b9050612b56818888613547565b60405188815233907fe0db2c42b942601357f9499d6f0520c824b2ce7513135a456b661d1d3e45de5e9060200160405180910390a250505050610f75613537565b6001600160a01b0383165f908152601a6020526040812054849084908110612bd25760405163673f032f60e11b815260040160405180910390fd5b6001600160a01b0386165f908152601b6020908152604080832088845290915281208190612c0090876143b9565b9150915081612c0f575f612c11565b805b98975050505050505050565b5f80612c298484611108565b9050805f03612c3c575f199150506106af565b5f612c47858561171a565b509150506110ff81600554845f6143d0565b82805f03612c7a57604051631f2a200560e01b815260040160405180910390fd5b612c82613200565b612c8a613235565b601854604051635d043b2960e11b81525f916001600160a01b03169063ba08765290612cbe908890339081906004016152c2565b6020604051808303815f875af1158015612cda573d5f803e3d5ffd5b505050506040513d601f19601f82011682018060405250810190612cfe919061512e565b9050612d0b818585613547565b604080518681526020810183905233917fef7fb21fed1701a6c82b78d78bad1ddab67e41025c2d5078a1be2a3a238b4e629101611709565b6017546040516355c77f3760e11b81525f9184916001600160a01b039091169063ab8efe6e90612d77908490600401614bbb565b602060405180830381865afa158015612d92573d5f803e3d5ffd5b505050506040513d601f19601f82011682018060405250810190612db691906157fd565b612dd35760405163665c1c5760e01b815260040160405180910390fd5b612ddb613200565b612de3613235565b335f908152601a60205260409020546103e811612e13576040516302387f5360e11b815260040160405180910390fd5b335f818152601a6020908152604082208054600181810180845592855292842094909352600390920290920191612e4991615184565b6003549093505f90612e63906001600160a01b0316614412565b90506001600160a01b038116612e8c576040516304ddc24d60e01b815260040160405180910390fd5b806001600160a01b03163b5f03612eb6576040516304ddc24d60e01b815260040160405180910390fd5b60405163485cc95560e01b81523060048201523360248201526001600160a01b0382169063485cc955906044015f604051808303815f87803b158015612efa575f80fd5b505af1158015612f0c573d5f803e3d5ffd5b50508354871515600160a01b026001600160a81b03199091166001600160a01b03851617178085556001925084915060ff60a81b1916600160a81b8302179055508415612fa157335f908152601b60209081526040808320601a9092528220548290612f7a90600190615184565b81526020019081526020015f209050612f9e875f8361441d9092919063ffffffff16565b50505b83336001600160a01b03167f019b61d9140f8784f4eed1e66569335630452af2d974ceb13d3e706c0786729683604051612fdb9190614bbb565b60405180910390a36040518515158152849033907fd7083568ad47cc260754edeb42d17e861b7cc984c72785bfdbf79207df2b89f29060200160405180910390a35050613026613537565b5092915050565b613035613200565b61303d613235565b335f908152601a6020526040812080548690811061305d5761305d615145565b905f5260205f20906003020190505f613079868684878761325b565b9050801561311657600154613099906001600160a01b031633308461340d565b6018546001546130b6916001600160a01b03918216911683613474565b60185460405163acb7081560e01b81526001600160a01b039091169063acb70815906130e89084903390600401615159565b5f604051808303815f87803b1580156130ff575f80fd5b505af1158015613111573d5f803e3d5ffd5b505050505b5050610f75613537565b5f807ff0c57e16840df040f15088dc2f81fe391c3923bec73e23a9662efc9c229c6a006106af565b613150614432565b565b61315a614432565b613150614457565b5f8061316c61360e565b9050613178848461250c565b6131f7575f848152602082815260408083206001600160a01b03871684529091529020805460ff191660011790556131ad3390565b6001600160a01b0316836001600160a01b0316857f2f8788117e7eff1d82e926ec794901d17c78024a50270940304540a733656f0d60405160405180910390a460019150506106af565b5f9150506106af565b5f61320961445f565b80549091506001190161322f57604051633ee5aeb560e01b815260040160405180910390fd5b60029055565b61323d611951565b156131505760405163d93c066560e01b815260040160405180910390fd5b335f818152601a60205260408120549091908790811061328e5760405163673f032f60e11b815260040160405180910390fd5b60016001600160a01b0383165f908152601a602052604090208054839081106132b9576132b9615145565b5f918252602090912060039182020154600160a81b900460ff16908111156132e3576132e3614ce8565b1461330157604051631f9c0ddd60e31b815260040160405180910390fd5b86805f0361332257604051631f2a200560e01b815260040160405180910390fd5b60018701548015613400575f613338338c611108565b90505f6133458383615184565b90508015613395578060045f82825461335e91906152af565b909155505060018a018290554260028b01556040518181528c9033905f805160206158f78339815191529060200160405180910390a35b6133a0828a8a613547565b818b116133ad578a6133af565b815b96506133bb8783615184565b60018b01554260028b01556040518781528c9033907f77c6871227e5d2dec8dadd5354f78453203e22e669cd0ec4c19d9a8c5edb31d09060200160405180910390a350505b5050505095945050505050565b6040516001600160a01b038481166024830152838116604483015260648201839052610f759186918216906323b872dd906084015b604051602081830303815290604052915060e01b6020820180516001600160e01b038381831617835250505050614483565b5f836001600160a01b031663095ea7b38484604051602401613497929190615197565b604051602081830303815290604052915060e01b6020820180516001600160e01b03838183161783525050505090506134d084826144ef565b610f75576134fa84856001600160a01b031663095ea7b3865f604051602401613442929190615197565b610f758482614483565b5f6106af82614534565b5f80808061351c868661453e565b909450925050505b9250929050565b61353481614567565b50565b5f61354061445f565b6001905550565b82805f0361356857604051631f2a200560e01b815260040160405180910390fd5b82805f0361358957604051631f2a200560e01b815260040160405180910390fd5b8263ffffffff16805f036135b057604051631f2a200560e01b815260040160405180910390fd5b5f8587116135c7576135c28787615184565b6135d1565b6135d18688615184565b90506135e363ffffffff86168761537a565b6135ef8261271061537a565b11156122be57604051636ea5a3df60e01b815260040160405180910390fd5b7f02dd7bc7dec4dceedda775e58dd541e08a116c6c53815c0bd028192f7b62680090565b61353481336145b4565b60605f613648836145df565b9392505050565b5f835f0361365e57505f613648565b6136718461366b856145ea565b84614641565b949350505050565b5f8061368361360e565b905061368f848461250c565b156131f7575f848152602082815260408083206001600160a01b0387168085529252808320805460ff1916905551339287917ff6391f5c32d9c69d2a47ea670b442974b53935d1edc7fd64eb21e047a839171b9190a460019150506106af565b5f805f6136fc8686614655565b91509150815f036137205783818161371657613716615818565b0492505050613648565b818411613737576137376003851502601118614671565b5f848688095f868103871696879004966002600389028118808a02820302808a02820302808a02820302808a02820302808a02820302808a02909103029181900381900460010185841190960395909502919093039390930492909217029150509392505050565b335f908152601b60209081526040808320848452909152812090806137c483876143b9565b915091508115806137d457508481105b156137f25760405163fe382aa760e01b815260040160405180910390fd5b5f6137fd8683615184565b9050801580156138445750335f908152601a6020526040902080548690811061382857613828615145565b5f918252602090912060039091020154600160a01b900460ff16155b15613859576138538488614682565b50613866565b61386484888361441d565b505b6001600160a01b0387165f90815260196020526040812054613889908890615184565b604080516060810182528281526017549151637d39d74b60e01b81529293509160208301916001600160a01b031690637d39d74b906138ce908d908790600401615197565b6020604051808303815f875af11580156138ea573d5f803e3d5ffd5b505050506040513d601f19601f8201168201806040525081019061390e919061512e565b8152426020918201526001600160a01b038a165f9081526019825260408082208451815584840151600182015593810151600290940193909355338152601a9091522080548790811061396357613963615145565b905f5260205f2090600302016001015461397d33886129f1565b101561399c57604051633ca95b3d60e21b815260040160405180910390fd5b876001600160a01b03165f805160206158d7833981519152826040516139c491815260200190565b60405180910390a25050505050505050565b6001600160a01b0384165f908152601a60205260408120805482919086908110613a0257613a02615145565b5f91825260208220600390910201805460018201549193506001600160a01b031691908015613a9657613a358989611108565b91505f613a428284615184565b90508015613a94578060045f828254613a5b91906152af565b909155505042600286015560405181815289906001600160a01b038c16905f805160206158f78339815191529060200160405180910390a35b505b5f613aa18a8a611979565b90505f613ab284836005545f6143d0565b9050613abe81856152af565b9650613acb878a8a613547565b5f60018701819055865460ff60a81b1916600160a91b178755613aee8c8c611096565b604051630787aa1b60e11b81529091506001600160a01b03871690630f0f543690613b1f908490339060040161582c565b5f604051808303815f87803b158015613b36575f80fd5b505af1158015613b48573d5f803e3d5ffd5b5050506001600160a01b038d165f908152601b602090815260408083208f84529091529020613b77915061352b565b60405133908c906001600160a01b038f16907f0c210dbb07f7aab03c41ec07f0da12daaa276057060fdded4ad506ce2d503595905f90a450505050505050949350505050565b6001600160a01b0385165f908152601a60205260408120805486908110613be657613be6615145565b905f5260205f20906003020190505f805f601a5f8a6001600160a01b03166001600160a01b031681526020019081526020015f208881548110613c2b57613c2b615145565b905f5260205f2090600302016001015490505f811115613cb457613c4f8989611108565b9250613c5b8184615184565b91508115613cb4578160045f828254613c7491906152af565b90915550506001840183905542600285015560405182815288906001600160a01b038b16905f805160206158f78339815191529060200160405180910390a35b6018546040805163020a17bd60e61b815290515f926001600160a01b031691638285ef409160048083019260209291908290030181865afa158015613cfb573d5f803e3d5ffd5b505050506040513d601f19601f82011682018060405250810190613d1f919061512e565b60185f9054906101000a90046001600160a01b03166001600160a01b03166301e1d1146040518163ffffffff1660e01b8152600401602060405180830381865afa158015613d6f573d5f803e3d5ffd5b505050506040513d601f19601f82011682018060405250810190613d93919061512e565b613d9d9190615184565b905080613daa89856152af565b1115613dc9576040516343c7ad8160e11b815260040160405180910390fd5b8454600160a01b900460ff1615613dee57613dee8a8a613de98b886152af565b614696565b5f613df98b8b6129f1565b9050613e06818989613547565b80613e118a876152af565b1115613e3057604051633ca95b3d60e21b815260040160405180910390fd5b613e3a89866152af565b60018701555050426002909401939093555050505050505050565b6017546040516355c77f3760e11b815284916001600160a01b03169063ab8efe6e90613e85908490600401614bbb565b602060405180830381865afa158015613ea0573d5f803e3d5ffd5b505050506040513d601f19601f82011682018060405250810190613ec491906157fd565b613ee15760405163665c1c5760e01b815260040160405180910390fd5b335f818152601a602052604090205483908110613f115760405163673f032f60e11b815260040160405180910390fd5b60016001600160a01b0383165f908152601a60205260409020805483908110613f3c57613f3c615145565b5f918252602090912060039182020154600160a81b900460ff1690811115613f6657613f66614ce8565b14613f8457604051631f9c0ddd60e31b815260040160405180910390fd5b6001600160a01b038681165f81815260196020908152604080832054338452601b83528184208a85529092529182902060175492516246be7d60e61b81526004810194909452602484018a905260448401829052909390929116906311af9f4090606401602060405180830381865afa158015614003573d5f803e3d5ffd5b505050506040513d601f19601f8201168201806040525081019061402791906157fd565b15614045576040516312aad46760e21b815260040160405180910390fd5b60175460405163221c83d960e11b81526003916001600160a01b03169063443907b290614076908c90600401614bbb565b602060405180830381865afa158015614091573d5f803e3d5ffd5b505050506040513d601f19601f820116820180604052508101906140b591906151b0565b60038111156140c6576140c6614ce8565b14801561410a5750335f908152601a602052604090208054879081106140ee576140ee615145565b5f918252602090912060039091020154600160a01b900460ff16155b156141285760405163c600426b60e01b815260040160405180910390fd5b335f908152601a6020526040902080548790811061414857614148615145565b5f918252602090912060039091020154600160a01b900460ff16801561417557505f61417382613504565b115b156141bc575f614185828261350e565b509050806001600160a01b0316896001600160a01b0316146141ba576040516305acd33b60e11b815260040160405180910390fd5b505b5f806141c8838b6143b9565b91509150811580156141e3575060146141e084613504565b10155b156142015760405163b153e91160e01b815260040160405180910390fd5b5f8261420d5789614217565b6142178a836152af565b6017546040516359aa38dd60e01b81529192506001600160a01b0316906359aa38dd9061424a908e908590600401615197565b602060405180830381865afa158015614265573d5f803e3d5ffd5b505050506040513d601f19601f8201168201806040525081019061428991906157fd565b156142a75760405163733653fd60e01b815260040160405180910390fd5b6142b2848c8361441d565b505f6142be8b876152af565b9050604051806060016040528082815260200160175f9054906101000a90046001600160a01b03166001600160a01b0316637d39d74b8f856040518363ffffffff1660e01b8152600401614313929190615197565b6020604051808303815f875af115801561432f573d5f803e3d5ffd5b505050506040513d601f19601f82011682018060405250810190614353919061512e565b8152426020918201526001600160a01b038e165f81815260198352604090819020845181558484015160018201559381015160029094019390935591518381525f805160206158d7833981519152910160405180910390a2505050505050505050505050565b5f80808061351c866001600160a01b038716614761565b5f6143fd6143dd836147a1565b80156143f857505f84806143f3576143f3615818565b868809115b151590565b6144088686866136ef565b6110ff91906152af565b5f6106af825f6147cd565b5f613671846001600160a01b03851684614861565b61443a61487d565b61315057604051631afcd79f60e31b815260040160405180910390fd5b613537614432565b7f9b779b17422d0df92223018b32b4d1fa46e071723d6817e2486d003becc55f0090565b5f8060205f8451602086015f885af1806144a2576040513d5f823e3d81fd5b50505f513d915081156144b95780600114156144c6565b6001600160a01b0384163b155b15610f755783604051635274afe760e01b81526004016144e69190614bbb565b60405180910390fd5b5f805f8060205f8651602088015f8a5af192503d91505f519050828015611a2f575081156145205780600114611a2f565b50505050506001600160a01b03163b151590565b5f6106af82614896565b5f808061454b858561489f565b5f81815260029690960160205260409095205494959350505050565b5f61457182614534565b90505f5b818110156145a657600283015f61458c858461489f565b815260208101919091526040015f90812055600101614575565b506145b0826148aa565b5050565b6145be828261250c565b6145b057808260405163e2517d3f60e01b81526004016144e6929190615197565b60606106af826148b3565b5f8061460683676765c793fa10079d601b1b620f42405f6143d0565b905061462c81676765c793fa10079d601b1b614626816301e1338061537a565b5f6143d0565b61364890676765c793fa10079d601b1b6152af565b5f6136718461465085856148bf565b614916565b5f805f1983850993909202808410938190039390930393915050565b634e487b715f52806020526024601cfd5b5f613648836001600160a01b03841661492f565b6001600160a01b0383165f908152601b6020908152604080832085845290915281206146c2908261350e565b50601754604051638fde887960e01b81529192505f916001600160a01b0390911690638fde8879906146f8908590600401614bbb565b602060405180830381865afa158015614713573d5f803e3d5ffd5b505050506040513d601f19601f82011682018060405250810190614737919061512e565b90508083111561475a576040516358440d4760e11b815260040160405180910390fd5b5050505050565b5f81815260028301602052604081205481908061478e57614782858561494b565b92505f91506135249050565b600192509050613524565b509250929050565b5f60028260038111156147b6576147b6614ce8565b6147c09190615855565b60ff166001149050919050565b5f814710156147f85760405163cf47918160e01b8152476004820152602481018390526044016144e6565b763d602d80600a3d3981f3363d3d373d3d3d363d730000008360601b60e81c175f526e5af43d82803e903d91602b57fd5bf38360781b176020526037600983f090506001600160a01b0381166106af5760405163b06ebf3d60e01b815260040160405180910390fd5b5f82815260028401602052604081208290556136718484614956565b5f614886613120565b54600160401b900460ff16919050565b5f6106af825490565b5f6136488383614961565b61353481614987565b60605f613648836149e0565b676765c793fa10079d601b1b81156106af57816001036148e05750816106af565b81156106af57816001166001036148fe576148fb8184614916565b90505b6149088384614916565b9250600182901c91506148e0565b5f6136488383676765c793fa10079d601b1b60016143d0565b5f81815260028301602052604081208190556136488383614a39565b5f6136488383614a44565b5f6136488383614a4f565b5f825f01828154811061497657614976615145565b905f5260205f200154905092915050565b5f614990825490565b90505f5b818110156149d957826001015f845f0183815481106149b5576149b5615145565b905f5260205f20015481526020019081526020015f205f9055806001019050614994565b50505f9055565b6060815f01805480602002602001604051908101604052809291908181526020018280548015614a2d57602002820191905f5260205f20905b815481526020019060010190808311614a19575b50505050509050919050565b5f6136488383614a96565b5f6136488383614b70565b5f614a5a8383614b70565b614a8f57508154600181810184555f8481526020808220909301849055845484825282860190935260409020919091556106af565b505f6106af565b5f81815260018301602052604081205480156131f7575f614ab8600183615184565b85549091505f90614acb90600190615184565b9050808214614b2a575f865f018281548110614ae957614ae9615145565b905f5260205f200154905080875f018481548110614b0957614b09615145565b5f918252602080832090910192909255918252600188019052604090208390555b8554869080614b3b57614b3b615882565b600190038181905f5260205f20015f90559055856001015f8681526020019081526020015f205f9055600193505050506106af565b5f9081526001919091016020526040902054151590565b5f60208284031215614b97575f80fd5b81356001600160e01b031981168114613648575f80fd5b6001600160a01b03169052565b6001600160a01b0391909116815260200190565b60048110613534575f80fd5b5f60208284031215614beb575f80fd5b813561364881614bcf565b6001600160a01b0381168114613534575f80fd5b5f805f805f60a08688031215614c1e575f80fd5b8535614c2981614bf6565b94506020860135614c3981614bf6565b93506040860135614c4981614bf6565b92506060860135614c5981614bf6565b91506080860135614c6981614bf6565b809150509295509295909350565b63ffffffff81168114613534575f80fd5b5f805f60608486031215614c9a575f80fd5b83359250602084013591506040840135614cb381614c77565b809150509250925092565b5f8060408385031215614ccf575f80fd5b8235614cda81614bf6565b946020939093013593505050565b634e487b7160e01b5f52602160045260245ffd5b6004811061353457634e487b7160e01b5f52602160045260245ffd5b80516001600160a01b031682526020808201511515908301526040810151614d3f81614cfc565b604083015260608181015190830152608090810151910152565b60a081016106af8284614d18565b5f60208284031215614d77575f80fd5b5035919050565b5f60208284031215614d8e575f80fd5b813561364881614bf6565b602080825282518282018190525f9190848201906040850190845b81811015614dda57614dc7838551614d18565b9284019260a09290920191600101614db4565b50909695505050505050565b5f8060408385031215614df7575f80fd5b823591506020830135614e0981614bf6565b809150509250929050565b5f815180845260208085019450602084015f5b83811015614e4c5781516001600160a01b031687529582019590820190600101614e27565b509495945050505050565b602081525f6136486020830184614e14565b60208101614e7683614cfc565b91905290565b5f805f805f60a08688031215614e90575f80fd5b8535614e9b81614bf6565b94506020860135935060408601359250606086013591506080860135614c6981614c77565b5f81518084525f5b81811015614ee457602081850181015186830182015201614ec8565b505f602082860101526020601f19601f83011685010191505092915050565b60208152614f15602082018351614bae565b5f6020830151614f286040840182614bae565b506040830151614f3b6060840182614bae565b506060830151614f4e6080840182614bae565b506080830151614f6160a0840182614bae565b5060a083015160c083015260c08301516101408060e0850152614f88610160850183614ec0565b915060e0850151610100601f198685030181870152614fa78483614ec0565b90870151610120878101919091529096015115159190940152509192915050565b5f805f8060808587031215614fdb575f80fd5b8435614fe681614bf6565b93506020850135925060408501359150606085013561500481614c77565b939692955090935050565b5f805f8060808587031215615022575f80fd5b843593506020850135925060408501359150606085013561500481614c77565b5f60e08284031215615052575f80fd5b50919050565b5f805f6060848603121561506a575f80fd5b833561507581614bf6565b95602085013595506040909401359392505050565b5f6020828403121561509a575f80fd5b81356001600160401b038111156150af575f80fd5b82016101408185031215613648575f80fd5b5f805f606084860312156150d3575f80fd5b83356150de81614bf6565b9250602084013591506040840135614cb381614bf6565b8015158114613534575f80fd5b5f8060408385031215615113575f80fd5b823561511e81614bf6565b91506020830135614e09816150f5565b5f6020828403121561513e575f80fd5b5051919050565b634e487b7160e01b5f52603260045260245ffd5b9182526001600160a01b0316602082015260400190565b634e487b7160e01b5f52601160045260245ffd5b818103818111156106af576106af615170565b6001600160a01b03929092168252602082015260400190565b5f602082840312156151c0575f80fd5b815161364881614bcf565b634e487b7160e01b5f52604160045260245ffd5b604051601f8201601f191681016001600160401b0381118282101715615207576152076151cb565b604052919050565b5f6020808385031215615220575f80fd5b82516001600160401b0380821115615236575f80fd5b818501915085601f830112615249575f80fd5b81518181111561525b5761525b6151cb565b8060051b915061526c8483016151df565b8181529183018401918481019088841115615285575f80fd5b938501935b83851015612c11578451925061529f83614bf6565b828252938501939085019061528a565b808201808211156106af576106af615170565b9283526001600160a01b03918216602084015216604082015260600190565b805161ffff811681146152f2575f80fd5b919050565b805160ff811681146152f2575f80fd5b5f60808284031215615317575f80fd5b604051608081016001600160401b0381118282101715615339576153396151cb565b6040528251815261534c602084016152e1565b602082015261535d604084016152e1565b604082015261536e606084016152f7565b60608201529392505050565b80820281158282048414176106af576106af615170565b600181815b8085111561479957815f19048211156153b1576153b1615170565b808516156153be57918102915b93841c9390800290615396565b5f826153d9575060016106af565b816153e557505f6106af565b81600181146153fb576002811461540557615421565b60019150506106af565b60ff84111561541657615416615170565b50506001821b6106af565b5060208310610133831016604e8410600b8410161715615444575081810a6106af565b61544e8383615391565b805f190482111561546157615461615170565b029392505050565b5f61364860ff8416836153cb565b600181811c9082168061548b57607f821691505b60208210810361505257634e487b7160e01b5f52602260045260245ffd5b5f602082840312156154b9575f80fd5b813561364881614c77565b813581556020820135600182015560408201356002820155606082013560038201556080820135600482015560a082013560058201556006810160c083013561550c81614c77565b815463ffffffff191663ffffffff919091161790555050565b5f60e082019050823582526020830135602083015260408301356040830152606083013560608301526080830135608083015260a083013560a083015260c083013561557081614c77565b63ffffffff811660c08401525092915050565b5f81356106af81614bf6565b80546001600160a01b0319166001600160a01b0392909216919091179055565b5f808335601e198436030181126155c4575f80fd5b8301803591506001600160401b038211156155dd575f80fd5b602001915036819003821315613524575f80fd5b601f821115610d2a57805f5260205f20601f840160051c810160208510156156165750805b601f840160051c820191505b8181101561475a575f8155600101615622565b6001600160401b0383111561564c5761564c6151cb565b6156608361565a8354615477565b836155f1565b5f601f841160018114615691575f851561567a5750838201355b5f19600387901b1c1916600186901b17835561475a565b5f83815260208120601f198716915b828110156156c057868501358255602094850194600190920191016156a0565b50868210156156dc575f1960f88860031b161c19848701351681555b505060018560011b0183555050505050565b5f81356106af816150f5565b61570c61570683615583565b8261558f565b61572461571b60208401615583565b6001830161558f565b61573c61573360408401615583565b6002830161558f565b61575461574b60608401615583565b6003830161558f565b61576c61576360808401615583565b6004830161558f565b60a0820135600582015561578360c08301836155af565b615791818360068601615635565b50506157a060e08301836155af565b6157ae818360078601615635565b505061010082013560088201556145b06157cb61012084016156ee565b6009830160ff1981541660ff8315151681178255505050565b5f602082840312156157f4575f80fd5b613648826152f7565b5f6020828403121561580d575f80fd5b8151613648816150f5565b634e487b7160e01b5f52601260045260245ffd5b604081525f61583e6040830185614e14565b905060018060a01b03831660208301529392505050565b5f60ff83168061587357634e487b7160e01b5f52601260045260245ffd5b8060ff84160691505092915050565b634e487b7160e01b5f52603160045260245ffdfe241ecf16d79d0f8dbfb92cbc07fe17840425976cf0667f022fe9877caa831b0865d7a28e3265b37a6474929f336521b332c1681b933f6cb9f3376673440d862ac6743b4453831b48feff7d4487dc4703aaa40a48290051fd73e241982dab04f24557e05caeefc19fe1b4badbbd2996f86791aa6e830e224dc79c20725c38b9c1b062b19f44a2b02f378c97416f19092b29ea5fca12ef360406fbfbd2b278e203a2646970667358221220de0cbabe1833ee51329d2a7304e9ccd30c27c90b545df32d64beacb7fb6c4d1b64736f6c63430008170033","linkReferences":{}},"methodIdentifiers":{"DEFAULT_ADMIN_ROLE()":"a217fddf","baseAsset()":"cdf456e1","baseDecimals()":"33f76178","borrow(uint256,uint256,uint256,uint32)":"8f805fa0","cVault()":"eebfe9e2","calculateCollateralValue(address,uint256)":"ca948e74","calculateCreditLimit(address,uint256)":"d60bfcb4","calculateDebtWithInterest(address,uint256)":"34e2cd0f","calculateLimits(address,uint256)":"4e90c84c","createPosition(address,bool)":"f4097b43","depositLiquidity(uint256,uint256,uint32)":"1e1cb27f","exitPosition(uint256,uint256,uint32)":"1777d0e9","getAssetTVL(address)":"70674459","getBorrowRate(uint8)":"0ac40e96","getCollateralAmount(address,uint256,address)":"e293b6c3","getConfig()":"c3f909d4","getMainConfig()":"cc91495f","getPositionCollateralAssets(address,uint256)":"30306e4b","getPositionLiquidationFee(address,uint256)":"68099d8c","getPositionTier(address,uint256)":"3f609131","getRoleAdmin(bytes32)":"248a9ca3","getSupplyRate()":"84bdc9a8","getUserPosition(address,uint256)":"1c88ef1e","getUserPositions(address)":"2a6bc2dd","getUserPositionsCount(address)":"65939ebc","govToken()":"05268cff","grantRole(bytes32,address)":"2f2ff15d","hasRole(bytes32,address)":"91d14854","healthFactor(address,uint256)":"e2eb67f0","initialize(address,address,address,address,address)":"1459457a","initializeMarket((address,address,address,address,address,uint256,string,string,uint256,bool))":"c6628810","isCollateralized()":"49e3284e","isLiquidatable(address,uint256)":"3fdfb2aa","liquidate(address,uint256,uint256,uint32)":"849f896e","loadProtocolConfig((uint256,uint256,uint256,uint256,uint256,uint256,uint32))":"908d18a0","market()":"80f55605","marketFactory()":"06ae7095","mintShares(uint256,uint256,uint32)":"da64b4a5","paused()":"5c975abb","redeemLiquidityShares(uint256,uint256,uint32)":"f36cc7c6","renounceRole(bytes32,address)":"36568abe","repay(uint256,uint256,uint256,uint32)":"f4813b6f","revokeRole(bytes32,address)":"d547741f","supplyCollateral(address,uint256,uint256)":"b7575f2f","supportsInterface(bytes4)":"01ffc9a7","totalAccruedBorrowerInterest()":"6188a5c9","totalBorrow()":"8285ef40","withdrawCollateral(address,uint256,uint256,uint256,uint32)":"741e147a","withdrawLiquidity(uint256,uint256,uint32)":"4a485693"},"storageLayout":{"storage":[{"astId":14998,"contract":"contracts/markets/LendefiCore.sol:LendefiCore","label":"govToken","offset":0,"slot":"0","type":"t_address"},{"astId":15001,"contract":"contracts/markets/LendefiCore.sol:LendefiCore","label":"baseAsset","offset":0,"slot":"1","type":"t_address"},{"astId":15004,"contract":"contracts/markets/LendefiCore.sol:LendefiCore","label":"marketFactory","offset":0,"slot":"2","type":"t_address"},{"astId":15007,"contract":"contracts/markets/LendefiCore.sol:LendefiCore","label":"cVault","offset":0,"slot":"3","type":"t_address"},{"astId":15010,"contract":"contracts/markets/LendefiCore.sol:LendefiCore","label":"totalAccruedBorrowerInterest","offset":0,"slot":"4","type":"t_uint256"},{"astId":15013,"contract":"contracts/markets/LendefiCore.sol:LendefiCore","label":"baseDecimals","offset":0,"slot":"5","type":"t_uint256"},{"astId":15017,"contract":"contracts/markets/LendefiCore.sol:LendefiCore","label":"marketInfo","offset":0,"slot":"6","type":"t_struct(Market)10357_storage"},{"astId":15021,"contract":"contracts/markets/LendefiCore.sol:LendefiCore","label":"mainConfig","offset":0,"slot":"16","type":"t_struct(ProtocolConfig)10278_storage"},{"astId":15025,"contract":"contracts/markets/LendefiCore.sol:LendefiCore","label":"assetsModule","offset":0,"slot":"23","type":"t_contract(IASSETS)7717"},{"astId":15029,"contract":"contracts/markets/LendefiCore.sol:LendefiCore","label":"baseVault","offset":0,"slot":"24","type":"t_contract(ILendefiMarketVault)9978"},{"astId":15035,"contract":"contracts/markets/LendefiCore.sol:LendefiCore","label":"assetTVL","offset":0,"slot":"25","type":"t_mapping(t_address,t_struct(AssetTracking)10365_storage)"},{"astId":15042,"contract":"contracts/markets/LendefiCore.sol:LendefiCore","label":"positions","offset":0,"slot":"26","type":"t_mapping(t_address,t_array(t_struct(UserPosition)10291_storage)dyn_storage)"},{"astId":15050,"contract":"contracts/markets/LendefiCore.sol:LendefiCore","label":"positionCollateral","offset":0,"slot":"27","type":"t_mapping(t_address,t_mapping(t_uint256,t_struct(AddressToUintMap)71890_storage))"},{"astId":15055,"contract":"contracts/markets/LendefiCore.sol:LendefiCore","label":"__gap","offset":0,"slot":"28","type":"t_array(t_uint256)10_storage"}],"types":{"t_address":{"encoding":"inplace","label":"address","numberOfBytes":"20"},"t_array(t_bytes32)dyn_storage":{"encoding":"dynamic_array","label":"bytes32[]","numberOfBytes":"32","base":"t_bytes32"},"t_array(t_struct(UserPosition)10291_storage)dyn_storage":{"encoding":"dynamic_array","label":"struct IPROTOCOL.UserPosition[]","numberOfBytes":"32","base":"t_struct(UserPosition)10291_storage"},"t_array(t_uint256)10_storage":{"encoding":"inplace","label":"uint256[10]","numberOfBytes":"320","base":"t_uint256"},"t_bool":{"encoding":"inplace","label":"bool","numberOfBytes":"1"},"t_bytes32":{"encoding":"inplace","label":"bytes32","numberOfBytes":"32"},"t_contract(IASSETS)7717":{"encoding":"inplace","label":"contract IASSETS","numberOfBytes":"20"},"t_contract(ILendefiMarketVault)9978":{"encoding":"inplace","label":"contract ILendefiMarketVault","numberOfBytes":"20"},"t_enum(PositionStatus)10252":{"encoding":"inplace","label":"enum IPROTOCOL.PositionStatus","numberOfBytes":"1"},"t_mapping(t_address,t_array(t_struct(UserPosition)10291_storage)dyn_storage)":{"encoding":"mapping","key":"t_address","label":"mapping(address => struct IPROTOCOL.UserPosition[])","numberOfBytes":"32","value":"t_array(t_struct(UserPosition)10291_storage)dyn_storage"},"t_mapping(t_address,t_mapping(t_uint256,t_struct(AddressToUintMap)71890_storage))":{"encoding":"mapping","key":"t_address","label":"mapping(address => mapping(uint256 => struct EnumerableMap.AddressToUintMap))","numberOfBytes":"32","value":"t_mapping(t_uint256,t_struct(AddressToUintMap)71890_storage)"},"t_mapping(t_address,t_struct(AssetTracking)10365_storage)":{"encoding":"mapping","key":"t_address","label":"mapping(address => struct IPROTOCOL.AssetTracking)","numberOfBytes":"32","value":"t_struct(AssetTracking)10365_storage"},"t_mapping(t_bytes32,t_bytes32)":{"encoding":"mapping","key":"t_bytes32","label":"mapping(bytes32 => bytes32)","numberOfBytes":"32","value":"t_bytes32"},"t_mapping(t_bytes32,t_uint256)":{"encoding":"mapping","key":"t_bytes32","label":"mapping(bytes32 => uint256)","numberOfBytes":"32","value":"t_uint256"},"t_mapping(t_uint256,t_struct(AddressToUintMap)71890_storage)":{"encoding":"mapping","key":"t_uint256","label":"mapping(uint256 => struct EnumerableMap.AddressToUintMap)","numberOfBytes":"32","value":"t_struct(AddressToUintMap)71890_storage"},"t_string_storage":{"encoding":"bytes","label":"string","numberOfBytes":"32"},"t_struct(AddressToUintMap)71890_storage":{"encoding":"inplace","label":"struct EnumerableMap.AddressToUintMap","numberOfBytes":"96","members":[{"astId":71889,"contract":"contracts/markets/LendefiCore.sol:LendefiCore","label":"_inner","offset":0,"slot":"0","type":"t_struct(Bytes32ToBytes32Map)70952_storage"}]},"t_struct(AssetTracking)10365_storage":{"encoding":"inplace","label":"struct IPROTOCOL.AssetTracking","numberOfBytes":"96","members":[{"astId":10360,"contract":"contracts/markets/LendefiCore.sol:LendefiCore","label":"tvl","offset":0,"slot":"0","type":"t_uint256"},{"astId":10362,"contract":"contracts/markets/LendefiCore.sol:LendefiCore","label":"tvlUSD","offset":0,"slot":"1","type":"t_uint256"},{"astId":10364,"contract":"contracts/markets/LendefiCore.sol:LendefiCore","label":"lastUpdate","offset":0,"slot":"2","type":"t_uint256"}]},"t_struct(Bytes32Set)73360_storage":{"encoding":"inplace","label":"struct EnumerableSet.Bytes32Set","numberOfBytes":"64","members":[{"astId":73359,"contract":"contracts/markets/LendefiCore.sol:LendefiCore","label":"_inner","offset":0,"slot":"0","type":"t_struct(Set)73123_storage"}]},"t_struct(Bytes32ToBytes32Map)70952_storage":{"encoding":"inplace","label":"struct EnumerableMap.Bytes32ToBytes32Map","numberOfBytes":"96","members":[{"astId":70947,"contract":"contracts/markets/LendefiCore.sol:LendefiCore","label":"_keys","offset":0,"slot":"0","type":"t_struct(Bytes32Set)73360_storage"},{"astId":70951,"contract":"contracts/markets/LendefiCore.sol:LendefiCore","label":"_values","offset":0,"slot":"2","type":"t_mapping(t_bytes32,t_bytes32)"}]},"t_struct(Market)10357_storage":{"encoding":"inplace","label":"struct IPROTOCOL.Market","numberOfBytes":"320","members":[{"astId":10338,"contract":"contracts/markets/LendefiCore.sol:LendefiCore","label":"core","offset":0,"slot":"0","type":"t_address"},{"astId":10340,"contract":"contracts/markets/LendefiCore.sol:LendefiCore","label":"baseVault","offset":0,"slot":"1","type":"t_address"},{"astId":10342,"contract":"contracts/markets/LendefiCore.sol:LendefiCore","label":"baseAsset","offset":0,"slot":"2","type":"t_address"},{"astId":10344,"contract":"contracts/markets/LendefiCore.sol:LendefiCore","label":"assetsModule","offset":0,"slot":"3","type":"t_address"},{"astId":10346,"contract":"contracts/markets/LendefiCore.sol:LendefiCore","label":"porFeed","offset":0,"slot":"4","type":"t_address"},{"astId":10348,"contract":"contracts/markets/LendefiCore.sol:LendefiCore","label":"decimals","offset":0,"slot":"5","type":"t_uint256"},{"astId":10350,"contract":"contracts/markets/LendefiCore.sol:LendefiCore","label":"name","offset":0,"slot":"6","type":"t_string_storage"},{"astId":10352,"contract":"contracts/markets/LendefiCore.sol:LendefiCore","label":"symbol","offset":0,"slot":"7","type":"t_string_storage"},{"astId":10354,"contract":"contracts/markets/LendefiCore.sol:LendefiCore","label":"createdAt","offset":0,"slot":"8","type":"t_uint256"},{"astId":10356,"contract":"contracts/markets/LendefiCore.sol:LendefiCore","label":"active","offset":0,"slot":"9","type":"t_bool"}]},"t_struct(ProtocolConfig)10278_storage":{"encoding":"inplace","label":"struct IPROTOCOL.ProtocolConfig","numberOfBytes":"224","members":[{"astId":10265,"contract":"contracts/markets/LendefiCore.sol:LendefiCore","label":"profitTargetRate","offset":0,"slot":"0","type":"t_uint256"},{"astId":10267,"contract":"contracts/markets/LendefiCore.sol:LendefiCore","label":"borrowRate","offset":0,"slot":"1","type":"t_uint256"},{"astId":10269,"contract":"contracts/markets/LendefiCore.sol:LendefiCore","label":"rewardAmount","offset":0,"slot":"2","type":"t_uint256"},{"astId":10271,"contract":"contracts/markets/LendefiCore.sol:LendefiCore","label":"rewardInterval","offset":0,"slot":"3","type":"t_uint256"},{"astId":10273,"contract":"contracts/markets/LendefiCore.sol:LendefiCore","label":"rewardableSupply","offset":0,"slot":"4","type":"t_uint256"},{"astId":10275,"contract":"contracts/markets/LendefiCore.sol:LendefiCore","label":"liquidatorThreshold","offset":0,"slot":"5","type":"t_uint256"},{"astId":10277,"contract":"contracts/markets/LendefiCore.sol:LendefiCore","label":"flashLoanFee","offset":0,"slot":"6","type":"t_uint32"}]},"t_struct(Set)73123_storage":{"encoding":"inplace","label":"struct EnumerableSet.Set","numberOfBytes":"64","members":[{"astId":73118,"contract":"contracts/markets/LendefiCore.sol:LendefiCore","label":"_values","offset":0,"slot":"0","type":"t_array(t_bytes32)dyn_storage"},{"astId":73122,"contract":"contracts/markets/LendefiCore.sol:LendefiCore","label":"_positions","offset":0,"slot":"1","type":"t_mapping(t_bytes32,t_uint256)"}]},"t_struct(UserPosition)10291_storage":{"encoding":"inplace","label":"struct IPROTOCOL.UserPosition","numberOfBytes":"96","members":[{"astId":10281,"contract":"contracts/markets/LendefiCore.sol:LendefiCore","label":"vault","offset":0,"slot":"0","type":"t_address"},{"astId":10283,"contract":"contracts/markets/LendefiCore.sol:LendefiCore","label":"isIsolated","offset":20,"slot":"0","type":"t_bool"},{"astId":10286,"contract":"contracts/markets/LendefiCore.sol:LendefiCore","label":"status","offset":21,"slot":"0","type":"t_enum(PositionStatus)10252"},{"astId":10288,"contract":"contracts/markets/LendefiCore.sol:LendefiCore","label":"debtAmount","offset":0,"slot":"1","type":"t_uint256"},{"astId":10290,"contract":"contracts/markets/LendefiCore.sol:LendefiCore","label":"lastInterestAccrual","offset":0,"slot":"2","type":"t_uint256"}]},"t_uint256":{"encoding":"inplace","label":"uint256","numberOfBytes":"32"},"t_uint32":{"encoding":"inplace","label":"uint32","numberOfBytes":"4"}}},"id":33}