{"abi":[{"type":"constructor","inputs":[],"stateMutability":"nonpayable"},{"type":"function","name":"DEFAULT_ADMIN_ROLE","inputs":[],"outputs":[{"name":"","type":"bytes32","internalType":"bytes32"}],"stateMutability":"view"},{"type":"function","name":"baseAsset","inputs":[],"outputs":[{"name":"","type":"address","internalType":"address"}],"stateMutability":"view"},{"type":"function","name":"baseDecimals","inputs":[],"outputs":[{"name":"","type":"uint256","internalType":"uint256"}],"stateMutability":"view"},{"type":"function","name":"borrow","inputs":[{"name":"positionId","type":"uint256","internalType":"uint256"},{"name":"amount","type":"uint256","internalType":"uint256"},{"name":"expectedCreditLimit","type":"uint256","internalType":"uint256"},{"name":"maxSlippageBps","type":"uint32","internalType":"uint32"}],"outputs":[],"stateMutability":"nonpayable"},{"type":"function","name":"cVault","inputs":[],"outputs":[{"name":"","type":"address","internalType":"address"}],"stateMutability":"view"},{"type":"function","name":"calculateCollateralValue","inputs":[{"name":"user","type":"address","internalType":"address"},{"name":"positionId","type":"uint256","internalType":"uint256"}],"outputs":[{"name":"value","type":"uint256","internalType":"uint256"}],"stateMutability":"view"},{"type":"function","name":"calculateCreditLimit","inputs":[{"name":"user","type":"address","internalType":"address"},{"name":"positionId","type":"uint256","internalType":"uint256"}],"outputs":[{"name":"","type":"uint256","internalType":"uint256"}],"stateMutability":"view"},{"type":"function","name":"calculateDebtWithInterest","inputs":[{"name":"user","type":"address","internalType":"address"},{"name":"positionId","type":"uint256","internalType":"uint256"}],"outputs":[{"name":"","type":"uint256","internalType":"uint256"}],"stateMutability":"view"},{"type":"function","name":"calculateLimits","inputs":[{"name":"user","type":"address","internalType":"address"},{"name":"positionId","type":"uint256","internalType":"uint256"}],"outputs":[{"name":"credit","type":"uint256","internalType":"uint256"},{"name":"liqLevel","type":"uint256","internalType":"uint256"},{"name":"value","type":"uint256","internalType":"uint256"}],"stateMutability":"view"},{"type":"function","name":"createPosition","inputs":[{"name":"asset","type":"address","internalType":"address"},{"name":"isIsolated","type":"bool","internalType":"bool"}],"outputs":[{"name":"positionId","type":"uint256","internalType":"uint256"}],"stateMutability":"nonpayable"},{"type":"function","name":"depositLiquidity","inputs":[{"name":"amount","type":"uint256","internalType":"uint256"},{"name":"expectedShares","type":"uint256","internalType":"uint256"},{"name":"maxSlippageBps","type":"uint32","internalType":"uint32"}],"outputs":[],"stateMutability":"nonpayable"},{"type":"function","name":"exitPosition","inputs":[{"name":"positionId","type":"uint256","internalType":"uint256"},{"name":"expectedDebt","type":"uint256","internalType":"uint256"},{"name":"maxSlippageBps","type":"uint32","internalType":"uint32"}],"outputs":[],"stateMutability":"nonpayable"},{"type":"function","name":"getAssetTVL","inputs":[{"name":"asset","type":"address","internalType":"address"}],"outputs":[{"name":"tvl","type":"uint256","internalType":"uint256"},{"name":"tvlUSD","type":"uint256","internalType":"uint256"},{"name":"lastUpdate","type":"uint256","internalType":"uint256"}],"stateMutability":"view"},{"type":"function","name":"getBorrowRate","inputs":[{"name":"tier","type":"uint8","internalType":"enum IASSETS.CollateralTier"}],"outputs":[{"name":"","type":"uint256","internalType":"uint256"}],"stateMutability":"view"},{"type":"function","name":"getCollateralAmount","inputs":[{"name":"user","type":"address","internalType":"address"},{"name":"positionId","type":"uint256","internalType":"uint256"},{"name":"asset","type":"address","internalType":"address"}],"outputs":[{"name":"","type":"uint256","internalType":"uint256"}],"stateMutability":"view"},{"type":"function","name":"getConfig","inputs":[],"outputs":[{"name":"","type":"tuple","internalType":"struct IPROTOCOL.ProtocolConfig","components":[{"name":"profitTargetRate","type":"uint256","internalType":"uint256"},{"name":"borrowRate","type":"uint256","internalType":"uint256"},{"name":"rewardAmount","type":"uint256","internalType":"uint256"},{"name":"rewardInterval","type":"uint256","internalType":"uint256"},{"name":"rewardableSupply","type":"uint256","internalType":"uint256"},{"name":"liquidatorThreshold","type":"uint256","internalType":"uint256"},{"name":"flashLoanFee","type":"uint32","internalType":"uint32"}]}],"stateMutability":"view"},{"type":"function","name":"getMainConfig","inputs":[],"outputs":[{"name":"","type":"tuple","internalType":"struct IPROTOCOL.ProtocolConfig","components":[{"name":"profitTargetRate","type":"uint256","internalType":"uint256"},{"name":"borrowRate","type":"uint256","internalType":"uint256"},{"name":"rewardAmount","type":"uint256","internalType":"uint256"},{"name":"rewardInterval","type":"uint256","internalType":"uint256"},{"name":"rewardableSupply","type":"uint256","internalType":"uint256"},{"name":"liquidatorThreshold","type":"uint256","internalType":"uint256"},{"name":"flashLoanFee","type":"uint32","internalType":"uint32"}]}],"stateMutability":"view"},{"type":"function","name":"getPositionCollateralAssets","inputs":[{"name":"user","type":"address","internalType":"address"},{"name":"positionId","type":"uint256","internalType":"uint256"}],"outputs":[{"name":"","type":"address[]","internalType":"address[]"}],"stateMutability":"view"},{"type":"function","name":"getPositionLiquidationFee","inputs":[{"name":"user","type":"address","internalType":"address"},{"name":"positionId","type":"uint256","internalType":"uint256"}],"outputs":[{"name":"","type":"uint256","internalType":"uint256"}],"stateMutability":"view"},{"type":"function","name":"getPositionTier","inputs":[{"name":"user","type":"address","internalType":"address"},{"name":"positionId","type":"uint256","internalType":"uint256"}],"outputs":[{"name":"tier","type":"uint8","internalType":"enum IASSETS.CollateralTier"}],"stateMutability":"view"},{"type":"function","name":"getRoleAdmin","inputs":[{"name":"role","type":"bytes32","internalType":"bytes32"}],"outputs":[{"name":"","type":"bytes32","internalType":"bytes32"}],"stateMutability":"view"},{"type":"function","name":"getSupplyRate","inputs":[],"outputs":[{"name":"","type":"uint256","internalType":"uint256"}],"stateMutability":"view"},{"type":"function","name":"getUserPosition","inputs":[{"name":"user","type":"address","internalType":"address"},{"name":"positionId","type":"uint256","internalType":"uint256"}],"outputs":[{"name":"","type":"tuple","internalType":"struct IPROTOCOL.UserPosition","components":[{"name":"vault","type":"address","internalType":"address"},{"name":"isIsolated","type":"bool","internalType":"bool"},{"name":"status","type":"uint8","internalType":"enum IPROTOCOL.PositionStatus"},{"name":"debtAmount","type":"uint256","internalType":"uint256"},{"name":"lastInterestAccrual","type":"uint256","internalType":"uint256"}]}],"stateMutability":"view"},{"type":"function","name":"getUserPositions","inputs":[{"name":"user","type":"address","internalType":"address"}],"outputs":[{"name":"","type":"tuple[]","internalType":"struct IPROTOCOL.UserPosition[]","components":[{"name":"vault","type":"address","internalType":"address"},{"name":"isIsolated","type":"bool","internalType":"bool"},{"name":"status","type":"uint8","internalType":"enum IPROTOCOL.PositionStatus"},{"name":"debtAmount","type":"uint256","internalType":"uint256"},{"name":"lastInterestAccrual","type":"uint256","internalType":"uint256"}]}],"stateMutability":"view"},{"type":"function","name":"getUserPositionsCount","inputs":[{"name":"user","type":"address","internalType":"address"}],"outputs":[{"name":"","type":"uint256","internalType":"uint256"}],"stateMutability":"view"},{"type":"function","name":"govToken","inputs":[],"outputs":[{"name":"","type":"address","internalType":"address"}],"stateMutability":"view"},{"type":"function","name":"grantRole","inputs":[{"name":"role","type":"bytes32","internalType":"bytes32"},{"name":"account","type":"address","internalType":"address"}],"outputs":[],"stateMutability":"nonpayable"},{"type":"function","name":"hasRole","inputs":[{"name":"role","type":"bytes32","internalType":"bytes32"},{"name":"account","type":"address","internalType":"address"}],"outputs":[{"name":"","type":"bool","internalType":"bool"}],"stateMutability":"view"},{"type":"function","name":"healthFactor","inputs":[{"name":"user","type":"address","internalType":"address"},{"name":"positionId","type":"uint256","internalType":"uint256"}],"outputs":[{"name":"","type":"uint256","internalType":"uint256"}],"stateMutability":"view"},{"type":"function","name":"initialize","inputs":[{"name":"admin","type":"address","internalType":"address"},{"name":"govToken_","type":"address","internalType":"address"},{"name":"assetsModule_","type":"address","internalType":"address"},{"name":"positionVault","type":"address","internalType":"address"}],"outputs":[],"stateMutability":"nonpayable"},{"type":"function","name":"initializeMarket","inputs":[{"name":"_marketInfo","type":"tuple","internalType":"struct IPROTOCOL.Market","components":[{"name":"core","type":"address","internalType":"address"},{"name":"baseVault","type":"address","internalType":"address"},{"name":"baseAsset","type":"address","internalType":"address"},{"name":"assetsModule","type":"address","internalType":"address"},{"name":"porFeed","type":"address","internalType":"address"},{"name":"decimals","type":"uint256","internalType":"uint256"},{"name":"name","type":"string","internalType":"string"},{"name":"symbol","type":"string","internalType":"string"},{"name":"createdAt","type":"uint256","internalType":"uint256"},{"name":"active","type":"bool","internalType":"bool"}]}],"outputs":[],"stateMutability":"nonpayable"},{"type":"function","name":"isCollateralized","inputs":[],"outputs":[{"name":"isProtocolSolvent","type":"bool","internalType":"bool"},{"name":"totalAssetValue","type":"uint256","internalType":"uint256"}],"stateMutability":"view"},{"type":"function","name":"isLiquidatable","inputs":[{"name":"user","type":"address","internalType":"address"},{"name":"positionId","type":"uint256","internalType":"uint256"}],"outputs":[{"name":"","type":"bool","internalType":"bool"}],"stateMutability":"view"},{"type":"function","name":"liquidate","inputs":[{"name":"user","type":"address","internalType":"address"},{"name":"positionId","type":"uint256","internalType":"uint256"},{"name":"expectedCost","type":"uint256","internalType":"uint256"},{"name":"maxSlippageBps","type":"uint32","internalType":"uint32"}],"outputs":[],"stateMutability":"nonpayable"},{"type":"function","name":"loadProtocolConfig","inputs":[{"name":"config","type":"tuple","internalType":"struct IPROTOCOL.ProtocolConfig","components":[{"name":"profitTargetRate","type":"uint256","internalType":"uint256"},{"name":"borrowRate","type":"uint256","internalType":"uint256"},{"name":"rewardAmount","type":"uint256","internalType":"uint256"},{"name":"rewardInterval","type":"uint256","internalType":"uint256"},{"name":"rewardableSupply","type":"uint256","internalType":"uint256"},{"name":"liquidatorThreshold","type":"uint256","internalType":"uint256"},{"name":"flashLoanFee","type":"uint32","internalType":"uint32"}]}],"outputs":[],"stateMutability":"nonpayable"},{"type":"function","name":"market","inputs":[],"outputs":[{"name":"","type":"tuple","internalType":"struct IPROTOCOL.Market","components":[{"name":"core","type":"address","internalType":"address"},{"name":"baseVault","type":"address","internalType":"address"},{"name":"baseAsset","type":"address","internalType":"address"},{"name":"assetsModule","type":"address","internalType":"address"},{"name":"porFeed","type":"address","internalType":"address"},{"name":"decimals","type":"uint256","internalType":"uint256"},{"name":"name","type":"string","internalType":"string"},{"name":"symbol","type":"string","internalType":"string"},{"name":"createdAt","type":"uint256","internalType":"uint256"},{"name":"active","type":"bool","internalType":"bool"}]}],"stateMutability":"view"},{"type":"function","name":"marketFactory","inputs":[],"outputs":[{"name":"","type":"address","internalType":"address"}],"stateMutability":"view"},{"type":"function","name":"mintShares","inputs":[{"name":"shares","type":"uint256","internalType":"uint256"},{"name":"expectedAmount","type":"uint256","internalType":"uint256"},{"name":"maxSlippageBps","type":"uint32","internalType":"uint32"}],"outputs":[],"stateMutability":"nonpayable"},{"type":"function","name":"paused","inputs":[],"outputs":[{"name":"","type":"bool","internalType":"bool"}],"stateMutability":"view"},{"type":"function","name":"redeemLiquidityShares","inputs":[{"name":"shares","type":"uint256","internalType":"uint256"},{"name":"expectedAmount","type":"uint256","internalType":"uint256"},{"name":"maxSlippageBps","type":"uint32","internalType":"uint32"}],"outputs":[],"stateMutability":"nonpayable"},{"type":"function","name":"renounceRole","inputs":[{"name":"role","type":"bytes32","internalType":"bytes32"},{"name":"callerConfirmation","type":"address","internalType":"address"}],"outputs":[],"stateMutability":"nonpayable"},{"type":"function","name":"repay","inputs":[{"name":"positionId","type":"uint256","internalType":"uint256"},{"name":"amount","type":"uint256","internalType":"uint256"},{"name":"expectedDebt","type":"uint256","internalType":"uint256"},{"name":"maxSlippageBps","type":"uint32","internalType":"uint32"}],"outputs":[],"stateMutability":"nonpayable"},{"type":"function","name":"revokeRole","inputs":[{"name":"role","type":"bytes32","internalType":"bytes32"},{"name":"account","type":"address","internalType":"address"}],"outputs":[],"stateMutability":"nonpayable"},{"type":"function","name":"supplyCollateral","inputs":[{"name":"asset","type":"address","internalType":"address"},{"name":"amount","type":"uint256","internalType":"uint256"},{"name":"positionId","type":"uint256","internalType":"uint256"}],"outputs":[],"stateMutability":"nonpayable"},{"type":"function","name":"supportsInterface","inputs":[{"name":"interfaceId","type":"bytes4","internalType":"bytes4"}],"outputs":[{"name":"","type":"bool","internalType":"bool"}],"stateMutability":"view"},{"type":"function","name":"totalAccruedBorrowerInterest","inputs":[],"outputs":[{"name":"","type":"uint256","internalType":"uint256"}],"stateMutability":"view"},{"type":"function","name":"totalBorrow","inputs":[],"outputs":[{"name":"","type":"uint256","internalType":"uint256"}],"stateMutability":"view"},{"type":"function","name":"withdrawCollateral","inputs":[{"name":"asset","type":"address","internalType":"address"},{"name":"amount","type":"uint256","internalType":"uint256"},{"name":"positionId","type":"uint256","internalType":"uint256"},{"name":"expectedCreditLimit","type":"uint256","internalType":"uint256"},{"name":"maxSlippageBps","type":"uint32","internalType":"uint32"}],"outputs":[],"stateMutability":"nonpayable"},{"type":"function","name":"withdrawLiquidity","inputs":[{"name":"amount","type":"uint256","internalType":"uint256"},{"name":"expectedShares","type":"uint256","internalType":"uint256"},{"name":"maxSlippageBps","type":"uint32","internalType":"uint32"}],"outputs":[],"stateMutability":"nonpayable"},{"type":"event","name":"Borrow","inputs":[{"name":"user","type":"address","indexed":true,"internalType":"address"},{"name":"positionId","type":"uint256","indexed":true,"internalType":"uint256"},{"name":"amount","type":"uint256","indexed":false,"internalType":"uint256"}],"anonymous":false},{"type":"event","name":"DepositLiquidity","inputs":[{"name":"user","type":"address","indexed":true,"internalType":"address"},{"name":"amount","type":"uint256","indexed":false,"internalType":"uint256"}],"anonymous":false},{"type":"event","name":"Initialized","inputs":[{"name":"baseAsset","type":"address","indexed":true,"internalType":"address"}],"anonymous":false},{"type":"event","name":"Initialized","inputs":[{"name":"version","type":"uint64","indexed":false,"internalType":"uint64"}],"anonymous":false},{"type":"event","name":"InterestAccrued","inputs":[{"name":"user","type":"address","indexed":true,"internalType":"address"},{"name":"positionId","type":"uint256","indexed":true,"internalType":"uint256"},{"name":"interest","type":"uint256","indexed":false,"internalType":"uint256"}],"anonymous":false},{"type":"event","name":"Liquidated","inputs":[{"name":"user","type":"address","indexed":true,"internalType":"address"},{"name":"positionId","type":"uint256","indexed":true,"internalType":"uint256"},{"name":"liquidator","type":"address","indexed":true,"internalType":"address"}],"anonymous":false},{"type":"event","name":"MintShares","inputs":[{"name":"user","type":"address","indexed":true,"internalType":"address"},{"name":"shares","type":"uint256","indexed":false,"internalType":"uint256"}],"anonymous":false},{"type":"event","name":"Paused","inputs":[{"name":"account","type":"address","indexed":false,"internalType":"address"}],"anonymous":false},{"type":"event","name":"PositionClosed","inputs":[{"name":"user","type":"address","indexed":true,"internalType":"address"},{"name":"positionId","type":"uint256","indexed":true,"internalType":"uint256"}],"anonymous":false},{"type":"event","name":"PositionCreated","inputs":[{"name":"user","type":"address","indexed":true,"internalType":"address"},{"name":"positionId","type":"uint256","indexed":true,"internalType":"uint256"},{"name":"isIsolated","type":"bool","indexed":false,"internalType":"bool"}],"anonymous":false},{"type":"event","name":"ProtocolConfigUpdated","inputs":[{"name":"profitTargetRate","type":"uint256","indexed":false,"internalType":"uint256"},{"name":"borrowRate","type":"uint256","indexed":false,"internalType":"uint256"},{"name":"rewardAmount","type":"uint256","indexed":false,"internalType":"uint256"},{"name":"rewardInterval","type":"uint256","indexed":false,"internalType":"uint256"},{"name":"rewardableSupply","type":"uint256","indexed":false,"internalType":"uint256"},{"name":"liquidatorThreshold","type":"uint256","indexed":false,"internalType":"uint256"}],"anonymous":false},{"type":"event","name":"RedeemShares","inputs":[{"name":"user","type":"address","indexed":true,"internalType":"address"},{"name":"shares","type":"uint256","indexed":false,"internalType":"uint256"},{"name":"amount","type":"uint256","indexed":false,"internalType":"uint256"}],"anonymous":false},{"type":"event","name":"Repay","inputs":[{"name":"user","type":"address","indexed":true,"internalType":"address"},{"name":"positionId","type":"uint256","indexed":true,"internalType":"uint256"},{"name":"amount","type":"uint256","indexed":false,"internalType":"uint256"}],"anonymous":false},{"type":"event","name":"RoleAdminChanged","inputs":[{"name":"role","type":"bytes32","indexed":true,"internalType":"bytes32"},{"name":"previousAdminRole","type":"bytes32","indexed":true,"internalType":"bytes32"},{"name":"newAdminRole","type":"bytes32","indexed":true,"internalType":"bytes32"}],"anonymous":false},{"type":"event","name":"RoleGranted","inputs":[{"name":"role","type":"bytes32","indexed":true,"internalType":"bytes32"},{"name":"account","type":"address","indexed":true,"internalType":"address"},{"name":"sender","type":"address","indexed":true,"internalType":"address"}],"anonymous":false},{"type":"event","name":"RoleRevoked","inputs":[{"name":"role","type":"bytes32","indexed":true,"internalType":"bytes32"},{"name":"account","type":"address","indexed":true,"internalType":"address"},{"name":"sender","type":"address","indexed":true,"internalType":"address"}],"anonymous":false},{"type":"event","name":"SupplyCollateral","inputs":[{"name":"user","type":"address","indexed":true,"internalType":"address"},{"name":"positionId","type":"uint256","indexed":true,"internalType":"uint256"},{"name":"asset","type":"address","indexed":true,"internalType":"address"},{"name":"amount","type":"uint256","indexed":false,"internalType":"uint256"}],"anonymous":false},{"type":"event","name":"TVLUpdated","inputs":[{"name":"asset","type":"address","indexed":true,"internalType":"address"},{"name":"amount","type":"uint256","indexed":false,"internalType":"uint256"}],"anonymous":false},{"type":"event","name":"Unpaused","inputs":[{"name":"account","type":"address","indexed":false,"internalType":"address"}],"anonymous":false},{"type":"event","name":"VaultCreated","inputs":[{"name":"user","type":"address","indexed":true,"internalType":"address"},{"name":"positionId","type":"uint256","indexed":true,"internalType":"uint256"},{"name":"vault","type":"address","indexed":false,"internalType":"address"}],"anonymous":false},{"type":"event","name":"WithdrawCollateral","inputs":[{"name":"user","type":"address","indexed":true,"internalType":"address"},{"name":"positionId","type":"uint256","indexed":true,"internalType":"uint256"},{"name":"asset","type":"address","indexed":true,"internalType":"address"},{"name":"amount","type":"uint256","indexed":false,"internalType":"uint256"}],"anonymous":false},{"type":"event","name":"WithdrawLiquidity","inputs":[{"name":"user","type":"address","indexed":true,"internalType":"address"},{"name":"amount","type":"uint256","indexed":false,"internalType":"uint256"}],"anonymous":false},{"type":"error","name":"AccessControlBadConfirmation","inputs":[]},{"type":"error","name":"AccessControlUnauthorizedAccount","inputs":[{"name":"account","type":"address","internalType":"address"},{"name":"neededRole","type":"bytes32","internalType":"bytes32"}]},{"type":"error","name":"AssetCapacityReached","inputs":[]},{"type":"error","name":"CloneDeploymentFailed","inputs":[]},{"type":"error","name":"CreditLimitExceeded","inputs":[]},{"type":"error","name":"EnforcedPause","inputs":[]},{"type":"error","name":"ExpectedPause","inputs":[]},{"type":"error","name":"FailedDeployment","inputs":[]},{"type":"error","name":"InactivePosition","inputs":[]},{"type":"error","name":"InsufficientBalance","inputs":[{"name":"balance","type":"uint256","internalType":"uint256"},{"name":"needed","type":"uint256","internalType":"uint256"}]},{"type":"error","name":"InvalidAssetForIsolation","inputs":[]},{"type":"error","name":"InvalidBorrowRate","inputs":[]},{"type":"error","name":"InvalidFee","inputs":[]},{"type":"error","name":"InvalidInitialization","inputs":[]},{"type":"error","name":"InvalidInterval","inputs":[]},{"type":"error","name":"InvalidLiquidatorThreshold","inputs":[]},{"type":"error","name":"InvalidPosition","inputs":[]},{"type":"error","name":"InvalidProfitTarget","inputs":[]},{"type":"error","name":"InvalidRewardAmount","inputs":[]},{"type":"error","name":"InvalidSupplyAmount","inputs":[]},{"type":"error","name":"IsolatedAssetViolation","inputs":[]},{"type":"error","name":"IsolationDebtCapExceeded","inputs":[]},{"type":"error","name":"LowBalance","inputs":[]},{"type":"error","name":"LowLiquidity","inputs":[]},{"type":"error","name":"MEVSameBlockOperation","inputs":[]},{"type":"error","name":"MEVSlippageExceeded","inputs":[]},{"type":"error","name":"MaxPositionLimitReached","inputs":[]},{"type":"error","name":"MaximumAssetsReached","inputs":[]},{"type":"error","name":"NoDebt","inputs":[]},{"type":"error","name":"NotEnoughGovernanceTokens","inputs":[]},{"type":"error","name":"NotInitializing","inputs":[]},{"type":"error","name":"NotLiquidatable","inputs":[]},{"type":"error","name":"NotListed","inputs":[]},{"type":"error","name":"PoolLiquidityLimitReached","inputs":[]},{"type":"error","name":"ReentrancyGuardReentrantCall","inputs":[]},{"type":"error","name":"SafeERC20FailedOperation","inputs":[{"name":"token","type":"address","internalType":"address"}]},{"type":"error","name":"Unauthorized","inputs":[]},{"type":"error","name":"ZeroAddressNotAllowed","inputs":[]},{"type":"error","name":"ZeroAmount","inputs":[]}],"bytecode":{"object":"0x608060405234801562000010575f80fd5b506200001b62000021565b620000d5565b7ff0c57e16840df040f15088dc2f81fe391c3923bec73e23a9662efc9c229c6a00805468010000000000000000900460ff1615620000725760405163f92ee8a960e01b815260040160405180910390fd5b80546001600160401b0390811614620000d25780546001600160401b0319166001600160401b0390811782556040519081527fc7f505b2f371ae2175ee4913f4499e1f2633a7b5936321eed1cdaeb6115181d29060200160405180910390a15b50565b6158f680620000e35f395ff3fe608060405234801561000f575f80fd5b5060043610610239575f3560e01c806301ffc9a71461023d57806305268cff1461026557806306ae7095146102845780630ac40e96146102975780631777d0e9146102b85780631c88ef1e146102cd5780631e1cb27f146102ed578063248a9ca3146103005780632a6bc2dd146103135780632f2ff15d1461033357806330306e4b1461034657806333f761781461036657806334e2cd0f1461036f57806336568abe146103825780633f609131146103955780633fdfb2aa146103b557806349e3284e146103c85780634a485693146103e75780634e90c84c146103fa5780635c975abb146104285780636188a5c91461043057806365939ebc1461043957806368099d8c146104615780637067445914610474578063741e147a1461048757806380f556051461049a5780638285ef40146104af578063849f896e146104b757806384bdc9a8146104ca5780638f805fa0146104d2578063908d18a0146104e557806391d14854146104f8578063a217fddf1461050b578063b7575f2f14610512578063c3f909d414610525578063c662881014610588578063ca948e741461059b578063cc91495f14610525578063cdf456e1146105ae578063d547741f146105c1578063d60bfcb4146105d4578063da64b4a5146105e7578063e293b6c3146105fa578063e2eb67f01461060d578063eebfe9e214610620578063f36cc7c614610633578063f4097b4314610646578063f4813b6f14610659578063f8c8765e1461066c575b5f80fd5b61025061024b366004614b42565b61067f565b60405190151581526020015b60405180910390f35b5f54610277906001600160a01b031681565b60405161025c9190614b76565b600254610277906001600160a01b031681565b6102aa6102a5366004614b96565b6106b5565b60405190815260200161025c565b6102cb6102c6366004614bc2565b610724565b005b6102e06102db366004614c0c565b610a87565b60405161025c9190614ca7565b6102cb6102fb366004614bc2565b610bac565b6102aa61030e366004614cb5565b610cd3565b610326610321366004614ccc565b610cf1565b60405161025c9190614ce7565b6102cb610341366004614d34565b610dd2565b610359610354366004614c0c565b610dee565b60405161025c9190614da5565b6102aa60055481565b6102aa61037d366004614c0c565b610e60565b6102cb610390366004614d34565b610f2e565b6103a86103a3366004614c0c565b610f61565b60405161025c9190614db7565b6102506103c3366004614c0c565b6110aa565b6103d06111b8565b60408051921515835260208301919091520161025c565b6102cb6103f5366004614bc2565b611381565b61040d610408366004614c0c565b611472565b6040805193845260208401929092529082015260600161025c565b6102506116a9565b6102aa60045481565b6102aa610447366004614ccc565b6001600160a01b03165f908152601a602052604090205490565b6102aa61046f366004614c0c565b6116d1565b61040d610482366004614ccc565b611791565b6102cb610495366004614dca565b6117d4565b6104a26119d3565b60405161025c9190614e5f565b6102aa611bb6565b6102cb6104c5366004614f24565b611c26565b6102aa611e50565b6102cb6104e0366004614f6b565b611e97565b6102cb6104f3366004614f9e565b61201f565b610250610506366004614d34565b612264565b6102aa5f81565b6102cb610520366004614fb4565b612298565b61052d612369565b60405161025c91905f60e082019050825182526020830151602083015260408301516040830152606083015160608301526080830151608083015260a083015160a083015263ffffffff60c08401511660c083015292915050565b6102cb610596366004614fe6565b6123f3565b6102aa6105a9366004614c0c565b612722565b600154610277906001600160a01b031681565b6102cb6105cf366004614d34565b61272d565b6102aa6105e2366004614c0c565b612749565b6102cb6105f5366004614bc2565b61275f565b6102aa61060836600461501d565b6128ef565b6102aa61061b366004614c0c565b612975565b600354610277906001600160a01b031681565b6102cb610641366004614bc2565b6129b1565b6102aa61065436600461505e565b612a9b565b6102cb610667366004614f6b565b612d85565b6102cb61067a36600461508a565b612e78565b5f6001600160e01b03198216637965db0b60e01b14806106af57506301ffc9a760e01b6001600160e01b03198316145b92915050565b601854604051630562074b60e11b81525f916001600160a01b031690630ac40e96906106e5908590600401614db7565b602060405180830381865afa158015610700573d5f803e3d5ffd5b505050506040513d601f19601f820116820180604052508101906106af91906150d8565b61072c6130db565b610734613110565b335f908152601a60205260408120805485908110610754576107546150ef565b905f5260205f20906003020190505f610771855f19848787613138565b825460ff60a81b1916600360a81b1783559050801561081f576001546107a2906001600160a01b03163330846132ea565b6018546001546107bf916001600160a01b03918216911683613351565b60185460405163acb7081560e01b81526001600160a01b039091169063acb70815906107f19084903390600401615103565b5f604051808303815f87803b158015610808575f80fd5b505af115801561081a573d5f803e3d5ffd5b505050505b335f818152601b602090815260408083208984528252808320938352601a9091528120805488908110610854576108546150ef565b5f91825260208220600390910201546001600160a01b031691508190610879846133e1565b90505f5b81811015610a3e575f8061089187846133eb565b90925090508015610a34576001600160a01b0382165f908152601960205260408120546108bf90839061512e565b604080516060810182528281526017549151637d39d74b60e01b81529293509160208301916001600160a01b031690637d39d74b906109049088908790600401615141565b6020604051808303815f875af1158015610920573d5f803e3d5ffd5b505050506040513d601f19601f8201168201806040525081019061094491906150d8565b8152426020918201526001600160a01b0385165f81815260198352604090819020845181558484015160018201559381015160029094019390935591518381525f80516020615861833981519152910160405180910390a2826001600160a01b03168d336001600160a01b03165f805160206158a1833981519152856040516109cf91815260200190565b60405180910390a46040516313c5035360e31b81526001600160a01b03871690639e281a9890610a059086908690600401615141565b5f604051808303815f87803b158015610a1c575f80fd5b505af1158015610a2e573d5f803e3d5ffd5b50505050505b505060010161087d565b50610a4884613408565b604051899033907fa9e0cdf27a7965d21573ebb808fbcb2c2a1cfd656e1ecf3f82549437b4740677905f90a3505050505050610a82613414565b505050565b610ab66040805160a0810182525f80825260208201819052909182019081526020015f81526020015f81525090565b6001600160a01b0383165f908152601a6020526040902054839083908110610af15760405163673f032f60e11b815260040160405180910390fd5b6001600160a01b0385165f908152601a60205260409020805485908110610b1a57610b1a6150ef565b5f9182526020918290206040805160a081018252600393840290920180546001600160a01b038116845260ff600160a01b820481161515968501969096529294909391850192600160a81b90041690811115610b7857610b78614c36565b6003811115610b8957610b89614c36565b81526020016001820154815260200160028201548152505092505b505092915050565b82805f03610bcd57604051631f2a200560e01b815260040160405180910390fd5b610bd56130db565b610bdd613110565b6001546018546001600160a01b039182169116610bfc823330896132ea565b610c106001600160a01b0383168288613351565b60405186815233907f3bdb4d376f46aac1bdcda94b03200364052b278ed93865d759bf61452bfabdba9060200160405180910390a2604051636e553f6560e01b81525f906001600160a01b03831690636e553f6590610c75908a903390600401615103565b6020604051808303815f875af1158015610c91573d5f803e3d5ffd5b505050506040513d601f19601f82011682018060405250810190610cb591906150d8565b9050610cc2818787613424565b505050610ccd613414565b50505050565b5f80610cdd6134eb565b5f9384526020525050604090206001015490565b6001600160a01b0381165f908152601a60209081526040808320805482518185028101850190935280835260609492939192909184015b82821015610dc7575f8481526020908190206040805160a081018252600380870290930180546001600160a01b038116835260ff600160a01b820481161515968401969096529194909392850192600160a81b9092041690811115610d8f57610d8f614c36565b6003811115610da057610da0614c36565b81526020016001820154815260200160028201548152505081526020019060010190610d28565b505050509050919050565b610ddb82610cd3565b610de48161350f565b610ccd8383613519565b6001600160a01b0382165f908152601a6020526040902054606090839083908110610e2c5760405163673f032f60e11b815260040160405180910390fd5b6001600160a01b0385165f908152601b602090815260408083208784529091529020610e57906135b7565b95945050505050565b6001600160a01b0382165f908152601a6020526040812054839083908110610e9b5760405163673f032f60e11b815260040160405180910390fd5b6001600160a01b0385165f908152601a60205260408120805486908110610ec457610ec46150ef565b905f5260205f209060030201905080600101545f03610ee6575f935050610ba4565b5f610ef18787610f61565b90505f610efd826106b5565b90505f836002015442610f10919061512e565b9050610f21846001015483836135ca565b9998505050505050505050565b6001600160a01b0381163314610f575760405163334bd91960e11b815260040160405180910390fd5b610a8282826135f4565b6001600160a01b0382165f908152601a6020526040812054839083908110610f9c5760405163673f032f60e11b815260040160405180910390fd5b6001600160a01b0385165f908152601b60209081526040808320878452909152812090610fc8826133e1565b90505f94505f5b8181101561109f575f80610fe385846133eb565b909250905080156110955760175460405163221c83d960e11b81525f916001600160a01b03169063443907b29061101e908690600401614b76565b602060405180830381865afa158015611039573d5f803e3d5ffd5b505050506040513d601f19601f8201168201806040525081019061105d919061515a565b905088600381111561107157611071614c36565b60ff1681600381111561108657611086614c36565b60ff161115611093578098505b505b5050600101610fcf565b505050505092915050565b6001600160a01b0382165f908152601a60205260408120548390839081106110e55760405163673f032f60e11b815260040160405180910390fd5b60016001600160a01b0383165f908152601a60205260409020805483908110611110576111106150ef565b5f918252602090912060039182020154600160a81b900460ff169081111561113a5761113a614c36565b1461115857604051631f9c0ddd60e31b815260040160405180910390fd5b6001600160a01b0385165f908152601a60205260409020805485908110611181576111816150ef565b905f5260205f209060030201600101545f0361119f575f9250610ba4565b5f6111aa8686612975565b600554119695505050505050565b5f805f60185f9054906101000a90046001600160a01b03166001600160a01b0316638285ef406040518163ffffffff1660e01b8152600401602060405180830381865afa15801561120b573d5f803e3d5ffd5b505050506040513d601f19601f8201168201806040525081019061122f91906150d8565b90508060185f9054906101000a90046001600160a01b03166001600160a01b03166301e1d1146040518163ffffffff1660e01b8152600401602060405180830381865afa158015611282573d5f803e3d5ffd5b505050506040513d601f19601f820116820180604052508101906112a691906150d8565b6112b0919061512e565b91505f60175f9054906101000a90046001600160a01b03166001600160a01b031663f7e19eff6040518163ffffffff1660e01b81526004015f60405180830381865afa158015611302573d5f803e3d5ffd5b505050506040513d5f823e601f3d908101601f1916820160405261132991908101906151b9565b80519091505f5b81811015611375575f61135b84838151811061134e5761134e6150ef565b6020026020010151611791565b50915061136a90508187615259565b955050600101611330565b50505081101592909150565b82805f036113a257604051631f2a200560e01b815260040160405180910390fd5b6113aa6130db565b6113b2613110565b601854604051632d182be560e21b81525f916001600160a01b03169063b460af94906113e69088903390819060040161526c565b6020604051808303815f875af1158015611402573d5f803e3d5ffd5b505050506040513d601f19601f8201168201806040525081019061142691906150d8565b9050611433818585613424565b60405185815233907f8291c2165fb22f13d0ed7fc85f1f2ac23027102c70d95f9459c42a59e241eaa5906020015b60405180910390a250610ccd613414565b6001600160a01b0382165f908152601a6020526040812054819081908590859081106114b15760405163673f032f60e11b815260040160405180910390fd5b6001600160a01b0387165f908152601b602090815260408083208984529091528120906114dd826133e1565b9050805f036114f6575f805f96509650965050506116a0565b60175460015460405163644c79a160e11b81525f926001600160a01b039081169263c898f3429261152d9290911690600401614b76565b608060405180830381865afa158015611548573d5f803e3d5ffd5b505050506040513d601f19601f8201168201806040525081019061156c91906152b1565b90505f5b8281101561169b575f8061158486846133eb565b91509150805f03611596575050611693565b60175460405163644c79a160e11b81525f916001600160a01b03169063c898f342906115c6908690600401614b76565b608060405180830381865afa1580156115e1573d5f803e3d5ffd5b505050506040513d601f19601f8201168201806040525081019061160591906152b1565b90505f61163e825f01518461161a9190615324565b600554606085015161162d90600a615413565b89516116399190615324565b61366a565b905061164a818c615259565b9a5061166181836020015161ffff166103e861366a565b61166b908e615259565b9c5061168281836040015161ffff166103e861366a565b61168c908d615259565b9b50505050505b600101611570565b505050505b50509250925092565b7fcd5ed15c6e187e77e9aee88184c21f4f2182ab5827cb3b7e07fbedcd63f033005460ff1690565b6001600160a01b0382165f908152601a602052604081205483908390811061170c5760405163673f032f60e11b815260040160405180910390fd5b5f6117178686610f61565b60175460405163023ca84160e31b81529192506001600160a01b0316906311e5420890611748908490600401614db7565b602060405180830381865afa158015611763573d5f803e3d5ffd5b505050506040513d601f19601f8201168201806040525081019061178791906150d8565b9695505050505050565b6001600160a01b03165f90815260196020908152604091829020825160608101845281548082526001830154938201849052600290920154930183905292909190565b83805f036117f557604051631f2a200560e01b815260040160405180910390fd5b335f818152601a6020526040902054859081106118255760405163673f032f60e11b815260040160405180910390fd5b60016001600160a01b0383165f908152601a60205260409020805483908110611850576118506150ef565b5f918252602090912060039182020154600160a81b900460ff169081111561187a5761187a614c36565b1461189857604051631f9c0ddd60e31b815260040160405180910390fd5b6118a06130db565b6118a8613110565b335f908152601a602052604081208054889081106118c8576118c86150ef565b905f5260205f2090600302019050428160020154106118fa57604051630d8e872960e31b815260040160405180910390fd5b4260028201555f61190b3389612749565b9050611918818888613424565b6119238a8a8a61371a565b81546040516313c5035360e31b81526001600160a01b03909116908190639e281a9890611956908e908e90600401615141565b5f604051808303815f87803b15801561196d575f80fd5b505af115801561197f573d5f803e3d5ffd5b505050508a6001600160a01b031689336001600160a01b03165f805160206158a18339815191528d6040516119b691815260200190565b60405180910390a45050506119c9613414565b5050505050505050565b60408051610140810182525f8082526020820181905291810182905260608082018390526080820183905260a0820183905260c0820181905260e082015261010081018290526101208101919091526040805161014081018252600680546001600160a01b0390811683526007548116602084015260085481169383019390935260095483166060830152600a549092166080820152600b5460a0820152600c805491929160c084019190611a8790615421565b80601f0160208091040260200160405190810160405280929190818152602001828054611ab390615421565b8015611afe5780601f10611ad557610100808354040283529160200191611afe565b820191905f5260205f20905b815481529060010190602001808311611ae157829003601f168201915b50505050508152602001600782018054611b1790615421565b80601f0160208091040260200160405190810160405280929190818152602001828054611b4390615421565b8015611b8e5780601f10611b6557610100808354040283529160200191611b8e565b820191905f5260205f20905b815481529060010190602001808311611b7157829003601f168201915b50505091835250506008820154602082015260099091015460ff161515604090910152919050565b6018546040805163020a17bd60e61b815290515f926001600160a01b031691638285ef409160048083019260209291908290030181865afa158015611bfd573d5f803e3d5ffd5b505050506040513d601f19601f82011682018060405250810190611c2191906150d8565b905090565b6001600160a01b0384165f908152601a6020526040902054849084908110611c615760405163673f032f60e11b815260040160405180910390fd5b60016001600160a01b0383165f908152601a60205260409020805483908110611c8c57611c8c6150ef565b5f918252602090912060039182020154600160a81b900460ff1690811115611cb657611cb6614c36565b14611cd457604051631f9c0ddd60e31b815260040160405180910390fd5b611cdc6130db565b611ce4613110565b6015545f546040516370a0823160e01b81526001600160a01b03909116906370a0823190611d16903390600401614b76565b602060405180830381865afa158015611d31573d5f803e3d5ffd5b505050506040513d601f19601f82011682018060405250810190611d5591906150d8565b1015611d745760405163c5ceb1cd60e01b815260040160405180910390fd5b611d7e86866110aa565b611d9b57604051636ef5bcdd60e11b815260040160405180910390fd5b5f611da887878787613951565b600154909150611dc3906001600160a01b03163330846132ea565b601854600154611de0916001600160a01b03918216911683613351565b60185460405163acb7081560e01b81526001600160a01b039091169063acb7081590611e129084908b90600401615103565b5f604051808303815f87803b158015611e29575f80fd5b505af1158015611e3b573d5f803e3d5ffd5b5050505050611e48613414565b505050505050565b60185460408051631097b93560e31b815290515f926001600160a01b0316916384bdc9a89160048083019260209291908290030181865afa158015611bfd573d5f803e3d5ffd5b82805f03611eb857604051631f2a200560e01b815260040160405180910390fd5b335f818152601a602052604090205486908110611ee85760405163673f032f60e11b815260040160405180910390fd5b60016001600160a01b0383165f908152601a60205260409020805483908110611f1357611f136150ef565b5f918252602090912060039182020154600160a81b900460ff1690811115611f3d57611f3d614c36565b14611f5b57604051631f9c0ddd60e31b815260040160405180910390fd5b611f636130db565b611f6b613110565b611f783388888888613b38565b604051868152879033907fe1979fe4c35e0cef342fef5668e2c8e7a7e9f5d5d1ca8fee0ac6c427fa4153af9060200160405180910390a3601854604051630967fa2960e31b81526001600160a01b0390911690634b3fd14890611fe19089903390600401615103565b5f604051808303815f87803b158015611ff8575f80fd5b505af115801561200a573d5f803e3d5ffd5b50505050612016613414565b50505050505050565b5f805160206158418339815191526120368161350f565b6109c48235101561205a576040516302e2acb160e41b815260040160405180910390fd5b612710826020013510156120815760405163042098af60e51b815260040160405180910390fd5b69021e19e0c9bab2400000826040013511156120b057604051633853986560e01b815260040160405180910390fd5b6209e340826060013510156120d8576040516305fabb6160e41b815260040160405180910390fd5b6005546120e790614e20615324565b8260800135101561210b576040516325fef1df60e21b815260040160405180910390fd5b678ac7230489e800008260a0013510156121385760405163012af53560e21b815260040160405180910390fd5b606461214a60e0840160c08501615453565b63ffffffff1611806121715750600161216960e0840160c08501615453565b63ffffffff16105b1561218f576040516358d620b360e01b815260040160405180910390fd5b81601061219c828261546e565b50506018546040516326f2299d60e11b81526001600160a01b0390911690634de4533a906121ce9085906004016154cf565b5f604051808303815f87803b1580156121e5575f80fd5b505af11580156121f7573d5f803e3d5ffd5b50506040805185358152602080870135908201528582013581830152606080870135908201526080808701359082015260a0808701359082015290517fa7ae44879451e09ba11e0d98d0c0793f452b2f39015ab78cc5d0a87da03be5b993509081900360c0019150a15050565b5f8061226e6134eb565b5f948552602090815260408086206001600160a01b03959095168652939052505090205460ff1690565b81805f036122b957604051631f2a200560e01b815260040160405180910390fd5b6122c16130db565b6122c9613110565b6122d4848484613dd0565b335f908152601a602052604081208054849081106122f4576122f46150ef565b5f918252602091829020600390910201546040518681526001600160a01b03918216935090871691859133917f6be62352c9e340a8445fc7d888cc052711d247e9668059bbc2949717ad50ac72910160405180910390a46123606001600160a01b0386163383876132ea565b50610ccd613414565b6123a86040518060e001604052805f81526020015f81526020015f81526020015f81526020015f81526020015f81526020015f63ffffffff1681525090565b506040805160e08101825260105481526011546020820152601254918101919091526013546060820152601454608082015260155460a082015260165463ffffffff1660c082015290565b6002546001600160a01b0316331461241d576040516282b42960e81b815260040160405180910390fd5b5f61242e6060830160408401614ccc565b6001600160a01b031603612455576040516342bcdf7f60e11b815260040160405180910390fd5b5f61246660a0830160808401614ccc565b6001600160a01b03160361248d576040516342bcdf7f60e11b815260040160405180910390fd5b5f61249e6040830160208401614ccc565b6001600160a01b0316036124c5576040516342bcdf7f60e11b815260040160405180910390fd5b306124d36020830183614ccc565b6001600160a01b0316146124fa576040516342bcdf7f60e11b815260040160405180910390fd5b80600661250782826156a4565b5050600854600180546001600160a01b039283166001600160a01b0319918216811790925560075460188054919094169116179091556040805163313ce56760e01b815290515f929163313ce5679160048083019260209291908290030181865afa158015612578573d5f803e3d5ffd5b505050506040513d601f19601f8201168201806040525081019061259c919061578e565b90506125a981600a615413565b6005819055506040518060e001604052806109c4815260200161ea608152602001686c6b935b8bbd40000081526020016213c6808152602001600554620186a06125f39190615324565b815269043c33c1937564800000602080830191909152600960409283015282516010819055908301516011819055838301516012819055606085015160138190556080860151601481905560a0870151601581905560c0909701516016805463ffffffff191663ffffffff909216918217905560185496516326f2299d60e11b81526004810196909652602486019490945260448501929092526064840152608483015260a482019390935260c48101929092526001600160a01b031690634de4533a9060e4015f604051808303815f87803b1580156126d1575f80fd5b505af11580156126e3573d5f803e3d5ffd5b50506008546040516001600160a01b0390911692507f908408e307fc569b417f6cbec5d5a06f44a0a505ac0479b47d421a4b2fd6a1e691505f90a25050565b5f610e578383611472565b61273682610cd3565b61273f8161350f565b610ccd83836135f4565b5f806127558484611472565b5095945050505050565b82805f0361278057604051631f2a200560e01b815260040160405180910390fd5b6127886130db565b612790613110565b60015460185460405163b3d7f6b960e01b8152600481018790526001600160a01b0392831692909116905f90829063b3d7f6b990602401602060405180830381865afa1580156127e2573d5f803e3d5ffd5b505050506040513d601f19601f8201168201806040525081019061280691906150d8565b905061281d6001600160a01b0384163330846132ea565b6128316001600160a01b0384168383613351565b6040516394bf804d60e01b81525f906001600160a01b038416906394bf804d90612861908b903390600401615103565b6020604051808303815f875af115801561287d573d5f803e3d5ffd5b505050506040513d601f19601f820116820180604052508101906128a191906150d8565b90506128ae818888613424565b60405188815233907fe0db2c42b942601357f9499d6f0520c824b2ce7513135a456b661d1d3e45de5e9060200160405180910390a250505050610ccd613414565b6001600160a01b0383165f908152601a602052604081205484908490811061292a5760405163673f032f60e11b815260040160405180910390fd5b6001600160a01b0386165f908152601b60209081526040808320888452909152812081906129589087614334565b9150915081612967575f612969565b805b98975050505050505050565b5f806129818484610e60565b9050805f03612994575f199150506106af565b5f61299f8585611472565b50915050610e5781600554845f61434b565b82805f036129d257604051631f2a200560e01b815260040160405180910390fd5b6129da6130db565b6129e2613110565b601854604051635d043b2960e11b81525f916001600160a01b03169063ba08765290612a169088903390819060040161526c565b6020604051808303815f875af1158015612a32573d5f803e3d5ffd5b505050506040513d601f19601f82011682018060405250810190612a5691906150d8565b9050612a63818585613424565b604080518681526020810183905233917fef7fb21fed1701a6c82b78d78bad1ddab67e41025c2d5078a1be2a3a238b4e629101611461565b6017546040516355c77f3760e11b81525f9184916001600160a01b039091169063ab8efe6e90612acf908490600401614b76565b602060405180830381865afa158015612aea573d5f803e3d5ffd5b505050506040513d601f19601f82011682018060405250810190612b0e91906157a7565b612b2b5760405163665c1c5760e01b815260040160405180910390fd5b612b336130db565b612b3b613110565b335f908152601a60205260409020546103e811612b6b576040516302387f5360e11b815260040160405180910390fd5b335f818152601a6020908152604082208054600181810180845592855292842094909352600390920290920191612ba19161512e565b6003549093505f90612bbb906001600160a01b031661438d565b90506001600160a01b038116612be4576040516304ddc24d60e01b815260040160405180910390fd5b806001600160a01b03163b5f03612c0e576040516304ddc24d60e01b815260040160405180910390fd5b60405163485cc95560e01b81523060048201523360248201526001600160a01b0382169063485cc955906044015f604051808303815f87803b158015612c52575f80fd5b505af1158015612c64573d5f803e3d5ffd5b50508354871515600160a01b026001600160a81b03199091166001600160a01b03851617178085556001925084915060ff60a81b1916600160a81b8302179055508415612cf957335f908152601b60209081526040808320601a9092528220548290612cd29060019061512e565b81526020019081526020015f209050612cf6875f836143989092919063ffffffff16565b50505b83336001600160a01b03167f019b61d9140f8784f4eed1e66569335630452af2d974ceb13d3e706c0786729683604051612d339190614b76565b60405180910390a36040518515158152849033907fd7083568ad47cc260754edeb42d17e861b7cc984c72785bfdbf79207df2b89f29060200160405180910390a35050612d7e613414565b5092915050565b612d8d6130db565b612d95613110565b335f908152601a60205260408120805486908110612db557612db56150ef565b905f5260205f20906003020190505f612dd18686848787613138565b90508015612e6e57600154612df1906001600160a01b03163330846132ea565b601854600154612e0e916001600160a01b03918216911683613351565b60185460405163acb7081560e01b81526001600160a01b039091169063acb7081590612e409084903390600401615103565b5f604051808303815f87803b158015612e57575f80fd5b505af1158015612e69573d5f803e3d5ffd5b505050505b5050610ccd613414565b5f612e816143ad565b805490915060ff600160401b82041615906001600160401b03165f81158015612ea75750825b90505f826001600160401b03166001148015612ec25750303b155b905081158015612ed0575080155b15612eee5760405163f92ee8a960e01b815260040160405180910390fd5b84546001600160401b03191660011785558315612f1757845460ff60401b1916600160401b1785555b6001600160a01b038916612f3e576040516342bcdf7f60e11b815260040160405180910390fd5b6001600160a01b038716612f65576040516342bcdf7f60e11b815260040160405180910390fd5b6001600160a01b038816612f8c576040516342bcdf7f60e11b815260040160405180910390fd5b6001600160a01b038616612fb3576040516342bcdf7f60e11b815260040160405180910390fd5b612fbb6143d5565b612fc36143d5565b612fcb6143dd565b612fd55f8a613519565b50612fed5f805160206158418339815191528a613519565b506130187f65d7a28e3265b37a6474929f336521b332c1681b933f6cb9f3376673440d862a8a613519565b506130437f189ab7a9244df0848122154315af71fe140f3db0fe014031783b0946b8c9d2e38a613519565b50601780546001600160a01b03808a166001600160a01b031992831617909255600280548216331790555f80548b8416908316179055600380549289169290911691909117905583156130d057845460ff60401b19168555604051600181527fc7f505b2f371ae2175ee4913f4499e1f2633a7b5936321eed1cdaeb6115181d29060200160405180910390a15b505050505050505050565b5f6130e46143ed565b80549091506001190161310a57604051633ee5aeb560e01b815260040160405180910390fd5b60029055565b6131186116a9565b156131365760405163d93c066560e01b815260040160405180910390fd5b565b335f818152601a60205260408120549091908790811061316b5760405163673f032f60e11b815260040160405180910390fd5b60016001600160a01b0383165f908152601a60205260409020805483908110613196576131966150ef565b5f918252602090912060039182020154600160a81b900460ff16908111156131c0576131c0614c36565b146131de57604051631f9c0ddd60e31b815260040160405180910390fd5b86805f036131ff57604051631f2a200560e01b815260040160405180910390fd5b600187015480156132dd575f613215338c610e60565b90505f613222838361512e565b90508015613272578060045f82825461323b9190615259565b909155505060018a018290554260028b01556040518181528c9033905f805160206158818339815191529060200160405180910390a35b61327d828a8a613424565b818b1161328a578a61328c565b815b9650613298878361512e565b60018b01554260028b01556040518781528c9033907f77c6871227e5d2dec8dadd5354f78453203e22e669cd0ec4c19d9a8c5edb31d09060200160405180910390a350505b5050505095945050505050565b6040516001600160a01b038481166024830152838116604483015260648201839052610ccd9186918216906323b872dd906084015b604051602081830303815290604052915060e01b6020820180516001600160e01b038381831617835250505050614411565b5f836001600160a01b031663095ea7b38484604051602401613374929190615141565b604051602081830303815290604052915060e01b6020820180516001600160e01b03838183161783525050505090506133ad848261447d565b610ccd576133d784856001600160a01b031663095ea7b3865f60405160240161331f929190615141565b610ccd8482614411565b5f6106af826144c2565b5f8080806133f986866144cc565b909450925050505b9250929050565b613411816144f5565b50565b5f61341d6143ed565b6001905550565b82805f0361344557604051631f2a200560e01b815260040160405180910390fd5b82805f0361346657604051631f2a200560e01b815260040160405180910390fd5b8263ffffffff16805f0361348d57604051631f2a200560e01b815260040160405180910390fd5b5f8587116134a45761349f878761512e565b6134ae565b6134ae868861512e565b90506134c063ffffffff861687615324565b6134cc82612710615324565b111561201657604051636ea5a3df60e01b815260040160405180910390fd5b7f02dd7bc7dec4dceedda775e58dd541e08a116c6c53815c0bd028192f7b62680090565b6134118133614542565b5f806135236134eb565b905061352f8484612264565b6135ae575f848152602082815260408083206001600160a01b03871684529091529020805460ff191660011790556135643390565b6001600160a01b0316836001600160a01b0316857f2f8788117e7eff1d82e926ec794901d17c78024a50270940304540a733656f0d60405160405180910390a460019150506106af565b5f9150506106af565b60605f6135c38361456d565b9392505050565b5f835f036135d957505f6135c3565b6135ec846135e685614578565b846145cf565b949350505050565b5f806135fe6134eb565b905061360a8484612264565b156135ae575f848152602082815260408083206001600160a01b0387168085529252808320805460ff1916905551339287917ff6391f5c32d9c69d2a47ea670b442974b53935d1edc7fd64eb21e047a839171b9190a460019150506106af565b5f805f61367786866145e3565b91509150815f0361369b57838181613691576136916157c2565b04925050506135c3565b8184116136b2576136b260038515026011186145ff565b5f848688095f868103871696879004966002600389028118808a02820302808a02820302808a02820302808a02820302808a02820302808a02909103029181900381900460010185841190960395909502919093039390930492909217029150509392505050565b335f908152601b602090815260408083208484529091528120908061373f8387614334565b9150915081158061374f57508481105b1561376d5760405163fe382aa760e01b815260040160405180910390fd5b5f613778868361512e565b9050801580156137bf5750335f908152601a602052604090208054869081106137a3576137a36150ef565b5f918252602090912060039091020154600160a01b900460ff16155b156137d4576137ce8488614610565b506137e1565b6137df848883614398565b505b6001600160a01b0387165f9081526019602052604081205461380490889061512e565b604080516060810182528281526017549151637d39d74b60e01b81529293509160208301916001600160a01b031690637d39d74b90613849908d908790600401615141565b6020604051808303815f875af1158015613865573d5f803e3d5ffd5b505050506040513d601f19601f8201168201806040525081019061388991906150d8565b8152426020918201526001600160a01b038a165f9081526019825260408082208451815584840151600182015593810151600290940193909355338152601a909152208054879081106138de576138de6150ef565b905f5260205f209060030201600101546138f83388612749565b101561391757604051633ca95b3d60e21b815260040160405180910390fd5b876001600160a01b03165f805160206158618339815191528260405161393f91815260200190565b60405180910390a25050505050505050565b6001600160a01b0384165f908152601a6020526040812080548291908690811061397d5761397d6150ef565b5f91825260208220600390910201805460018201549193506001600160a01b031691908015613a11576139b08989610e60565b91505f6139bd828461512e565b90508015613a0f578060045f8282546139d69190615259565b909155505042600286015560405181815289906001600160a01b038c16905f805160206158818339815191529060200160405180910390a35b505b5f613a1c8a8a6116d1565b90505f613a2d84836005545f61434b565b9050613a398185615259565b9650613a46878a8a613424565b5f60018701819055865460ff60a81b1916600160a91b178755613a698c8c610dee565b604051630787aa1b60e11b81529091506001600160a01b03871690630f0f543690613a9a90849033906004016157d6565b5f604051808303815f87803b158015613ab1575f80fd5b505af1158015613ac3573d5f803e3d5ffd5b5050506001600160a01b038d165f908152601b602090815260408083208f84529091529020613af29150613408565b60405133908c906001600160a01b038f16907f0c210dbb07f7aab03c41ec07f0da12daaa276057060fdded4ad506ce2d503595905f90a450505050505050949350505050565b6001600160a01b0385165f908152601a60205260408120805486908110613b6157613b616150ef565b905f5260205f20906003020190505f805f601a5f8a6001600160a01b03166001600160a01b031681526020019081526020015f208881548110613ba657613ba66150ef565b905f5260205f2090600302016001015490505f811115613c2f57613bca8989610e60565b9250613bd6818461512e565b91508115613c2f578160045f828254613bef9190615259565b90915550506001840183905542600285015560405182815288906001600160a01b038b16905f805160206158818339815191529060200160405180910390a35b6018546040805163020a17bd60e61b815290515f926001600160a01b031691638285ef409160048083019260209291908290030181865afa158015613c76573d5f803e3d5ffd5b505050506040513d601f19601f82011682018060405250810190613c9a91906150d8565b60185f9054906101000a90046001600160a01b03166001600160a01b03166301e1d1146040518163ffffffff1660e01b8152600401602060405180830381865afa158015613cea573d5f803e3d5ffd5b505050506040513d601f19601f82011682018060405250810190613d0e91906150d8565b613d18919061512e565b905080613d258985615259565b1115613d44576040516343c7ad8160e11b815260040160405180910390fd5b8454600160a01b900460ff1615613d6957613d698a8a613d648b88615259565b614624565b5f613d748b8b612749565b9050613d81818989613424565b80613d8c8a87615259565b1115613dab57604051633ca95b3d60e21b815260040160405180910390fd5b613db58986615259565b60018701555050426002909401939093555050505050505050565b6017546040516355c77f3760e11b815284916001600160a01b03169063ab8efe6e90613e00908490600401614b76565b602060405180830381865afa158015613e1b573d5f803e3d5ffd5b505050506040513d601f19601f82011682018060405250810190613e3f91906157a7565b613e5c5760405163665c1c5760e01b815260040160405180910390fd5b335f818152601a602052604090205483908110613e8c5760405163673f032f60e11b815260040160405180910390fd5b60016001600160a01b0383165f908152601a60205260409020805483908110613eb757613eb76150ef565b5f918252602090912060039182020154600160a81b900460ff1690811115613ee157613ee1614c36565b14613eff57604051631f9c0ddd60e31b815260040160405180910390fd5b6001600160a01b038681165f81815260196020908152604080832054338452601b83528184208a85529092529182902060175492516246be7d60e61b81526004810194909452602484018a905260448401829052909390929116906311af9f4090606401602060405180830381865afa158015613f7e573d5f803e3d5ffd5b505050506040513d601f19601f82011682018060405250810190613fa291906157a7565b15613fc0576040516312aad46760e21b815260040160405180910390fd5b60175460405163221c83d960e11b81526003916001600160a01b03169063443907b290613ff1908c90600401614b76565b602060405180830381865afa15801561400c573d5f803e3d5ffd5b505050506040513d601f19601f82011682018060405250810190614030919061515a565b600381111561404157614041614c36565b1480156140855750335f908152601a60205260409020805487908110614069576140696150ef565b5f918252602090912060039091020154600160a01b900460ff16155b156140a35760405163c600426b60e01b815260040160405180910390fd5b335f908152601a602052604090208054879081106140c3576140c36150ef565b5f918252602090912060039091020154600160a01b900460ff1680156140f057505f6140ee826133e1565b115b15614137575f61410082826133eb565b509050806001600160a01b0316896001600160a01b031614614135576040516305acd33b60e11b815260040160405180910390fd5b505b5f80614143838b614334565b915091508115801561415e5750601461415b846133e1565b10155b1561417c5760405163b153e91160e01b815260040160405180910390fd5b5f826141885789614192565b6141928a83615259565b6017546040516359aa38dd60e01b81529192506001600160a01b0316906359aa38dd906141c5908e908590600401615141565b602060405180830381865afa1580156141e0573d5f803e3d5ffd5b505050506040513d601f19601f8201168201806040525081019061420491906157a7565b156142225760405163733653fd60e01b815260040160405180910390fd5b61422d848c83614398565b505f6142398b87615259565b9050604051806060016040528082815260200160175f9054906101000a90046001600160a01b03166001600160a01b0316637d39d74b8f856040518363ffffffff1660e01b815260040161428e929190615141565b6020604051808303815f875af11580156142aa573d5f803e3d5ffd5b505050506040513d601f19601f820116820180604052508101906142ce91906150d8565b8152426020918201526001600160a01b038e165f81815260198352604090819020845181558484015160018201559381015160029094019390935591518381525f80516020615861833981519152910160405180910390a2505050505050505050505050565b5f8080806133f9866001600160a01b0387166146ef565b5f6143786143588361472f565b801561437357505f848061436e5761436e6157c2565b868809115b151590565b61438386868661366a565b610e579190615259565b5f6106af825f61475b565b5f6135ec846001600160a01b038516846147ef565b5f807ff0c57e16840df040f15088dc2f81fe391c3923bec73e23a9662efc9c229c6a006106af565b61313661480b565b6143e561480b565b613136614830565b7f9b779b17422d0df92223018b32b4d1fa46e071723d6817e2486d003becc55f0090565b5f8060205f8451602086015f885af180614430576040513d5f823e3d81fd5b50505f513d91508115614447578060011415614454565b6001600160a01b0384163b155b15610ccd5783604051635274afe760e01b81526004016144749190614b76565b60405180910390fd5b5f805f8060205f8651602088015f8a5af192503d91505f519050828015611787575081156144ae5780600114611787565b50505050506001600160a01b03163b151590565b5f6106af82614838565b5f80806144d98585614841565b5f81815260029690960160205260409095205494959350505050565b5f6144ff826144c2565b90505f5b8181101561453457600283015f61451a8584614841565b815260208101919091526040015f90812055600101614503565b5061453e8261484c565b5050565b61454c8282612264565b61453e57808260405163e2517d3f60e01b8152600401614474929190615141565b60606106af82614855565b5f8061459483676765c793fa10079d601b1b620f42405f61434b565b90506145ba81676765c793fa10079d601b1b6145b4816301e13380615324565b5f61434b565b6135c390676765c793fa10079d601b1b615259565b5f6135ec846145de8585614861565b6148b8565b5f805f1983850993909202808410938190039390930393915050565b634e487b715f52806020526024601cfd5b5f6135c3836001600160a01b0384166148d1565b6001600160a01b0383165f908152601b60209081526040808320858452909152812061465090826133eb565b50601754604051638fde887960e01b81529192505f916001600160a01b0390911690638fde887990614686908590600401614b76565b602060405180830381865afa1580156146a1573d5f803e3d5ffd5b505050506040513d601f19601f820116820180604052508101906146c591906150d8565b9050808311156146e8576040516358440d4760e11b815260040160405180910390fd5b5050505050565b5f81815260028301602052604081205481908061471c5761471085856148ed565b92505f91506134019050565b600192509050613401565b509250929050565b5f600282600381111561474457614744614c36565b61474e91906157ff565b60ff166001149050919050565b5f814710156147865760405163cf47918160e01b815247600482015260248101839052604401614474565b763d602d80600a3d3981f3363d3d373d3d3d363d730000008360601b60e81c175f526e5af43d82803e903d91602b57fd5bf38360781b176020526037600983f090506001600160a01b0381166106af5760405163b06ebf3d60e01b815260040160405180910390fd5b5f82815260028401602052604081208290556135ec84846148f8565b614813614903565b61313657604051631afcd79f60e31b815260040160405180910390fd5b61341461480b565b5f6106af825490565b5f6135c3838361491c565b61341181614942565b60605f6135c38361499b565b676765c793fa10079d601b1b81156106af57816001036148825750816106af565b81156106af57816001166001036148a05761489d81846148b8565b90505b6148aa83846148b8565b9250600182901c9150614882565b5f6135c38383676765c793fa10079d601b1b600161434b565b5f81815260028301602052604081208190556135c383836149f4565b5f6135c383836149ff565b5f6135c38383614a0a565b5f61490c6143ad565b54600160401b900460ff16919050565b5f825f018281548110614931576149316150ef565b905f5260205f200154905092915050565b5f61494b825490565b90505f5b8181101561499457826001015f845f018381548110614970576149706150ef565b905f5260205f20015481526020019081526020015f205f905580600101905061494f565b50505f9055565b6060815f018054806020026020016040519081016040528092919081815260200182805480156149e857602002820191905f5260205f20905b8154815260200190600101908083116149d4575b50505050509050919050565b5f6135c38383614a51565b5f6135c38383614b2b565b5f614a158383614b2b565b614a4a57508154600181810184555f8481526020808220909301849055845484825282860190935260409020919091556106af565b505f6106af565b5f81815260018301602052604081205480156135ae575f614a7360018361512e565b85549091505f90614a869060019061512e565b9050808214614ae5575f865f018281548110614aa457614aa46150ef565b905f5260205f200154905080875f018481548110614ac457614ac46150ef565b5f918252602080832090910192909255918252600188019052604090208390555b8554869080614af657614af661582c565b600190038181905f5260205f20015f90559055856001015f8681526020019081526020015f205f9055600193505050506106af565b5f9081526001919091016020526040902054151590565b5f60208284031215614b52575f80fd5b81356001600160e01b0319811681146135c3575f80fd5b6001600160a01b03169052565b6001600160a01b0391909116815260200190565b60048110613411575f80fd5b5f60208284031215614ba6575f80fd5b81356135c381614b8a565b63ffffffff81168114613411575f80fd5b5f805f60608486031215614bd4575f80fd5b83359250602084013591506040840135614bed81614bb1565b809150509250925092565b6001600160a01b0381168114613411575f80fd5b5f8060408385031215614c1d575f80fd5b8235614c2881614bf8565b946020939093013593505050565b634e487b7160e01b5f52602160045260245ffd5b6004811061341157634e487b7160e01b5f52602160045260245ffd5b80516001600160a01b031682526020808201511515908301526040810151614c8d81614c4a565b604083015260608181015190830152608090810151910152565b60a081016106af8284614c66565b5f60208284031215614cc5575f80fd5b5035919050565b5f60208284031215614cdc575f80fd5b81356135c381614bf8565b602080825282518282018190525f9190848201906040850190845b81811015614d2857614d15838551614c66565b9284019260a09290920191600101614d02565b50909695505050505050565b5f8060408385031215614d45575f80fd5b823591506020830135614d5781614bf8565b809150509250929050565b5f815180845260208085019450602084015f5b83811015614d9a5781516001600160a01b031687529582019590820190600101614d75565b509495945050505050565b602081525f6135c36020830184614d62565b60208101614dc483614c4a565b91905290565b5f805f805f60a08688031215614dde575f80fd5b8535614de981614bf8565b94506020860135935060408601359250606086013591506080860135614e0e81614bb1565b809150509295509295909350565b5f81518084525f5b81811015614e4057602081850181015186830182015201614e24565b505f602082860101526020601f19601f83011685010191505092915050565b60208152614e71602082018351614b69565b5f6020830151614e846040840182614b69565b506040830151614e976060840182614b69565b506060830151614eaa6080840182614b69565b506080830151614ebd60a0840182614b69565b5060a083015160c083015260c08301516101408060e0850152614ee4610160850183614e1c565b915060e0850151610100601f198685030181870152614f038483614e1c565b90870151610120878101919091529096015115159190940152509192915050565b5f805f8060808587031215614f37575f80fd5b8435614f4281614bf8565b935060208501359250604085013591506060850135614f6081614bb1565b939692955090935050565b5f805f8060808587031215614f7e575f80fd5b8435935060208501359250604085013591506060850135614f6081614bb1565b5f60e08284031215614fae575f80fd5b50919050565b5f805f60608486031215614fc6575f80fd5b8335614fd181614bf8565b95602085013595506040909401359392505050565b5f60208284031215614ff6575f80fd5b81356001600160401b0381111561500b575f80fd5b820161014081850312156135c3575f80fd5b5f805f6060848603121561502f575f80fd5b833561503a81614bf8565b9250602084013591506040840135614bed81614bf8565b8015158114613411575f80fd5b5f806040838503121561506f575f80fd5b823561507a81614bf8565b91506020830135614d5781615051565b5f805f806080858703121561509d575f80fd5b84356150a881614bf8565b935060208501356150b881614bf8565b925060408501356150c881614bf8565b91506060850135614f6081614bf8565b5f602082840312156150e8575f80fd5b5051919050565b634e487b7160e01b5f52603260045260245ffd5b9182526001600160a01b0316602082015260400190565b634e487b7160e01b5f52601160045260245ffd5b818103818111156106af576106af61511a565b6001600160a01b03929092168252602082015260400190565b5f6020828403121561516a575f80fd5b81516135c381614b8a565b634e487b7160e01b5f52604160045260245ffd5b604051601f8201601f191681016001600160401b03811182821017156151b1576151b1615175565b604052919050565b5f60208083850312156151ca575f80fd5b82516001600160401b03808211156151e0575f80fd5b818501915085601f8301126151f3575f80fd5b81518181111561520557615205615175565b8060051b9150615216848301615189565b818152918301840191848101908884111561522f575f80fd5b938501935b83851015612969578451925061524983614bf8565b8282529385019390850190615234565b808201808211156106af576106af61511a565b9283526001600160a01b03918216602084015216604082015260600190565b805161ffff8116811461529c575f80fd5b919050565b805160ff8116811461529c575f80fd5b5f608082840312156152c1575f80fd5b604051608081016001600160401b03811182821017156152e3576152e3615175565b604052825181526152f66020840161528b565b60208201526153076040840161528b565b6040820152615318606084016152a1565b60608201529392505050565b80820281158282048414176106af576106af61511a565b600181815b8085111561472757815f190482111561535b5761535b61511a565b8085161561536857918102915b93841c9390800290615340565b5f82615383575060016106af565b8161538f57505f6106af565b81600181146153a557600281146153af576153cb565b60019150506106af565b60ff8411156153c0576153c061511a565b50506001821b6106af565b5060208310610133831016604e8410600b84101617156153ee575081810a6106af565b6153f8838361533b565b805f190482111561540b5761540b61511a565b029392505050565b5f6135c360ff841683615375565b600181811c9082168061543557607f821691505b602082108103614fae57634e487b7160e01b5f52602260045260245ffd5b5f60208284031215615463575f80fd5b81356135c381614bb1565b813581556020820135600182015560408201356002820155606082013560038201556080820135600482015560a082013560058201556006810160c08301356154b681614bb1565b815463ffffffff191663ffffffff919091161790555050565b5f60e082019050823582526020830135602083015260408301356040830152606083013560608301526080830135608083015260a083013560a083015260c083013561551a81614bb1565b63ffffffff811660c08401525092915050565b5f81356106af81614bf8565b80546001600160a01b0319166001600160a01b0392909216919091179055565b5f808335601e1984360301811261556e575f80fd5b8301803591506001600160401b03821115615587575f80fd5b602001915036819003821315613401575f80fd5b601f821115610a8257805f5260205f20601f840160051c810160208510156155c05750805b601f840160051c820191505b818110156146e8575f81556001016155cc565b6001600160401b038311156155f6576155f6615175565b61560a836156048354615421565b8361559b565b5f601f84116001811461563b575f85156156245750838201355b5f19600387901b1c1916600186901b1783556146e8565b5f83815260208120601f198716915b8281101561566a578685013582556020948501946001909201910161564a565b5086821015615686575f1960f88860031b161c19848701351681555b505060018560011b0183555050505050565b5f81356106af81615051565b6156b66156b08361552d565b82615539565b6156ce6156c56020840161552d565b60018301615539565b6156e66156dd6040840161552d565b60028301615539565b6156fe6156f56060840161552d565b60038301615539565b61571661570d6080840161552d565b60048301615539565b60a0820135600582015561572d60c0830183615559565b61573b8183600686016155df565b505061574a60e0830183615559565b6157588183600786016155df565b5050610100820135600882015561453e6157756101208401615698565b6009830160ff1981541660ff8315151681178255505050565b5f6020828403121561579e575f80fd5b6135c3826152a1565b5f602082840312156157b7575f80fd5b81516135c381615051565b634e487b7160e01b5f52601260045260245ffd5b604081525f6157e86040830185614d62565b905060018060a01b03831660208301529392505050565b5f60ff83168061581d57634e487b7160e01b5f52601260045260245ffd5b8060ff84160691505092915050565b634e487b7160e01b5f52603160045260245ffdfe241ecf16d79d0f8dbfb92cbc07fe17840425976cf0667f022fe9877caa831b08c6743b4453831b48feff7d4487dc4703aaa40a48290051fd73e241982dab04f24557e05caeefc19fe1b4badbbd2996f86791aa6e830e224dc79c20725c38b9c1b062b19f44a2b02f378c97416f19092b29ea5fca12ef360406fbfbd2b278e203a264697066735822122051903ccf7b4117dc5a0db9e4622d9571e2026e7134b7f93e387cedfed1b2fe2564736f6c63430008170033","linkReferences":{}},"methodIdentifiers":{"DEFAULT_ADMIN_ROLE()":"a217fddf","baseAsset()":"cdf456e1","baseDecimals()":"33f76178","borrow(uint256,uint256,uint256,uint32)":"8f805fa0","cVault()":"eebfe9e2","calculateCollateralValue(address,uint256)":"ca948e74","calculateCreditLimit(address,uint256)":"d60bfcb4","calculateDebtWithInterest(address,uint256)":"34e2cd0f","calculateLimits(address,uint256)":"4e90c84c","createPosition(address,bool)":"f4097b43","depositLiquidity(uint256,uint256,uint32)":"1e1cb27f","exitPosition(uint256,uint256,uint32)":"1777d0e9","getAssetTVL(address)":"70674459","getBorrowRate(uint8)":"0ac40e96","getCollateralAmount(address,uint256,address)":"e293b6c3","getConfig()":"c3f909d4","getMainConfig()":"cc91495f","getPositionCollateralAssets(address,uint256)":"30306e4b","getPositionLiquidationFee(address,uint256)":"68099d8c","getPositionTier(address,uint256)":"3f609131","getRoleAdmin(bytes32)":"248a9ca3","getSupplyRate()":"84bdc9a8","getUserPosition(address,uint256)":"1c88ef1e","getUserPositions(address)":"2a6bc2dd","getUserPositionsCount(address)":"65939ebc","govToken()":"05268cff","grantRole(bytes32,address)":"2f2ff15d","hasRole(bytes32,address)":"91d14854","healthFactor(address,uint256)":"e2eb67f0","initialize(address,address,address,address)":"f8c8765e","initializeMarket((address,address,address,address,address,uint256,string,string,uint256,bool))":"c6628810","isCollateralized()":"49e3284e","isLiquidatable(address,uint256)":"3fdfb2aa","liquidate(address,uint256,uint256,uint32)":"849f896e","loadProtocolConfig((uint256,uint256,uint256,uint256,uint256,uint256,uint32))":"908d18a0","market()":"80f55605","marketFactory()":"06ae7095","mintShares(uint256,uint256,uint32)":"da64b4a5","paused()":"5c975abb","redeemLiquidityShares(uint256,uint256,uint32)":"f36cc7c6","renounceRole(bytes32,address)":"36568abe","repay(uint256,uint256,uint256,uint32)":"f4813b6f","revokeRole(bytes32,address)":"d547741f","supplyCollateral(address,uint256,uint256)":"b7575f2f","supportsInterface(bytes4)":"01ffc9a7","totalAccruedBorrowerInterest()":"6188a5c9","totalBorrow()":"8285ef40","withdrawCollateral(address,uint256,uint256,uint256,uint32)":"741e147a","withdrawLiquidity(uint256,uint256,uint32)":"4a485693"},"storageLayout":{"storage":[{"astId":14998,"contract":"contracts/markets/LendefiCore.sol:LendefiCore","label":"govToken","offset":0,"slot":"0","type":"t_address"},{"astId":15001,"contract":"contracts/markets/LendefiCore.sol:LendefiCore","label":"baseAsset","offset":0,"slot":"1","type":"t_address"},{"astId":15004,"contract":"contracts/markets/LendefiCore.sol:LendefiCore","label":"marketFactory","offset":0,"slot":"2","type":"t_address"},{"astId":15007,"contract":"contracts/markets/LendefiCore.sol:LendefiCore","label":"cVault","offset":0,"slot":"3","type":"t_address"},{"astId":15010,"contract":"contracts/markets/LendefiCore.sol:LendefiCore","label":"totalAccruedBorrowerInterest","offset":0,"slot":"4","type":"t_uint256"},{"astId":15013,"contract":"contracts/markets/LendefiCore.sol:LendefiCore","label":"baseDecimals","offset":0,"slot":"5","type":"t_uint256"},{"astId":15017,"contract":"contracts/markets/LendefiCore.sol:LendefiCore","label":"marketInfo","offset":0,"slot":"6","type":"t_struct(Market)10359_storage"},{"astId":15021,"contract":"contracts/markets/LendefiCore.sol:LendefiCore","label":"mainConfig","offset":0,"slot":"16","type":"t_struct(ProtocolConfig)10280_storage"},{"astId":15025,"contract":"contracts/markets/LendefiCore.sol:LendefiCore","label":"assetsModule","offset":0,"slot":"23","type":"t_contract(IASSETS)7719"},{"astId":15029,"contract":"contracts/markets/LendefiCore.sol:LendefiCore","label":"baseVault","offset":0,"slot":"24","type":"t_contract(ILendefiMarketVault)9980"},{"astId":15035,"contract":"contracts/markets/LendefiCore.sol:LendefiCore","label":"assetTVL","offset":0,"slot":"25","type":"t_mapping(t_address,t_struct(AssetTracking)10367_storage)"},{"astId":15042,"contract":"contracts/markets/LendefiCore.sol:LendefiCore","label":"positions","offset":0,"slot":"26","type":"t_mapping(t_address,t_array(t_struct(UserPosition)10293_storage)dyn_storage)"},{"astId":15050,"contract":"contracts/markets/LendefiCore.sol:LendefiCore","label":"positionCollateral","offset":0,"slot":"27","type":"t_mapping(t_address,t_mapping(t_uint256,t_struct(AddressToUintMap)71837_storage))"},{"astId":15055,"contract":"contracts/markets/LendefiCore.sol:LendefiCore","label":"__gap","offset":0,"slot":"28","type":"t_array(t_uint256)10_storage"}],"types":{"t_address":{"encoding":"inplace","label":"address","numberOfBytes":"20"},"t_array(t_bytes32)dyn_storage":{"encoding":"dynamic_array","label":"bytes32[]","numberOfBytes":"32","base":"t_bytes32"},"t_array(t_struct(UserPosition)10293_storage)dyn_storage":{"encoding":"dynamic_array","label":"struct IPROTOCOL.UserPosition[]","numberOfBytes":"32","base":"t_struct(UserPosition)10293_storage"},"t_array(t_uint256)10_storage":{"encoding":"inplace","label":"uint256[10]","numberOfBytes":"320","base":"t_uint256"},"t_bool":{"encoding":"inplace","label":"bool","numberOfBytes":"1"},"t_bytes32":{"encoding":"inplace","label":"bytes32","numberOfBytes":"32"},"t_contract(IASSETS)7719":{"encoding":"inplace","label":"contract IASSETS","numberOfBytes":"20"},"t_contract(ILendefiMarketVault)9980":{"encoding":"inplace","label":"contract ILendefiMarketVault","numberOfBytes":"20"},"t_enum(PositionStatus)10254":{"encoding":"inplace","label":"enum IPROTOCOL.PositionStatus","numberOfBytes":"1"},"t_mapping(t_address,t_array(t_struct(UserPosition)10293_storage)dyn_storage)":{"encoding":"mapping","key":"t_address","label":"mapping(address => struct IPROTOCOL.UserPosition[])","numberOfBytes":"32","value":"t_array(t_struct(UserPosition)10293_storage)dyn_storage"},"t_mapping(t_address,t_mapping(t_uint256,t_struct(AddressToUintMap)71837_storage))":{"encoding":"mapping","key":"t_address","label":"mapping(address => mapping(uint256 => struct EnumerableMap.AddressToUintMap))","numberOfBytes":"32","value":"t_mapping(t_uint256,t_struct(AddressToUintMap)71837_storage)"},"t_mapping(t_address,t_struct(AssetTracking)10367_storage)":{"encoding":"mapping","key":"t_address","label":"mapping(address => struct IPROTOCOL.AssetTracking)","numberOfBytes":"32","value":"t_struct(AssetTracking)10367_storage"},"t_mapping(t_bytes32,t_bytes32)":{"encoding":"mapping","key":"t_bytes32","label":"mapping(bytes32 => bytes32)","numberOfBytes":"32","value":"t_bytes32"},"t_mapping(t_bytes32,t_uint256)":{"encoding":"mapping","key":"t_bytes32","label":"mapping(bytes32 => uint256)","numberOfBytes":"32","value":"t_uint256"},"t_mapping(t_uint256,t_struct(AddressToUintMap)71837_storage)":{"encoding":"mapping","key":"t_uint256","label":"mapping(uint256 => struct EnumerableMap.AddressToUintMap)","numberOfBytes":"32","value":"t_struct(AddressToUintMap)71837_storage"},"t_string_storage":{"encoding":"bytes","label":"string","numberOfBytes":"32"},"t_struct(AddressToUintMap)71837_storage":{"encoding":"inplace","label":"struct EnumerableMap.AddressToUintMap","numberOfBytes":"96","members":[{"astId":71836,"contract":"contracts/markets/LendefiCore.sol:LendefiCore","label":"_inner","offset":0,"slot":"0","type":"t_struct(Bytes32ToBytes32Map)70899_storage"}]},"t_struct(AssetTracking)10367_storage":{"encoding":"inplace","label":"struct IPROTOCOL.AssetTracking","numberOfBytes":"96","members":[{"astId":10362,"contract":"contracts/markets/LendefiCore.sol:LendefiCore","label":"tvl","offset":0,"slot":"0","type":"t_uint256"},{"astId":10364,"contract":"contracts/markets/LendefiCore.sol:LendefiCore","label":"tvlUSD","offset":0,"slot":"1","type":"t_uint256"},{"astId":10366,"contract":"contracts/markets/LendefiCore.sol:LendefiCore","label":"lastUpdate","offset":0,"slot":"2","type":"t_uint256"}]},"t_struct(Bytes32Set)73307_storage":{"encoding":"inplace","label":"struct EnumerableSet.Bytes32Set","numberOfBytes":"64","members":[{"astId":73306,"contract":"contracts/markets/LendefiCore.sol:LendefiCore","label":"_inner","offset":0,"slot":"0","type":"t_struct(Set)73070_storage"}]},"t_struct(Bytes32ToBytes32Map)70899_storage":{"encoding":"inplace","label":"struct EnumerableMap.Bytes32ToBytes32Map","numberOfBytes":"96","members":[{"astId":70894,"contract":"contracts/markets/LendefiCore.sol:LendefiCore","label":"_keys","offset":0,"slot":"0","type":"t_struct(Bytes32Set)73307_storage"},{"astId":70898,"contract":"contracts/markets/LendefiCore.sol:LendefiCore","label":"_values","offset":0,"slot":"2","type":"t_mapping(t_bytes32,t_bytes32)"}]},"t_struct(Market)10359_storage":{"encoding":"inplace","label":"struct IPROTOCOL.Market","numberOfBytes":"320","members":[{"astId":10340,"contract":"contracts/markets/LendefiCore.sol:LendefiCore","label":"core","offset":0,"slot":"0","type":"t_address"},{"astId":10342,"contract":"contracts/markets/LendefiCore.sol:LendefiCore","label":"baseVault","offset":0,"slot":"1","type":"t_address"},{"astId":10344,"contract":"contracts/markets/LendefiCore.sol:LendefiCore","label":"baseAsset","offset":0,"slot":"2","type":"t_address"},{"astId":10346,"contract":"contracts/markets/LendefiCore.sol:LendefiCore","label":"assetsModule","offset":0,"slot":"3","type":"t_address"},{"astId":10348,"contract":"contracts/markets/LendefiCore.sol:LendefiCore","label":"porFeed","offset":0,"slot":"4","type":"t_address"},{"astId":10350,"contract":"contracts/markets/LendefiCore.sol:LendefiCore","label":"decimals","offset":0,"slot":"5","type":"t_uint256"},{"astId":10352,"contract":"contracts/markets/LendefiCore.sol:LendefiCore","label":"name","offset":0,"slot":"6","type":"t_string_storage"},{"astId":10354,"contract":"contracts/markets/LendefiCore.sol:LendefiCore","label":"symbol","offset":0,"slot":"7","type":"t_string_storage"},{"astId":10356,"contract":"contracts/markets/LendefiCore.sol:LendefiCore","label":"createdAt","offset":0,"slot":"8","type":"t_uint256"},{"astId":10358,"contract":"contracts/markets/LendefiCore.sol:LendefiCore","label":"active","offset":0,"slot":"9","type":"t_bool"}]},"t_struct(ProtocolConfig)10280_storage":{"encoding":"inplace","label":"struct IPROTOCOL.ProtocolConfig","numberOfBytes":"224","members":[{"astId":10267,"contract":"contracts/markets/LendefiCore.sol:LendefiCore","label":"profitTargetRate","offset":0,"slot":"0","type":"t_uint256"},{"astId":10269,"contract":"contracts/markets/LendefiCore.sol:LendefiCore","label":"borrowRate","offset":0,"slot":"1","type":"t_uint256"},{"astId":10271,"contract":"contracts/markets/LendefiCore.sol:LendefiCore","label":"rewardAmount","offset":0,"slot":"2","type":"t_uint256"},{"astId":10273,"contract":"contracts/markets/LendefiCore.sol:LendefiCore","label":"rewardInterval","offset":0,"slot":"3","type":"t_uint256"},{"astId":10275,"contract":"contracts/markets/LendefiCore.sol:LendefiCore","label":"rewardableSupply","offset":0,"slot":"4","type":"t_uint256"},{"astId":10277,"contract":"contracts/markets/LendefiCore.sol:LendefiCore","label":"liquidatorThreshold","offset":0,"slot":"5","type":"t_uint256"},{"astId":10279,"contract":"contracts/markets/LendefiCore.sol:LendefiCore","label":"flashLoanFee","offset":0,"slot":"6","type":"t_uint32"}]},"t_struct(Set)73070_storage":{"encoding":"inplace","label":"struct EnumerableSet.Set","numberOfBytes":"64","members":[{"astId":73065,"contract":"contracts/markets/LendefiCore.sol:LendefiCore","label":"_values","offset":0,"slot":"0","type":"t_array(t_bytes32)dyn_storage"},{"astId":73069,"contract":"contracts/markets/LendefiCore.sol:LendefiCore","label":"_positions","offset":0,"slot":"1","type":"t_mapping(t_bytes32,t_uint256)"}]},"t_struct(UserPosition)10293_storage":{"encoding":"inplace","label":"struct IPROTOCOL.UserPosition","numberOfBytes":"96","members":[{"astId":10283,"contract":"contracts/markets/LendefiCore.sol:LendefiCore","label":"vault","offset":0,"slot":"0","type":"t_address"},{"astId":10285,"contract":"contracts/markets/LendefiCore.sol:LendefiCore","label":"isIsolated","offset":20,"slot":"0","type":"t_bool"},{"astId":10288,"contract":"contracts/markets/LendefiCore.sol:LendefiCore","label":"status","offset":21,"slot":"0","type":"t_enum(PositionStatus)10254"},{"astId":10290,"contract":"contracts/markets/LendefiCore.sol:LendefiCore","label":"debtAmount","offset":0,"slot":"1","type":"t_uint256"},{"astId":10292,"contract":"contracts/markets/LendefiCore.sol:LendefiCore","label":"lastInterestAccrual","offset":0,"slot":"2","type":"t_uint256"}]},"t_uint256":{"encoding":"inplace","label":"uint256","numberOfBytes":"32"},"t_uint32":{"encoding":"inplace","label":"uint32","numberOfBytes":"4"}}},"id":33}