{"abi":[{"type":"constructor","inputs":[],"stateMutability":"nonpayable"},{"type":"function","name":"DEFAULT_ADMIN_ROLE","inputs":[],"outputs":[{"name":"","type":"bytes32","internalType":"bytes32"}],"stateMutability":"view"},{"type":"function","name":"UPGRADE_INTERFACE_VERSION","inputs":[],"outputs":[{"name":"","type":"string","internalType":"string"}],"stateMutability":"view"},{"type":"function","name":"cancelUpgrade","inputs":[],"outputs":[],"stateMutability":"nonpayable"},{"type":"function","name":"checkPriceDeviation","inputs":[{"name":"asset","type":"address","internalType":"address"}],"outputs":[{"name":"isDeviated","type":"bool","internalType":"bool"},{"name":"deviation","type":"uint256","internalType":"uint256"}],"stateMutability":"view"},{"type":"function","name":"circuitBroken","inputs":[{"name":"asset","type":"address","internalType":"address"}],"outputs":[{"name":"broken","type":"bool","internalType":"bool"}],"stateMutability":"view"},{"type":"function","name":"coreAddress","inputs":[],"outputs":[{"name":"","type":"address","internalType":"address"}],"stateMutability":"view"},{"type":"function","name":"evaluateCircuitBreaker","inputs":[{"name":"asset","type":"address","internalType":"address"}],"outputs":[{"name":"triggered","type":"bool","internalType":"bool"},{"name":"deviation","type":"uint256","internalType":"uint256"}],"stateMutability":"nonpayable"},{"type":"function","name":"getAssetBorrowThreshold","inputs":[{"name":"asset","type":"address","internalType":"address"}],"outputs":[{"name":"","type":"uint16","internalType":"uint16"}],"stateMutability":"view"},{"type":"function","name":"getAssetCalculationParams","inputs":[{"name":"asset","type":"address","internalType":"address"}],"outputs":[{"name":"","type":"tuple","internalType":"struct IASSETS.AssetCalculationParams","components":[{"name":"price","type":"uint256","internalType":"uint256"},{"name":"borrowThreshold","type":"uint16","internalType":"uint16"},{"name":"liquidationThreshold","type":"uint16","internalType":"uint16"},{"name":"decimals","type":"uint8","internalType":"uint8"}]}],"stateMutability":"view"},{"type":"function","name":"getAssetDecimals","inputs":[{"name":"asset","type":"address","internalType":"address"}],"outputs":[{"name":"","type":"uint8","internalType":"uint8"}],"stateMutability":"view"},{"type":"function","name":"getAssetDetails","inputs":[{"name":"asset","type":"address","internalType":"address"}],"outputs":[{"name":"price","type":"uint256","internalType":"uint256"},{"name":"tvl","type":"uint256","internalType":"uint256"},{"name":"maxSupply","type":"uint256","internalType":"uint256"},{"name":"tier","type":"uint8","internalType":"enum IASSETS.CollateralTier"}],"stateMutability":"view"},{"type":"function","name":"getAssetInfo","inputs":[{"name":"asset","type":"address","internalType":"address"}],"outputs":[{"name":"","type":"tuple","internalType":"struct IASSETS.Asset","components":[{"name":"active","type":"uint8","internalType":"uint8"},{"name":"decimals","type":"uint8","internalType":"uint8"},{"name":"borrowThreshold","type":"uint16","internalType":"uint16"},{"name":"liquidationThreshold","type":"uint16","internalType":"uint16"},{"name":"maxSupplyThreshold","type":"uint256","internalType":"uint256"},{"name":"isolationDebtCap","type":"uint256","internalType":"uint256"},{"name":"assetMinimumOracles","type":"uint8","internalType":"uint8"},{"name":"porFeed","type":"address","internalType":"address"},{"name":"primaryOracleType","type":"uint8","internalType":"enum IASSETS.OracleType"},{"name":"tier","type":"uint8","internalType":"enum IASSETS.CollateralTier"},{"name":"chainlinkConfig","type":"tuple","internalType":"struct IASSETS.ChainlinkOracleConfig","components":[{"name":"oracleUSD","type":"address","internalType":"address"},{"name":"active","type":"uint8","internalType":"uint8"}]},{"name":"poolConfig","type":"tuple","internalType":"struct IASSETS.UniswapPoolConfig","components":[{"name":"pool","type":"address","internalType":"address"},{"name":"twapPeriod","type":"uint32","internalType":"uint32"},{"name":"active","type":"uint8","internalType":"uint8"}]}]}],"stateMutability":"view"},{"type":"function","name":"getAssetLiquidationThreshold","inputs":[{"name":"asset","type":"address","internalType":"address"}],"outputs":[{"name":"","type":"uint16","internalType":"uint16"}],"stateMutability":"view"},{"type":"function","name":"getAssetPrice","inputs":[{"name":"asset","type":"address","internalType":"address"}],"outputs":[{"name":"","type":"uint256","internalType":"uint256"}],"stateMutability":"view"},{"type":"function","name":"getAssetPriceByType","inputs":[{"name":"asset","type":"address","internalType":"address"},{"name":"oracleType","type":"uint8","internalType":"enum IASSETS.OracleType"}],"outputs":[{"name":"","type":"uint256","internalType":"uint256"}],"stateMutability":"view"},{"type":"function","name":"getAssetTier","inputs":[{"name":"asset","type":"address","internalType":"address"}],"outputs":[{"name":"tier","type":"uint8","internalType":"enum IASSETS.CollateralTier"}],"stateMutability":"view"},{"type":"function","name":"getIsolationDebtCap","inputs":[{"name":"asset","type":"address","internalType":"address"}],"outputs":[{"name":"","type":"uint256","internalType":"uint256"}],"stateMutability":"view"},{"type":"function","name":"getLiquidationFee","inputs":[{"name":"tier","type":"uint8","internalType":"enum IASSETS.CollateralTier"}],"outputs":[{"name":"","type":"uint256","internalType":"uint256"}],"stateMutability":"view"},{"type":"function","name":"getListedAssets","inputs":[],"outputs":[{"name":"","type":"address[]","internalType":"address[]"}],"stateMutability":"view"},{"type":"function","name":"getOracleByType","inputs":[{"name":"asset","type":"address","internalType":"address"},{"name":"oracleType","type":"uint8","internalType":"enum IASSETS.OracleType"}],"outputs":[{"name":"","type":"address","internalType":"address"}],"stateMutability":"view"},{"type":"function","name":"getOracleCount","inputs":[{"name":"asset","type":"address","internalType":"address"}],"outputs":[{"name":"","type":"uint256","internalType":"uint256"}],"stateMutability":"view"},{"type":"function","name":"getPoRFeed","inputs":[{"name":"asset","type":"address","internalType":"address"}],"outputs":[{"name":"","type":"address","internalType":"address"}],"stateMutability":"view"},{"type":"function","name":"getRoleAdmin","inputs":[{"name":"role","type":"bytes32","internalType":"bytes32"}],"outputs":[{"name":"","type":"bytes32","internalType":"bytes32"}],"stateMutability":"view"},{"type":"function","name":"getTierJumpRate","inputs":[{"name":"tier","type":"uint8","internalType":"enum IASSETS.CollateralTier"}],"outputs":[{"name":"","type":"uint256","internalType":"uint256"}],"stateMutability":"view"},{"type":"function","name":"getTierRates","inputs":[],"outputs":[{"name":"jumpRates","type":"uint256[4]","internalType":"uint256[4]"},{"name":"liquidationFees","type":"uint256[4]","internalType":"uint256[4]"}],"stateMutability":"view"},{"type":"function","name":"grantRole","inputs":[{"name":"role","type":"bytes32","internalType":"bytes32"},{"name":"account","type":"address","internalType":"address"}],"outputs":[],"stateMutability":"nonpayable"},{"type":"function","name":"hasRole","inputs":[{"name":"role","type":"bytes32","internalType":"bytes32"},{"name":"account","type":"address","internalType":"address"}],"outputs":[{"name":"","type":"bool","internalType":"bool"}],"stateMutability":"view"},{"type":"function","name":"initialize","inputs":[{"name":"timelock_","type":"address","internalType":"address"},{"name":"marketOwner","type":"address","internalType":"address"},{"name":"usdc_","type":"address","internalType":"address"},{"name":"porFeed_","type":"address","internalType":"address"}],"outputs":[],"stateMutability":"nonpayable"},{"type":"function","name":"isAssetAtCapacity","inputs":[{"name":"asset","type":"address","internalType":"address"},{"name":"amount","type":"uint256","internalType":"uint256"},{"name":"tvl","type":"uint256","internalType":"uint256"}],"outputs":[{"name":"","type":"bool","internalType":"bool"}],"stateMutability":"view"},{"type":"function","name":"isAssetValid","inputs":[{"name":"asset","type":"address","internalType":"address"}],"outputs":[{"name":"","type":"bool","internalType":"bool"}],"stateMutability":"view"},{"type":"function","name":"mainOracleConfig","inputs":[],"outputs":[{"name":"freshnessThreshold","type":"uint80","internalType":"uint80"},{"name":"volatilityThreshold","type":"uint80","internalType":"uint80"},{"name":"volatilityPercentage","type":"uint40","internalType":"uint40"},{"name":"circuitBreakerThreshold","type":"uint40","internalType":"uint40"}],"stateMutability":"view"},{"type":"function","name":"pause","inputs":[],"outputs":[],"stateMutability":"nonpayable"},{"type":"function","name":"paused","inputs":[],"outputs":[{"name":"","type":"bool","internalType":"bool"}],"stateMutability":"view"},{"type":"function","name":"pendingUpgrade","inputs":[],"outputs":[{"name":"implementation","type":"address","internalType":"address"},{"name":"scheduledTime","type":"uint64","internalType":"uint64"},{"name":"exists","type":"bool","internalType":"bool"}],"stateMutability":"view"},{"type":"function","name":"poolLiquidityLimit","inputs":[{"name":"asset","type":"address","internalType":"address"},{"name":"amount","type":"uint256","internalType":"uint256"}],"outputs":[{"name":"limitReached","type":"bool","internalType":"bool"}],"stateMutability":"view"},{"type":"function","name":"porFeed","inputs":[],"outputs":[{"name":"","type":"address","internalType":"address"}],"stateMutability":"view"},{"type":"function","name":"proxiableUUID","inputs":[],"outputs":[{"name":"","type":"bytes32","internalType":"bytes32"}],"stateMutability":"view"},{"type":"function","name":"renounceRole","inputs":[{"name":"role","type":"bytes32","internalType":"bytes32"},{"name":"callerConfirmation","type":"address","internalType":"address"}],"outputs":[],"stateMutability":"nonpayable"},{"type":"function","name":"revokeRole","inputs":[{"name":"role","type":"bytes32","internalType":"bytes32"},{"name":"account","type":"address","internalType":"address"}],"outputs":[],"stateMutability":"nonpayable"},{"type":"function","name":"scheduleUpgrade","inputs":[{"name":"newImplementation","type":"address","internalType":"address"}],"outputs":[],"stateMutability":"nonpayable"},{"type":"function","name":"setCoreAddress","inputs":[{"name":"newCore","type":"address","internalType":"address"}],"outputs":[],"stateMutability":"nonpayable"},{"type":"function","name":"supportsInterface","inputs":[{"name":"interfaceId","type":"bytes4","internalType":"bytes4"}],"outputs":[{"name":"","type":"bool","internalType":"bool"}],"stateMutability":"view"},{"type":"function","name":"tierConfig","inputs":[{"name":"","type":"uint8","internalType":"enum IASSETS.CollateralTier"}],"outputs":[{"name":"jumpRate","type":"uint256","internalType":"uint256"},{"name":"liquidationFee","type":"uint256","internalType":"uint256"}],"stateMutability":"view"},{"type":"function","name":"timelock","inputs":[],"outputs":[{"name":"","type":"address","internalType":"address"}],"stateMutability":"view"},{"type":"function","name":"unpause","inputs":[],"outputs":[],"stateMutability":"nonpayable"},{"type":"function","name":"updateAssetConfig","inputs":[{"name":"asset","type":"address","internalType":"address"},{"name":"config","type":"tuple","internalType":"struct IASSETS.Asset","components":[{"name":"active","type":"uint8","internalType":"uint8"},{"name":"decimals","type":"uint8","internalType":"uint8"},{"name":"borrowThreshold","type":"uint16","internalType":"uint16"},{"name":"liquidationThreshold","type":"uint16","internalType":"uint16"},{"name":"maxSupplyThreshold","type":"uint256","internalType":"uint256"},{"name":"isolationDebtCap","type":"uint256","internalType":"uint256"},{"name":"assetMinimumOracles","type":"uint8","internalType":"uint8"},{"name":"porFeed","type":"address","internalType":"address"},{"name":"primaryOracleType","type":"uint8","internalType":"enum IASSETS.OracleType"},{"name":"tier","type":"uint8","internalType":"enum IASSETS.CollateralTier"},{"name":"chainlinkConfig","type":"tuple","internalType":"struct IASSETS.ChainlinkOracleConfig","components":[{"name":"oracleUSD","type":"address","internalType":"address"},{"name":"active","type":"uint8","internalType":"uint8"}]},{"name":"poolConfig","type":"tuple","internalType":"struct IASSETS.UniswapPoolConfig","components":[{"name":"pool","type":"address","internalType":"address"},{"name":"twapPeriod","type":"uint32","internalType":"uint32"},{"name":"active","type":"uint8","internalType":"uint8"}]}]}],"outputs":[],"stateMutability":"nonpayable"},{"type":"function","name":"updateAssetPoRFeed","inputs":[{"name":"asset","type":"address","internalType":"address"},{"name":"tvl","type":"uint256","internalType":"uint256"}],"outputs":[{"name":"usdValue","type":"uint256","internalType":"uint256"}],"stateMutability":"nonpayable"},{"type":"function","name":"updateAssetTier","inputs":[{"name":"asset","type":"address","internalType":"address"},{"name":"newTier","type":"uint8","internalType":"enum IASSETS.CollateralTier"}],"outputs":[],"stateMutability":"nonpayable"},{"type":"function","name":"updateChainlinkOracle","inputs":[{"name":"asset","type":"address","internalType":"address"},{"name":"oracle","type":"address","internalType":"address"},{"name":"active","type":"uint8","internalType":"uint8"}],"outputs":[],"stateMutability":"nonpayable"},{"type":"function","name":"updateMainOracleConfig","inputs":[{"name":"freshness","type":"uint80","internalType":"uint80"},{"name":"volatility","type":"uint80","internalType":"uint80"},{"name":"volatilityPct","type":"uint40","internalType":"uint40"},{"name":"circuitBreakerPct","type":"uint40","internalType":"uint40"}],"outputs":[],"stateMutability":"nonpayable"},{"type":"function","name":"updateTierConfig","inputs":[{"name":"tier","type":"uint8","internalType":"enum IASSETS.CollateralTier"},{"name":"jumpRate","type":"uint256","internalType":"uint256"},{"name":"liquidationFee","type":"uint256","internalType":"uint256"}],"outputs":[],"stateMutability":"nonpayable"},{"type":"function","name":"updateUniswapOracle","inputs":[{"name":"asset","type":"address","internalType":"address"},{"name":"uniswapPool","type":"address","internalType":"address"},{"name":"twapPeriod","type":"uint32","internalType":"uint32"},{"name":"active","type":"uint8","internalType":"uint8"}],"outputs":[],"stateMutability":"nonpayable"},{"type":"function","name":"upgradeTimelockRemaining","inputs":[],"outputs":[{"name":"","type":"uint256","internalType":"uint256"}],"stateMutability":"view"},{"type":"function","name":"upgradeToAndCall","inputs":[{"name":"newImplementation","type":"address","internalType":"address"},{"name":"data","type":"bytes","internalType":"bytes"}],"outputs":[],"stateMutability":"payable"},{"type":"function","name":"version","inputs":[],"outputs":[{"name":"","type":"uint8","internalType":"uint8"}],"stateMutability":"view"},{"type":"event","name":"AssetTierUpdated","inputs":[{"name":"asset","type":"address","indexed":true,"internalType":"address"},{"name":"tier","type":"uint8","indexed":false,"internalType":"enum IASSETS.CollateralTier"}],"anonymous":false},{"type":"event","name":"ChainlinkOracleUpdated","inputs":[{"name":"asset","type":"address","indexed":true,"internalType":"address"},{"name":"oracle","type":"address","indexed":true,"internalType":"address"},{"name":"active","type":"uint8","indexed":false,"internalType":"uint8"}],"anonymous":false},{"type":"event","name":"CircuitBreakerReset","inputs":[{"name":"asset","type":"address","indexed":true,"internalType":"address"}],"anonymous":false},{"type":"event","name":"CircuitBreakerThresholdUpdated","inputs":[{"name":"oldValue","type":"uint256","indexed":false,"internalType":"uint256"},{"name":"newValue","type":"uint256","indexed":false,"internalType":"uint256"}],"anonymous":false},{"type":"event","name":"CircuitBreakerTriggered","inputs":[{"name":"asset","type":"address","indexed":true,"internalType":"address"},{"name":"deviationPct","type":"uint256","indexed":false,"internalType":"uint256"},{"name":"timestamp","type":"uint256","indexed":false,"internalType":"uint256"}],"anonymous":false},{"type":"event","name":"CoreAddressUpdated","inputs":[{"name":"newCore","type":"address","indexed":true,"internalType":"address"}],"anonymous":false},{"type":"event","name":"FreshnessThresholdUpdated","inputs":[{"name":"oldValue","type":"uint256","indexed":false,"internalType":"uint256"},{"name":"newValue","type":"uint256","indexed":false,"internalType":"uint256"}],"anonymous":false},{"type":"event","name":"Initialized","inputs":[{"name":"version","type":"uint64","indexed":false,"internalType":"uint64"}],"anonymous":false},{"type":"event","name":"Paused","inputs":[{"name":"account","type":"address","indexed":false,"internalType":"address"}],"anonymous":false},{"type":"event","name":"RoleAdminChanged","inputs":[{"name":"role","type":"bytes32","indexed":true,"internalType":"bytes32"},{"name":"previousAdminRole","type":"bytes32","indexed":true,"internalType":"bytes32"},{"name":"newAdminRole","type":"bytes32","indexed":true,"internalType":"bytes32"}],"anonymous":false},{"type":"event","name":"RoleGranted","inputs":[{"name":"role","type":"bytes32","indexed":true,"internalType":"bytes32"},{"name":"account","type":"address","indexed":true,"internalType":"address"},{"name":"sender","type":"address","indexed":true,"internalType":"address"}],"anonymous":false},{"type":"event","name":"RoleRevoked","inputs":[{"name":"role","type":"bytes32","indexed":true,"internalType":"bytes32"},{"name":"account","type":"address","indexed":true,"internalType":"address"},{"name":"sender","type":"address","indexed":true,"internalType":"address"}],"anonymous":false},{"type":"event","name":"TierParametersUpdated","inputs":[{"name":"tier","type":"uint8","indexed":true,"internalType":"enum IASSETS.CollateralTier"},{"name":"jumpRate","type":"uint256","indexed":false,"internalType":"uint256"},{"name":"liquidationFee","type":"uint256","indexed":false,"internalType":"uint256"}],"anonymous":false},{"type":"event","name":"UniswapOracleUpdated","inputs":[{"name":"asset","type":"address","indexed":true,"internalType":"address"},{"name":"pool","type":"address","indexed":true,"internalType":"address"},{"name":"active","type":"uint8","indexed":false,"internalType":"uint8"}],"anonymous":false},{"type":"event","name":"Unpaused","inputs":[{"name":"account","type":"address","indexed":false,"internalType":"address"}],"anonymous":false},{"type":"event","name":"UpdateAssetConfig","inputs":[{"name":"asset","type":"address","indexed":true,"internalType":"address"},{"name":"config","type":"tuple","indexed":false,"internalType":"struct IASSETS.Asset","components":[{"name":"active","type":"uint8","internalType":"uint8"},{"name":"decimals","type":"uint8","internalType":"uint8"},{"name":"borrowThreshold","type":"uint16","internalType":"uint16"},{"name":"liquidationThreshold","type":"uint16","internalType":"uint16"},{"name":"maxSupplyThreshold","type":"uint256","internalType":"uint256"},{"name":"isolationDebtCap","type":"uint256","internalType":"uint256"},{"name":"assetMinimumOracles","type":"uint8","internalType":"uint8"},{"name":"porFeed","type":"address","internalType":"address"},{"name":"primaryOracleType","type":"uint8","internalType":"enum IASSETS.OracleType"},{"name":"tier","type":"uint8","internalType":"enum IASSETS.CollateralTier"},{"name":"chainlinkConfig","type":"tuple","internalType":"struct IASSETS.ChainlinkOracleConfig","components":[{"name":"oracleUSD","type":"address","internalType":"address"},{"name":"active","type":"uint8","internalType":"uint8"}]},{"name":"poolConfig","type":"tuple","internalType":"struct IASSETS.UniswapPoolConfig","components":[{"name":"pool","type":"address","internalType":"address"},{"name":"twapPeriod","type":"uint32","internalType":"uint32"},{"name":"active","type":"uint8","internalType":"uint8"}]}]}],"anonymous":false},{"type":"event","name":"Upgrade","inputs":[{"name":"sender","type":"address","indexed":true,"internalType":"address"},{"name":"implementation","type":"address","indexed":true,"internalType":"address"}],"anonymous":false},{"type":"event","name":"UpgradeCancelled","inputs":[{"name":"sender","type":"address","indexed":true,"internalType":"address"},{"name":"implementation","type":"address","indexed":true,"internalType":"address"}],"anonymous":false},{"type":"event","name":"UpgradeScheduled","inputs":[{"name":"sender","type":"address","indexed":true,"internalType":"address"},{"name":"implementation","type":"address","indexed":true,"internalType":"address"},{"name":"scheduledTime","type":"uint64","indexed":false,"internalType":"uint64"},{"name":"effectiveTime","type":"uint64","indexed":false,"internalType":"uint64"}],"anonymous":false},{"type":"event","name":"Upgraded","inputs":[{"name":"implementation","type":"address","indexed":true,"internalType":"address"}],"anonymous":false},{"type":"event","name":"VolatilityPercentageUpdated","inputs":[{"name":"oldValue","type":"uint256","indexed":false,"internalType":"uint256"},{"name":"newValue","type":"uint256","indexed":false,"internalType":"uint256"}],"anonymous":false},{"type":"event","name":"VolatilityThresholdUpdated","inputs":[{"name":"oldValue","type":"uint256","indexed":false,"internalType":"uint256"},{"name":"newValue","type":"uint256","indexed":false,"internalType":"uint256"}],"anonymous":false},{"type":"error","name":"AccessControlBadConfirmation","inputs":[]},{"type":"error","name":"AccessControlUnauthorizedAccount","inputs":[{"name":"account","type":"address","internalType":"address"},{"name":"neededRole","type":"bytes32","internalType":"bytes32"}]},{"type":"error","name":"AddressEmptyCode","inputs":[{"name":"target","type":"address","internalType":"address"}]},{"type":"error","name":"AssetListTooLarge","inputs":[{"name":"maxAllowedAssets","type":"uint32","internalType":"uint32"}]},{"type":"error","name":"AssetNotInUniswapPool","inputs":[{"name":"asset","type":"address","internalType":"address"},{"name":"pool","type":"address","internalType":"address"}]},{"type":"error","name":"AssetNotListed","inputs":[{"name":"asset","type":"address","internalType":"address"}]},{"type":"error","name":"CircuitBreakerActive","inputs":[{"name":"asset","type":"address","internalType":"address"}]},{"type":"error","name":"CloneDeploymentFailed","inputs":[]},{"type":"error","name":"ERC1967InvalidImplementation","inputs":[{"name":"implementation","type":"address","internalType":"address"}]},{"type":"error","name":"ERC1967NonPayable","inputs":[]},{"type":"error","name":"EnforcedPause","inputs":[]},{"type":"error","name":"ExpectedPause","inputs":[]},{"type":"error","name":"FailedCall","inputs":[]},{"type":"error","name":"FailedDeployment","inputs":[]},{"type":"error","name":"FeeTooHigh","inputs":[{"name":"fee","type":"uint256","internalType":"uint256"},{"name":"maxAllowed","type":"uint256","internalType":"uint256"}]},{"type":"error","name":"ImplementationMismatch","inputs":[{"name":"expected","type":"address","internalType":"address"},{"name":"actual","type":"address","internalType":"address"}]},{"type":"error","name":"InsufficientBalance","inputs":[{"name":"balance","type":"uint256","internalType":"uint256"},{"name":"needed","type":"uint256","internalType":"uint256"}]},{"type":"error","name":"InvalidBorrowThreshold","inputs":[{"name":"threshold","type":"uint256","internalType":"uint256"}]},{"type":"error","name":"InvalidInitialization","inputs":[]},{"type":"error","name":"InvalidLiquidationThreshold","inputs":[{"name":"threshold","type":"uint256","internalType":"uint256"}]},{"type":"error","name":"InvalidParameter","inputs":[{"name":"param","type":"string","internalType":"string"},{"name":"value","type":"uint256","internalType":"uint256"}]},{"type":"error","name":"InvalidThreshold","inputs":[{"name":"param","type":"string","internalType":"string"},{"name":"value","type":"uint256","internalType":"uint256"},{"name":"min","type":"uint256","internalType":"uint256"},{"name":"max","type":"uint256","internalType":"uint256"}]},{"type":"error","name":"InvalidUniswapConfig","inputs":[{"name":"asset","type":"address","internalType":"address"}]},{"type":"error","name":"NotEnoughValidOracles","inputs":[{"name":"asset","type":"address","internalType":"address"},{"name":"required","type":"uint8","internalType":"uint8"},{"name":"available","type":"uint8","internalType":"uint8"}]},{"type":"error","name":"NotInitializing","inputs":[]},{"type":"error","name":"OracleInvalidPrice","inputs":[{"name":"oracle","type":"address","internalType":"address"},{"name":"price","type":"int256","internalType":"int256"}]},{"type":"error","name":"OracleInvalidPriceVolatility","inputs":[{"name":"oracle","type":"address","internalType":"address"},{"name":"price","type":"int256","internalType":"int256"},{"name":"changePercent","type":"uint256","internalType":"uint256"}]},{"type":"error","name":"OracleNotActive","inputs":[{"name":"asset","type":"address","internalType":"address"},{"name":"oracleType","type":"uint8","internalType":"enum IASSETS.OracleType"}]},{"type":"error","name":"OracleStalePrice","inputs":[{"name":"oracle","type":"address","internalType":"address"},{"name":"roundId","type":"uint80","internalType":"uint80"},{"name":"answeredInRound","type":"uint80","internalType":"uint80"}]},{"type":"error","name":"OracleTimeout","inputs":[{"name":"oracle","type":"address","internalType":"address"},{"name":"timestamp","type":"uint256","internalType":"uint256"},{"name":"blockTimestamp","type":"uint256","internalType":"uint256"},{"name":"threshold","type":"uint256","internalType":"uint256"}]},{"type":"error","name":"RateTooHigh","inputs":[{"name":"rate","type":"uint256","internalType":"uint256"},{"name":"maxAllowed","type":"uint256","internalType":"uint256"}]},{"type":"error","name":"ReentrancyGuardReentrantCall","inputs":[]},{"type":"error","name":"UUPSUnauthorizedCallContext","inputs":[]},{"type":"error","name":"UUPSUnsupportedProxiableUUID","inputs":[{"name":"slot","type":"bytes32","internalType":"bytes32"}]},{"type":"error","name":"UpgradeNotScheduled","inputs":[]},{"type":"error","name":"UpgradeTimelockActive","inputs":[{"name":"timeRemaining","type":"uint256","internalType":"uint256"}]},{"type":"error","name":"ZeroAddressNotAllowed","inputs":[]}],"bytecode":{"object":"0x60a06040523060805234801562000014575f80fd5b506200001f62000025565b620000d9565b7ff0c57e16840df040f15088dc2f81fe391c3923bec73e23a9662efc9c229c6a00805468010000000000000000900460ff1615620000765760405163f92ee8a960e01b815260040160405180910390fd5b80546001600160401b0390811614620000d65780546001600160401b0319166001600160401b0390811782556040519081527fc7f505b2f371ae2175ee4913f4499e1f2633a7b5936321eed1cdaeb6115181d29060200160405180910390a15b50565b608051615c79620001005f395f81816137720152818161379b0152613a350152615c795ff3fe60806040526004361061026f575f3560e01c806301ffc9a7146102735780630c80447a146102a757806311af9f40146102c857806311e54208146102e75780631c0ad646146103145780631dc04cda14610344578063248a9ca31461036357806324959e43146103825780632f2ff15d146103a157806336568abe146103c05780633f4ba83a146103df5780633fa0d73f146103f357806343f1b86314610429578063443907b21461044b5780634462659614610477578063468b5425146104965780634f1ef286146104d657806352d1902d146104e957806354fd4d50146104fd578063552479ef1461052757806355f291661461054657806357f352e01461055a57806359aa38dd146105795780635c0d719d146105985780635c975abb1461061557806362d3b24a14610629578063785012f9146106485780637d39d74b146106675780638456cb59146106865780638e1eeb331461069a5780638ee2b60a146106b95780638fde8879146106d857806391aad239146106f757806391d148541461071657806395e93245146107355780639c9b6451146107a05780639efd6f72146107cf578063a217fddf146107ee578063a86c5e6714610801578063ab8efe6e14610820578063ad3cb1cc1461083f578063af5a59471461087c578063afad2e161461089b578063b3596f07146108c7578063c2c47005146108e6578063c898f34214610918578063d33219b414610976578063d38cd9bf14610995578063d547741f146109b4578063dcbafbd8146109d3578063ec5f638e146109f2578063ecb79ffd14610a20578063f7e19eff14610a3f578063f8c8765e14610a60578063ffaf73cd14610a7f575b5f80fd5b34801561027e575f80fd5b5061029261028d366004614bfe565b610a93565b60405190151581526020015b60405180910390f35b3480156102b2575f80fd5b506102c66102c1366004614c49565b610ac9565b005b3480156102d3575f80fd5b506102926102e2366004614c64565b610bb9565b3480156102f2575f80fd5b50610306610301366004614ca4565b610c2e565b60405190815260200161029e565b34801561031f575f80fd5b505f546103379061010090046001600160a01b031681565b60405161029e9190614cbd565b34801561034f575f80fd5b5061033761035e366004614c49565b610c6d565b34801561036e575f80fd5b5061030661037d366004614cd1565b610cc4565b34801561038d575f80fd5b5061030661039c366004614ca4565b610ce2565b3480156103ac575f80fd5b506102c66103bb366004614ce8565b610d1f565b3480156103cb575f80fd5b506102c66103da366004614ce8565b610d41565b3480156103ea575f80fd5b506102c6610d79565b3480156103fe575f80fd5b5061041261040d366004614c49565b610d9b565b60408051921515835260208301919091520161029e565b348015610434575f80fd5b5061043d611058565b60405161029e929190614d38565b348015610456575f80fd5b5061046a610465366004614c49565b61111b565b60405161029e9190614d7c565b348015610482575f80fd5b50610412610491366004614c49565b611170565b3480156104a1575f80fd5b506104c86104b0366004614ca4565b60096020525f90815260409020805460019091015482565b60405161029e929190614d8a565b6102c66104e4366004614e05565b61125f565b3480156104f4575f80fd5b5061030661127e565b348015610508575f80fd5b505f546105159060ff1681565b60405160ff909116815260200161029e565b348015610532575f80fd5b506102c6610541366004614ebf565b611299565b348015610551575f80fd5b506102c6611508565b348015610565575f80fd5b50610337610574366004614f15565b611597565b348015610584575f80fd5b50610292610593366004614f48565b6115f6565b3480156105a3575f80fd5b50600a546105dd906001600160501b0380821691600160501b81049091169064ffffffffff600160a01b8204811691600160c81b90041684565b604080516001600160501b03958616815294909316602085015264ffffffffff9182169284019290925216606082015260800161029e565b348015610620575f80fd5b506102926116da565b348015610634575f80fd5b50610306610643366004614f15565b6116ee565b348015610653575f80fd5b506102c6610662366004614f85565b611791565b348015610672575f80fd5b50610306610681366004614f48565b611a37565b348015610691575f80fd5b506102c6611b2d565b3480156106a5575f80fd5b506102c66106b4366004614fdc565b611b4c565b3480156106c4575f80fd5b506102c66106d33660046150e8565b611c23565b3480156106e3575f80fd5b506103066106f2366004614c49565b61206d565b348015610702575f80fd5b506102c6610711366004614c49565b6120b8565b348015610721575f80fd5b50610292610730366004614ce8565b612155565b348015610740575f80fd5b50600454610771906001600160a01b03811690600160a01b81046001600160401b031690600160e01b900460ff1683565b604080516001600160a01b0390941684526001600160401b03909216602084015215159082015260600161029e565b3480156107ab575f80fd5b506107bf6107ba366004614c49565b612189565b60405161029e94939291906151f3565b3480156107da575f80fd5b506105156107e9366004614c49565b612271565b3480156107f9575f80fd5b506103065f81565b34801561080c575f80fd5b50600254610337906001600160a01b031681565b34801561082b575f80fd5b5061029261083a366004614c49565b6122c1565b34801561084a575f80fd5b5061086f604051806040016040528060058152602001640352e302e360dc1b81525081565b60405161029e9190615237565b348015610887575f80fd5b506102c6610896366004615291565b6122f5565b3480156108a6575f80fd5b506108ba6108b5366004614c49565b61268d565b60405161029e91906152f6565b3480156108d2575f80fd5b506103066108e1366004614c49565b6128af565b3480156108f1575f80fd5b50610905610900366004614c49565b6129cc565b60405161ffff909116815260200161029e565b348015610923575f80fd5b50610937610932366004614c49565b612a1f565b604080518251815260208084015161ffff9081169183019190915283830151169181019190915260609182015160ff169181019190915260800161029e565b348015610981575f80fd5b50600354610337906001600160a01b031681565b3480156109a0575f80fd5b506102c66109af366004615412565b612ad9565b3480156109bf575f80fd5b506102c66109ce366004614ce8565b612c05565b3480156109de575f80fd5b506103066109ed366004614c49565b612c21565b3480156109fd575f80fd5b50610292610a0c366004614c49565b600b6020525f908152604090205460ff1681565b348015610a2b575f80fd5b50610905610a3a366004614c49565b612c6a565b348015610a4a575f80fd5b50610a53612cbc565b60405161029e919061542d565b348015610a6b575f80fd5b506102c6610a7a366004615479565b612ccd565b348015610a8a575f80fd5b50610306613057565b5f6001600160e01b03198216637965db0b60e01b1480610ac357506301ffc9a760e01b6001600160e01b03198316145b92915050565b806001600160a01b038116610af1576040516342bcdf7f60e11b815260040160405180910390fd5b5f80516020615b84833981519152610b08816130c7565b425f610b176203f480836154db565b604080516060810182526001600160a01b0388168082526001600160401b03868116602080850182905260019486019490945260048054600160e01b6001600160e01b03199091168517600160a01b84021760ff60e01b191617905584519081529085169281019290925292935033917fd555bb44cf2c5b99fb9936196db6ac3b4ca5946d1f2fc81ba6cc49fe978b55c4910160405180910390a35050505050565b5f83610bc66006826130d1565b610bee578060405163d0957f1f60e01b8152600401610be59190614cbd565b60405180910390fd5b6001600160a01b0385165f90815260086020526040902060010154610c1385856154fb565b1115610c225760019150610c26565b5f91505b509392505050565b5f60095f836003811115610c4457610c44614d54565b6003811115610c5557610c55614d54565b81526020019081526020015f20600101549050919050565b5f81610c7a6006826130d1565b610c99578060405163d0957f1f60e01b8152600401610be59190614cbd565b6001600160a01b038084165f9081526008602052604090206003015461010090041691505b50919050565b5f80610cce6130ec565b5f9384526020525050604090206001015490565b5f60095f836003811115610cf857610cf8614d54565b6003811115610d0957610d09614d54565b815260208101919091526040015f205492915050565b610d2882610cc4565b610d31816130c7565b610d3b8383613110565b50505050565b6001600160a01b0381163314610d6a5760405163334bd91960e11b815260040160405180910390fd5b610d7482826131ae565b505050565b5f80516020615be4833981519152610d90816130c7565b610d98613224565b50565b5f8082610da96006826130d1565b610dc8578060405163d0957f1f60e01b8152600401610be59190614cbd565b6001600160a01b0384165f908152600860205260408120600481015460058201549192600160a01b90910460ff90811692600160c01b9004169080600184148015610e1657508260ff166001145b15610e3f575f80610e268b611170565b915091508115610e3857600193508092505b5050610f1a565b8360ff16600103610f1a57610e538961327a565b60048087015460408051633fabe5a360e21b815290519394506001600160a01b03909116925f92849263feaf968c928183019260a0928290030181865afa158015610ea0573d5f803e3d5ffd5b505050506040513d601f19601f82011682018060405250810190610ec4919061550e565b5093505050505f8142610ed79190615562565b600a54909150600160a01b900464ffffffffff168410801590610f0c5750600a54600160501b90046001600160501b03168110155b15610f1657600194505b5050505b818015610f3f57506001600160a01b0389165f908152600b602052604090205460ff16155b15610fb0576001600160a01b0389165f818152600b602052604090819020805460ff19166001179055517f249ffe6adefed2d14f2d2086abb427d5c2bc5cc8d63d2308930340c5fb51e27a90610f989084904290614d8a565b60405180910390a26001975095506110529350505050565b81158015610fd557506001600160a01b0389165f908152600b602052604090205460ff165b1561102e576001600160a01b0389165f818152600b6020526040808220805460ff19169055517f07663ee3f7c1099057fc9fc555efb675b77fe234386ec977b12f15d5f24fd0309190a25f975095506110529350505050565b6001600160a01b0389165f908152600b602052604090205460ff1697509550505050505b50915091565b611060614be0565b611068614be0565b5f80516020615ac48339815191525482525f80516020615c24833981519152546020808401919091525f80516020615ae4833981519152546040808501919091525f80516020615b04833981519152546060808601919091525f80516020615b448339815191525484525f80516020615b6483398151915254848401525f80516020615b24833981519152549184019190915260035f5260099091525f80516020615c0483398151915254908201529091565b5f816111286006826130d1565b611147578060405163d0957f1f60e01b8152600401610be59190614cbd565b50506001600160a01b03165f90815260086020526040902060030154600160b01b900460ff1690565b6001600160a01b0381165f9081526008602052604081206004810154600590910154829160ff600160a01b909104811691600160c01b9004166111b38183615589565b60ff166002146111e6578460026111ca8385615589565b60405163cc10d92360e01b8152600401610be5939291906155a2565b5f6111f0866133fe565b90505f6111fc876135f7565b90505f81831061120c578161120e565b825b90505f82841161121e5782611220565b835b90505f61122d8383615562565b905061123b816064856136cb565b600a54600160c81b900464ffffffffff168110159b909a5098505050505050505050565b611267613767565b6112708261380d565b61127a8282613977565b5050565b5f611287613a2a565b505f80516020615ba483398151915290565b816001600160a01b0381166112c1576040516342bcdf7f60e11b815260040160405180910390fd5b836112cd6006826130d1565b6112ec578060405163d0957f1f60e01b8152600401610be59190614cbd565b5f80516020615bc4833981519152611303816130c7565b61130b613a73565b6040805180820182526001600160a01b03808816825260ff80881660208085019182528b84165f90815260088252868120955160048701805494518616600160a01b026001600160a81b031990951691871691909117939093179092558551610180810187528554808516825261010080820486169383019390935261ffff620100008204811698830198909852600160201b900490961660608701526001808601546080880152600286015460a0880152600386015480851660c089015282810490951660e08801529195949390850192600160a81b90910416908111156113f6576113f6614d54565b600181111561140757611407614d54565b81526020016003820160169054906101000a900460ff16600381111561142f5761142f614d54565b600381111561144057611440614d54565b815260408051808201825260048401546001600160a01b038082168352600160a01b9182900460ff908116602080860191909152808701949094528451606081018652600590970154918216875291810463ffffffff1692860192909252600160c01b9091041683820152015290506114b98782613a99565b60405160ff861681526001600160a01b0380881691908916907fb965398cb5b04bb7fa916a40d888df0a955ef7f2eeea1adf6880c6a8ef611f609060200160405180910390a350505050505050565b5f80516020615b8483398151915261151f816130c7565b600454600160e01b900460ff16611549576040516370d78f1760e11b815260040160405180910390fd5b600480546001600160e81b031981169091556040516001600160a01b0390911690819033907fa6698f935ea3cb05304828ddd237d7f7b2ee8f2d7733962bbba67888985e1a2c905f90a35050565b5f60018260018111156115ac576115ac614d54565b036115d457506001600160a01b038083165f9081526008602052604090206005015416610ac3565b50506001600160a01b039081165f908152600860205260409020600401541690565b6001600160a01b0382165f90815260086020526040812060050154600160c01b900460ff166001036116d2576001600160a01b038084165f818152600860205260408082206005015490516370a0823160e01b81529316929091906370a0823190611665908590600401614cbd565b602060405180830381865afa158015611680573d5f803e3d5ffd5b505050506040513d601f19601f820116820180604052508101906116a491906155c6565b905060646116b38260036155dd565b6116bd9190615608565b8411156116cf57600192505050610ac3565b50505b505f92915050565b5f806116e4613de7565b5460ff1692915050565b5f826116fb6006826130d1565b61171a578060405163d0957f1f60e01b8152600401610be59190614cbd565b6001600160a01b0384165f908152600b602052604090205460ff1615611755578360405163a675261f60e01b8152600401610be59190614cbd565b600183600181111561176957611769614d54565b0361177e57611777846135f7565b915061178a565b611787846133fe565b91505b5092915050565b826001600160a01b0381166117b9576040516342bcdf7f60e11b815260040160405180910390fd5b846117c56006826130d1565b6117e4578060405163d0957f1f60e01b8152600401610be59190614cbd565b5f80516020615bc48339815191526117fb816130c7565b611803613a73565b61180f87878787613e0b565b60408051606080820183526001600160a01b03808a16835263ffffffff808a16602080860191825260ff808c168789019081528f86165f90815260088452898120985160058a018054965193518516600160c01b0260ff60c01b1994909816600160a01b026001600160c01b0319909716918916919091179590951791909116949094179092558651610180810188528654808416825261010080820485169383019390935261ffff620100008204811699830199909952600160201b9004909716948701949094526001808601546080880152600286015460a0880152600386015480831660c089015285810490941660e088015291959493850192600160a81b9004169081111561192457611924614d54565b600181111561193557611935614d54565b81526020016003820160169054906101000a900460ff16600381111561195d5761195d614d54565b600381111561196e5761196e614d54565b815260408051808201825260048401546001600160a01b038082168352600160a01b9182900460ff908116602080860191909152808701949094528451606081018652600590970154918216875291810463ffffffff1692860192909252600160c01b9091041683820152015290506119e78882613a99565b60405160ff861681526001600160a01b0380891691908a16907f388756f3ea7b098f462c8e9df0ee9f4e69bdb20db5d53e549f60113fc30538dc9060200160405180910390a35050505050505050565b5f82611a446006826130d1565b611a63578060405163d0957f1f60e01b8152600401610be59190614cbd565b6001600160a01b038481165f90815260086020526040908190206003015490516318a491c960e11b8152600481018690526101009091049091169081906331492392906024015f604051808303815f87803b158015611ac0575f80fd5b505af1158015611ad2573d5f803e3d5ffd5b505050506001600160a01b0385165f90815260086020526040812054610100900460ff1690611b0282600a6156fb565b905080611b0e886128af565b611b1890886155dd565b611b229190615608565b979650505050505050565b5f80516020615be4833981519152611b44816130c7565b610d9861406d565b81611b586006826130d1565b611b77578060405163d0957f1f60e01b8152600401610be59190614cbd565b5f80516020615bc4833981519152611b8e816130c7565b611b96613a73565b6001600160a01b0384165f90815260086020526040902060039081018054859260ff60b01b1990911690600160b01b908490811115611bd757611bd7614d54565b0217905550836001600160a01b03167f1a32f2e106c6f46e2bfb29200211907e1bce20a075e31cb2950fd7f8e18cb13f84604051611c159190614d7c565b60405180910390a250505050565b816001600160a01b038116611c4b576040516342bcdf7f60e11b815260040160405180910390fd5b5f80516020615bc4833981519152611c62816130c7565b611c6a613a73565b611c748484613a99565b8261016001516040015160ff16600103611ca75761016083015180516020820151604090920151611ca792879291613e0b565b5f611cb36006866130d1565b1590508015611e1357610bb8611cc960066140b3565b1115611cec57604051633c5838fb60e01b8152610bb86004820152602401610be5565b611cf76006866140bc565b611d325760405162461bcd60e51b815260206004820152600c60248201526b105111125391d7d054d4d15560a21b6044820152606401610be5565b600254611d47906001600160a01b03166140d0565b6001600160a01b031660e08501819052611d74576040516304ddc24d60e01b815260040160405180910390fd5b8360e001516001600160a01b03163b5f03611da2576040516304ddc24d60e01b815260040160405180910390fd5b60e084015160035460405163c0c53b8b60e01b81526001600160a01b038881166004830152306024830152918216604482015291169063c0c53b8b906064015f604051808303815f87803b158015611df8575f80fd5b505af1158015611e0a573d5f803e3d5ffd5b50505050611e7e565b6001600160a01b038581165f9081526008602052604090206003015460e08601516101009091048216911614611e7e5760408051632763535760e01b8152600481019190915260076044820152661c1bdc9199595960ca1b60648201525f6024820152608401610be5565b6001600160a01b038581165f9081526008602090815260409182902087518154928901519389015160608a015160ff92831661ffff199095169490941761010095831686021765ffffffff000019166201000061ffff9283160261ffff60201b191617600160201b9190941602929092178155608088015160018083019190915560a0890151600283015560c089015160038301805460e08c0151929095166001600160a81b0319909516949094179516840294909417808355928801518894919390929160ff60a81b1990911690600160a81b908490811115611f6457611f64614d54565b02179055506101208201518160030160166101000a81548160ff02191690836003811115611f9457611f94614d54565b0217905550610140820151805160048301805460209384015160ff908116600160a01b9081026001600160a81b03199093166001600160a01b0395861617929092179092556101609095015180516005909501805494820151604092830151909316600160c01b0260ff60c01b1963ffffffff9094169097026001600160c01b03199095169584169590951793909317169390931790915551908616907f782d29c6d21d00683e374211f3995497b783b22ec02bb16a333c0622fd95776f9061205e9087906152f6565b60405180910390a25050505050565b5f8161207a6006826130d1565b612099578060405163d0957f1f60e01b8152600401610be59190614cbd565b50506001600160a01b03165f9081526008602052604090206002015490565b806001600160a01b0381166120e0576040516342bcdf7f60e11b815260040160405180910390fd5b5f6120ea816130c7565b6120f2613a73565b5f8054610100600160a81b0319166101006001600160a01b038616908102919091178255600580546001600160a01b0319168217905560405190917fbca3f1aa8de84a3358f79c18643a1fd10e6f51209329ff16f756ccf1ae07954091a2505050565b5f8061215f6130ec565b5f948552602090815260408086206001600160a01b03959095168652939052505090205460ff1690565b5f808080846121996006826130d1565b6121b8578060405163d0957f1f60e01b8152600401610be59190614cbd565b6001600160a01b0386165f9081526008602052604090206001810154600390910154909350600160b01b900460ff1691506121f2866128af565b600554604051637067445960e01b81529196506001600160a01b031690637067445990612223908990600401614cbd565b606060405180830381865afa15801561223e573d5f803e3d5ffd5b505050506040513d601f19601f820116820180604052508101906122629190615709565b90505080945050509193509193565b5f8161227e6006826130d1565b61229d578060405163d0957f1f60e01b8152600401610be59190614cbd565b50506001600160a01b03165f90815260086020526040902054610100900460ff1690565b5f6122cd6006836130d1565b8015610ac35750506001600160a01b03165f9081526008602052604090205460ff1660011490565b5f80516020615bc483398151915261230c816130c7565b612314613a73565b610384856001600160501b03161080612338575062015180856001600160501b0316115b15612392576040516355046f0360e11b815260806004820152600960848201526866726573686e65737360b81b60a48201526001600160501b0386166024820152610384604482015262015180606482015260c401610be5565b61012c846001600160501b031610806123b55750613840846001600160501b0316115b1561240f576040516355046f0360e11b815260806004820152600a608482015269766f6c6174696c69747960b01b60a48201526001600160501b038516602482015261012c6044820152613840606482015260c401610be5565b60058364ffffffffff16108061242c5750601e8364ffffffffff16115b15612485576040516355046f0360e11b815260806004820152600d60848201526c1d9bdb185d1a5b1a5d1e5418dd609a1b60a482015264ffffffffff8416602482015260056044820152601e606482015260c401610be5565b60198264ffffffffff1610806124a2575060468264ffffffffff16115b156124fc576040516355046f0360e11b815260806004820152600e60848201526d31b4b931bab4ba213932b0b5b2b960911b60a482015264ffffffffff83166024820152601960448201526046606482015260c401610be5565b60408051608081018252600a80546001600160501b03808216808552600160501b80840483166020870152600160a01b80850464ffffffffff908116888a0152600160c81b808704821660608a01528e86166001600160a01b031990971696909617948d1690920293909317600160a01b600160f01b0319168a821690930264ffffffffff60c81b19169290921791881690920217909155915190917fd3befbaf659abe0a323e0622ff100c991a154e7e16c5caddb618b39b2935873e916125c691908990615734565b60405180910390a17f5cf3aa43eccf63badf220e63681842da62fc76cb29564e286e4e1922f2d78ad1816020015186604051612603929190615734565b60405180910390a17fdeee05ef6e057eefd0d52210c39e00ad5c76c8b115f65002944f00c2d2186d9a81604001518560405161264092919061574e565b60405180910390a17fa4cf1fa0b59c3b1b7a0c5709e256d77e368cd5abc84bb63b17134ae8c5ce2baa81606001518460405161267d92919061574e565b60405180910390a1505050505050565b61271760408051610180810182525f8082526020808301829052828401829052606083018290526080830182905260a0830182905260c0830182905260e08301829052610100830182905261012083018290528351808501909452818452830152906101408201908152604080516060810182525f80825260208281018290529282015291015290565b816127236006826130d1565b612742578060405163d0957f1f60e01b8152600401610be59190614cbd565b6001600160a01b038084165f90815260086020908152604091829020825161018081018452815460ff808216835261010080830482169584019590955261ffff620100008304811696840196909652600160201b90910490941660608201526001808301546080830152600283015460a0830152600383015480861660c084015284810490961660e08301529094919392850192600160a81b909204909116908111156127f1576127f1614d54565b600181111561280257612802614d54565b81526020016003820160169054906101000a900460ff16600381111561282a5761282a614d54565b600381111561283b5761283b614d54565b815260408051808201825260048401546001600160a01b038082168352600160a01b9182900460ff908116602080860191909152808701949094528451606081018652600590970154918216875291810463ffffffff1692860192909252600160c01b909104168382015201529392505050565b5f816128bc6006826130d1565b6128db578060405163d0957f1f60e01b8152600401610be59190614cbd565b6001600160a01b0383165f908152600b602052604090205460ff1615612916578260405163a675261f60e01b8152600401610be59190614cbd565b6001600160a01b0383165f9081526008602052604090206004810154600582015460ff600160a01b909204821691600160c01b9091041660018214801561295e575060ff8116155b156129765761296c866133fe565b9450505050610cbe565b8060ff16600114801561298a575060ff8216155b156129985761296c866135f7565b5f6129a2876133fe565b90505f6129ae886135f7565b90505f60016129bd83856154fb565b901c9998505050505050505050565b5f816129d96006826130d1565b6129f8578060405163d0957f1f60e01b8152600401610be59190614cbd565b50506001600160a01b03165f90815260086020526040902054600160201b900461ffff1690565b604080516080810182525f80825260208201819052918101829052606081019190915281612a4e6006826130d1565b612a6d578060405163d0957f1f60e01b8152600401610be59190614cbd565b6040518060800160405280612a81856128af565b81526001600160a01b0385165f8181526008602081815260408084205461ffff620100008204811684890152600160201b8204169187019190915293909252905260ff61010090910416606090910152915050919050565b5f80516020615bc4833981519152612af0816130c7565b612af8613a73565b6203d090831115612b2357826203d090604051634716c00560e01b8152600401610be5929190614d8a565b620186a0821115612b4e5781620186a06040516373ab893560e11b8152600401610be5929190614d8a565b8260095f866003811115612b6457612b64614d54565b6003811115612b7557612b75614d54565b81526020019081526020015f205f01819055508160095f866003811115612b9e57612b9e614d54565b6003811115612baf57612baf614d54565b815260208101919091526040015f2060010155836003811115612bd457612bd4614d54565b7f551b61c28b59357ef580609ad1d117845f6300a033850980dda1d6b1c7290e7f8484604051611c15929190614d8a565b612c0e82610cc4565b612c17816130c7565b610d3b83836131ae565b6001600160a01b0381165f9081526008602052604081206005810154600490910154612c619160ff600160c01b909104811691600160a01b900416615589565b60ff1692915050565b5f81612c776006826130d1565b612c96578060405163d0957f1f60e01b8152600401610be59190614cbd565b50506001600160a01b03165f9081526008602052604090205462010000900461ffff1690565b6060612cc860066140db565b905090565b5f612cd66140e7565b805490915060ff600160401b82041615906001600160401b03165f81158015612cfc5750825b90505f826001600160401b03166001148015612d175750303b155b905081158015612d25575080155b15612d435760405163f92ee8a960e01b815260040160405180910390fd5b84546001600160401b03191660011785558315612d6c57845460ff60401b1916600160401b1785555b6001600160a01b0389161580612d8957506001600160a01b038816155b80612d9b57506001600160a01b038616155b80612dad57506001600160a01b038716155b15612dcb576040516342bcdf7f60e11b815260040160405180910390fd5b612dd361410f565b612ddb614117565b612de361410f565b612deb61410f565b612df55f8a613110565b50612e0d5f80516020615bc48339815191528a613110565b50612e255f80516020615bc483398151915289613110565b50612e3d5f80516020615b848339815191528a613110565b50612e555f80516020615be483398151915289613110565b50612e6d5f80516020615be48339815191528a613110565b50604080516080810182526170808152610e1060208201526014918101919091526032606090910152600a80546001600160f01b03191661708060e160541b01650c800000000560a21b01179055612fc160408051808201825261c350815261271060208083019182525f808052600980835293515f80516020615ac48339815191525591515f80516020615b448339815191525583518085018552620138808152614e208183019081526001845284835290515f80516020615c2483398151915255515f80516020615b6483398151915255835180850185526201d4c081526175308183019081526002845284835290515f80516020615ae483398151915255515f80516020615b24833981519152558351808501909452620249f08452619c4084820190815260039092529190915290515f80516020615b0483398151915255515f80516020615c0483398151915255565b600180546001600160a01b03808a166001600160a01b0319928316178355600280548a831690841617905560038054918d16919092161790555f805460ff19169091179055831561304c57845460ff60401b19168555604051600181527fc7f505b2f371ae2175ee4913f4499e1f2633a7b5936321eed1cdaeb6115181d29060200160405180910390a15b505050505050505050565b6004545f90600160e01b900460ff168015613091575060045461308e906203f48090600160a01b90046001600160401b03166154fb565b42105b61309a57505f90565b60045442906130bd906203f48090600160a01b90046001600160401b03166154fb565b612cc89190615562565b610d988133614127565b5f6130e5836001600160a01b038416614152565b9392505050565b7f02dd7bc7dec4dceedda775e58dd541e08a116c6c53815c0bd028192f7b62680090565b5f8061311a6130ec565b90506131268484612155565b6131a5575f848152602082815260408083206001600160a01b03871684529091529020805460ff1916600117905561315b3390565b6001600160a01b0316836001600160a01b0316857f2f8788117e7eff1d82e926ec794901d17c78024a50270940304540a733656f0d60405160405180910390a46001915050610ac3565b5f915050610ac3565b5f806131b86130ec565b90506131c48484612155565b156131a5575f848152602082815260408083206001600160a01b0387168085529252808320805460ff1916905551339287917ff6391f5c32d9c69d2a47ea670b442974b53935d1edc7fd64eb21e047a839171b9190a46001915050610ac3565b61322c614169565b5f613235613de7565b805460ff1916815590507f5db9ee0a495bf2e6ff9c91a7834c1ba4fdd244a5e8aa4e537bd38aeae4b073aa335b60405161326f9190614cbd565b60405180910390a150565b6001600160a01b038082165f908152600860205260408082206004908101548251633fabe5a360e21b815292519394169284928392859263feaf968c928083019260a092918290030181865afa1580156132d6573d5f803e3d5ffd5b505050506040513d601f19601f820116820180604052508101906132fa919061550e565b505050915091506001826001600160501b03161161331c57505f949350505050565b5f806001600160a01b038516639a6fc8f5613338600187615766565b6040516001600160e01b031960e084901b1681526001600160501b03909116600482015260240160a060405180830381865afa15801561337a573d5f803e3d5ffd5b505050506040513d601f19601f8201168201806040525081019061339e919061550e565b509350509250505f821315806133b2575080155b156133c357505f9695505050505050565b5f8284136133da576133d58484615786565b6133e4565b6133e48385615786565b90506133f2816064856136cb565b98975050505050505050565b6001600160a01b038082165f908152600860205260408082206004908101548251633fabe5a360e21b81529251939416928492839283928392879263feaf968c928282019260a092908290030181865afa15801561345e573d5f803e3d5ffd5b505050506040513d601f19601f82011682018060405250810190613482919061550e565b9450945050935093505f83136134af5784836040516342a9fe1b60e01b8152600401610be59291906157a5565b836001600160501b0316816001600160501b03161015613504576040516372d14d5960e01b81526001600160a01b03861660048201526001600160501b03808616602483015282166044820152606401610be5565b5f61350f8342615562565b600a549091506001600160501b031681111561356957600a5460405163014197e560e31b81526001600160a01b0388166004820152602481018590524260448201526001600160501b039091166064820152608401610be5565b5f6135738961327a565b600a54909150600160a01b900464ffffffffff1681108015906135a85750600a54600160501b90046001600160501b03168210155b156135df57604051635b5030db60e01b81526001600160a01b03881660048201526024810186905260448101829052606401610be5565b6135ea606486615608565b9998505050505050505050565b6001600160a01b038181165f9081526008602090815260408083208151606081018352600590910154948516808252600160a01b860463ffffffff1693820193909352600160c01b90940460ff1690840152909190158061365d5750604081015160ff16155b1561367d578260405163132f75db60e11b8152600401610be59190614cbd565b6136a4815f0151847388e6a0c2ddd26feeb64f039a2c41296fcb3f5640846020015161418e565b91505f8211610cbe5780516040516342a9fe1b60e01b8152610be5919084906004016157a5565b5f838302815f19858709828110838203039150508084116136ea575f80fd5b805f036136fc575082900490506130e5565b5f848688095f868103871696879004966002600389028118808a02820302808a02820302808a02820302808a02820302808a02820302808a02909103029181900381900460010186841190950394909402919094039290920491909117919091029150509392505050565b306001600160a01b037f00000000000000000000000000000000000000000000000000000000000000001614806137ed57507f00000000000000000000000000000000000000000000000000000000000000006001600160a01b03166137e15f80516020615ba4833981519152546001600160a01b031690565b6001600160a01b031614155b1561380b5760405163703e46dd60e11b815260040160405180910390fd5b565b5f80516020615b84833981519152613824816130c7565b600454600160e01b900460ff1661384e576040516370d78f1760e11b815260040160405180910390fd5b6004546001600160a01b0383811691161461388c5760048054604051631e53f1bb60e31b8152610be5926001600160a01b03909216918591016157be565b6004546203f480906138ae90600160a01b90046001600160401b031642615562565b10156138fa576004546138d190600160a01b90046001600160401b031642615562565b6138de906203f480615562565b604051633b77feff60e11b8152600401610be591815260200190565b600480546001600160e81b03191690555f8054819061391b9060ff166157d8565b91906101000a81548160ff021916908360ff160217905550816001600160a01b0316336001600160a01b03167fd23ce5645530506727523fe6d7939e72bb49102454460bc72f0f5baec60ac71860405160405180910390a35050565b816001600160a01b03166352d1902d6040518163ffffffff1660e01b8152600401602060405180830381865afa9250505080156139d1575060408051601f3d908101601f191682019092526139ce918101906155c6565b60015b6139f05781604051634c9c8ce360e01b8152600401610be59190614cbd565b5f80516020615ba48339815191528114613a2057604051632a87526960e21b815260048101829052602401610be5565b610d748383614247565b306001600160a01b037f0000000000000000000000000000000000000000000000000000000000000000161461380b5760405163703e46dd60e11b815260040160405180910390fd5b613a7b6116da565b1561380b5760405163d93c066560e01b815260040160405180910390fd5b610140810151516001600160a01b0316613ac6576040516342bcdf7f60e11b815260040160405180910390fd5b60018161014001516020015160ff161115613b2d576101408101516020015160408051632763535760e01b81526004810191909152601060448201526f636861696e6c696e6b2061637469766560801b606482015260ff9091166024820152608401610be5565b8060c0015160ff168161016001516040015182610140015160200151613b539190615589565b60ff161015613b8057818160c0015182610160015160400151836101400151602001516111ca9190615589565b5f808261010001516001811115613b9957613b99614d54565b03613bb5578161014001516020015160ff166001149050613be6565b60018261010001516001811115613bce57613bce614d54565b03613be6578161016001516040015160ff1660011490505b80613c0c5761010082015160405163702fa91560e01b8152610be59185916004016157f6565b6103de61ffff16826060015161ffff161115613c47576060820151604051636546229560e11b815261ffff9091166004820152602401610be5565b600a8260600151613c589190615813565b61ffff16826040015161ffff161115613c9057604080830151905163254a92d760e01b815261ffff9091166004820152602401610be5565b602082015160ff161580613cab57506012826020015160ff16115b15613cfa57602082015160408051632763535760e01b81526004810191909152600d60448201526c6173736574446563696d616c7360981b606482015260ff9091166024820152608401610be5565b6001825f015160ff161115613d25578151604051632763535760e01b8152610be5919060040161582e565b81608001515f03613d765760408051632763535760e01b8152600481019190915260126044820152711b585e14dd5c1c1b1e551a1c995cda1bdb1960721b60648201525f6024820152608401610be5565b60038261012001516003811115613d8f57613d8f614d54565b148015613d9e575060a0820151155b15610d745760408051632763535760e01b81526004810191909152601060448201526f069736f6c6174696f6e446562744361760841b60648201525f6024820152608401610be5565b7fcd5ed15c6e187e77e9aee88184c21f4f2182ab5827cb3b7e07fbedcd63f0330090565b5f8390505f816001600160a01b0316630dfe16816040518163ffffffff1660e01b8152600401602060405180830381865afa158015613e4c573d5f803e3d5ffd5b505050506040513d601f19601f82011682018060405250810190613e709190615859565b90505f826001600160a01b031663d21220a76040518163ffffffff1660e01b8152600401602060405180830381865afa158015613eaf573d5f803e3d5ffd5b505050506040513d601f19601f82011682018060405250810190613ed39190615859565b9050816001600160a01b0316876001600160a01b031614158015613f095750806001600160a01b0316876001600160a01b031614155b15613f2b578686604051633be4ce8560e01b8152600401610be59291906157be565b6103848563ffffffff161080613f4857506107088563ffffffff16115b15613f9f576040516355046f0360e11b815260806004820152600a6084820152691d1dd85c14195c9a5bd960b21b60a482015263ffffffff861660248201526103846044820152610708606482015260c401610be5565b60018460ff161115613fc65783604051632763535760e01b8152600401610be5919061582e565b60ff8416158015613ff957506001600160a01b0387165f90815260086020526040902060040154600160a01b900460ff16155b801561402557506001600160a01b0387165f90815260086020526040902060030154600160ff90911610155b15614064576001600160a01b0387165f9081526008602052604080822060030154905163cc10d92360e01b8152610be5928a9260ff16916004016155a2565b50505050505050565b614075613a73565b5f61407e613de7565b805460ff1916600117815590507f62e78cea01bee320cd4e420270b5ea74000d11b0c9f74754ebdbfc544b05a2586132623390565b5f610ac3825490565b5f6130e5836001600160a01b03841661429c565b5f610ac3825f6142e3565b60605f6130e583614372565b5f807ff0c57e16840df040f15088dc2f81fe391c3923bec73e23a9662efc9c229c6a00610ac3565b61380b6143cb565b61411f6143cb565b61380b6143f0565b6141318282612155565b61127a57808260405163e2517d3f60e01b8152600401610be59291906157a5565b5f9081526001919091016020526040902054151590565b6141716116da565b61380b57604051638dfc202b60e01b815260040160405180910390fd5b5f8481808061419d888561441e565b92509250925080156141c6576141bf84846141b985600a6156fb565b896145da565b945061423b565b5f6141dd85856141d786600a6156fb565b8a6145da565b9050875f6141f58282670de0b6b3a76400008c6145da565b90505f614203866012615874565b61420e90600a6156fb565b6142189085615608565b90505f61422687600a6156fb565b90506142338284836136cb565b995050505050505b50505050949350505050565b61425082614740565b6040516001600160a01b038316907fbc7cd75a20ee27fd9adebab32041f755214dbc6bffa90cc0225b39da2e5c2d3b905f90a280511561429457610d74828261479a565b61127a61480c565b5f6142a78383614152565b6142dc57508154600181810184555f848152602080822090930184905584548482528286019093526040902091909155610ac3565b505f610ac3565b5f8147101561430957478260405163cf47918160e01b8152600401610be5929190614d8a565b763d602d80600a3d3981f3363d3d373d3d3d363d730000008360601b60e81c175f526e5af43d82803e903d91602b57fd5bf38360781b176020526037600983f090506001600160a01b038116610ac35760405163b06ebf3d60e01b815260040160405180910390fd5b6060815f018054806020026020016040519081016040528092919081815260200182805480156143bf57602002820191905f5260205f20905b8154815260200190600101908083116143ab575b50505050509050919050565b6143d361482b565b61380b57604051631afcd79f60e31b815260040160405180910390fd5b6143f86143cb565b60017f9b779b17422d0df92223018b32b4d1fa46e071723d6817e2486d003becc55f0055565b5f805f80846001600160a01b0316630dfe16816040518163ffffffff1660e01b8152600401602060405180830381865afa15801561445e573d5f803e3d5ffd5b505050506040513d601f19601f820116820180604052508101906144829190615859565b90505f856001600160a01b031663d21220a76040518163ffffffff1660e01b8152600401602060405180830381865afa1580156144c1573d5f803e3d5ffd5b505050506040513d601f19601f820116820180604052508101906144e59190615859565b9050816001600160a01b0316876001600160a01b03161415801561451b5750806001600160a01b0316876001600160a01b031614155b1561453d578686604051633be4ce8560e01b8152600401610be59291906157be565b6001546001600160a01b03838116898216811497509116148061456d57506001546001600160a01b038281169116145b9250866001600160a01b031663313ce5676040518163ffffffff1660e01b8152600401602060405180830381865afa1580156145ab573d5f803e3d5ffd5b505050506040513d601f19601f820116820180604052508101906145cf919061588d565b935050509250925092565b6040805160028082526060820183525f928392919060208301908036833701905050905082815f8151811061461157614611615575565b602002602001019063ffffffff16908163ffffffff16815250505f8160018151811061463f5761463f615575565b63ffffffff9092166020928302919091019091015260405163883bdbfd60e01b81525f906001600160a01b0388169063883bdbfd906146829085906004016158a8565b5f60405180830381865afa15801561469c573d5f803e3d5ffd5b505050506040513d5f823e601f3d908101601f191682016040526146c3919081019061597c565b5090505f815f815181106146d9576146d9615575565b6020026020010151826001815181106146f4576146f4615575565b60200260200101516147069190615a3f565b90505f61471963ffffffff871683615a6c565b90505f61472582614844565b9050614732818a8a614afc565b9a9950505050505050505050565b806001600160a01b03163b5f0361476c5780604051634c9c8ce360e01b8152600401610be59190614cbd565b5f80516020615ba483398151915280546001600160a01b0319166001600160a01b0392909216919091179055565b60605f80846001600160a01b0316846040516147b69190615aa8565b5f60405180830381855af49150503d805f81146147ee576040519150601f19603f3d011682016040523d82523d5f602084013e6147f3565b606091505b5091509150614803858383614b55565b95945050505050565b341561380b5760405163b398979f60e01b815260040160405180910390fd5b5f6148346140e7565b54600160401b900460ff16919050565b60020b5f60ff82901d80830118620d89e881111561486d5761486d6345c3193d60e11b84614ba8565b7001fffcb933bd6fad37aa2d162d1a5940016001821602600160801b1860028216156148a9576ffff97272373d413259a46990580e213a0260801c5b60048216156148c8576ffff2e50f5f656932ef12357cf3c7fdcc0260801c5b60088216156148e7576fffe5caca7e10e4e61c3624eaa0941cd00260801c5b6010821615614906576fffcb9843d60f6159c9db58835c9266440260801c5b6020821615614925576fff973b41fa98c081472e6896dfb254c00260801c5b6040821615614944576fff2ea16466c96a3843ec78b326b528610260801c5b6080821615614963576ffe5dee046a99a2a811c461f1969c30530260801c5b610100821615614983576ffcbe86c7900a88aedcffc83b479aa3a40260801c5b6102008216156149a3576ff987a7253ac413176f2b074cf7815e540260801c5b6104008216156149c3576ff3392b0822b70005940c7a398e4b70f30260801c5b6108008216156149e3576fe7159475a2c29b7443b29c7fa6e889d90260801c5b611000821615614a03576fd097f3bdfd2022b8845ad8f792aa58250260801c5b612000821615614a23576fa9f746462d870fdf8a65dc1f90e061e50260801c5b614000821615614a43576f70d869a156d2a1b890bb3df62baf32f70260801c5b618000821615614a63576f31be135f97d08fd981231505542fcfa60260801c5b62010000821615614a84576f09aa508b5b7a84e1c677de54f3e99bc90260801c5b62020000821615614aa4576e5d6af8dedb81196699c329225ee6040260801c5b62040000821615614ac3576d2216e584f5fa1ea926041bedfe980260801c5b62080000821615614ae0576b048a170391f7dc42444e8fa20260801c5b5f841315614aec575f19045b63ffffffff0160201c9392505050565b5f8215614b30575f614b176001600160a01b038616806155dd565b9050614b288184600160c01b6136cb565b9150506130e5565b5f614b446001600160a01b038616806155dd565b9050614b28600160c01b84836136cb565b606082614b6a57614b6582614bb7565b6130e5565b8151158015614b8157506001600160a01b0384163b155b15614ba15783604051639996b31560e01b8152600401610be59190614cbd565b50806130e5565b815f528060020b60045260245ffd5b805115614bc75780518082602001fd5b60405163d6bda27560e01b815260040160405180910390fd5b60405180608001604052806004906020820280368337509192915050565b5f60208284031215614c0e575f80fd5b81356001600160e01b0319811681146130e5575f80fd5b6001600160a01b0381168114610d98575f80fd5b8035614c4481614c25565b919050565b5f60208284031215614c59575f80fd5b81356130e581614c25565b5f805f60608486031215614c76575f80fd5b8335614c8181614c25565b95602085013595506040909401359392505050565b803560048110614c44575f80fd5b5f60208284031215614cb4575f80fd5b6130e582614c96565b6001600160a01b0391909116815260200190565b5f60208284031215614ce1575f80fd5b5035919050565b5f8060408385031215614cf9575f80fd5b823591506020830135614d0b81614c25565b809150509250929050565b805f5b6004811015610d3b578151845260209384019390910190600101614d19565b6101008101614d478285614d16565b6130e56080830184614d16565b634e487b7160e01b5f52602160045260245ffd5b60048110614d7857614d78614d54565b9052565b60208101610ac38284614d68565b918252602082015260400190565b634e487b7160e01b5f52604160045260245ffd5b60405161018081016001600160401b0381118282101715614dcf57614dcf614d98565b60405290565b604051601f8201601f191681016001600160401b0381118282101715614dfd57614dfd614d98565b604052919050565b5f8060408385031215614e16575f80fd5b8235614e2181614c25565b91506020838101356001600160401b0380821115614e3d575f80fd5b818601915086601f830112614e50575f80fd5b813581811115614e6257614e62614d98565b614e74601f8201601f19168501614dd5565b91508082528784828501011115614e89575f80fd5b80848401858401375f848284010152508093505050509250929050565b60ff81168114610d98575f80fd5b8035614c4481614ea6565b5f805f60608486031215614ed1575f80fd5b8335614edc81614c25565b92506020840135614eec81614c25565b91506040840135614efc81614ea6565b809150509250925092565b803560028110614c44575f80fd5b5f8060408385031215614f26575f80fd5b8235614f3181614c25565b9150614f3f60208401614f07565b90509250929050565b5f8060408385031215614f59575f80fd5b8235614f6481614c25565b946020939093013593505050565b803563ffffffff81168114614c44575f80fd5b5f805f8060808587031215614f98575f80fd5b8435614fa381614c25565b93506020850135614fb381614c25565b9250614fc160408601614f72565b91506060850135614fd181614ea6565b939692955090935050565b5f8060408385031215614fed575f80fd5b8235614ff881614c25565b9150614f3f60208401614c96565b803561ffff81168114614c44575f80fd5b5f60408284031215615027575f80fd5b604080519081016001600160401b038111828210171561504957615049614d98565b604052905080823561505a81614c25565b8152602083013561506a81614ea6565b6020919091015292915050565b5f60608284031215615087575f80fd5b604051606081016001600160401b03811182821017156150a9576150a9614d98565b60405290508082356150ba81614c25565b81526150c860208401614f72565b602082015260408301356150db81614ea6565b6040919091015292915050565b5f808284036102008112156150fb575f80fd5b833561510681614c25565b92506101e0601f198201121561511a575f80fd5b50615123614dac565b61512f60208501614eb4565b815261513d60408501614eb4565b602082015261514e60608501615006565b604082015261515f60808501615006565b606082015260a0840135608082015260c084013560a082015261518460e08501614eb4565b60c0820152610100615197818601614c39565b60e08301526101206151aa818701614f07565b8284015261014091506151be828701614c96565b908301526101606151d187878301615017565b828401526151e3876101a08801615077565b9083015250919491935090915050565b8481526020810184905260408101839052608081016148036060830184614d68565b5f5b8381101561522f578181015183820152602001615217565b50505f910152565b602081525f8251806020840152615255816040850160208701615215565b601f01601f19169190910160400192915050565b6001600160501b0381168114610d98575f80fd5b803564ffffffffff81168114614c44575f80fd5b5f805f80608085870312156152a4575f80fd5b84356152af81615269565b935060208501356152bf81615269565b92506152cd6040860161527d565b91506152db6060860161527d565b905092959194509250565b60028110614d7857614d78614d54565b815160ff1681526101e081016020830151615316602084018260ff169052565b50604083015161532c604084018261ffff169052565b506060830151615342606084018261ffff169052565b506080830151608083015260a083015160a083015260c083015161536b60c084018260ff169052565b5060e083015161538660e08401826001600160a01b03169052565b506101008084015161539a828501826152e6565b5050610120808401516153af82850182614d68565b50506101408381015180516001600160a01b031684830152602081015160ff16610160850152505061016083015180516001600160a01b0316610180840152602081015163ffffffff166101a0840152604081015160ff166101c084015261178a565b5f805f60608486031215615424575f80fd5b614c8184614c96565b602080825282518282018190525f9190848201906040850190845b8181101561546d5783516001600160a01b031683529284019291840191600101615448565b50909695505050505050565b5f805f806080858703121561548c575f80fd5b843561549781614c25565b935060208501356154a781614c25565b925060408501356154b781614c25565b91506060850135614fd181614c25565b634e487b7160e01b5f52601160045260245ffd5b6001600160401b0381811683821601908082111561178a5761178a6154c7565b80820180821115610ac357610ac36154c7565b5f805f805f60a08688031215615522575f80fd5b855161552d81615269565b80955050602086015193506040860151925060608601519150608086015161555481615269565b809150509295509295909350565b81810381811115610ac357610ac36154c7565b634e487b7160e01b5f52603260045260245ffd5b60ff8181168382160190811115610ac357610ac36154c7565b6001600160a01b0393909316835260ff918216602084015216604082015260600190565b5f602082840312156155d6575f80fd5b5051919050565b8082028115828204841417610ac357610ac36154c7565b634e487b7160e01b5f52601260045260245ffd5b5f82615616576156166155f4565b500490565b600181815b8085111561565557815f190482111561563b5761563b6154c7565b8085161561564857918102915b93841c9390800290615620565b509250929050565b5f8261566b57506001610ac3565b8161567757505f610ac3565b816001811461568d5760028114615697576156b3565b6001915050610ac3565b60ff8411156156a8576156a86154c7565b50506001821b610ac3565b5060208310610133831016604e8410600b84101617156156d6575081810a610ac3565b6156e0838361561b565b805f19048211156156f3576156f36154c7565b029392505050565b5f6130e560ff84168361565d565b5f805f6060848603121561571b575f80fd5b8351925060208401519150604084015190509250925092565b6001600160501b0392831681529116602082015260400190565b64ffffffffff92831681529116602082015260400190565b6001600160501b0382811682821603908082111561178a5761178a6154c7565b8181035f83128015838313168383128216171561178a5761178a6154c7565b6001600160a01b03929092168252602082015260400190565b6001600160a01b0392831681529116602082015260400190565b5f60ff821660ff81036157ed576157ed6154c7565b60010192915050565b6001600160a01b0383168152604081016130e560208301846152e6565b61ffff82811682821603908082111561178a5761178a6154c7565b60408082526006908201526561637469766560d01b606082015260ff91909116602082015260800190565b5f60208284031215615869575f80fd5b81516130e581614c25565b60ff8281168282160390811115610ac357610ac36154c7565b5f6020828403121561589d575f80fd5b81516130e581614ea6565b602080825282518282018190525f9190848201906040850190845b8181101561546d57835163ffffffff16835292840192918401916001016158c3565b5f6001600160401b038211156158fd576158fd614d98565b5060051b60200190565b5f82601f830112615916575f80fd5b8151602061592b615926836158e5565b614dd5565b8083825260208201915060208460051b87010193508684111561594c575f80fd5b602086015b8481101561597157805161596481614c25565b8352918301918301615951565b509695505050505050565b5f806040838503121561598d575f80fd5b82516001600160401b03808211156159a3575f80fd5b818501915085601f8301126159b6575f80fd5b815160206159c6615926836158e5565b82815260059290921b840181019181810190898411156159e4575f80fd5b948201945b83861015615a105785518060060b8114615a01575f80fd5b825294820194908201906159e9565b91880151919650909350505080821115615a28575f80fd5b50615a3585828601615907565b9150509250929050565b600682810b9082900b03667fffffffffffff198112667fffffffffffff82131715610ac357610ac36154c7565b5f8160060b8360060b80615a8257615a826155f4565b667fffffffffffff1982145f1982141615615a9f57615a9f6154c7565b90059392505050565b5f8251615ab9818460208701615215565b919091019291505056feec8156718a8372b1db44bb411437d0870f3e3790d4a08526d024ce1b0b668f6b6cde3cea4b3a3fb2488b2808bae7556f4a405e50f65e1794383bc026131b13c3c575c31fea594a6eb97c8e9d3f9caee4c16218c6ef37e923234c0fe9014a61e76cde3cea4b3a3fb2488b2808bae7556f4a405e50f65e1794383bc026131b13c4ec8156718a8372b1db44bb411437d0870f3e3790d4a08526d024ce1b0b668f6c92e85d02570a8092d09a6e3a57665bc3815a2699a4074001bf1ccabf660f5a37189ab7a9244df0848122154315af71fe140f3db0fe014031783b0946b8c9d2e3360894a13ba1a3210667c828492db98dca3e2076cc3735a920a3ca505d382bbc241ecf16d79d0f8dbfb92cbc07fe17840425976cf0667f022fe9877caa831b0865d7a28e3265b37a6474929f336521b332c1681b933f6cb9f3376673440d862ac575c31fea594a6eb97c8e9d3f9caee4c16218c6ef37e923234c0fe9014a61e892e85d02570a8092d09a6e3a57665bc3815a2699a4074001bf1ccabf660f5a36a2646970667358221220f8826c4781f6b6453aa4d6c2cca17590e122ab65c939f3494c48ee5417e5043964736f6c63430008170033","linkReferences":{}},"methodIdentifiers":{"DEFAULT_ADMIN_ROLE()":"a217fddf","UPGRADE_INTERFACE_VERSION()":"ad3cb1cc","cancelUpgrade()":"55f29166","checkPriceDeviation(address)":"44626596","circuitBroken(address)":"ec5f638e","coreAddress()":"1c0ad646","evaluateCircuitBreaker(address)":"3fa0d73f","getAssetBorrowThreshold(address)":"ecb79ffd","getAssetCalculationParams(address)":"c898f342","getAssetDecimals(address)":"9efd6f72","getAssetDetails(address)":"9c9b6451","getAssetInfo(address)":"afad2e16","getAssetLiquidationThreshold(address)":"c2c47005","getAssetPrice(address)":"b3596f07","getAssetPriceByType(address,uint8)":"62d3b24a","getAssetTier(address)":"443907b2","getIsolationDebtCap(address)":"8fde8879","getLiquidationFee(uint8)":"11e54208","getListedAssets()":"f7e19eff","getOracleByType(address,uint8)":"57f352e0","getOracleCount(address)":"dcbafbd8","getPoRFeed(address)":"1dc04cda","getRoleAdmin(bytes32)":"248a9ca3","getTierJumpRate(uint8)":"24959e43","getTierRates()":"43f1b863","grantRole(bytes32,address)":"2f2ff15d","hasRole(bytes32,address)":"91d14854","initialize(address,address,address,address)":"f8c8765e","isAssetAtCapacity(address,uint256,uint256)":"11af9f40","isAssetValid(address)":"ab8efe6e","mainOracleConfig()":"5c0d719d","pause()":"8456cb59","paused()":"5c975abb","pendingUpgrade()":"95e93245","poolLiquidityLimit(address,uint256)":"59aa38dd","porFeed()":"a86c5e67","proxiableUUID()":"52d1902d","renounceRole(bytes32,address)":"36568abe","revokeRole(bytes32,address)":"d547741f","scheduleUpgrade(address)":"0c80447a","setCoreAddress(address)":"91aad239","supportsInterface(bytes4)":"01ffc9a7","tierConfig(uint8)":"468b5425","timelock()":"d33219b4","unpause()":"3f4ba83a","updateAssetConfig(address,(uint8,uint8,uint16,uint16,uint256,uint256,uint8,address,uint8,uint8,(address,uint8),(address,uint32,uint8)))":"8ee2b60a","updateAssetPoRFeed(address,uint256)":"7d39d74b","updateAssetTier(address,uint8)":"8e1eeb33","updateChainlinkOracle(address,address,uint8)":"552479ef","updateMainOracleConfig(uint80,uint80,uint40,uint40)":"af5a5947","updateTierConfig(uint8,uint256,uint256)":"d38cd9bf","updateUniswapOracle(address,address,uint32,uint8)":"785012f9","upgradeTimelockRemaining()":"ffaf73cd","upgradeToAndCall(address,bytes)":"4f1ef286","version()":"54fd4d50"},"storageLayout":{"storage":[{"astId":12329,"contract":"contracts/markets/LendefiAssets.sol:LendefiAssets","label":"version","offset":0,"slot":"0","type":"t_uint8"},{"astId":12332,"contract":"contracts/markets/LendefiAssets.sol:LendefiAssets","label":"coreAddress","offset":1,"slot":"0","type":"t_address"},{"astId":12335,"contract":"contracts/markets/LendefiAssets.sol:LendefiAssets","label":"usdc","offset":0,"slot":"1","type":"t_address"},{"astId":12338,"contract":"contracts/markets/LendefiAssets.sol:LendefiAssets","label":"porFeed","offset":0,"slot":"2","type":"t_address"},{"astId":12341,"contract":"contracts/markets/LendefiAssets.sol:LendefiAssets","label":"timelock","offset":0,"slot":"3","type":"t_address"},{"astId":12345,"contract":"contracts/markets/LendefiAssets.sol:LendefiAssets","label":"pendingUpgrade","offset":0,"slot":"4","type":"t_struct(UpgradeRequest)7042_storage"},{"astId":12349,"contract":"contracts/markets/LendefiAssets.sol:LendefiAssets","label":"lendefiInstance","offset":0,"slot":"5","type":"t_contract(IPROTOCOL)10978"},{"astId":12353,"contract":"contracts/markets/LendefiAssets.sol:LendefiAssets","label":"listedAssets","offset":0,"slot":"6","type":"t_struct(AddressSet)73498_storage"},{"astId":12359,"contract":"contracts/markets/LendefiAssets.sol:LendefiAssets","label":"assetInfo","offset":0,"slot":"8","type":"t_mapping(t_address,t_struct(Asset)7086_storage)"},{"astId":12366,"contract":"contracts/markets/LendefiAssets.sol:LendefiAssets","label":"tierConfig","offset":0,"slot":"9","type":"t_mapping(t_enum(CollateralTier)7117,t_struct(TierRates)7092_storage)"},{"astId":12370,"contract":"contracts/markets/LendefiAssets.sol:LendefiAssets","label":"mainOracleConfig","offset":0,"slot":"10","type":"t_struct(MainOracleConfig)7102_storage"},{"astId":12375,"contract":"contracts/markets/LendefiAssets.sol:LendefiAssets","label":"circuitBroken","offset":0,"slot":"11","type":"t_mapping(t_address,t_bool)"},{"astId":12380,"contract":"contracts/markets/LendefiAssets.sol:LendefiAssets","label":"__gap","offset":0,"slot":"12","type":"t_array(t_uint256)22_storage"}],"types":{"t_address":{"encoding":"inplace","label":"address","numberOfBytes":"20"},"t_array(t_bytes32)dyn_storage":{"encoding":"dynamic_array","label":"bytes32[]","numberOfBytes":"32","base":"t_bytes32"},"t_array(t_uint256)22_storage":{"encoding":"inplace","label":"uint256[22]","numberOfBytes":"704","base":"t_uint256"},"t_bool":{"encoding":"inplace","label":"bool","numberOfBytes":"1"},"t_bytes32":{"encoding":"inplace","label":"bytes32","numberOfBytes":"32"},"t_contract(IPROTOCOL)10978":{"encoding":"inplace","label":"contract IPROTOCOL","numberOfBytes":"20"},"t_enum(CollateralTier)7117":{"encoding":"inplace","label":"enum IASSETS.CollateralTier","numberOfBytes":"1"},"t_enum(OracleType)7121":{"encoding":"inplace","label":"enum IASSETS.OracleType","numberOfBytes":"1"},"t_mapping(t_address,t_bool)":{"encoding":"mapping","key":"t_address","label":"mapping(address => bool)","numberOfBytes":"32","value":"t_bool"},"t_mapping(t_address,t_struct(Asset)7086_storage)":{"encoding":"mapping","key":"t_address","label":"mapping(address => struct IASSETS.Asset)","numberOfBytes":"32","value":"t_struct(Asset)7086_storage"},"t_mapping(t_bytes32,t_uint256)":{"encoding":"mapping","key":"t_bytes32","label":"mapping(bytes32 => uint256)","numberOfBytes":"32","value":"t_uint256"},"t_mapping(t_enum(CollateralTier)7117,t_struct(TierRates)7092_storage)":{"encoding":"mapping","key":"t_enum(CollateralTier)7117","label":"mapping(enum IASSETS.CollateralTier => struct IASSETS.TierRates)","numberOfBytes":"32","value":"t_struct(TierRates)7092_storage"},"t_struct(AddressSet)73498_storage":{"encoding":"inplace","label":"struct EnumerableSet.AddressSet","numberOfBytes":"64","members":[{"astId":73497,"contract":"contracts/markets/LendefiAssets.sol:LendefiAssets","label":"_inner","offset":0,"slot":"0","type":"t_struct(Set)73127_storage"}]},"t_struct(Asset)7086_storage":{"encoding":"inplace","label":"struct IASSETS.Asset","numberOfBytes":"192","members":[{"astId":7059,"contract":"contracts/markets/LendefiAssets.sol:LendefiAssets","label":"active","offset":0,"slot":"0","type":"t_uint8"},{"astId":7061,"contract":"contracts/markets/LendefiAssets.sol:LendefiAssets","label":"decimals","offset":1,"slot":"0","type":"t_uint8"},{"astId":7063,"contract":"contracts/markets/LendefiAssets.sol:LendefiAssets","label":"borrowThreshold","offset":2,"slot":"0","type":"t_uint16"},{"astId":7065,"contract":"contracts/markets/LendefiAssets.sol:LendefiAssets","label":"liquidationThreshold","offset":4,"slot":"0","type":"t_uint16"},{"astId":7067,"contract":"contracts/markets/LendefiAssets.sol:LendefiAssets","label":"maxSupplyThreshold","offset":0,"slot":"1","type":"t_uint256"},{"astId":7069,"contract":"contracts/markets/LendefiAssets.sol:LendefiAssets","label":"isolationDebtCap","offset":0,"slot":"2","type":"t_uint256"},{"astId":7071,"contract":"contracts/markets/LendefiAssets.sol:LendefiAssets","label":"assetMinimumOracles","offset":0,"slot":"3","type":"t_uint8"},{"astId":7073,"contract":"contracts/markets/LendefiAssets.sol:LendefiAssets","label":"porFeed","offset":1,"slot":"3","type":"t_address"},{"astId":7076,"contract":"contracts/markets/LendefiAssets.sol:LendefiAssets","label":"primaryOracleType","offset":21,"slot":"3","type":"t_enum(OracleType)7121"},{"astId":7079,"contract":"contracts/markets/LendefiAssets.sol:LendefiAssets","label":"tier","offset":22,"slot":"3","type":"t_enum(CollateralTier)7117"},{"astId":7082,"contract":"contracts/markets/LendefiAssets.sol:LendefiAssets","label":"chainlinkConfig","offset":0,"slot":"4","type":"t_struct(ChainlinkOracleConfig)7056_storage"},{"astId":7085,"contract":"contracts/markets/LendefiAssets.sol:LendefiAssets","label":"poolConfig","offset":0,"slot":"5","type":"t_struct(UniswapPoolConfig)7050_storage"}]},"t_struct(ChainlinkOracleConfig)7056_storage":{"encoding":"inplace","label":"struct IASSETS.ChainlinkOracleConfig","numberOfBytes":"32","members":[{"astId":7053,"contract":"contracts/markets/LendefiAssets.sol:LendefiAssets","label":"oracleUSD","offset":0,"slot":"0","type":"t_address"},{"astId":7055,"contract":"contracts/markets/LendefiAssets.sol:LendefiAssets","label":"active","offset":20,"slot":"0","type":"t_uint8"}]},"t_struct(MainOracleConfig)7102_storage":{"encoding":"inplace","label":"struct IASSETS.MainOracleConfig","numberOfBytes":"32","members":[{"astId":7095,"contract":"contracts/markets/LendefiAssets.sol:LendefiAssets","label":"freshnessThreshold","offset":0,"slot":"0","type":"t_uint80"},{"astId":7097,"contract":"contracts/markets/LendefiAssets.sol:LendefiAssets","label":"volatilityThreshold","offset":10,"slot":"0","type":"t_uint80"},{"astId":7099,"contract":"contracts/markets/LendefiAssets.sol:LendefiAssets","label":"volatilityPercentage","offset":20,"slot":"0","type":"t_uint40"},{"astId":7101,"contract":"contracts/markets/LendefiAssets.sol:LendefiAssets","label":"circuitBreakerThreshold","offset":25,"slot":"0","type":"t_uint40"}]},"t_struct(Set)73127_storage":{"encoding":"inplace","label":"struct EnumerableSet.Set","numberOfBytes":"64","members":[{"astId":73122,"contract":"contracts/markets/LendefiAssets.sol:LendefiAssets","label":"_values","offset":0,"slot":"0","type":"t_array(t_bytes32)dyn_storage"},{"astId":73126,"contract":"contracts/markets/LendefiAssets.sol:LendefiAssets","label":"_positions","offset":0,"slot":"1","type":"t_mapping(t_bytes32,t_uint256)"}]},"t_struct(TierRates)7092_storage":{"encoding":"inplace","label":"struct IASSETS.TierRates","numberOfBytes":"64","members":[{"astId":7089,"contract":"contracts/markets/LendefiAssets.sol:LendefiAssets","label":"jumpRate","offset":0,"slot":"0","type":"t_uint256"},{"astId":7091,"contract":"contracts/markets/LendefiAssets.sol:LendefiAssets","label":"liquidationFee","offset":0,"slot":"1","type":"t_uint256"}]},"t_struct(UniswapPoolConfig)7050_storage":{"encoding":"inplace","label":"struct IASSETS.UniswapPoolConfig","numberOfBytes":"32","members":[{"astId":7045,"contract":"contracts/markets/LendefiAssets.sol:LendefiAssets","label":"pool","offset":0,"slot":"0","type":"t_address"},{"astId":7047,"contract":"contracts/markets/LendefiAssets.sol:LendefiAssets","label":"twapPeriod","offset":20,"slot":"0","type":"t_uint32"},{"astId":7049,"contract":"contracts/markets/LendefiAssets.sol:LendefiAssets","label":"active","offset":24,"slot":"0","type":"t_uint8"}]},"t_struct(UpgradeRequest)7042_storage":{"encoding":"inplace","label":"struct IASSETS.UpgradeRequest","numberOfBytes":"32","members":[{"astId":7037,"contract":"contracts/markets/LendefiAssets.sol:LendefiAssets","label":"implementation","offset":0,"slot":"0","type":"t_address"},{"astId":7039,"contract":"contracts/markets/LendefiAssets.sol:LendefiAssets","label":"scheduledTime","offset":20,"slot":"0","type":"t_uint64"},{"astId":7041,"contract":"contracts/markets/LendefiAssets.sol:LendefiAssets","label":"exists","offset":28,"slot":"0","type":"t_bool"}]},"t_uint16":{"encoding":"inplace","label":"uint16","numberOfBytes":"2"},"t_uint256":{"encoding":"inplace","label":"uint256","numberOfBytes":"32"},"t_uint32":{"encoding":"inplace","label":"uint32","numberOfBytes":"4"},"t_uint40":{"encoding":"inplace","label":"uint40","numberOfBytes":"5"},"t_uint64":{"encoding":"inplace","label":"uint64","numberOfBytes":"8"},"t_uint8":{"encoding":"inplace","label":"uint8","numberOfBytes":"1"},"t_uint80":{"encoding":"inplace","label":"uint80","numberOfBytes":"10"}}},"id":32}