{"abi":[{"type":"constructor","inputs":[],"stateMutability":"nonpayable"},{"type":"function","name":"DEFAULT_ADMIN_ROLE","inputs":[],"outputs":[{"name":"","type":"bytes32","internalType":"bytes32"}],"stateMutability":"view"},{"type":"function","name":"UPGRADE_INTERFACE_VERSION","inputs":[],"outputs":[{"name":"","type":"string","internalType":"string"}],"stateMutability":"view"},{"type":"function","name":"cancelUpgrade","inputs":[],"outputs":[],"stateMutability":"nonpayable"},{"type":"function","name":"checkPriceDeviation","inputs":[{"name":"asset","type":"address","internalType":"address"}],"outputs":[{"name":"isDeviated","type":"bool","internalType":"bool"},{"name":"deviation","type":"uint256","internalType":"uint256"}],"stateMutability":"view"},{"type":"function","name":"circuitBroken","inputs":[{"name":"asset","type":"address","internalType":"address"}],"outputs":[{"name":"broken","type":"bool","internalType":"bool"}],"stateMutability":"view"},{"type":"function","name":"coreAddress","inputs":[],"outputs":[{"name":"","type":"address","internalType":"address"}],"stateMutability":"view"},{"type":"function","name":"evaluateCircuitBreaker","inputs":[{"name":"asset","type":"address","internalType":"address"}],"outputs":[{"name":"triggered","type":"bool","internalType":"bool"},{"name":"deviation","type":"uint256","internalType":"uint256"}],"stateMutability":"nonpayable"},{"type":"function","name":"getAssetBorrowThreshold","inputs":[{"name":"asset","type":"address","internalType":"address"}],"outputs":[{"name":"","type":"uint16","internalType":"uint16"}],"stateMutability":"view"},{"type":"function","name":"getAssetCalculationParams","inputs":[{"name":"asset","type":"address","internalType":"address"}],"outputs":[{"name":"","type":"tuple","internalType":"struct IASSETS.AssetCalculationParams","components":[{"name":"price","type":"uint256","internalType":"uint256"},{"name":"borrowThreshold","type":"uint16","internalType":"uint16"},{"name":"liquidationThreshold","type":"uint16","internalType":"uint16"},{"name":"decimals","type":"uint8","internalType":"uint8"}]}],"stateMutability":"view"},{"type":"function","name":"getAssetDecimals","inputs":[{"name":"asset","type":"address","internalType":"address"}],"outputs":[{"name":"","type":"uint8","internalType":"uint8"}],"stateMutability":"view"},{"type":"function","name":"getAssetDetails","inputs":[{"name":"asset","type":"address","internalType":"address"}],"outputs":[{"name":"price","type":"uint256","internalType":"uint256"},{"name":"tvl","type":"uint256","internalType":"uint256"},{"name":"maxSupply","type":"uint256","internalType":"uint256"},{"name":"tier","type":"uint8","internalType":"enum IASSETS.CollateralTier"}],"stateMutability":"view"},{"type":"function","name":"getAssetInfo","inputs":[{"name":"asset","type":"address","internalType":"address"}],"outputs":[{"name":"","type":"tuple","internalType":"struct IASSETS.Asset","components":[{"name":"active","type":"uint8","internalType":"uint8"},{"name":"decimals","type":"uint8","internalType":"uint8"},{"name":"borrowThreshold","type":"uint16","internalType":"uint16"},{"name":"liquidationThreshold","type":"uint16","internalType":"uint16"},{"name":"maxSupplyThreshold","type":"uint256","internalType":"uint256"},{"name":"isolationDebtCap","type":"uint256","internalType":"uint256"},{"name":"assetMinimumOracles","type":"uint8","internalType":"uint8"},{"name":"porFeed","type":"address","internalType":"address"},{"name":"primaryOracleType","type":"uint8","internalType":"enum IASSETS.OracleType"},{"name":"tier","type":"uint8","internalType":"enum IASSETS.CollateralTier"},{"name":"chainlinkConfig","type":"tuple","internalType":"struct IASSETS.ChainlinkOracleConfig","components":[{"name":"oracleUSD","type":"address","internalType":"address"},{"name":"active","type":"uint8","internalType":"uint8"}]},{"name":"poolConfig","type":"tuple","internalType":"struct IASSETS.UniswapPoolConfig","components":[{"name":"pool","type":"address","internalType":"address"},{"name":"twapPeriod","type":"uint32","internalType":"uint32"},{"name":"active","type":"uint8","internalType":"uint8"}]}]}],"stateMutability":"view"},{"type":"function","name":"getAssetLiquidationThreshold","inputs":[{"name":"asset","type":"address","internalType":"address"}],"outputs":[{"name":"","type":"uint16","internalType":"uint16"}],"stateMutability":"view"},{"type":"function","name":"getAssetPrice","inputs":[{"name":"asset","type":"address","internalType":"address"}],"outputs":[{"name":"","type":"uint256","internalType":"uint256"}],"stateMutability":"view"},{"type":"function","name":"getAssetPriceByType","inputs":[{"name":"asset","type":"address","internalType":"address"},{"name":"oracleType","type":"uint8","internalType":"enum IASSETS.OracleType"}],"outputs":[{"name":"","type":"uint256","internalType":"uint256"}],"stateMutability":"view"},{"type":"function","name":"getAssetTier","inputs":[{"name":"asset","type":"address","internalType":"address"}],"outputs":[{"name":"tier","type":"uint8","internalType":"enum IASSETS.CollateralTier"}],"stateMutability":"view"},{"type":"function","name":"getIsolationDebtCap","inputs":[{"name":"asset","type":"address","internalType":"address"}],"outputs":[{"name":"","type":"uint256","internalType":"uint256"}],"stateMutability":"view"},{"type":"function","name":"getLiquidationFee","inputs":[{"name":"tier","type":"uint8","internalType":"enum IASSETS.CollateralTier"}],"outputs":[{"name":"","type":"uint256","internalType":"uint256"}],"stateMutability":"view"},{"type":"function","name":"getListedAssets","inputs":[],"outputs":[{"name":"","type":"address[]","internalType":"address[]"}],"stateMutability":"view"},{"type":"function","name":"getOracleByType","inputs":[{"name":"asset","type":"address","internalType":"address"},{"name":"oracleType","type":"uint8","internalType":"enum IASSETS.OracleType"}],"outputs":[{"name":"","type":"address","internalType":"address"}],"stateMutability":"view"},{"type":"function","name":"getOracleCount","inputs":[{"name":"asset","type":"address","internalType":"address"}],"outputs":[{"name":"","type":"uint256","internalType":"uint256"}],"stateMutability":"view"},{"type":"function","name":"getPoRFeed","inputs":[{"name":"asset","type":"address","internalType":"address"}],"outputs":[{"name":"","type":"address","internalType":"address"}],"stateMutability":"view"},{"type":"function","name":"getRoleAdmin","inputs":[{"name":"role","type":"bytes32","internalType":"bytes32"}],"outputs":[{"name":"","type":"bytes32","internalType":"bytes32"}],"stateMutability":"view"},{"type":"function","name":"getTierJumpRate","inputs":[{"name":"tier","type":"uint8","internalType":"enum IASSETS.CollateralTier"}],"outputs":[{"name":"","type":"uint256","internalType":"uint256"}],"stateMutability":"view"},{"type":"function","name":"getTierRates","inputs":[],"outputs":[{"name":"jumpRates","type":"uint256[4]","internalType":"uint256[4]"},{"name":"liquidationFees","type":"uint256[4]","internalType":"uint256[4]"}],"stateMutability":"view"},{"type":"function","name":"grantRole","inputs":[{"name":"role","type":"bytes32","internalType":"bytes32"},{"name":"account","type":"address","internalType":"address"}],"outputs":[],"stateMutability":"nonpayable"},{"type":"function","name":"hasRole","inputs":[{"name":"role","type":"bytes32","internalType":"bytes32"},{"name":"account","type":"address","internalType":"address"}],"outputs":[{"name":"","type":"bool","internalType":"bool"}],"stateMutability":"view"},{"type":"function","name":"initialize","inputs":[{"name":"timelock_","type":"address","internalType":"address"},{"name":"marketOwner","type":"address","internalType":"address"},{"name":"porFeed_","type":"address","internalType":"address"}],"outputs":[],"stateMutability":"nonpayable"},{"type":"function","name":"isAssetAtCapacity","inputs":[{"name":"asset","type":"address","internalType":"address"},{"name":"amount","type":"uint256","internalType":"uint256"},{"name":"tvl","type":"uint256","internalType":"uint256"}],"outputs":[{"name":"","type":"bool","internalType":"bool"}],"stateMutability":"view"},{"type":"function","name":"isAssetValid","inputs":[{"name":"asset","type":"address","internalType":"address"}],"outputs":[{"name":"","type":"bool","internalType":"bool"}],"stateMutability":"view"},{"type":"function","name":"mainOracleConfig","inputs":[],"outputs":[{"name":"freshnessThreshold","type":"uint80","internalType":"uint80"},{"name":"volatilityThreshold","type":"uint80","internalType":"uint80"},{"name":"volatilityPercentage","type":"uint40","internalType":"uint40"},{"name":"circuitBreakerThreshold","type":"uint40","internalType":"uint40"}],"stateMutability":"view"},{"type":"function","name":"pause","inputs":[],"outputs":[],"stateMutability":"nonpayable"},{"type":"function","name":"paused","inputs":[],"outputs":[{"name":"","type":"bool","internalType":"bool"}],"stateMutability":"view"},{"type":"function","name":"pendingUpgrade","inputs":[],"outputs":[{"name":"implementation","type":"address","internalType":"address"},{"name":"scheduledTime","type":"uint64","internalType":"uint64"},{"name":"exists","type":"bool","internalType":"bool"}],"stateMutability":"view"},{"type":"function","name":"poolLiquidityLimit","inputs":[{"name":"asset","type":"address","internalType":"address"},{"name":"amount","type":"uint256","internalType":"uint256"}],"outputs":[{"name":"limitReached","type":"bool","internalType":"bool"}],"stateMutability":"view"},{"type":"function","name":"porFeed","inputs":[],"outputs":[{"name":"","type":"address","internalType":"address"}],"stateMutability":"view"},{"type":"function","name":"proxiableUUID","inputs":[],"outputs":[{"name":"","type":"bytes32","internalType":"bytes32"}],"stateMutability":"view"},{"type":"function","name":"renounceRole","inputs":[{"name":"role","type":"bytes32","internalType":"bytes32"},{"name":"callerConfirmation","type":"address","internalType":"address"}],"outputs":[],"stateMutability":"nonpayable"},{"type":"function","name":"revokeRole","inputs":[{"name":"role","type":"bytes32","internalType":"bytes32"},{"name":"account","type":"address","internalType":"address"}],"outputs":[],"stateMutability":"nonpayable"},{"type":"function","name":"scheduleUpgrade","inputs":[{"name":"newImplementation","type":"address","internalType":"address"}],"outputs":[],"stateMutability":"nonpayable"},{"type":"function","name":"setCoreAddress","inputs":[{"name":"newCore","type":"address","internalType":"address"}],"outputs":[],"stateMutability":"nonpayable"},{"type":"function","name":"supportsInterface","inputs":[{"name":"interfaceId","type":"bytes4","internalType":"bytes4"}],"outputs":[{"name":"","type":"bool","internalType":"bool"}],"stateMutability":"view"},{"type":"function","name":"tierConfig","inputs":[{"name":"","type":"uint8","internalType":"enum IASSETS.CollateralTier"}],"outputs":[{"name":"jumpRate","type":"uint256","internalType":"uint256"},{"name":"liquidationFee","type":"uint256","internalType":"uint256"}],"stateMutability":"view"},{"type":"function","name":"timelock","inputs":[],"outputs":[{"name":"","type":"address","internalType":"address"}],"stateMutability":"view"},{"type":"function","name":"unpause","inputs":[],"outputs":[],"stateMutability":"nonpayable"},{"type":"function","name":"updateAssetConfig","inputs":[{"name":"asset","type":"address","internalType":"address"},{"name":"config","type":"tuple","internalType":"struct IASSETS.Asset","components":[{"name":"active","type":"uint8","internalType":"uint8"},{"name":"decimals","type":"uint8","internalType":"uint8"},{"name":"borrowThreshold","type":"uint16","internalType":"uint16"},{"name":"liquidationThreshold","type":"uint16","internalType":"uint16"},{"name":"maxSupplyThreshold","type":"uint256","internalType":"uint256"},{"name":"isolationDebtCap","type":"uint256","internalType":"uint256"},{"name":"assetMinimumOracles","type":"uint8","internalType":"uint8"},{"name":"porFeed","type":"address","internalType":"address"},{"name":"primaryOracleType","type":"uint8","internalType":"enum IASSETS.OracleType"},{"name":"tier","type":"uint8","internalType":"enum IASSETS.CollateralTier"},{"name":"chainlinkConfig","type":"tuple","internalType":"struct IASSETS.ChainlinkOracleConfig","components":[{"name":"oracleUSD","type":"address","internalType":"address"},{"name":"active","type":"uint8","internalType":"uint8"}]},{"name":"poolConfig","type":"tuple","internalType":"struct IASSETS.UniswapPoolConfig","components":[{"name":"pool","type":"address","internalType":"address"},{"name":"twapPeriod","type":"uint32","internalType":"uint32"},{"name":"active","type":"uint8","internalType":"uint8"}]}]}],"outputs":[],"stateMutability":"nonpayable"},{"type":"function","name":"updateAssetPoRFeed","inputs":[{"name":"asset","type":"address","internalType":"address"},{"name":"tvl","type":"uint256","internalType":"uint256"}],"outputs":[{"name":"usdValue","type":"uint256","internalType":"uint256"}],"stateMutability":"nonpayable"},{"type":"function","name":"updateAssetTier","inputs":[{"name":"asset","type":"address","internalType":"address"},{"name":"newTier","type":"uint8","internalType":"enum IASSETS.CollateralTier"}],"outputs":[],"stateMutability":"nonpayable"},{"type":"function","name":"updateChainlinkOracle","inputs":[{"name":"asset","type":"address","internalType":"address"},{"name":"oracle","type":"address","internalType":"address"},{"name":"active","type":"uint8","internalType":"uint8"}],"outputs":[],"stateMutability":"nonpayable"},{"type":"function","name":"updateMainOracleConfig","inputs":[{"name":"freshness","type":"uint80","internalType":"uint80"},{"name":"volatility","type":"uint80","internalType":"uint80"},{"name":"volatilityPct","type":"uint40","internalType":"uint40"},{"name":"circuitBreakerPct","type":"uint40","internalType":"uint40"}],"outputs":[],"stateMutability":"nonpayable"},{"type":"function","name":"updateTierConfig","inputs":[{"name":"tier","type":"uint8","internalType":"enum IASSETS.CollateralTier"},{"name":"jumpRate","type":"uint256","internalType":"uint256"},{"name":"liquidationFee","type":"uint256","internalType":"uint256"}],"outputs":[],"stateMutability":"nonpayable"},{"type":"function","name":"updateUniswapOracle","inputs":[{"name":"asset","type":"address","internalType":"address"},{"name":"uniswapPool","type":"address","internalType":"address"},{"name":"twapPeriod","type":"uint32","internalType":"uint32"},{"name":"active","type":"uint8","internalType":"uint8"}],"outputs":[],"stateMutability":"nonpayable"},{"type":"function","name":"upgradeTimelockRemaining","inputs":[],"outputs":[{"name":"","type":"uint256","internalType":"uint256"}],"stateMutability":"view"},{"type":"function","name":"upgradeToAndCall","inputs":[{"name":"newImplementation","type":"address","internalType":"address"},{"name":"data","type":"bytes","internalType":"bytes"}],"outputs":[],"stateMutability":"payable"},{"type":"function","name":"version","inputs":[],"outputs":[{"name":"","type":"uint8","internalType":"uint8"}],"stateMutability":"view"},{"type":"event","name":"AssetTierUpdated","inputs":[{"name":"asset","type":"address","indexed":true,"internalType":"address"},{"name":"tier","type":"uint8","indexed":false,"internalType":"enum IASSETS.CollateralTier"}],"anonymous":false},{"type":"event","name":"ChainlinkOracleUpdated","inputs":[{"name":"asset","type":"address","indexed":true,"internalType":"address"},{"name":"oracle","type":"address","indexed":true,"internalType":"address"},{"name":"active","type":"uint8","indexed":false,"internalType":"uint8"}],"anonymous":false},{"type":"event","name":"CircuitBreakerReset","inputs":[{"name":"asset","type":"address","indexed":true,"internalType":"address"}],"anonymous":false},{"type":"event","name":"CircuitBreakerThresholdUpdated","inputs":[{"name":"oldValue","type":"uint256","indexed":false,"internalType":"uint256"},{"name":"newValue","type":"uint256","indexed":false,"internalType":"uint256"}],"anonymous":false},{"type":"event","name":"CircuitBreakerTriggered","inputs":[{"name":"asset","type":"address","indexed":true,"internalType":"address"},{"name":"deviationPct","type":"uint256","indexed":false,"internalType":"uint256"},{"name":"timestamp","type":"uint256","indexed":false,"internalType":"uint256"}],"anonymous":false},{"type":"event","name":"CoreAddressUpdated","inputs":[{"name":"newCore","type":"address","indexed":true,"internalType":"address"}],"anonymous":false},{"type":"event","name":"FreshnessThresholdUpdated","inputs":[{"name":"oldValue","type":"uint256","indexed":false,"internalType":"uint256"},{"name":"newValue","type":"uint256","indexed":false,"internalType":"uint256"}],"anonymous":false},{"type":"event","name":"Initialized","inputs":[{"name":"version","type":"uint64","indexed":false,"internalType":"uint64"}],"anonymous":false},{"type":"event","name":"Paused","inputs":[{"name":"account","type":"address","indexed":false,"internalType":"address"}],"anonymous":false},{"type":"event","name":"RoleAdminChanged","inputs":[{"name":"role","type":"bytes32","indexed":true,"internalType":"bytes32"},{"name":"previousAdminRole","type":"bytes32","indexed":true,"internalType":"bytes32"},{"name":"newAdminRole","type":"bytes32","indexed":true,"internalType":"bytes32"}],"anonymous":false},{"type":"event","name":"RoleGranted","inputs":[{"name":"role","type":"bytes32","indexed":true,"internalType":"bytes32"},{"name":"account","type":"address","indexed":true,"internalType":"address"},{"name":"sender","type":"address","indexed":true,"internalType":"address"}],"anonymous":false},{"type":"event","name":"RoleRevoked","inputs":[{"name":"role","type":"bytes32","indexed":true,"internalType":"bytes32"},{"name":"account","type":"address","indexed":true,"internalType":"address"},{"name":"sender","type":"address","indexed":true,"internalType":"address"}],"anonymous":false},{"type":"event","name":"TierParametersUpdated","inputs":[{"name":"tier","type":"uint8","indexed":true,"internalType":"enum IASSETS.CollateralTier"},{"name":"jumpRate","type":"uint256","indexed":false,"internalType":"uint256"},{"name":"liquidationFee","type":"uint256","indexed":false,"internalType":"uint256"}],"anonymous":false},{"type":"event","name":"UniswapOracleUpdated","inputs":[{"name":"asset","type":"address","indexed":true,"internalType":"address"},{"name":"pool","type":"address","indexed":true,"internalType":"address"},{"name":"active","type":"uint8","indexed":false,"internalType":"uint8"}],"anonymous":false},{"type":"event","name":"Unpaused","inputs":[{"name":"account","type":"address","indexed":false,"internalType":"address"}],"anonymous":false},{"type":"event","name":"UpdateAssetConfig","inputs":[{"name":"asset","type":"address","indexed":true,"internalType":"address"},{"name":"config","type":"tuple","indexed":false,"internalType":"struct IASSETS.Asset","components":[{"name":"active","type":"uint8","internalType":"uint8"},{"name":"decimals","type":"uint8","internalType":"uint8"},{"name":"borrowThreshold","type":"uint16","internalType":"uint16"},{"name":"liquidationThreshold","type":"uint16","internalType":"uint16"},{"name":"maxSupplyThreshold","type":"uint256","internalType":"uint256"},{"name":"isolationDebtCap","type":"uint256","internalType":"uint256"},{"name":"assetMinimumOracles","type":"uint8","internalType":"uint8"},{"name":"porFeed","type":"address","internalType":"address"},{"name":"primaryOracleType","type":"uint8","internalType":"enum IASSETS.OracleType"},{"name":"tier","type":"uint8","internalType":"enum IASSETS.CollateralTier"},{"name":"chainlinkConfig","type":"tuple","internalType":"struct IASSETS.ChainlinkOracleConfig","components":[{"name":"oracleUSD","type":"address","internalType":"address"},{"name":"active","type":"uint8","internalType":"uint8"}]},{"name":"poolConfig","type":"tuple","internalType":"struct IASSETS.UniswapPoolConfig","components":[{"name":"pool","type":"address","internalType":"address"},{"name":"twapPeriod","type":"uint32","internalType":"uint32"},{"name":"active","type":"uint8","internalType":"uint8"}]}]}],"anonymous":false},{"type":"event","name":"Upgrade","inputs":[{"name":"sender","type":"address","indexed":true,"internalType":"address"},{"name":"implementation","type":"address","indexed":true,"internalType":"address"}],"anonymous":false},{"type":"event","name":"UpgradeCancelled","inputs":[{"name":"sender","type":"address","indexed":true,"internalType":"address"},{"name":"implementation","type":"address","indexed":true,"internalType":"address"}],"anonymous":false},{"type":"event","name":"UpgradeScheduled","inputs":[{"name":"sender","type":"address","indexed":true,"internalType":"address"},{"name":"implementation","type":"address","indexed":true,"internalType":"address"},{"name":"scheduledTime","type":"uint64","indexed":false,"internalType":"uint64"},{"name":"effectiveTime","type":"uint64","indexed":false,"internalType":"uint64"}],"anonymous":false},{"type":"event","name":"Upgraded","inputs":[{"name":"implementation","type":"address","indexed":true,"internalType":"address"}],"anonymous":false},{"type":"event","name":"VolatilityPercentageUpdated","inputs":[{"name":"oldValue","type":"uint256","indexed":false,"internalType":"uint256"},{"name":"newValue","type":"uint256","indexed":false,"internalType":"uint256"}],"anonymous":false},{"type":"event","name":"VolatilityThresholdUpdated","inputs":[{"name":"oldValue","type":"uint256","indexed":false,"internalType":"uint256"},{"name":"newValue","type":"uint256","indexed":false,"internalType":"uint256"}],"anonymous":false},{"type":"error","name":"AccessControlBadConfirmation","inputs":[]},{"type":"error","name":"AccessControlUnauthorizedAccount","inputs":[{"name":"account","type":"address","internalType":"address"},{"name":"neededRole","type":"bytes32","internalType":"bytes32"}]},{"type":"error","name":"AddressEmptyCode","inputs":[{"name":"target","type":"address","internalType":"address"}]},{"type":"error","name":"AssetListTooLarge","inputs":[{"name":"maxAllowedAssets","type":"uint32","internalType":"uint32"}]},{"type":"error","name":"AssetNotInUniswapPool","inputs":[{"name":"asset","type":"address","internalType":"address"},{"name":"pool","type":"address","internalType":"address"}]},{"type":"error","name":"AssetNotListed","inputs":[{"name":"asset","type":"address","internalType":"address"}]},{"type":"error","name":"CircuitBreakerActive","inputs":[{"name":"asset","type":"address","internalType":"address"}]},{"type":"error","name":"CloneDeploymentFailed","inputs":[]},{"type":"error","name":"ERC1967InvalidImplementation","inputs":[{"name":"implementation","type":"address","internalType":"address"}]},{"type":"error","name":"ERC1967NonPayable","inputs":[]},{"type":"error","name":"EnforcedPause","inputs":[]},{"type":"error","name":"ExpectedPause","inputs":[]},{"type":"error","name":"FailedCall","inputs":[]},{"type":"error","name":"FailedDeployment","inputs":[]},{"type":"error","name":"FeeTooHigh","inputs":[{"name":"fee","type":"uint256","internalType":"uint256"},{"name":"maxAllowed","type":"uint256","internalType":"uint256"}]},{"type":"error","name":"ImplementationMismatch","inputs":[{"name":"expected","type":"address","internalType":"address"},{"name":"actual","type":"address","internalType":"address"}]},{"type":"error","name":"InsufficientBalance","inputs":[{"name":"balance","type":"uint256","internalType":"uint256"},{"name":"needed","type":"uint256","internalType":"uint256"}]},{"type":"error","name":"InvalidBorrowThreshold","inputs":[{"name":"threshold","type":"uint256","internalType":"uint256"}]},{"type":"error","name":"InvalidInitialization","inputs":[]},{"type":"error","name":"InvalidLiquidationThreshold","inputs":[{"name":"threshold","type":"uint256","internalType":"uint256"}]},{"type":"error","name":"InvalidParameter","inputs":[{"name":"param","type":"string","internalType":"string"},{"name":"value","type":"uint256","internalType":"uint256"}]},{"type":"error","name":"InvalidThreshold","inputs":[{"name":"param","type":"string","internalType":"string"},{"name":"value","type":"uint256","internalType":"uint256"},{"name":"min","type":"uint256","internalType":"uint256"},{"name":"max","type":"uint256","internalType":"uint256"}]},{"type":"error","name":"InvalidUniswapConfig","inputs":[{"name":"asset","type":"address","internalType":"address"}]},{"type":"error","name":"NotEnoughValidOracles","inputs":[{"name":"asset","type":"address","internalType":"address"},{"name":"required","type":"uint8","internalType":"uint8"},{"name":"available","type":"uint8","internalType":"uint8"}]},{"type":"error","name":"NotInitializing","inputs":[]},{"type":"error","name":"OracleInvalidPrice","inputs":[{"name":"oracle","type":"address","internalType":"address"},{"name":"price","type":"int256","internalType":"int256"}]},{"type":"error","name":"OracleInvalidPriceVolatility","inputs":[{"name":"oracle","type":"address","internalType":"address"},{"name":"price","type":"int256","internalType":"int256"},{"name":"changePercent","type":"uint256","internalType":"uint256"}]},{"type":"error","name":"OracleNotActive","inputs":[{"name":"asset","type":"address","internalType":"address"},{"name":"oracleType","type":"uint8","internalType":"enum IASSETS.OracleType"}]},{"type":"error","name":"OracleStalePrice","inputs":[{"name":"oracle","type":"address","internalType":"address"},{"name":"roundId","type":"uint80","internalType":"uint80"},{"name":"answeredInRound","type":"uint80","internalType":"uint80"}]},{"type":"error","name":"OracleTimeout","inputs":[{"name":"oracle","type":"address","internalType":"address"},{"name":"timestamp","type":"uint256","internalType":"uint256"},{"name":"blockTimestamp","type":"uint256","internalType":"uint256"},{"name":"threshold","type":"uint256","internalType":"uint256"}]},{"type":"error","name":"RateTooHigh","inputs":[{"name":"rate","type":"uint256","internalType":"uint256"},{"name":"maxAllowed","type":"uint256","internalType":"uint256"}]},{"type":"error","name":"ReentrancyGuardReentrantCall","inputs":[]},{"type":"error","name":"UUPSUnauthorizedCallContext","inputs":[]},{"type":"error","name":"UUPSUnsupportedProxiableUUID","inputs":[{"name":"slot","type":"bytes32","internalType":"bytes32"}]},{"type":"error","name":"UpgradeNotScheduled","inputs":[]},{"type":"error","name":"UpgradeTimelockActive","inputs":[{"name":"timeRemaining","type":"uint256","internalType":"uint256"}]},{"type":"error","name":"ZeroAddressNotAllowed","inputs":[]}],"bytecode":{"object":"0x60a06040523060805234801562000014575f80fd5b506200001f62000025565b620000d9565b7ff0c57e16840df040f15088dc2f81fe391c3923bec73e23a9662efc9c229c6a00805468010000000000000000900460ff1615620000765760405163f92ee8a960e01b815260040160405180910390fd5b80546001600160401b0390811614620000d65780546001600160401b0319166001600160401b0390811782556040519081527fc7f505b2f371ae2175ee4913f4499e1f2633a7b5936321eed1cdaeb6115181d29060200160405180910390a15b50565b608051615d0a620001005f395f81816137510152818161377a0152613a130152615d0a5ff3fe60806040526004361061026f575f3560e01c806301ffc9a7146102735780630c80447a146102a757806311af9f40146102c857806311e54208146102e75780631c0ad646146103145780631dc04cda14610344578063248a9ca31461036357806324959e43146103825780632f2ff15d146103a157806336568abe146103c05780633f4ba83a146103df5780633fa0d73f146103f357806343f1b86314610429578063443907b21461044b5780634462659614610477578063468b5425146104965780634f1ef286146104d657806352d1902d146104e957806354fd4d50146104fd578063552479ef1461052757806355f291661461054657806357f352e01461055a57806359aa38dd146105795780635c0d719d146105985780635c975abb1461061557806362d3b24a14610629578063785012f9146106485780637d39d74b146106675780638456cb59146106865780638e1eeb331461069a5780638ee2b60a146106b95780638fde8879146106d857806391aad239146106f757806391d148541461071657806395e93245146107355780639c9b6451146107a05780639efd6f72146107cf578063a217fddf146107ee578063a86c5e6714610801578063ab8efe6e14610820578063ad3cb1cc1461083f578063af5a59471461087c578063afad2e161461089b578063b3596f07146108c7578063c0c53b8b146108e6578063c2c4700514610905578063c898f34214610937578063d33219b414610995578063d38cd9bf146109b4578063d547741f146109d3578063dcbafbd8146109f2578063ec5f638e14610a11578063ecb79ffd14610a3f578063f7e19eff14610a5e578063ffaf73cd14610a7f575b5f80fd5b34801561027e575f80fd5b5061029261028d366004614ca0565b610a93565b60405190151581526020015b60405180910390f35b3480156102b2575f80fd5b506102c66102c1366004614ceb565b610ac9565b005b3480156102d3575f80fd5b506102926102e2366004614d06565b610bb9565b3480156102f2575f80fd5b50610306610301366004614d46565b610c2e565b60405190815260200161029e565b34801561031f575f80fd5b505f546103379061010090046001600160a01b031681565b60405161029e9190614d5f565b34801561034f575f80fd5b5061033761035e366004614ceb565b610c6d565b34801561036e575f80fd5b5061030661037d366004614d73565b610cc4565b34801561038d575f80fd5b5061030661039c366004614d46565b610ce2565b3480156103ac575f80fd5b506102c66103bb366004614d8a565b610d1f565b3480156103cb575f80fd5b506102c66103da366004614d8a565b610d41565b3480156103ea575f80fd5b506102c6610d79565b3480156103fe575f80fd5b5061041261040d366004614ceb565b610d9b565b60408051921515835260208301919091520161029e565b348015610434575f80fd5b5061043d611058565b60405161029e929190614dda565b348015610456575f80fd5b5061046a610465366004614ceb565b61111b565b60405161029e9190614e1e565b348015610482575f80fd5b50610412610491366004614ceb565b611170565b3480156104a1575f80fd5b506104c86104b0366004614d46565b60086020525f90815260409020805460019091015482565b60405161029e929190614e2c565b6102c66104e4366004614ea7565b61125f565b3480156104f4575f80fd5b5061030661127e565b348015610508575f80fd5b505f546105159060ff1681565b60405160ff909116815260200161029e565b348015610532575f80fd5b506102c6610541366004614f61565b611299565b348015610551575f80fd5b506102c6611508565b348015610565575f80fd5b50610337610574366004614fb7565b611597565b348015610584575f80fd5b50610292610593366004614fea565b6115f6565b3480156105a3575f80fd5b506009546105dd906001600160501b0380821691600160501b81049091169064ffffffffff600160a01b8204811691600160c81b90041684565b604080516001600160501b03958616815294909316602085015264ffffffffff9182169284019290925216606082015260800161029e565b348015610620575f80fd5b506102926116da565b348015610634575f80fd5b50610306610643366004614fb7565b6116ee565b348015610653575f80fd5b506102c6610662366004615027565b611791565b348015610672575f80fd5b50610306610681366004614fea565b611a37565b348015610691575f80fd5b506102c6611b2d565b3480156106a5575f80fd5b506102c66106b436600461507e565b611b4c565b3480156106c4575f80fd5b506102c66106d336600461518a565b611c23565b3480156106e3575f80fd5b506103066106f2366004614ceb565b61206d565b348015610702575f80fd5b506102c6610711366004614ceb565b6120b8565b348015610721575f80fd5b50610292610730366004614d8a565b612155565b348015610740575f80fd5b50600354610771906001600160a01b03811690600160a01b81046001600160401b031690600160e01b900460ff1683565b604080516001600160a01b0390941684526001600160401b03909216602084015215159082015260600161029e565b3480156107ab575f80fd5b506107bf6107ba366004614ceb565b612189565b60405161029e9493929190615295565b3480156107da575f80fd5b506105156107e9366004614ceb565b612270565b3480156107f9575f80fd5b506103065f81565b34801561080c575f80fd5b50600154610337906001600160a01b031681565b34801561082b575f80fd5b5061029261083a366004614ceb565b6122c0565b34801561084a575f80fd5b5061086f604051806040016040528060058152602001640352e302e360dc1b81525081565b60405161029e91906152d9565b348015610887575f80fd5b506102c6610896366004615333565b6122f4565b3480156108a6575f80fd5b506108ba6108b5366004614ceb565b61268c565b60405161029e9190615398565b3480156108d2575f80fd5b506103066108e1366004614ceb565b6128ae565b3480156108f1575f80fd5b506102c66109003660046154b4565b6129cb565b348015610910575f80fd5b5061092461091f366004614ceb565b612d35565b60405161ffff909116815260200161029e565b348015610942575f80fd5b50610956610951366004614ceb565b612d88565b604080518251815260208084015161ffff9081169183019190915283830151169181019190915260609182015160ff169181019190915260800161029e565b3480156109a0575f80fd5b50600254610337906001600160a01b031681565b3480156109bf575f80fd5b506102c66109ce3660046154f1565b612e42565b3480156109de575f80fd5b506102c66109ed366004614d8a565b612f6e565b3480156109fd575f80fd5b50610306610a0c366004614ceb565b612f8a565b348015610a1c575f80fd5b50610292610a2b366004614ceb565b600a6020525f908152604090205460ff1681565b348015610a4a575f80fd5b50610924610a59366004614ceb565b612fd3565b348015610a69575f80fd5b50610a72613025565b60405161029e919061550c565b348015610a8a575f80fd5b50610306613036565b5f6001600160e01b03198216637965db0b60e01b1480610ac357506301ffc9a760e01b6001600160e01b03198316145b92915050565b806001600160a01b038116610af1576040516342bcdf7f60e11b815260040160405180910390fd5b5f80516020615b75833981519152610b08816130a6565b425f610b176203f4808361556c565b604080516060810182526001600160a01b0388168082526001600160401b03868116602080850182905260019486019490945260038054600160e01b6001600160e01b03199091168517600160a01b84021760ff60e01b191617905584519081529085169281019290925292935033917fd555bb44cf2c5b99fb9936196db6ac3b4ca5946d1f2fc81ba6cc49fe978b55c4910160405180910390a35050505050565b5f83610bc66005826130b0565b610bee578060405163d0957f1f60e01b8152600401610be59190614d5f565b60405180910390fd5b6001600160a01b0385165f90815260076020526040902060010154610c13858561558c565b1115610c225760019150610c26565b5f91505b509392505050565b5f60085f836003811115610c4457610c44614df6565b6003811115610c5557610c55614df6565b81526020019081526020015f20600101549050919050565b5f81610c7a6005826130b0565b610c99578060405163d0957f1f60e01b8152600401610be59190614d5f565b6001600160a01b038084165f9081526007602052604090206003015461010090041691505b50919050565b5f80610cce6130cb565b5f9384526020525050604090206001015490565b5f60085f836003811115610cf857610cf8614df6565b6003811115610d0957610d09614df6565b815260208101919091526040015f205492915050565b610d2882610cc4565b610d31816130a6565b610d3b83836130ef565b50505050565b6001600160a01b0381163314610d6a5760405163334bd91960e11b815260040160405180910390fd5b610d74828261318d565b505050565b5f80516020615c95833981519152610d90816130a6565b610d98613203565b50565b5f8082610da96005826130b0565b610dc8578060405163d0957f1f60e01b8152600401610be59190614d5f565b6001600160a01b0384165f908152600760205260408120600481015460058201549192600160a01b90910460ff90811692600160c01b9004169080600184148015610e1657508260ff166001145b15610e3f575f80610e268b611170565b915091508115610e3857600193508092505b5050610f1a565b8360ff16600103610f1a57610e5389613259565b60048087015460408051633fabe5a360e21b815290519394506001600160a01b03909116925f92849263feaf968c928183019260a0928290030181865afa158015610ea0573d5f803e3d5ffd5b505050506040513d601f19601f82011682018060405250810190610ec4919061559f565b5093505050505f8142610ed791906155f3565b600954909150600160a01b900464ffffffffff168410801590610f0c5750600954600160501b90046001600160501b03168110155b15610f1657600194505b5050505b818015610f3f57506001600160a01b0389165f908152600a602052604090205460ff16155b15610fb0576001600160a01b0389165f818152600a602052604090819020805460ff19166001179055517f249ffe6adefed2d14f2d2086abb427d5c2bc5cc8d63d2308930340c5fb51e27a90610f989084904290614e2c565b60405180910390a26001975095506110529350505050565b81158015610fd557506001600160a01b0389165f908152600a602052604090205460ff165b1561102e576001600160a01b0389165f818152600a6020526040808220805460ff19169055517f07663ee3f7c1099057fc9fc555efb675b77fe234386ec977b12f15d5f24fd0309190a25f975095506110529350505050565b6001600160a01b0389165f908152600a602052604090205460ff1697509550505050505b50915091565b611060614c82565b611068614c82565b5f80516020615c558339815191525482525f80516020615c35833981519152546020808401919091525f80516020615bf5833981519152546040808501919091525f80516020615bb5833981519152546060808601919091525f80516020615b558339815191525484525f80516020615c7583398151915254848401525f80516020615cb5833981519152549184019190915260035f5260089091525f80516020615bd583398151915254908201529091565b5f816111286005826130b0565b611147578060405163d0957f1f60e01b8152600401610be59190614d5f565b50506001600160a01b03165f90815260076020526040902060030154600160b01b900460ff1690565b6001600160a01b0381165f9081526007602052604081206004810154600590910154829160ff600160a01b909104811691600160c01b9004166111b3818361561a565b60ff166002146111e6578460026111ca838561561a565b60405163cc10d92360e01b8152600401610be593929190615633565b5f6111f0866133dd565b90505f6111fc876135d6565b90505f81831061120c578161120e565b825b90505f82841161121e5782611220565b835b90505f61122d83836155f3565b905061123b816064856136aa565b600954600160c81b900464ffffffffff168110159b909a5098505050505050505050565b611267613746565b611270826137ec565b61127a8282613955565b5050565b5f611287613a08565b505f80516020615b9583398151915290565b816001600160a01b0381166112c1576040516342bcdf7f60e11b815260040160405180910390fd5b836112cd6005826130b0565b6112ec578060405163d0957f1f60e01b8152600401610be59190614d5f565b5f80516020615c15833981519152611303816130a6565b61130b613a51565b6040805180820182526001600160a01b03808816825260ff80881660208085019182528b84165f90815260078252868120955160048701805494518616600160a01b026001600160a81b031990951691871691909117939093179092558551610180810187528554808516825261010080820486169383019390935261ffff620100008204811698830198909852600160201b900490961660608701526001808601546080880152600286015460a0880152600386015480851660c089015282810490951660e08801529195949390850192600160a81b90910416908111156113f6576113f6614df6565b600181111561140757611407614df6565b81526020016003820160169054906101000a900460ff16600381111561142f5761142f614df6565b600381111561144057611440614df6565b815260408051808201825260048401546001600160a01b038082168352600160a01b9182900460ff908116602080860191909152808701949094528451606081018652600590970154918216875291810463ffffffff1692860192909252600160c01b9091041683820152015290506114b98782613a77565b60405160ff861681526001600160a01b0380881691908916907fb965398cb5b04bb7fa916a40d888df0a955ef7f2eeea1adf6880c6a8ef611f609060200160405180910390a350505050505050565b5f80516020615b7583398151915261151f816130a6565b600354600160e01b900460ff16611549576040516370d78f1760e11b815260040160405180910390fd5b600380546001600160e81b031981169091556040516001600160a01b0390911690819033907fa6698f935ea3cb05304828ddd237d7f7b2ee8f2d7733962bbba67888985e1a2c905f90a35050565b5f60018260018111156115ac576115ac614df6565b036115d457506001600160a01b038083165f9081526007602052604090206005015416610ac3565b50506001600160a01b039081165f908152600760205260409020600401541690565b6001600160a01b0382165f90815260076020526040812060050154600160c01b900460ff166001036116d2576001600160a01b038084165f818152600760205260408082206005015490516370a0823160e01b81529316929091906370a0823190611665908590600401614d5f565b602060405180830381865afa158015611680573d5f803e3d5ffd5b505050506040513d601f19601f820116820180604052508101906116a49190615657565b905060646116b382600361566e565b6116bd9190615699565b8411156116cf57600192505050610ac3565b50505b505f92915050565b5f806116e4613dc5565b5460ff1692915050565b5f826116fb6005826130b0565b61171a578060405163d0957f1f60e01b8152600401610be59190614d5f565b6001600160a01b0384165f908152600a602052604090205460ff1615611755578360405163a675261f60e01b8152600401610be59190614d5f565b600183600181111561176957611769614df6565b0361177e57611777846135d6565b915061178a565b611787846133dd565b91505b5092915050565b826001600160a01b0381166117b9576040516342bcdf7f60e11b815260040160405180910390fd5b846117c56005826130b0565b6117e4578060405163d0957f1f60e01b8152600401610be59190614d5f565b5f80516020615c158339815191526117fb816130a6565b611803613a51565b61180f87878787613de9565b60408051606080820183526001600160a01b03808a16835263ffffffff808a16602080860191825260ff808c168789019081528f86165f90815260078452898120985160058a018054965193518516600160c01b0260ff60c01b1994909816600160a01b026001600160c01b0319909716918916919091179590951791909116949094179092558651610180810188528654808416825261010080820485169383019390935261ffff620100008204811699830199909952600160201b9004909716948701949094526001808601546080880152600286015460a0880152600386015480831660c089015285810490941660e088015291959493850192600160a81b9004169081111561192457611924614df6565b600181111561193557611935614df6565b81526020016003820160169054906101000a900460ff16600381111561195d5761195d614df6565b600381111561196e5761196e614df6565b815260408051808201825260048401546001600160a01b038082168352600160a01b9182900460ff908116602080860191909152808701949094528451606081018652600590970154918216875291810463ffffffff1692860192909252600160c01b9091041683820152015290506119e78882613a77565b60405160ff861681526001600160a01b0380891691908a16907f388756f3ea7b098f462c8e9df0ee9f4e69bdb20db5d53e549f60113fc30538dc9060200160405180910390a35050505050505050565b5f82611a446005826130b0565b611a63578060405163d0957f1f60e01b8152600401610be59190614d5f565b6001600160a01b038481165f90815260076020526040908190206003015490516318a491c960e11b8152600481018690526101009091049091169081906331492392906024015f604051808303815f87803b158015611ac0575f80fd5b505af1158015611ad2573d5f803e3d5ffd5b505050506001600160a01b0385165f90815260076020526040812054610100900460ff1690611b0282600a61578c565b905080611b0e886128ae565b611b18908861566e565b611b229190615699565b979650505050505050565b5f80516020615c95833981519152611b44816130a6565b610d9861404b565b81611b586005826130b0565b611b77578060405163d0957f1f60e01b8152600401610be59190614d5f565b5f80516020615c15833981519152611b8e816130a6565b611b96613a51565b6001600160a01b0384165f90815260076020526040902060039081018054859260ff60b01b1990911690600160b01b908490811115611bd757611bd7614df6565b0217905550836001600160a01b03167f1a32f2e106c6f46e2bfb29200211907e1bce20a075e31cb2950fd7f8e18cb13f84604051611c159190614e1e565b60405180910390a250505050565b816001600160a01b038116611c4b576040516342bcdf7f60e11b815260040160405180910390fd5b5f80516020615c15833981519152611c62816130a6565b611c6a613a51565b611c748484613a77565b8261016001516040015160ff16600103611ca75761016083015180516020820151604090920151611ca792879291613de9565b5f611cb36005866130b0565b1590508015611e1357610bb8611cc96005614091565b1115611cec57604051633c5838fb60e01b8152610bb86004820152602401610be5565b611cf760058661409a565b611d325760405162461bcd60e51b815260206004820152600c60248201526b105111125391d7d054d4d15560a21b6044820152606401610be5565b600154611d47906001600160a01b03166140ae565b6001600160a01b031660e08501819052611d74576040516304ddc24d60e01b815260040160405180910390fd5b8360e001516001600160a01b03163b5f03611da2576040516304ddc24d60e01b815260040160405180910390fd5b60e084015160025460405163c0c53b8b60e01b81526001600160a01b038881166004830152306024830152918216604482015291169063c0c53b8b906064015f604051808303815f87803b158015611df8575f80fd5b505af1158015611e0a573d5f803e3d5ffd5b50505050611e7e565b6001600160a01b038581165f9081526007602052604090206003015460e08601516101009091048216911614611e7e5760408051632763535760e01b8152600481019190915260076044820152661c1bdc9199595960ca1b60648201525f6024820152608401610be5565b6001600160a01b038581165f9081526007602090815260409182902087518154928901519389015160608a015160ff92831661ffff199095169490941761010095831686021765ffffffff000019166201000061ffff9283160261ffff60201b191617600160201b9190941602929092178155608088015160018083019190915560a0890151600283015560c089015160038301805460e08c0151929095166001600160a81b0319909516949094179516840294909417808355928801518894919390929160ff60a81b1990911690600160a81b908490811115611f6457611f64614df6565b02179055506101208201518160030160166101000a81548160ff02191690836003811115611f9457611f94614df6565b0217905550610140820151805160048301805460209384015160ff908116600160a01b9081026001600160a81b03199093166001600160a01b0395861617929092179092556101609095015180516005909501805494820151604092830151909316600160c01b0260ff60c01b1963ffffffff9094169097026001600160c01b03199095169584169590951793909317169390931790915551908616907f782d29c6d21d00683e374211f3995497b783b22ec02bb16a333c0622fd95776f9061205e908790615398565b60405180910390a25050505050565b5f8161207a6005826130b0565b612099578060405163d0957f1f60e01b8152600401610be59190614d5f565b50506001600160a01b03165f9081526007602052604090206002015490565b806001600160a01b0381166120e0576040516342bcdf7f60e11b815260040160405180910390fd5b5f6120ea816130a6565b6120f2613a51565b5f8054610100600160a81b0319166101006001600160a01b038616908102919091178255600480546001600160a01b0319168217905560405190917fbca3f1aa8de84a3358f79c18643a1fd10e6f51209329ff16f756ccf1ae07954091a2505050565b5f8061215f6130cb565b5f948552602090815260408086206001600160a01b03959095168652939052505090205460ff1690565b5f808080846121996005826130b0565b6121b8578060405163d0957f1f60e01b8152600401610be59190614d5f565b6001600160a01b0386165f9081526007602052604090206001810154600390910154909350600160b01b900460ff1691506121f2866128ae565b60048054604051637067445960e01b81529297506001600160a01b031691637067445991612222918a9101614d5f565b606060405180830381865afa15801561223d573d5f803e3d5ffd5b505050506040513d601f19601f82011682018060405250810190612261919061579a565b90505080945050509193509193565b5f8161227d6005826130b0565b61229c578060405163d0957f1f60e01b8152600401610be59190614d5f565b50506001600160a01b03165f90815260076020526040902054610100900460ff1690565b5f6122cc6005836130b0565b8015610ac35750506001600160a01b03165f9081526007602052604090205460ff1660011490565b5f80516020615c1583398151915261230b816130a6565b612313613a51565b610384856001600160501b03161080612337575062015180856001600160501b0316115b15612391576040516355046f0360e11b815260806004820152600960848201526866726573686e65737360b81b60a48201526001600160501b0386166024820152610384604482015262015180606482015260c401610be5565b61012c846001600160501b031610806123b45750613840846001600160501b0316115b1561240e576040516355046f0360e11b815260806004820152600a608482015269766f6c6174696c69747960b01b60a48201526001600160501b038516602482015261012c6044820152613840606482015260c401610be5565b60058364ffffffffff16108061242b5750601e8364ffffffffff16115b15612484576040516355046f0360e11b815260806004820152600d60848201526c1d9bdb185d1a5b1a5d1e5418dd609a1b60a482015264ffffffffff8416602482015260056044820152601e606482015260c401610be5565b60198264ffffffffff1610806124a1575060468264ffffffffff16115b156124fb576040516355046f0360e11b815260806004820152600e60848201526d31b4b931bab4ba213932b0b5b2b960911b60a482015264ffffffffff83166024820152601960448201526046606482015260c401610be5565b60408051608081018252600980546001600160501b03808216808552600160501b80840483166020870152600160a01b80850464ffffffffff908116888a0152600160c81b808704821660608a01528e86166001600160a01b031990971696909617948d1690920293909317600160a01b600160f01b0319168a821690930264ffffffffff60c81b19169290921791881690920217909155915190917fd3befbaf659abe0a323e0622ff100c991a154e7e16c5caddb618b39b2935873e916125c5919089906157c5565b60405180910390a17f5cf3aa43eccf63badf220e63681842da62fc76cb29564e286e4e1922f2d78ad18160200151866040516126029291906157c5565b60405180910390a17fdeee05ef6e057eefd0d52210c39e00ad5c76c8b115f65002944f00c2d2186d9a81604001518560405161263f9291906157df565b60405180910390a17fa4cf1fa0b59c3b1b7a0c5709e256d77e368cd5abc84bb63b17134ae8c5ce2baa81606001518460405161267c9291906157df565b60405180910390a1505050505050565b61271660408051610180810182525f8082526020808301829052828401829052606083018290526080830182905260a0830182905260c0830182905260e08301829052610100830182905261012083018290528351808501909452818452830152906101408201908152604080516060810182525f80825260208281018290529282015291015290565b816127226005826130b0565b612741578060405163d0957f1f60e01b8152600401610be59190614d5f565b6001600160a01b038084165f90815260076020908152604091829020825161018081018452815460ff808216835261010080830482169584019590955261ffff620100008304811696840196909652600160201b90910490941660608201526001808301546080830152600283015460a0830152600383015480861660c084015284810490961660e08301529094919392850192600160a81b909204909116908111156127f0576127f0614df6565b600181111561280157612801614df6565b81526020016003820160169054906101000a900460ff16600381111561282957612829614df6565b600381111561283a5761283a614df6565b815260408051808201825260048401546001600160a01b038082168352600160a01b9182900460ff908116602080860191909152808701949094528451606081018652600590970154918216875291810463ffffffff1692860192909252600160c01b909104168382015201529392505050565b5f816128bb6005826130b0565b6128da578060405163d0957f1f60e01b8152600401610be59190614d5f565b6001600160a01b0383165f908152600a602052604090205460ff1615612915578260405163a675261f60e01b8152600401610be59190614d5f565b6001600160a01b0383165f9081526007602052604090206004810154600582015460ff600160a01b909204821691600160c01b9091041660018214801561295d575060ff8116155b156129755761296b866133dd565b9450505050610cbe565b8060ff166001148015612989575060ff8216155b156129975761296b866135d6565b5f6129a1876133dd565b90505f6129ad886135d6565b90505f60016129bc838561558c565b901c9998505050505050505050565b5f6129d46140b9565b805490915060ff600160401b82041615906001600160401b03165f811580156129fa5750825b90505f826001600160401b03166001148015612a155750303b155b905081158015612a23575080155b15612a415760405163f92ee8a960e01b815260040160405180910390fd5b84546001600160401b03191660011785558315612a6a57845460ff60401b1916600160401b1785555b6001600160a01b0388161580612a8757506001600160a01b038716155b80612a9957506001600160a01b038616155b15612ab7576040516342bcdf7f60e11b815260040160405180910390fd5b612abf6140e1565b612ac76140e9565b612acf6140e1565b612ad76140e1565b612ae15f896130ef565b50612af95f80516020615c15833981519152896130ef565b50612b115f80516020615c15833981519152886130ef565b50612b295f80516020615b75833981519152896130ef565b50612b415f80516020615c95833981519152886130ef565b50612b595f80516020615c95833981519152896130ef565b50604080516080810182526170808152610e1060208201526014918101919091526032606090910152600980546001600160f01b03191661708060e160541b01650c800000000560a21b01179055612cad60408051808201825261c350815261271060208083019182525f808052600880835293515f80516020615c558339815191525591515f80516020615b558339815191525583518085018552620138808152614e208183019081526001845284835290515f80516020615c3583398151915255515f80516020615c7583398151915255835180850185526201d4c081526175308183019081526002845284835290515f80516020615bf583398151915255515f80516020615cb5833981519152558351808501909452620249f08452619c4084820190815260039092529190915290515f80516020615bb583398151915255515f80516020615bd583398151915255565b600180546001600160a01b038089166001600160a01b031992831617835560028054918c16919092161790555f805460ff191690911790558315612d2b57845460ff60401b19168555604051600181527fc7f505b2f371ae2175ee4913f4499e1f2633a7b5936321eed1cdaeb6115181d29060200160405180910390a15b5050505050505050565b5f81612d426005826130b0565b612d61578060405163d0957f1f60e01b8152600401610be59190614d5f565b50506001600160a01b03165f90815260076020526040902054600160201b900461ffff1690565b604080516080810182525f80825260208201819052918101829052606081019190915281612db76005826130b0565b612dd6578060405163d0957f1f60e01b8152600401610be59190614d5f565b6040518060800160405280612dea856128ae565b81526001600160a01b0385165f8181526007602081815260408084205461ffff620100008204811684890152600160201b8204169187019190915293909252905260ff61010090910416606090910152915050919050565b5f80516020615c15833981519152612e59816130a6565b612e61613a51565b6203d090831115612e8c57826203d090604051634716c00560e01b8152600401610be5929190614e2c565b620186a0821115612eb75781620186a06040516373ab893560e11b8152600401610be5929190614e2c565b8260085f866003811115612ecd57612ecd614df6565b6003811115612ede57612ede614df6565b81526020019081526020015f205f01819055508160085f866003811115612f0757612f07614df6565b6003811115612f1857612f18614df6565b815260208101919091526040015f2060010155836003811115612f3d57612f3d614df6565b7f551b61c28b59357ef580609ad1d117845f6300a033850980dda1d6b1c7290e7f8484604051611c15929190614e2c565b612f7782610cc4565b612f80816130a6565b610d3b838361318d565b6001600160a01b0381165f9081526007602052604081206005810154600490910154612fca9160ff600160c01b909104811691600160a01b90041661561a565b60ff1692915050565b5f81612fe06005826130b0565b612fff578060405163d0957f1f60e01b8152600401610be59190614d5f565b50506001600160a01b03165f9081526007602052604090205462010000900461ffff1690565b606061303160056140f9565b905090565b6003545f90600160e01b900460ff168015613070575060035461306d906203f48090600160a01b90046001600160401b031661558c565b42105b61307957505f90565b600354429061309c906203f48090600160a01b90046001600160401b031661558c565b61303191906155f3565b610d988133614105565b5f6130c4836001600160a01b038416614130565b9392505050565b7f02dd7bc7dec4dceedda775e58dd541e08a116c6c53815c0bd028192f7b62680090565b5f806130f96130cb565b90506131058484612155565b613184575f848152602082815260408083206001600160a01b03871684529091529020805460ff1916600117905561313a3390565b6001600160a01b0316836001600160a01b0316857f2f8788117e7eff1d82e926ec794901d17c78024a50270940304540a733656f0d60405160405180910390a46001915050610ac3565b5f915050610ac3565b5f806131976130cb565b90506131a38484612155565b15613184575f848152602082815260408083206001600160a01b0387168085529252808320805460ff1916905551339287917ff6391f5c32d9c69d2a47ea670b442974b53935d1edc7fd64eb21e047a839171b9190a46001915050610ac3565b61320b614147565b5f613214613dc5565b805460ff1916815590507f5db9ee0a495bf2e6ff9c91a7834c1ba4fdd244a5e8aa4e537bd38aeae4b073aa335b60405161324e9190614d5f565b60405180910390a150565b6001600160a01b038082165f908152600760205260408082206004908101548251633fabe5a360e21b815292519394169284928392859263feaf968c928083019260a092918290030181865afa1580156132b5573d5f803e3d5ffd5b505050506040513d601f19601f820116820180604052508101906132d9919061559f565b505050915091506001826001600160501b0316116132fb57505f949350505050565b5f806001600160a01b038516639a6fc8f56133176001876157f7565b6040516001600160e01b031960e084901b1681526001600160501b03909116600482015260240160a060405180830381865afa158015613359573d5f803e3d5ffd5b505050506040513d601f19601f8201168201806040525081019061337d919061559f565b509350509250505f82131580613391575080155b156133a257505f9695505050505050565b5f8284136133b9576133b48484615817565b6133c3565b6133c38385615817565b90506133d1816064856136aa565b98975050505050505050565b6001600160a01b038082165f908152600760205260408082206004908101548251633fabe5a360e21b81529251939416928492839283928392879263feaf968c928282019260a092908290030181865afa15801561343d573d5f803e3d5ffd5b505050506040513d601f19601f82011682018060405250810190613461919061559f565b9450945050935093505f831361348e5784836040516342a9fe1b60e01b8152600401610be5929190615836565b836001600160501b0316816001600160501b031610156134e3576040516372d14d5960e01b81526001600160a01b03861660048201526001600160501b03808616602483015282166044820152606401610be5565b5f6134ee83426155f3565b6009549091506001600160501b03168111156135485760095460405163014197e560e31b81526001600160a01b0388166004820152602481018590524260448201526001600160501b039091166064820152608401610be5565b5f61355289613259565b600954909150600160a01b900464ffffffffff1681108015906135875750600954600160501b90046001600160501b03168210155b156135be57604051635b5030db60e01b81526001600160a01b03881660048201526024810186905260448101829052606401610be5565b6135c9606486615699565b9998505050505050505050565b6001600160a01b038181165f9081526007602090815260408083208151606081018352600590910154948516808252600160a01b860463ffffffff1693820193909352600160c01b90940460ff1690840152909190158061363c5750604081015160ff16155b1561365c578260405163132f75db60e11b8152600401610be59190614d5f565b613683815f0151847388e6a0c2ddd26feeb64f039a2c41296fcb3f5640846020015161416c565b91505f8211610cbe5780516040516342a9fe1b60e01b8152610be591908490600401615836565b5f838302815f19858709828110838203039150508084116136c9575f80fd5b805f036136db575082900490506130c4565b5f848688095f868103871696879004966002600389028118808a02820302808a02820302808a02820302808a02820302808a02820302808a02909103029181900381900460010186841190950394909402919094039290920491909117919091029150509392505050565b306001600160a01b037f00000000000000000000000000000000000000000000000000000000000000001614806137cc57507f00000000000000000000000000000000000000000000000000000000000000006001600160a01b03166137c05f80516020615b95833981519152546001600160a01b031690565b6001600160a01b031614155b156137ea5760405163703e46dd60e11b815260040160405180910390fd5b565b5f80516020615b75833981519152613803816130a6565b600354600160e01b900460ff1661382d576040516370d78f1760e11b815260040160405180910390fd5b6003546001600160a01b0383811691161461386a57600354604051631e53f1bb60e31b8152610be5916001600160a01b031690849060040161584f565b6003546203f4809061388c90600160a01b90046001600160401b0316426155f3565b10156138d8576003546138af90600160a01b90046001600160401b0316426155f3565b6138bc906203f4806155f3565b604051633b77feff60e11b8152600401610be591815260200190565b600380546001600160e81b03191690555f805481906138f99060ff16615869565b91906101000a81548160ff021916908360ff160217905550816001600160a01b0316336001600160a01b03167fd23ce5645530506727523fe6d7939e72bb49102454460bc72f0f5baec60ac71860405160405180910390a35050565b816001600160a01b03166352d1902d6040518163ffffffff1660e01b8152600401602060405180830381865afa9250505080156139af575060408051601f3d908101601f191682019092526139ac91810190615657565b60015b6139ce5781604051634c9c8ce360e01b8152600401610be59190614d5f565b5f80516020615b9583398151915281146139fe57604051632a87526960e21b815260048101829052602401610be5565b610d748383614225565b306001600160a01b037f000000000000000000000000000000000000000000000000000000000000000016146137ea5760405163703e46dd60e11b815260040160405180910390fd5b613a596116da565b156137ea5760405163d93c066560e01b815260040160405180910390fd5b610140810151516001600160a01b0316613aa4576040516342bcdf7f60e11b815260040160405180910390fd5b60018161014001516020015160ff161115613b0b576101408101516020015160408051632763535760e01b81526004810191909152601060448201526f636861696e6c696e6b2061637469766560801b606482015260ff9091166024820152608401610be5565b8060c0015160ff168161016001516040015182610140015160200151613b31919061561a565b60ff161015613b5e57818160c0015182610160015160400151836101400151602001516111ca919061561a565b5f808261010001516001811115613b7757613b77614df6565b03613b93578161014001516020015160ff166001149050613bc4565b60018261010001516001811115613bac57613bac614df6565b03613bc4578161016001516040015160ff1660011490505b80613bea5761010082015160405163702fa91560e01b8152610be5918591600401615887565b6103de61ffff16826060015161ffff161115613c25576060820151604051636546229560e11b815261ffff9091166004820152602401610be5565b600a8260600151613c3691906158a4565b61ffff16826040015161ffff161115613c6e57604080830151905163254a92d760e01b815261ffff9091166004820152602401610be5565b602082015160ff161580613c8957506012826020015160ff16115b15613cd857602082015160408051632763535760e01b81526004810191909152600d60448201526c6173736574446563696d616c7360981b606482015260ff9091166024820152608401610be5565b6001825f015160ff161115613d03578151604051632763535760e01b8152610be591906004016158bf565b81608001515f03613d545760408051632763535760e01b8152600481019190915260126044820152711b585e14dd5c1c1b1e551a1c995cda1bdb1960721b60648201525f6024820152608401610be5565b60038261012001516003811115613d6d57613d6d614df6565b148015613d7c575060a0820151155b15610d745760408051632763535760e01b81526004810191909152601060448201526f069736f6c6174696f6e446562744361760841b60648201525f6024820152608401610be5565b7fcd5ed15c6e187e77e9aee88184c21f4f2182ab5827cb3b7e07fbedcd63f0330090565b5f8390505f816001600160a01b0316630dfe16816040518163ffffffff1660e01b8152600401602060405180830381865afa158015613e2a573d5f803e3d5ffd5b505050506040513d601f19601f82011682018060405250810190613e4e91906158ea565b90505f826001600160a01b031663d21220a76040518163ffffffff1660e01b8152600401602060405180830381865afa158015613e8d573d5f803e3d5ffd5b505050506040513d601f19601f82011682018060405250810190613eb191906158ea565b9050816001600160a01b0316876001600160a01b031614158015613ee75750806001600160a01b0316876001600160a01b031614155b15613f09578686604051633be4ce8560e01b8152600401610be592919061584f565b6103848563ffffffff161080613f2657506107088563ffffffff16115b15613f7d576040516355046f0360e11b815260806004820152600a6084820152691d1dd85c14195c9a5bd960b21b60a482015263ffffffff861660248201526103846044820152610708606482015260c401610be5565b60018460ff161115613fa45783604051632763535760e01b8152600401610be591906158bf565b60ff8416158015613fd757506001600160a01b0387165f90815260076020526040902060040154600160a01b900460ff16155b801561400357506001600160a01b0387165f90815260076020526040902060030154600160ff90911610155b15614042576001600160a01b0387165f9081526007602052604080822060030154905163cc10d92360e01b8152610be5928a9260ff1691600401615633565b50505050505050565b614053613a51565b5f61405c613dc5565b805460ff1916600117815590507f62e78cea01bee320cd4e420270b5ea74000d11b0c9f74754ebdbfc544b05a2586132413390565b5f610ac3825490565b5f6130c4836001600160a01b03841661427a565b5f610ac3825f6142c1565b5f807ff0c57e16840df040f15088dc2f81fe391c3923bec73e23a9662efc9c229c6a00610ac3565b6137ea614350565b6140f1614350565b6137ea614375565b60605f6130c4836143a3565b61410f8282612155565b61127a57808260405163e2517d3f60e01b8152600401610be5929190615836565b5f9081526001919091016020526040902054151590565b61414f6116da565b6137ea57604051638dfc202b60e01b815260040160405180910390fd5b5f8481808061417b88856143fc565b92509250925080156141a45761419d848461419785600a61578c565b8961467c565b9450614219565b5f6141bb85856141b586600a61578c565b8a61467c565b9050875f6141d38282670de0b6b3a76400008c61467c565b90505f6141e1866012615905565b6141ec90600a61578c565b6141f69085615699565b90505f61420487600a61578c565b90506142118284836136aa565b995050505050505b50505050949350505050565b61422e826147e2565b6040516001600160a01b038316907fbc7cd75a20ee27fd9adebab32041f755214dbc6bffa90cc0225b39da2e5c2d3b905f90a280511561427257610d74828261483c565b61127a6148ae565b5f6142858383614130565b6142ba57508154600181810184555f848152602080822090930184905584548482528286019093526040902091909155610ac3565b505f610ac3565b5f814710156142e757478260405163cf47918160e01b8152600401610be5929190614e2c565b763d602d80600a3d3981f3363d3d373d3d3d363d730000008360601b60e81c175f526e5af43d82803e903d91602b57fd5bf38360781b176020526037600983f090506001600160a01b038116610ac35760405163b06ebf3d60e01b815260040160405180910390fd5b6143586148cd565b6137ea57604051631afcd79f60e31b815260040160405180910390fd5b61437d614350565b60017f9b779b17422d0df92223018b32b4d1fa46e071723d6817e2486d003becc55f0055565b6060815f018054806020026020016040519081016040528092919081815260200182805480156143f057602002820191905f5260205f20905b8154815260200190600101908083116143dc575b50505050509050919050565b5f805f80846001600160a01b0316630dfe16816040518163ffffffff1660e01b8152600401602060405180830381865afa15801561443c573d5f803e3d5ffd5b505050506040513d601f19601f8201168201806040525081019061446091906158ea565b90505f856001600160a01b031663d21220a76040518163ffffffff1660e01b8152600401602060405180830381865afa15801561449f573d5f803e3d5ffd5b505050506040513d601f19601f820116820180604052508101906144c391906158ea565b9050816001600160a01b0316876001600160a01b0316141580156144f95750806001600160a01b0316876001600160a01b031614155b1561451b578686604051633be4ce8560e01b8152600401610be592919061584f565b816001600160a01b0316876001600160a01b0316149450866001600160a01b031663313ce5676040518163ffffffff1660e01b8152600401602060405180830381865afa15801561456e573d5f803e3d5ffd5b505050506040513d601f19601f82011682018060405250810190614592919061591e565b93505f826001600160a01b031663313ce5676040518163ffffffff1660e01b8152600401602060405180830381865afa1580156145d1573d5f803e3d5ffd5b505050506040513d601f19601f820116820180604052508101906145f5919061591e565b90505f826001600160a01b031663313ce5676040518163ffffffff1660e01b8152600401602060405180830381865afa158015614634573d5f803e3d5ffd5b505050506040513d601f19601f82011682018060405250810190614658919061591e565b90508160ff166006148061466f57508060ff166006145b9450505050509250925092565b6040805160028082526060820183525f928392919060208301908036833701905050905082815f815181106146b3576146b3615606565b602002602001019063ffffffff16908163ffffffff16815250505f816001815181106146e1576146e1615606565b63ffffffff9092166020928302919091019091015260405163883bdbfd60e01b81525f906001600160a01b0388169063883bdbfd90614724908590600401615939565b5f60405180830381865afa15801561473e573d5f803e3d5ffd5b505050506040513d5f823e601f3d908101601f191682016040526147659190810190615a0d565b5090505f815f8151811061477b5761477b615606565b60200260200101518260018151811061479657614796615606565b60200260200101516147a89190615ad0565b90505f6147bb63ffffffff871683615afd565b90505f6147c7826148e6565b90506147d4818a8a614b9e565b9a9950505050505050505050565b806001600160a01b03163b5f0361480e5780604051634c9c8ce360e01b8152600401610be59190614d5f565b5f80516020615b9583398151915280546001600160a01b0319166001600160a01b0392909216919091179055565b60605f80846001600160a01b0316846040516148589190615b39565b5f60405180830381855af49150503d805f8114614890576040519150601f19603f3d011682016040523d82523d5f602084013e614895565b606091505b50915091506148a5858383614bf7565b95945050505050565b34156137ea5760405163b398979f60e01b815260040160405180910390fd5b5f6148d66140b9565b54600160401b900460ff16919050565b60020b5f60ff82901d80830118620d89e881111561490f5761490f6345c3193d60e11b84614c4a565b7001fffcb933bd6fad37aa2d162d1a5940016001821602600160801b18600282161561494b576ffff97272373d413259a46990580e213a0260801c5b600482161561496a576ffff2e50f5f656932ef12357cf3c7fdcc0260801c5b6008821615614989576fffe5caca7e10e4e61c3624eaa0941cd00260801c5b60108216156149a8576fffcb9843d60f6159c9db58835c9266440260801c5b60208216156149c7576fff973b41fa98c081472e6896dfb254c00260801c5b60408216156149e6576fff2ea16466c96a3843ec78b326b528610260801c5b6080821615614a05576ffe5dee046a99a2a811c461f1969c30530260801c5b610100821615614a25576ffcbe86c7900a88aedcffc83b479aa3a40260801c5b610200821615614a45576ff987a7253ac413176f2b074cf7815e540260801c5b610400821615614a65576ff3392b0822b70005940c7a398e4b70f30260801c5b610800821615614a85576fe7159475a2c29b7443b29c7fa6e889d90260801c5b611000821615614aa5576fd097f3bdfd2022b8845ad8f792aa58250260801c5b612000821615614ac5576fa9f746462d870fdf8a65dc1f90e061e50260801c5b614000821615614ae5576f70d869a156d2a1b890bb3df62baf32f70260801c5b618000821615614b05576f31be135f97d08fd981231505542fcfa60260801c5b62010000821615614b26576f09aa508b5b7a84e1c677de54f3e99bc90260801c5b62020000821615614b46576e5d6af8dedb81196699c329225ee6040260801c5b62040000821615614b65576d2216e584f5fa1ea926041bedfe980260801c5b62080000821615614b82576b048a170391f7dc42444e8fa20260801c5b5f841315614b8e575f19045b63ffffffff0160201c9392505050565b5f8215614bd2575f614bb96001600160a01b0386168061566e565b9050614bca8184600160c01b6136aa565b9150506130c4565b5f614be66001600160a01b0386168061566e565b9050614bca600160c01b84836136aa565b606082614c0c57614c0782614c59565b6130c4565b8151158015614c2357506001600160a01b0384163b155b15614c435783604051639996b31560e01b8152600401610be59190614d5f565b50806130c4565b815f528060020b60045260245ffd5b805115614c695780518082602001fd5b60405163d6bda27560e01b815260040160405180910390fd5b60405180608001604052806004906020820280368337509192915050565b5f60208284031215614cb0575f80fd5b81356001600160e01b0319811681146130c4575f80fd5b6001600160a01b0381168114610d98575f80fd5b8035614ce681614cc7565b919050565b5f60208284031215614cfb575f80fd5b81356130c481614cc7565b5f805f60608486031215614d18575f80fd5b8335614d2381614cc7565b95602085013595506040909401359392505050565b803560048110614ce6575f80fd5b5f60208284031215614d56575f80fd5b6130c482614d38565b6001600160a01b0391909116815260200190565b5f60208284031215614d83575f80fd5b5035919050565b5f8060408385031215614d9b575f80fd5b823591506020830135614dad81614cc7565b809150509250929050565b805f5b6004811015610d3b578151845260209384019390910190600101614dbb565b6101008101614de98285614db8565b6130c46080830184614db8565b634e487b7160e01b5f52602160045260245ffd5b60048110614e1a57614e1a614df6565b9052565b60208101610ac38284614e0a565b918252602082015260400190565b634e487b7160e01b5f52604160045260245ffd5b60405161018081016001600160401b0381118282101715614e7157614e71614e3a565b60405290565b604051601f8201601f191681016001600160401b0381118282101715614e9f57614e9f614e3a565b604052919050565b5f8060408385031215614eb8575f80fd5b8235614ec381614cc7565b91506020838101356001600160401b0380821115614edf575f80fd5b818601915086601f830112614ef2575f80fd5b813581811115614f0457614f04614e3a565b614f16601f8201601f19168501614e77565b91508082528784828501011115614f2b575f80fd5b80848401858401375f848284010152508093505050509250929050565b60ff81168114610d98575f80fd5b8035614ce681614f48565b5f805f60608486031215614f73575f80fd5b8335614f7e81614cc7565b92506020840135614f8e81614cc7565b91506040840135614f9e81614f48565b809150509250925092565b803560028110614ce6575f80fd5b5f8060408385031215614fc8575f80fd5b8235614fd381614cc7565b9150614fe160208401614fa9565b90509250929050565b5f8060408385031215614ffb575f80fd5b823561500681614cc7565b946020939093013593505050565b803563ffffffff81168114614ce6575f80fd5b5f805f806080858703121561503a575f80fd5b843561504581614cc7565b9350602085013561505581614cc7565b925061506360408601615014565b9150606085013561507381614f48565b939692955090935050565b5f806040838503121561508f575f80fd5b823561509a81614cc7565b9150614fe160208401614d38565b803561ffff81168114614ce6575f80fd5b5f604082840312156150c9575f80fd5b604080519081016001600160401b03811182821017156150eb576150eb614e3a565b60405290508082356150fc81614cc7565b8152602083013561510c81614f48565b6020919091015292915050565b5f60608284031215615129575f80fd5b604051606081016001600160401b038111828210171561514b5761514b614e3a565b604052905080823561515c81614cc7565b815261516a60208401615014565b6020820152604083013561517d81614f48565b6040919091015292915050565b5f8082840361020081121561519d575f80fd5b83356151a881614cc7565b92506101e0601f19820112156151bc575f80fd5b506151c5614e4e565b6151d160208501614f56565b81526151df60408501614f56565b60208201526151f0606085016150a8565b6040820152615201608085016150a8565b606082015260a0840135608082015260c084013560a082015261522660e08501614f56565b60c0820152610100615239818601614cdb565b60e083015261012061524c818701614fa9565b828401526101409150615260828701614d38565b90830152610160615273878783016150b9565b82840152615285876101a08801615119565b9083015250919491935090915050565b8481526020810184905260408101839052608081016148a56060830184614e0a565b5f5b838110156152d15781810151838201526020016152b9565b50505f910152565b602081525f82518060208401526152f78160408501602087016152b7565b601f01601f19169190910160400192915050565b6001600160501b0381168114610d98575f80fd5b803564ffffffffff81168114614ce6575f80fd5b5f805f8060808587031215615346575f80fd5b84356153518161530b565b935060208501356153618161530b565b925061536f6040860161531f565b915061537d6060860161531f565b905092959194509250565b60028110614e1a57614e1a614df6565b815160ff1681526101e0810160208301516153b8602084018260ff169052565b5060408301516153ce604084018261ffff169052565b5060608301516153e4606084018261ffff169052565b506080830151608083015260a083015160a083015260c083015161540d60c084018260ff169052565b5060e083015161542860e08401826001600160a01b03169052565b506101008084015161543c82850182615388565b50506101208084015161545182850182614e0a565b50506101408381015180516001600160a01b031684830152602081015160ff16610160850152505061016083015180516001600160a01b0316610180840152602081015163ffffffff166101a0840152604081015160ff166101c084015261178a565b5f805f606084860312156154c6575f80fd5b83356154d181614cc7565b925060208401356154e181614cc7565b91506040840135614f9e81614cc7565b5f805f60608486031215615503575f80fd5b614d2384614d38565b602080825282518282018190525f9190848201906040850190845b8181101561554c5783516001600160a01b031683529284019291840191600101615527565b50909695505050505050565b634e487b7160e01b5f52601160045260245ffd5b6001600160401b0381811683821601908082111561178a5761178a615558565b80820180821115610ac357610ac3615558565b5f805f805f60a086880312156155b3575f80fd5b85516155be8161530b565b8095505060208601519350604086015192506060860151915060808601516155e58161530b565b809150509295509295909350565b81810381811115610ac357610ac3615558565b634e487b7160e01b5f52603260045260245ffd5b60ff8181168382160190811115610ac357610ac3615558565b6001600160a01b0393909316835260ff918216602084015216604082015260600190565b5f60208284031215615667575f80fd5b5051919050565b8082028115828204841417610ac357610ac3615558565b634e487b7160e01b5f52601260045260245ffd5b5f826156a7576156a7615685565b500490565b600181815b808511156156e657815f19048211156156cc576156cc615558565b808516156156d957918102915b93841c93908002906156b1565b509250929050565b5f826156fc57506001610ac3565b8161570857505f610ac3565b816001811461571e576002811461572857615744565b6001915050610ac3565b60ff84111561573957615739615558565b50506001821b610ac3565b5060208310610133831016604e8410600b8410161715615767575081810a610ac3565b61577183836156ac565b805f190482111561578457615784615558565b029392505050565b5f6130c460ff8416836156ee565b5f805f606084860312156157ac575f80fd5b8351925060208401519150604084015190509250925092565b6001600160501b0392831681529116602082015260400190565b64ffffffffff92831681529116602082015260400190565b6001600160501b0382811682821603908082111561178a5761178a615558565b8181035f83128015838313168383128216171561178a5761178a615558565b6001600160a01b03929092168252602082015260400190565b6001600160a01b0392831681529116602082015260400190565b5f60ff821660ff810361587e5761587e615558565b60010192915050565b6001600160a01b0383168152604081016130c46020830184615388565b61ffff82811682821603908082111561178a5761178a615558565b60408082526006908201526561637469766560d01b606082015260ff91909116602082015260800190565b5f602082840312156158fa575f80fd5b81516130c481614cc7565b60ff8281168282160390811115610ac357610ac3615558565b5f6020828403121561592e575f80fd5b81516130c481614f48565b602080825282518282018190525f9190848201906040850190845b8181101561554c57835163ffffffff1683529284019291840191600101615954565b5f6001600160401b0382111561598e5761598e614e3a565b5060051b60200190565b5f82601f8301126159a7575f80fd5b815160206159bc6159b783615976565b614e77565b8083825260208201915060208460051b8701019350868411156159dd575f80fd5b602086015b84811015615a025780516159f581614cc7565b83529183019183016159e2565b509695505050505050565b5f8060408385031215615a1e575f80fd5b82516001600160401b0380821115615a34575f80fd5b818501915085601f830112615a47575f80fd5b81516020615a576159b783615976565b82815260059290921b84018101918181019089841115615a75575f80fd5b948201945b83861015615aa15785518060060b8114615a92575f80fd5b82529482019490820190615a7a565b91880151919650909350505080821115615ab9575f80fd5b50615ac685828601615998565b9150509250929050565b600682810b9082900b03667fffffffffffff198112667fffffffffffff82131715610ac357610ac3615558565b5f8160060b8360060b80615b1357615b13615685565b667fffffffffffff1982145f1982141615615b3057615b30615558565b90059392505050565b5f8251615b4a8184602087016152b7565b919091019291505056fe5eff886ea0ce6ca488a3d6e336d6c0f75f46d19b42c06ce5ee98e42c96d256c8189ab7a9244df0848122154315af71fe140f3db0fe014031783b0946b8c9d2e3360894a13ba1a3210667c828492db98dca3e2076cc3735a920a3ca505d382bbc625b35f5e76f098dd7c3a05b10e2e5e78a4a01228d60c3b143426cdf36d26455625b35f5e76f098dd7c3a05b10e2e5e78a4a01228d60c3b143426cdf36d264566add646517a5b0f6793cd5891b7937d28a5b2981a5d88ebc7cd776088fea9041241ecf16d79d0f8dbfb92cbc07fe17840425976cf0667f022fe9877caa831b08ad67d757c34507f157cacfa2e3153e9f260a2244f30428821be7be64587ac55f5eff886ea0ce6ca488a3d6e336d6c0f75f46d19b42c06ce5ee98e42c96d256c7ad67d757c34507f157cacfa2e3153e9f260a2244f30428821be7be64587ac56065d7a28e3265b37a6474929f336521b332c1681b933f6cb9f3376673440d862a6add646517a5b0f6793cd5891b7937d28a5b2981a5d88ebc7cd776088fea9042a264697066735822122087e7235c87c989fd2c30c5319b162ffc5888e991600d7603c80f8e44d2c28fbc64736f6c63430008170033","linkReferences":{}},"methodIdentifiers":{"DEFAULT_ADMIN_ROLE()":"a217fddf","UPGRADE_INTERFACE_VERSION()":"ad3cb1cc","cancelUpgrade()":"55f29166","checkPriceDeviation(address)":"44626596","circuitBroken(address)":"ec5f638e","coreAddress()":"1c0ad646","evaluateCircuitBreaker(address)":"3fa0d73f","getAssetBorrowThreshold(address)":"ecb79ffd","getAssetCalculationParams(address)":"c898f342","getAssetDecimals(address)":"9efd6f72","getAssetDetails(address)":"9c9b6451","getAssetInfo(address)":"afad2e16","getAssetLiquidationThreshold(address)":"c2c47005","getAssetPrice(address)":"b3596f07","getAssetPriceByType(address,uint8)":"62d3b24a","getAssetTier(address)":"443907b2","getIsolationDebtCap(address)":"8fde8879","getLiquidationFee(uint8)":"11e54208","getListedAssets()":"f7e19eff","getOracleByType(address,uint8)":"57f352e0","getOracleCount(address)":"dcbafbd8","getPoRFeed(address)":"1dc04cda","getRoleAdmin(bytes32)":"248a9ca3","getTierJumpRate(uint8)":"24959e43","getTierRates()":"43f1b863","grantRole(bytes32,address)":"2f2ff15d","hasRole(bytes32,address)":"91d14854","initialize(address,address,address)":"c0c53b8b","isAssetAtCapacity(address,uint256,uint256)":"11af9f40","isAssetValid(address)":"ab8efe6e","mainOracleConfig()":"5c0d719d","pause()":"8456cb59","paused()":"5c975abb","pendingUpgrade()":"95e93245","poolLiquidityLimit(address,uint256)":"59aa38dd","porFeed()":"a86c5e67","proxiableUUID()":"52d1902d","renounceRole(bytes32,address)":"36568abe","revokeRole(bytes32,address)":"d547741f","scheduleUpgrade(address)":"0c80447a","setCoreAddress(address)":"91aad239","supportsInterface(bytes4)":"01ffc9a7","tierConfig(uint8)":"468b5425","timelock()":"d33219b4","unpause()":"3f4ba83a","updateAssetConfig(address,(uint8,uint8,uint16,uint16,uint256,uint256,uint8,address,uint8,uint8,(address,uint8),(address,uint32,uint8)))":"8ee2b60a","updateAssetPoRFeed(address,uint256)":"7d39d74b","updateAssetTier(address,uint8)":"8e1eeb33","updateChainlinkOracle(address,address,uint8)":"552479ef","updateMainOracleConfig(uint80,uint80,uint40,uint40)":"af5a5947","updateTierConfig(uint8,uint256,uint256)":"d38cd9bf","updateUniswapOracle(address,address,uint32,uint8)":"785012f9","upgradeTimelockRemaining()":"ffaf73cd","upgradeToAndCall(address,bytes)":"4f1ef286","version()":"54fd4d50"},"storageLayout":{"storage":[{"astId":12327,"contract":"contracts/markets/LendefiAssets.sol:LendefiAssets","label":"version","offset":0,"slot":"0","type":"t_uint8"},{"astId":12330,"contract":"contracts/markets/LendefiAssets.sol:LendefiAssets","label":"coreAddress","offset":1,"slot":"0","type":"t_address"},{"astId":12333,"contract":"contracts/markets/LendefiAssets.sol:LendefiAssets","label":"porFeed","offset":0,"slot":"1","type":"t_address"},{"astId":12336,"contract":"contracts/markets/LendefiAssets.sol:LendefiAssets","label":"timelock","offset":0,"slot":"2","type":"t_address"},{"astId":12340,"contract":"contracts/markets/LendefiAssets.sol:LendefiAssets","label":"pendingUpgrade","offset":0,"slot":"3","type":"t_struct(UpgradeRequest)7042_storage"},{"astId":12344,"contract":"contracts/markets/LendefiAssets.sol:LendefiAssets","label":"lendefiInstance","offset":0,"slot":"4","type":"t_contract(IPROTOCOL)10976"},{"astId":12348,"contract":"contracts/markets/LendefiAssets.sol:LendefiAssets","label":"listedAssets","offset":0,"slot":"5","type":"t_struct(AddressSet)73494_storage"},{"astId":12354,"contract":"contracts/markets/LendefiAssets.sol:LendefiAssets","label":"assetInfo","offset":0,"slot":"7","type":"t_mapping(t_address,t_struct(Asset)7086_storage)"},{"astId":12361,"contract":"contracts/markets/LendefiAssets.sol:LendefiAssets","label":"tierConfig","offset":0,"slot":"8","type":"t_mapping(t_enum(CollateralTier)7117,t_struct(TierRates)7092_storage)"},{"astId":12365,"contract":"contracts/markets/LendefiAssets.sol:LendefiAssets","label":"mainOracleConfig","offset":0,"slot":"9","type":"t_struct(MainOracleConfig)7102_storage"},{"astId":12370,"contract":"contracts/markets/LendefiAssets.sol:LendefiAssets","label":"circuitBroken","offset":0,"slot":"10","type":"t_mapping(t_address,t_bool)"},{"astId":12375,"contract":"contracts/markets/LendefiAssets.sol:LendefiAssets","label":"__gap","offset":0,"slot":"11","type":"t_array(t_uint256)22_storage"}],"types":{"t_address":{"encoding":"inplace","label":"address","numberOfBytes":"20"},"t_array(t_bytes32)dyn_storage":{"encoding":"dynamic_array","label":"bytes32[]","numberOfBytes":"32","base":"t_bytes32"},"t_array(t_uint256)22_storage":{"encoding":"inplace","label":"uint256[22]","numberOfBytes":"704","base":"t_uint256"},"t_bool":{"encoding":"inplace","label":"bool","numberOfBytes":"1"},"t_bytes32":{"encoding":"inplace","label":"bytes32","numberOfBytes":"32"},"t_contract(IPROTOCOL)10976":{"encoding":"inplace","label":"contract IPROTOCOL","numberOfBytes":"20"},"t_enum(CollateralTier)7117":{"encoding":"inplace","label":"enum IASSETS.CollateralTier","numberOfBytes":"1"},"t_enum(OracleType)7121":{"encoding":"inplace","label":"enum IASSETS.OracleType","numberOfBytes":"1"},"t_mapping(t_address,t_bool)":{"encoding":"mapping","key":"t_address","label":"mapping(address => bool)","numberOfBytes":"32","value":"t_bool"},"t_mapping(t_address,t_struct(Asset)7086_storage)":{"encoding":"mapping","key":"t_address","label":"mapping(address => struct IASSETS.Asset)","numberOfBytes":"32","value":"t_struct(Asset)7086_storage"},"t_mapping(t_bytes32,t_uint256)":{"encoding":"mapping","key":"t_bytes32","label":"mapping(bytes32 => uint256)","numberOfBytes":"32","value":"t_uint256"},"t_mapping(t_enum(CollateralTier)7117,t_struct(TierRates)7092_storage)":{"encoding":"mapping","key":"t_enum(CollateralTier)7117","label":"mapping(enum IASSETS.CollateralTier => struct IASSETS.TierRates)","numberOfBytes":"32","value":"t_struct(TierRates)7092_storage"},"t_struct(AddressSet)73494_storage":{"encoding":"inplace","label":"struct EnumerableSet.AddressSet","numberOfBytes":"64","members":[{"astId":73493,"contract":"contracts/markets/LendefiAssets.sol:LendefiAssets","label":"_inner","offset":0,"slot":"0","type":"t_struct(Set)73123_storage"}]},"t_struct(Asset)7086_storage":{"encoding":"inplace","label":"struct IASSETS.Asset","numberOfBytes":"192","members":[{"astId":7059,"contract":"contracts/markets/LendefiAssets.sol:LendefiAssets","label":"active","offset":0,"slot":"0","type":"t_uint8"},{"astId":7061,"contract":"contracts/markets/LendefiAssets.sol:LendefiAssets","label":"decimals","offset":1,"slot":"0","type":"t_uint8"},{"astId":7063,"contract":"contracts/markets/LendefiAssets.sol:LendefiAssets","label":"borrowThreshold","offset":2,"slot":"0","type":"t_uint16"},{"astId":7065,"contract":"contracts/markets/LendefiAssets.sol:LendefiAssets","label":"liquidationThreshold","offset":4,"slot":"0","type":"t_uint16"},{"astId":7067,"contract":"contracts/markets/LendefiAssets.sol:LendefiAssets","label":"maxSupplyThreshold","offset":0,"slot":"1","type":"t_uint256"},{"astId":7069,"contract":"contracts/markets/LendefiAssets.sol:LendefiAssets","label":"isolationDebtCap","offset":0,"slot":"2","type":"t_uint256"},{"astId":7071,"contract":"contracts/markets/LendefiAssets.sol:LendefiAssets","label":"assetMinimumOracles","offset":0,"slot":"3","type":"t_uint8"},{"astId":7073,"contract":"contracts/markets/LendefiAssets.sol:LendefiAssets","label":"porFeed","offset":1,"slot":"3","type":"t_address"},{"astId":7076,"contract":"contracts/markets/LendefiAssets.sol:LendefiAssets","label":"primaryOracleType","offset":21,"slot":"3","type":"t_enum(OracleType)7121"},{"astId":7079,"contract":"contracts/markets/LendefiAssets.sol:LendefiAssets","label":"tier","offset":22,"slot":"3","type":"t_enum(CollateralTier)7117"},{"astId":7082,"contract":"contracts/markets/LendefiAssets.sol:LendefiAssets","label":"chainlinkConfig","offset":0,"slot":"4","type":"t_struct(ChainlinkOracleConfig)7056_storage"},{"astId":7085,"contract":"contracts/markets/LendefiAssets.sol:LendefiAssets","label":"poolConfig","offset":0,"slot":"5","type":"t_struct(UniswapPoolConfig)7050_storage"}]},"t_struct(ChainlinkOracleConfig)7056_storage":{"encoding":"inplace","label":"struct IASSETS.ChainlinkOracleConfig","numberOfBytes":"32","members":[{"astId":7053,"contract":"contracts/markets/LendefiAssets.sol:LendefiAssets","label":"oracleUSD","offset":0,"slot":"0","type":"t_address"},{"astId":7055,"contract":"contracts/markets/LendefiAssets.sol:LendefiAssets","label":"active","offset":20,"slot":"0","type":"t_uint8"}]},"t_struct(MainOracleConfig)7102_storage":{"encoding":"inplace","label":"struct IASSETS.MainOracleConfig","numberOfBytes":"32","members":[{"astId":7095,"contract":"contracts/markets/LendefiAssets.sol:LendefiAssets","label":"freshnessThreshold","offset":0,"slot":"0","type":"t_uint80"},{"astId":7097,"contract":"contracts/markets/LendefiAssets.sol:LendefiAssets","label":"volatilityThreshold","offset":10,"slot":"0","type":"t_uint80"},{"astId":7099,"contract":"contracts/markets/LendefiAssets.sol:LendefiAssets","label":"volatilityPercentage","offset":20,"slot":"0","type":"t_uint40"},{"astId":7101,"contract":"contracts/markets/LendefiAssets.sol:LendefiAssets","label":"circuitBreakerThreshold","offset":25,"slot":"0","type":"t_uint40"}]},"t_struct(Set)73123_storage":{"encoding":"inplace","label":"struct EnumerableSet.Set","numberOfBytes":"64","members":[{"astId":73118,"contract":"contracts/markets/LendefiAssets.sol:LendefiAssets","label":"_values","offset":0,"slot":"0","type":"t_array(t_bytes32)dyn_storage"},{"astId":73122,"contract":"contracts/markets/LendefiAssets.sol:LendefiAssets","label":"_positions","offset":0,"slot":"1","type":"t_mapping(t_bytes32,t_uint256)"}]},"t_struct(TierRates)7092_storage":{"encoding":"inplace","label":"struct IASSETS.TierRates","numberOfBytes":"64","members":[{"astId":7089,"contract":"contracts/markets/LendefiAssets.sol:LendefiAssets","label":"jumpRate","offset":0,"slot":"0","type":"t_uint256"},{"astId":7091,"contract":"contracts/markets/LendefiAssets.sol:LendefiAssets","label":"liquidationFee","offset":0,"slot":"1","type":"t_uint256"}]},"t_struct(UniswapPoolConfig)7050_storage":{"encoding":"inplace","label":"struct IASSETS.UniswapPoolConfig","numberOfBytes":"32","members":[{"astId":7045,"contract":"contracts/markets/LendefiAssets.sol:LendefiAssets","label":"pool","offset":0,"slot":"0","type":"t_address"},{"astId":7047,"contract":"contracts/markets/LendefiAssets.sol:LendefiAssets","label":"twapPeriod","offset":20,"slot":"0","type":"t_uint32"},{"astId":7049,"contract":"contracts/markets/LendefiAssets.sol:LendefiAssets","label":"active","offset":24,"slot":"0","type":"t_uint8"}]},"t_struct(UpgradeRequest)7042_storage":{"encoding":"inplace","label":"struct IASSETS.UpgradeRequest","numberOfBytes":"32","members":[{"astId":7037,"contract":"contracts/markets/LendefiAssets.sol:LendefiAssets","label":"implementation","offset":0,"slot":"0","type":"t_address"},{"astId":7039,"contract":"contracts/markets/LendefiAssets.sol:LendefiAssets","label":"scheduledTime","offset":20,"slot":"0","type":"t_uint64"},{"astId":7041,"contract":"contracts/markets/LendefiAssets.sol:LendefiAssets","label":"exists","offset":28,"slot":"0","type":"t_bool"}]},"t_uint16":{"encoding":"inplace","label":"uint16","numberOfBytes":"2"},"t_uint256":{"encoding":"inplace","label":"uint256","numberOfBytes":"32"},"t_uint32":{"encoding":"inplace","label":"uint32","numberOfBytes":"4"},"t_uint40":{"encoding":"inplace","label":"uint40","numberOfBytes":"5"},"t_uint64":{"encoding":"inplace","label":"uint64","numberOfBytes":"8"},"t_uint8":{"encoding":"inplace","label":"uint8","numberOfBytes":"1"},"t_uint80":{"encoding":"inplace","label":"uint80","numberOfBytes":"10"}}},"id":32}