{"abi":[{"type":"constructor","inputs":[],"stateMutability":"nonpayable"},{"type":"function","name":"DEFAULT_ADMIN_ROLE","inputs":[],"outputs":[{"name":"","type":"bytes32","internalType":"bytes32"}],"stateMutability":"view"},{"type":"function","name":"UPGRADE_INTERFACE_VERSION","inputs":[],"outputs":[{"name":"","type":"string","internalType":"string"}],"stateMutability":"view"},{"type":"function","name":"addAllowedBaseAsset","inputs":[{"name":"baseAsset","type":"address","internalType":"address"}],"outputs":[],"stateMutability":"nonpayable"},{"type":"function","name":"allMarketOwners","inputs":[{"name":"","type":"uint256","internalType":"uint256"}],"outputs":[{"name":"","type":"address","internalType":"address"}],"stateMutability":"view"},{"type":"function","name":"assetsModuleImplementation","inputs":[],"outputs":[{"name":"","type":"address","internalType":"address"}],"stateMutability":"view"},{"type":"function","name":"cancelUpgrade","inputs":[],"outputs":[],"stateMutability":"nonpayable"},{"type":"function","name":"coreImplementation","inputs":[],"outputs":[{"name":"","type":"address","internalType":"address"}],"stateMutability":"view"},{"type":"function","name":"createMarket","inputs":[{"name":"baseAsset","type":"address","internalType":"address"},{"name":"name","type":"string","internalType":"string"},{"name":"symbol","type":"string","internalType":"string"}],"outputs":[],"stateMutability":"nonpayable"},{"type":"function","name":"ecosystem","inputs":[],"outputs":[{"name":"","type":"address","internalType":"address"}],"stateMutability":"view"},{"type":"function","name":"getAllActiveMarkets","inputs":[],"outputs":[{"name":"","type":"tuple[]","internalType":"struct IPROTOCOL.Market[]","components":[{"name":"core","type":"address","internalType":"address"},{"name":"baseVault","type":"address","internalType":"address"},{"name":"baseAsset","type":"address","internalType":"address"},{"name":"assetsModule","type":"address","internalType":"address"},{"name":"porFeed","type":"address","internalType":"address"},{"name":"decimals","type":"uint256","internalType":"uint256"},{"name":"name","type":"string","internalType":"string"},{"name":"symbol","type":"string","internalType":"string"},{"name":"createdAt","type":"uint256","internalType":"uint256"},{"name":"active","type":"bool","internalType":"bool"}]}],"stateMutability":"view"},{"type":"function","name":"getAllowedBaseAssets","inputs":[],"outputs":[{"name":"","type":"address[]","internalType":"address[]"}],"stateMutability":"view"},{"type":"function","name":"getAllowedBaseAssetsCount","inputs":[],"outputs":[{"name":"","type":"uint256","internalType":"uint256"}],"stateMutability":"view"},{"type":"function","name":"getMarketInfo","inputs":[{"name":"marketOwner","type":"address","internalType":"address"},{"name":"baseAsset","type":"address","internalType":"address"}],"outputs":[{"name":"","type":"tuple","internalType":"struct IPROTOCOL.Market","components":[{"name":"core","type":"address","internalType":"address"},{"name":"baseVault","type":"address","internalType":"address"},{"name":"baseAsset","type":"address","internalType":"address"},{"name":"assetsModule","type":"address","internalType":"address"},{"name":"porFeed","type":"address","internalType":"address"},{"name":"decimals","type":"uint256","internalType":"uint256"},{"name":"name","type":"string","internalType":"string"},{"name":"symbol","type":"string","internalType":"string"},{"name":"createdAt","type":"uint256","internalType":"uint256"},{"name":"active","type":"bool","internalType":"bool"}]}],"stateMutability":"view"},{"type":"function","name":"getMarketOwnerByIndex","inputs":[{"name":"index","type":"uint256","internalType":"uint256"}],"outputs":[{"name":"","type":"address","internalType":"address"}],"stateMutability":"view"},{"type":"function","name":"getMarketOwnersCount","inputs":[],"outputs":[{"name":"","type":"uint256","internalType":"uint256"}],"stateMutability":"view"},{"type":"function","name":"getOwnerBaseAssets","inputs":[{"name":"marketOwner","type":"address","internalType":"address"}],"outputs":[{"name":"","type":"address[]","internalType":"address[]"}],"stateMutability":"view"},{"type":"function","name":"getOwnerMarkets","inputs":[{"name":"marketOwner","type":"address","internalType":"address"}],"outputs":[{"name":"","type":"tuple[]","internalType":"struct IPROTOCOL.Market[]","components":[{"name":"core","type":"address","internalType":"address"},{"name":"baseVault","type":"address","internalType":"address"},{"name":"baseAsset","type":"address","internalType":"address"},{"name":"assetsModule","type":"address","internalType":"address"},{"name":"porFeed","type":"address","internalType":"address"},{"name":"decimals","type":"uint256","internalType":"uint256"},{"name":"name","type":"string","internalType":"string"},{"name":"symbol","type":"string","internalType":"string"},{"name":"createdAt","type":"uint256","internalType":"uint256"},{"name":"active","type":"bool","internalType":"bool"}]}],"stateMutability":"view"},{"type":"function","name":"getRoleAdmin","inputs":[{"name":"role","type":"bytes32","internalType":"bytes32"}],"outputs":[{"name":"","type":"bytes32","internalType":"bytes32"}],"stateMutability":"view"},{"type":"function","name":"getTotalMarketsCount","inputs":[],"outputs":[{"name":"","type":"uint256","internalType":"uint256"}],"stateMutability":"view"},{"type":"function","name":"govToken","inputs":[],"outputs":[{"name":"","type":"address","internalType":"address"}],"stateMutability":"view"},{"type":"function","name":"grantRole","inputs":[{"name":"role","type":"bytes32","internalType":"bytes32"},{"name":"account","type":"address","internalType":"address"}],"outputs":[],"stateMutability":"nonpayable"},{"type":"function","name":"hasRole","inputs":[{"name":"role","type":"bytes32","internalType":"bytes32"},{"name":"account","type":"address","internalType":"address"}],"outputs":[{"name":"","type":"bool","internalType":"bool"}],"stateMutability":"view"},{"type":"function","name":"initialize","inputs":[{"name":"_timelock","type":"address","internalType":"address"},{"name":"_govToken","type":"address","internalType":"address"},{"name":"_multisig","type":"address","internalType":"address"},{"name":"_ecosystem","type":"address","internalType":"address"}],"outputs":[],"stateMutability":"nonpayable"},{"type":"function","name":"isBaseAssetAllowed","inputs":[{"name":"baseAsset","type":"address","internalType":"address"}],"outputs":[{"name":"","type":"bool","internalType":"bool"}],"stateMutability":"view"},{"type":"function","name":"isMarketActive","inputs":[{"name":"marketOwner","type":"address","internalType":"address"},{"name":"baseAsset","type":"address","internalType":"address"}],"outputs":[{"name":"","type":"bool","internalType":"bool"}],"stateMutability":"view"},{"type":"function","name":"multisig","inputs":[],"outputs":[{"name":"","type":"address","internalType":"address"}],"stateMutability":"view"},{"type":"function","name":"pendingUpgrade","inputs":[],"outputs":[{"name":"implementation","type":"address","internalType":"address"},{"name":"scheduledTime","type":"uint64","internalType":"uint64"},{"name":"exists","type":"bool","internalType":"bool"}],"stateMutability":"view"},{"type":"function","name":"porFeedImplementation","inputs":[],"outputs":[{"name":"","type":"address","internalType":"address"}],"stateMutability":"view"},{"type":"function","name":"positionVaultImplementation","inputs":[],"outputs":[{"name":"","type":"address","internalType":"address"}],"stateMutability":"view"},{"type":"function","name":"proxiableUUID","inputs":[],"outputs":[{"name":"","type":"bytes32","internalType":"bytes32"}],"stateMutability":"view"},{"type":"function","name":"removeAllowedBaseAsset","inputs":[{"name":"baseAsset","type":"address","internalType":"address"}],"outputs":[],"stateMutability":"nonpayable"},{"type":"function","name":"renounceRole","inputs":[{"name":"role","type":"bytes32","internalType":"bytes32"},{"name":"callerConfirmation","type":"address","internalType":"address"}],"outputs":[],"stateMutability":"nonpayable"},{"type":"function","name":"revokeRole","inputs":[{"name":"role","type":"bytes32","internalType":"bytes32"},{"name":"account","type":"address","internalType":"address"}],"outputs":[],"stateMutability":"nonpayable"},{"type":"function","name":"scheduleUpgrade","inputs":[{"name":"newImplementation","type":"address","internalType":"address"}],"outputs":[],"stateMutability":"nonpayable"},{"type":"function","name":"setImplementations","inputs":[{"name":"_coreImplementation","type":"address","internalType":"address"},{"name":"_vaultImplementation","type":"address","internalType":"address"},{"name":"_positionVaultImplementation","type":"address","internalType":"address"},{"name":"_assetsModuleImplementation","type":"address","internalType":"address"},{"name":"_PoRFeed","type":"address","internalType":"address"}],"outputs":[],"stateMutability":"nonpayable"},{"type":"function","name":"supportsInterface","inputs":[{"name":"interfaceId","type":"bytes4","internalType":"bytes4"}],"outputs":[{"name":"","type":"bool","internalType":"bool"}],"stateMutability":"view"},{"type":"function","name":"timelock","inputs":[],"outputs":[{"name":"","type":"address","internalType":"address"}],"stateMutability":"view"},{"type":"function","name":"upgradeTimelockRemaining","inputs":[],"outputs":[{"name":"","type":"uint256","internalType":"uint256"}],"stateMutability":"view"},{"type":"function","name":"upgradeToAndCall","inputs":[{"name":"newImplementation","type":"address","internalType":"address"},{"name":"data","type":"bytes","internalType":"bytes"}],"outputs":[],"stateMutability":"payable"},{"type":"function","name":"vaultImplementation","inputs":[],"outputs":[{"name":"","type":"address","internalType":"address"}],"stateMutability":"view"},{"type":"function","name":"version","inputs":[],"outputs":[{"name":"","type":"uint256","internalType":"uint256"}],"stateMutability":"view"},{"type":"event","name":"BaseAssetAdded","inputs":[{"name":"baseAsset","type":"address","indexed":true,"internalType":"address"},{"name":"admin","type":"address","indexed":true,"internalType":"address"}],"anonymous":false},{"type":"event","name":"BaseAssetRemoved","inputs":[{"name":"baseAsset","type":"address","indexed":true,"internalType":"address"},{"name":"admin","type":"address","indexed":true,"internalType":"address"}],"anonymous":false},{"type":"event","name":"ImplementationsSet","inputs":[{"name":"coreImplementation","type":"address","indexed":true,"internalType":"address"},{"name":"vaultImplementation","type":"address","indexed":true,"internalType":"address"},{"name":"positionVaultImplementation","type":"address","indexed":true,"internalType":"address"}],"anonymous":false},{"type":"event","name":"Initialized","inputs":[{"name":"version","type":"uint64","indexed":false,"internalType":"uint64"}],"anonymous":false},{"type":"event","name":"MarketCreated","inputs":[{"name":"marketOwner","type":"address","indexed":true,"internalType":"address"},{"name":"baseAsset","type":"address","indexed":true,"internalType":"address"},{"name":"core","type":"address","indexed":false,"internalType":"address"},{"name":"baseVault","type":"address","indexed":false,"internalType":"address"},{"name":"name","type":"string","indexed":false,"internalType":"string"},{"name":"symbol","type":"string","indexed":false,"internalType":"string"},{"name":"porFeed","type":"address","indexed":false,"internalType":"address"}],"anonymous":false},{"type":"event","name":"MarketRemoved","inputs":[{"name":"marketOwner","type":"address","indexed":true,"internalType":"address"},{"name":"baseAsset","type":"address","indexed":true,"internalType":"address"}],"anonymous":false},{"type":"event","name":"MarketUpdated","inputs":[{"name":"marketOwner","type":"address","indexed":true,"internalType":"address"},{"name":"baseAsset","type":"address","indexed":true,"internalType":"address"},{"name":"marketInfo","type":"tuple","indexed":false,"internalType":"struct IPROTOCOL.Market","components":[{"name":"core","type":"address","internalType":"address"},{"name":"baseVault","type":"address","internalType":"address"},{"name":"baseAsset","type":"address","internalType":"address"},{"name":"assetsModule","type":"address","internalType":"address"},{"name":"porFeed","type":"address","internalType":"address"},{"name":"decimals","type":"uint256","internalType":"uint256"},{"name":"name","type":"string","internalType":"string"},{"name":"symbol","type":"string","internalType":"string"},{"name":"createdAt","type":"uint256","internalType":"uint256"},{"name":"active","type":"bool","internalType":"bool"}]}],"anonymous":false},{"type":"event","name":"RoleAdminChanged","inputs":[{"name":"role","type":"bytes32","indexed":true,"internalType":"bytes32"},{"name":"previousAdminRole","type":"bytes32","indexed":true,"internalType":"bytes32"},{"name":"newAdminRole","type":"bytes32","indexed":true,"internalType":"bytes32"}],"anonymous":false},{"type":"event","name":"RoleGranted","inputs":[{"name":"role","type":"bytes32","indexed":true,"internalType":"bytes32"},{"name":"account","type":"address","indexed":true,"internalType":"address"},{"name":"sender","type":"address","indexed":true,"internalType":"address"}],"anonymous":false},{"type":"event","name":"RoleRevoked","inputs":[{"name":"role","type":"bytes32","indexed":true,"internalType":"bytes32"},{"name":"account","type":"address","indexed":true,"internalType":"address"},{"name":"sender","type":"address","indexed":true,"internalType":"address"}],"anonymous":false},{"type":"event","name":"Upgrade","inputs":[{"name":"admin","type":"address","indexed":true,"internalType":"address"},{"name":"implementation","type":"address","indexed":true,"internalType":"address"}],"anonymous":false},{"type":"event","name":"UpgradeCancelled","inputs":[{"name":"canceller","type":"address","indexed":true,"internalType":"address"},{"name":"implementation","type":"address","indexed":true,"internalType":"address"}],"anonymous":false},{"type":"event","name":"UpgradeScheduled","inputs":[{"name":"scheduler","type":"address","indexed":true,"internalType":"address"},{"name":"implementation","type":"address","indexed":true,"internalType":"address"},{"name":"scheduledTime","type":"uint64","indexed":false,"internalType":"uint64"},{"name":"effectiveTime","type":"uint64","indexed":false,"internalType":"uint64"}],"anonymous":false},{"type":"event","name":"Upgraded","inputs":[{"name":"implementation","type":"address","indexed":true,"internalType":"address"}],"anonymous":false},{"type":"error","name":"AccessControlBadConfirmation","inputs":[]},{"type":"error","name":"AccessControlUnauthorizedAccount","inputs":[{"name":"account","type":"address","internalType":"address"},{"name":"neededRole","type":"bytes32","internalType":"bytes32"}]},{"type":"error","name":"AddressEmptyCode","inputs":[{"name":"target","type":"address","internalType":"address"}]},{"type":"error","name":"BaseAssetNotAllowed","inputs":[]},{"type":"error","name":"CloneDeploymentFailed","inputs":[]},{"type":"error","name":"ERC1967InvalidImplementation","inputs":[{"name":"implementation","type":"address","internalType":"address"}]},{"type":"error","name":"ERC1967NonPayable","inputs":[]},{"type":"error","name":"FailedCall","inputs":[]},{"type":"error","name":"FailedDeployment","inputs":[]},{"type":"error","name":"ImplementationMismatch","inputs":[{"name":"scheduledImpl","type":"address","internalType":"address"},{"name":"attemptedImpl","type":"address","internalType":"address"}]},{"type":"error","name":"InsufficientBalance","inputs":[{"name":"balance","type":"uint256","internalType":"uint256"},{"name":"needed","type":"uint256","internalType":"uint256"}]},{"type":"error","name":"InvalidContract","inputs":[]},{"type":"error","name":"InvalidInitialization","inputs":[]},{"type":"error","name":"MarketAlreadyExists","inputs":[]},{"type":"error","name":"MarketNotFound","inputs":[]},{"type":"error","name":"NotInitializing","inputs":[]},{"type":"error","name":"UUPSUnauthorizedCallContext","inputs":[]},{"type":"error","name":"UUPSUnsupportedProxiableUUID","inputs":[{"name":"slot","type":"bytes32","internalType":"bytes32"}]},{"type":"error","name":"UpgradeNotScheduled","inputs":[]},{"type":"error","name":"UpgradeTimelockActive","inputs":[{"name":"timeRemaining","type":"uint256","internalType":"uint256"}]},{"type":"error","name":"ZeroAddress","inputs":[]}],"bytecode":{"object":"0x60a06040523060805234801562000014575f80fd5b506200001f62000025565b620000d9565b7ff0c57e16840df040f15088dc2f81fe391c3923bec73e23a9662efc9c229c6a00805468010000000000000000900460ff1615620000765760405163f92ee8a960e01b815260040160405180910390fd5b80546001600160401b0390811614620000d65780546001600160401b0319166001600160401b0390811782556040519081527fc7f505b2f371ae2175ee4913f4499e1f2633a7b5936321eed1cdaeb6115181d29060200160405180910390a15b50565b60805161460f620001005f395f8181611bf301528181611c1d0152611ea0015261460f5ff3fe608060405260043610620001ff575f3560e01c806301ffc9a7146200020357806305268cff146200023c5780630c80447a146200026c578063248a9ca3146200029257806327d2fb1b14620002c55780632f2ff15d14620002e957806336568abe146200030d5780633cfc6a8f14620003315780634783c35b1462000355578063492a430414620003765780634e759755146200038d5780634f1ef28614620003c057806352d1902d14620003d757806354fd4d5014620003ee57806355f2916614620004045780635a8d1c09146200041b578063677f407014620004315780636bb7fd2d146200045257806376dcd3c91462000485578063780b7ae214620004a65780637dfb0a0114620004cc5780638610292c14620004f057806391d14854146200051457806395e9324514620005385780639c0a8ee014620005a65780639c74a57914620005bc5780639d492a2c14620005dd578063a217fddf14620005fe578063a88b1bf21462000613578063a9904014146200062a578063ad3cb1cc146200064b578063b95ad773146200068c578063bb5d937914620006b0578063bba48a9014620006fe578063c5675f59146200071f578063d0c3644d1462000743578063d33219b41462000767578063d547741f1462000788578063e3c6cedf14620007ac578063f8c8765e14620007d0578063ffaf73cd14620007f4575b5f80fd5b3480156200020f575f80fd5b50620002276200022136600462002cc7565b6200080b565b60405190151581526020015b60405180910390f35b34801562000248575f80fd5b506006546200025d906001600160a01b031681565b60405162000233919062002cfd565b34801562000278575f80fd5b50620002906200028a36600462002d2d565b62000842565b005b3480156200029e575f80fd5b50620002b6620002b036600462002d49565b62000936565b60405190815260200162000233565b348015620002d1575f80fd5b506200025d620002e336600462002d49565b62000956565b348015620002f5575f80fd5b50620002906200030736600462002d61565b620009d5565b34801562000319575f80fd5b50620002906200032b36600462002d61565b620009fd565b3480156200033d575f80fd5b506200025d6200034f36600462002d49565b62000a38565b34801562000361575f80fd5b506008546200025d906001600160a01b031681565b34801562000382575f80fd5b50620002b662000a61565b34801562000399575f80fd5b50620003b1620003ab36600462002d8e565b62000a73565b60405162000233919062002ede565b62000290620003d136600462002f7f565b62000cc9565b348015620003e3575f80fd5b50620002b662000cee565b348015620003fa575f80fd5b50620002b65f5481565b34801562000410575f80fd5b506200029062000d0c565b34801562000427575f80fd5b50600e54620002b6565b3480156200043d575f80fd5b506003546200025d906001600160a01b031681565b3480156200045e575f80fd5b50620004766200047036600462002d2d565b62000d9f565b60405162000233919062002fe3565b34801562000491575f80fd5b506005546200025d906001600160a01b031681565b348015620004b2575f80fd5b50620004bd62000dc4565b60405162000233919062003031565b348015620004d8575f80fd5b5062000290620004ea36600462002d2d565b620010cf565b348015620004fc575f80fd5b50620002906200050e36600462003097565b62001162565b34801562000520575f80fd5b50620002276200053236600462002d61565b62001270565b34801562000544575f80fd5b5060105462000576906001600160a01b03811690600160a01b81046001600160401b031690600160e01b900460ff1683565b604080516001600160a01b0390941684526001600160401b03909216602084015215159082015260600162000233565b348015620005b2575f80fd5b50600f54620002b6565b348015620005c8575f80fd5b506009546200025d906001600160a01b031681565b348015620005e9575f80fd5b506001546200025d906001600160a01b031681565b3480156200060a575f80fd5b50620002b65f81565b3480156200061f575f80fd5b5062000476620012a6565b34801562000636575f80fd5b506004546200025d906001600160a01b031681565b34801562000657575f80fd5b506200067d604051806040016040528060058152602001640352e302e360dc1b81525081565b60405162000233919062003103565b34801562000698575f80fd5b5062000290620006aa36600462002d2d565b620012b4565b348015620006bc575f80fd5b5062000227620006ce36600462002d8e565b6001600160a01b039182165f908152600c6020908152604080832093909416825291909152206009015460ff1690565b3480156200070a575f80fd5b506002546200025d906001600160a01b031681565b3480156200072b575f80fd5b50620004bd6200073d36600462002d2d565b62001347565b3480156200074f575f80fd5b50620002906200076136600462003138565b62001602565b34801562000773575f80fd5b506007546200025d906001600160a01b031681565b34801562000794575f80fd5b5062000290620007a636600462002d61565b620017da565b348015620007b8575f80fd5b5062000227620007ca36600462002d2d565b620017fc565b348015620007dc575f80fd5b5062000290620007ee366004620031af565b6200180a565b34801562000800575f80fd5b50620002b662001a0a565b5f6001600160e01b03198216637965db0b60e01b14806200083c57506301ffc9a760e01b6001600160e01b03198316145b92915050565b5f805160206200457a8339815191526200085c8162001a82565b6001600160a01b038216620008845760405163d92e233d60e01b815260040160405180910390fd5b425f620008956203f480836200321d565b604080516060810182526001600160a01b0387168082526001600160401b03868116602080850182905260019486019490945260108054600160e01b6001600160e01b03199091168517600160a01b84021760ff60e01b191617905584519081529085169281019290925292935033917fd555bb44cf2c5b99fb9936196db6ac3b4ca5946d1f2fc81ba6cc49fe978b55c4910160405180910390a350505050565b5f806200094262001a91565b5f9384526020525050604090206001015490565b600e545f908210620009a55760405162461bcd60e51b8152602060048201526013602482015272496e646578206f7574206f6620626f756e647360681b60448201526064015b60405180910390fd5b600e8281548110620009bb57620009bb62003240565b5f918252602090912001546001600160a01b031692915050565b620009e08262000936565b620009eb8162001a82565b620009f7838362001ab5565b50505050565b6001600160a01b038116331462000a275760405163334bd91960e11b815260040160405180910390fd5b62000a33828262001b62565b505050565b600e818154811062000a48575f80fd5b5f918252602090912001546001600160a01b0316905081565b5f62000a6e600a62001bde565b905090565b62000a7d62002c67565b6001600160a01b038316158062000a9b57506001600160a01b038216155b1562000aba5760405163d92e233d60e01b815260040160405180910390fd5b6001600160a01b038381165f908152600c6020908152604080832086851684529091529020541662000aff576040516307db1be560e41b815260040160405180910390fd5b6001600160a01b038084165f908152600c6020908152604080832086851684528252918290208251610140810184528154851681526001820154851692810192909252600281015484169282019290925260038201548316606082015260048201549092166080830152600581015460a083015260068101805460c08401919062000b8a9062003254565b80601f016020809104026020016040519081016040528092919081815260200182805462000bb89062003254565b801562000c075780601f1062000bdd5761010080835404028352916020019162000c07565b820191905f5260205f20905b81548152906001019060200180831162000be957829003601f168201915b5050505050815260200160078201805462000c229062003254565b80601f016020809104026020016040519081016040528092919081815260200182805462000c509062003254565b801562000c9f5780601f1062000c755761010080835404028352916020019162000c9f565b820191905f5260205f20905b81548152906001019060200180831162000c8157829003601f168201915b50505091835250506008820154602082015260099091015460ff1615156040909101529392505050565b62000cd362001be8565b62000cde8262001c92565b62000cea828262001dd7565b5050565b5f62000cf962001e95565b505f805160206200459a83398151915290565b5f805160206200457a83398151915262000d268162001a82565b601054600160e01b900460ff1662000d51576040516370d78f1760e11b815260040160405180910390fd5b601080546001600160e81b031981169091556040516001600160a01b0390911690819033907fa6698f935ea3cb05304828ddd237d7f7b2ee8f2d7733962bbba67888985e1a2c905f90a35050565b6001600160a01b0381165f908152600d602052604090206060906200083c9062001edf565b600f546060905f805b8281101562000e1857600f818154811062000dec5762000dec62003240565b5f91825260209091206009600a90920201015460ff161562000e0f578160010191505b60010162000dcd565b505f816001600160401b0381111562000e355762000e3562002ef2565b60405190808252806020026020018201604052801562000e7257816020015b62000e5e62002c67565b81526020019060019003908162000e545790505b5090508115620010c8575f805b84811015620010c557600f818154811062000e9e5762000e9e62003240565b5f91825260209091206009600a90920201015460ff1615620010bc57600f818154811062000ed05762000ed062003240565b5f9182526020918290206040805161014081018252600a90930290910180546001600160a01b0390811684526001820154811694840194909452600281015484169183019190915260038101548316606083015260048101549092166080820152600582015460a082015260068201805491929160c08401919062000f559062003254565b80601f016020809104026020016040519081016040528092919081815260200182805462000f839062003254565b801562000fd25780601f1062000fa85761010080835404028352916020019162000fd2565b820191905f5260205f20905b81548152906001019060200180831162000fb457829003601f168201915b5050505050815260200160078201805462000fed9062003254565b80601f01602080910402602001604051908101604052809291908181526020018280546200101b9062003254565b80156200106a5780601f1062001040576101008083540402835291602001916200106a565b820191905f5260205f20905b8154815290600101906020018083116200104c57829003601f168201915b50505091835250506008820154602082015260099091015460ff1615156040909101528351600184019385918110620010a757620010a762003240565b602002602001018190525083820315620010c5575b60010162000e7f565b50505b9392505050565b5f80516020620045ba833981519152620010e98162001a82565b6001600160a01b038216620011115760405163d92e233d60e01b815260040160405180910390fd5b5f6200111f600a8462001eed565b9050801562000a335760405133906001600160a01b038516907f3108bb895c7291e531e90e2e99876b914df87022a12205e546224476fd51baf1905f90a3505050565b5f6200116e8162001a82565b6001600160a01b03861615806200118c57506001600160a01b038516155b806200119f57506001600160a01b038416155b80620011b257506001600160a01b038316155b80620011c557506001600160a01b038216155b15620011e45760405163d92e233d60e01b815260040160405180910390fd5b600180546001600160a01b03199081166001600160a01b0389811691821790935560028054831689851690811790915560038054841689861690811790915560048054851689871617905560058054909416948716949094179092556040517f696fc74cdf7b49fb67351d25497dc8d1f5999f716171c6681cd96926fa1d4cb4905f90a4505050505050565b5f806200127c62001a91565b5f948552602090815260408086206001600160a01b03959095168652939052505090205460ff1690565b606062000a6e600a62001edf565b5f80516020620045ba833981519152620012ce8162001a82565b6001600160a01b038216620012f65760405163d92e233d60e01b815260040160405180910390fd5b5f62001304600a8462001f03565b9050801562000a335760405133906001600160a01b038516907f23f0d8fc502ff78e211880b4b2279f0852adc4ba4b71ba03e5b7169616817d37905f90a3505050565b6001600160a01b0381165f908152600d60205260408120606091906200136d9062001edf565b80519091505f816001600160401b038111156200138e576200138e62002ef2565b604051908082528060200260200182016040528015620013cb57816020015b620013b762002c67565b815260200190600190039081620013ad5790505b5090505f5b82811015620015f9576001600160a01b0386165f908152600c6020526040812085519091908690849081106200140a576200140a62003240565b6020908102919091018101516001600160a01b0390811683528282019390935260409182015f208251610140810184528154851681526001820154851692810192909252600281015484169282019290925260038201548316606082015260048201549092166080830152600581015460a083015260068101805460c084019190620014969062003254565b80601f0160208091040260200160405190810160405280929190818152602001828054620014c49062003254565b8015620015135780601f10620014e95761010080835404028352916020019162001513565b820191905f5260205f20905b815481529060010190602001808311620014f557829003601f168201915b505050505081526020016007820180546200152e9062003254565b80601f01602080910402602001604051908101604052809291908181526020018280546200155c9062003254565b8015620015ab5780601f106200158157610100808354040283529160200191620015ab565b820191905f5260205f20905b8154815290600101906020018083116200158d57829003601f168201915b50505091835250506008820154602082015260099091015460ff1615156040909101528251839083908110620015e557620015e562003240565b6020908102919091010152600101620013d0565b50949350505050565b7fc2d8be2f9fead751efa432b3ca8155dd1b8bde7d0d80d72f07850c659afcd0bc6200162e8162001a82565b836200163c600a8262001f19565b6200165a576040516326ec736f60e11b815260040160405180910390fd5b336001600160a01b038616620016835760405163d92e233d60e01b815260040160405180910390fd5b6001600160a01b038181165f908152600c602090815260408083208a851684529091529020541615620016c957604051630313b28560e01b815260040160405180910390fd5b5f805f620016d989898962001f2f565b9250925092505f620016eb8a62002209565b9050620016ff858b868685878f8f620022cc565b6001600160a01b038581165f908152600c602090815260408083208e85168452909152908190209051630c66288160e41b81529186169163c6628810916200174a916004016200331b565b5f604051808303815f87803b15801562001762575f80fd5b505af115801562001775573d5f803e3d5ffd5b50505050896001600160a01b0316856001600160a01b03167f8d07073f16cdf4c1a2c8bbbb588788e628d2fccbb59abb38d03fcaa283bab32286868d8d87604051620017c695949392919062003421565b60405180910390a350505050505050505050565b620017e58262000936565b620017f08162001a82565b620009f7838362001b62565b5f6200083c600a8362001f19565b5f6200181562002798565b805490915060ff600160401b82041615906001600160401b03165f811580156200183c5750825b90505f826001600160401b03166001148015620018585750303b155b90508115801562001867575080155b15620018865760405163f92ee8a960e01b815260040160405180910390fd5b84546001600160401b03191660011785558315620018b057845460ff60401b1916600160401b1785555b6001600160a01b0389161580620018ce57506001600160a01b038816155b80620018e157506001600160a01b038716155b80620018f457506001600160a01b038616155b15620019135760405163d92e233d60e01b815260040160405180910390fd5b6200191d620027c1565b62001927620027c1565b620019335f8a62001ab5565b506200194e5f805160206200457a8339815191528a62001ab5565b50620019695f80516020620045ba8339815191528862001ab5565b50600680546001600160a01b03808b166001600160a01b031992831617909255600780548c8416908316179055600880548a8416908316179055600980549289169290911691909117905560015f558315620019ff57845460ff60401b19168555604051600181527fc7f505b2f371ae2175ee4913f4499e1f2633a7b5936321eed1cdaeb6115181d29060200160405180910390a15b505050505050505050565b6010545f90600160e01b900460ff16801562001a47575060105462001a44906203f48090600160a01b90046001600160401b031662003476565b42105b62001a5157505f90565b601054429062001a76906203f48090600160a01b90046001600160401b031662003476565b62000a6e91906200348c565b62001a8e8133620027cb565b50565b7f02dd7bc7dec4dceedda775e58dd541e08a116c6c53815c0bd028192f7b62680090565b5f8062001ac162001a91565b905062001acf848462001270565b62001b51575f848152602082815260408083206001600160a01b03871684529091529020805460ff1916600117905562001b063390565b6001600160a01b0316836001600160a01b0316857f2f8788117e7eff1d82e926ec794901d17c78024a50270940304540a733656f0d60405160405180910390a460019150506200083c565b5f9150506200083c565b5092915050565b5f8062001b6e62001a91565b905062001b7c848462001270565b1562001b51575f848152602082815260408083206001600160a01b0387168085529252808320805460ff1916905551339287917ff6391f5c32d9c69d2a47ea670b442974b53935d1edc7fd64eb21e047a839171b9190a460019150506200083c565b5f6200083c825490565b306001600160a01b037f000000000000000000000000000000000000000000000000000000000000000016148062001c7157507f00000000000000000000000000000000000000000000000000000000000000006001600160a01b031662001c655f805160206200459a833981519152546001600160a01b031690565b6001600160a01b031614155b1562001c905760405163703e46dd60e11b815260040160405180910390fd5b565b5f805160206200457a83398151915262001cac8162001a82565b601054600160e01b900460ff1662001cd7576040516370d78f1760e11b815260040160405180910390fd5b6010546001600160a01b0383811691161462001d1e57601054604051631e53f1bb60e31b81526001600160a01b03918216600482015290831660248201526044016200099c565b6010545f9062001d3f90600160a01b90046001600160401b0316426200348c565b90506203f48081101562001d795762001d5c816203f4806200348c565b604051633b77feff60e11b81526004016200099c91815260200190565b601080546001600160e81b03191690555f8054819062001d9990620034a2565b909155506040516001600160a01b0384169033907fd23ce5645530506727523fe6d7939e72bb49102454460bc72f0f5baec60ac718905f90a3505050565b816001600160a01b03166352d1902d6040518163ffffffff1660e01b8152600401602060405180830381865afa92505050801562001e34575060408051601f3d908101601f1916820190925262001e3191810190620034bd565b60015b62001e565781604051634c9c8ce360e01b81526004016200099c919062002cfd565b5f805160206200459a833981519152811462001e8957604051632a87526960e21b8152600481018290526024016200099c565b62000a33838362002808565b306001600160a01b037f0000000000000000000000000000000000000000000000000000000000000000161462001c905760405163703e46dd60e11b815260040160405180910390fd5b60605f620010c88362002864565b5f620010c8836001600160a01b038416620028bf565b5f620010c8836001600160a01b0384166200290b565b5f620010c8836001600160a01b038416620029f5565b6004545f908190819062001f4c906001600160a01b031662002a0c565b90506001600160a01b038116158062001f6d57506001600160a01b0381163b155b1562001f8c576040516304ddc24d60e01b815260040160405180910390fd5b60075460055460405163c0c53b8b60e01b81526001600160a01b038085169363c0c53b8b9362001fc893918316923392911690600401620034d5565b5f604051808303815f87803b15801562001fe0575f80fd5b505af115801562001ff3573d5f803e3d5ffd5b50506001545f92506200201091506001600160a01b031662002a0c565b90506001600160a01b03811615806200203157506001600160a01b0381163b155b1562002050576040516304ddc24d60e01b815260040160405180910390fd5b600754600654600354604080516001600160a01b0394851660248201819052336044830152938516606482015286851660848201529390911660a4808501919091528151808503909101815260c490930181526020830180516001600160e01b0316630a2ca2bd60e11b179052518391908390620020ce9062002cb9565b620020dc93929190620034f8565b604051809103905ff080158015620020f6573d5f803e3d5ffd5b506002549095505f9062002113906001600160a01b031662002a0c565b90506001600160a01b03811615806200213457506001600160a01b0381163b155b1562002153576040516304ddc24d60e01b815260040160405180910390fd5b6007546009546040515f9262002184926001600160a01b03918216928b928f9216908a908f908f9060240162003525565b60408051601f198184030181529181526020820180516001600160e01b0316630571f09160e41b179052600754905191925083916001600160a01b03909116908390620021d19062002cb9565b620021df93929190620034f8565b604051809103905ff080158015620021f9573d5f803e3d5ffd5b5095505050505093509350939050565b6005545f9062002222906001600160a01b031662002a0c565b90506001600160a01b03811615806200224357506001600160a01b0381163b155b1562002262576040516304ddc24d60e01b815260040160405180910390fd5b60075460405163c0c53b8b60e01b81526001600160a01b038084169263c0c53b8b926200229892879216908190600401620034d5565b5f604051808303815f87803b158015620022b0575f80fd5b505af1158015620022c3573d5f803e3d5ffd5b50505050919050565b5f604051806101400160405280886001600160a01b03168152602001876001600160a01b03168152602001896001600160a01b03168152602001856001600160a01b03168152602001866001600160a01b03168152602001896001600160a01b031663313ce5676040518163ffffffff1660e01b8152600401602060405180830381865afa15801562002361573d5f803e3d5ffd5b505050506040513d601f19601f820116820180604052508101906200238791906200358c565b60ff16815260200184815260200183815260200142815260200160011515815250905080600c5f8b6001600160a01b03166001600160a01b031681526020019081526020015f205f8a6001600160a01b03166001600160a01b031681526020019081526020015f205f820151815f015f6101000a8154816001600160a01b0302191690836001600160a01b031602179055506020820151816001015f6101000a8154816001600160a01b0302191690836001600160a01b031602179055506040820151816002015f6101000a8154816001600160a01b0302191690836001600160a01b031602179055506060820151816003015f6101000a8154816001600160a01b0302191690836001600160a01b031602179055506080820151816004015f6101000a8154816001600160a01b0302191690836001600160a01b0316021790555060a0820151816005015560c0820151816006019081620024ea9190620035fd565b5060e08201516007820190620025019082620035fd565b506101008201516008820155610120909101516009909101805460ff19169115159190911790556001600160a01b0389165f908152600d602052604081206200254a9062001bde565b6001600160a01b038b165f908152600d602052604090209015915062002571908a62001eed565b508015620025c457600e80546001810182555f919091527fbb7b4a454dc3493923482f07822329ed19e8244eff582cc204f8554c3620c3fd0180546001600160a01b0319166001600160a01b038c161790555b600f80546001810182555f9190915282517f8d1108e10bcb7c27dddfc02ed9d693a074039d026cf4ea4240b40f7d581ac802600a90920291820180546001600160a01b03199081166001600160a01b0393841617825560208601517f8d1108e10bcb7c27dddfc02ed9d693a074039d026cf4ea4240b40f7d581ac80385018054831691851691909117905560408601517f8d1108e10bcb7c27dddfc02ed9d693a074039d026cf4ea4240b40f7d581ac80485018054831691851691909117905560608601517f8d1108e10bcb7c27dddfc02ed9d693a074039d026cf4ea4240b40f7d581ac80585018054831691851691909117905560808601517f8d1108e10bcb7c27dddfc02ed9d693a074039d026cf4ea4240b40f7d581ac8068501805490921693169290921790915560a08401517f8d1108e10bcb7c27dddfc02ed9d693a074039d026cf4ea4240b40f7d581ac80783015560c084015184927f8d1108e10bcb7c27dddfc02ed9d693a074039d026cf4ea4240b40f7d581ac80801906200274e9082620035fd565b5060e08201516007820190620027659082620035fd565b506101008201516008820155610120909101516009909101805460ff191691151591909117905550505050505050505050565b5f807ff0c57e16840df040f15088dc2f81fe391c3923bec73e23a9662efc9c229c6a006200083c565b62001c9062002a19565b620027d7828262001270565b62000cea5760405163e2517d3f60e01b81526001600160a01b0382166004820152602481018390526044016200099c565b620028138262002a41565b6040516001600160a01b038316907fbc7cd75a20ee27fd9adebab32041f755214dbc6bffa90cc0225b39da2e5c2d3b905f90a28051156200285a5762000a33828262002a9f565b62000cea62002b17565b6060815f01805480602002602001604051908101604052809291908181526020018280548015620028b357602002820191905f5260205f20905b8154815260200190600101908083116200289e575b50505050509050919050565b5f620028cc8383620029f5565b6200290357508154600181810184555f8481526020808220909301849055845484825282860190935260409020919091556200083c565b505f6200083c565b5f818152600183016020526040812054801562001b51575f620029306001836200348c565b85549091505f9062002945906001906200348c565b9050808214620029ab575f865f01828154811062002967576200296762003240565b905f5260205f200154905080875f0184815481106200298a576200298a62003240565b5f918252602080832090910192909255918252600188019052604090208390555b8554869080620029bf57620029bf620036c9565b600190038181905f5260205f20015f90559055856001015f8681526020019081526020015f205f9055600193505050506200083c565b5f9081526001919091016020526040902054151590565b5f6200083c825f62002b37565b62002a2362002bce565b62001c9057604051631afcd79f60e31b815260040160405180910390fd5b806001600160a01b03163b5f0362002a705780604051634c9c8ce360e01b81526004016200099c919062002cfd565b5f805160206200459a83398151915280546001600160a01b0319166001600160a01b0392909216919091179055565b60605f80846001600160a01b03168460405162002abd9190620036dd565b5f60405180830381855af49150503d805f811462002af7576040519150601f19603f3d011682016040523d82523d5f602084013e62002afc565b606091505b509150915062002b0e85838362002be9565b95945050505050565b341562001c905760405163b398979f60e01b815260040160405180910390fd5b5f8147101562002b645760405163cf47918160e01b8152476004820152602481018390526044016200099c565b763d602d80600a3d3981f3363d3d373d3d3d363d730000008360601b60e81c175f526e5af43d82803e903d91602b57fd5bf38360781b176020526037600983f090506001600160a01b0381166200083c5760405163b06ebf3d60e01b815260040160405180910390fd5b5f62002bd962002798565b54600160401b900460ff16919050565b60608262002c025762002bfc8262002c3d565b620010c8565b815115801562002c1a57506001600160a01b0384163b155b1562001b5b5783604051639996b31560e01b81526004016200099c919062002cfd565b80511562002c4e5780518082602001fd5b60405163d6bda27560e01b815260040160405180910390fd5b60408051610140810182525f8082526020820181905291810182905260608082018390526080820183905260a0820183905260c0820181905260e0820152610100810182905261012081019190915290565b610e7f80620036fb83390190565b5f6020828403121562002cd8575f80fd5b81356001600160e01b031981168114620010c8575f80fd5b6001600160a01b03169052565b6001600160a01b0391909116815260200190565b80356001600160a01b038116811462002d28575f80fd5b919050565b5f6020828403121562002d3e575f80fd5b620010c88262002d11565b5f6020828403121562002d5a575f80fd5b5035919050565b5f806040838503121562002d73575f80fd5b8235915062002d856020840162002d11565b90509250929050565b5f806040838503121562002da0575f80fd5b62002dab8362002d11565b915062002d856020840162002d11565b5f5b8381101562002dd757818101518382015260200162002dbd565b50505f910152565b5f815180845262002df881602086016020860162002dbb565b601f01601f19169290920160200192915050565b5f61014062002e1d84845162002cf0565b602083015162002e31602086018262002cf0565b50604083015162002e46604086018262002cf0565b50606083015162002e5b606086018262002cf0565b50608083015162002e70608086018262002cf0565b5060a083015160a085015260c08301518160c086015262002e948286018262002ddf565b91505060e083015184820360e086015262002eb0828262002ddf565b9150506101008084015181860152506101208084015162002ed48287018215159052565b5090949350505050565b602081525f620010c8602083018462002e0c565b634e487b7160e01b5f52604160045260245ffd5b5f6001600160401b038084111562002f225762002f2262002ef2565b604051601f8501601f19908116603f0116810190828211818310171562002f4d5762002f4d62002ef2565b8160405280935085815286868601111562002f66575f80fd5b858560208301375f602087830101525050509392505050565b5f806040838503121562002f91575f80fd5b62002f9c8362002d11565b915060208301356001600160401b0381111562002fb7575f80fd5b8301601f8101851362002fc8575f80fd5b62002fd98582356020840162002f06565b9150509250929050565b602080825282518282018190525f9190848201906040850190845b81811015620030255783516001600160a01b03168352928401929184019160010162002ffe565b50909695505050505050565b5f60208083016020845280855180835260408601915060408160051b8701019250602087015f5b828110156200308a57603f198886030184526200307785835162002e0c565b9450928501929085019060010162003058565b5092979650505050505050565b5f805f805f60a08688031215620030ac575f80fd5b620030b78662002d11565b9450620030c76020870162002d11565b9350620030d76040870162002d11565b9250620030e76060870162002d11565b9150620030f76080870162002d11565b90509295509295909350565b602081525f620010c8602083018462002ddf565b5f82601f83011262003127575f80fd5b620010c88383356020850162002f06565b5f805f606084860312156200314b575f80fd5b620031568462002d11565b925060208401356001600160401b038082111562003172575f80fd5b620031808783880162003117565b9350604086013591508082111562003196575f80fd5b50620031a58682870162003117565b9150509250925092565b5f805f8060808587031215620031c3575f80fd5b620031ce8562002d11565b9350620031de6020860162002d11565b9250620031ee6040860162002d11565b9150620031fe6060860162002d11565b905092959194509250565b634e487b7160e01b5f52601160045260245ffd5b6001600160401b0381811683821601908082111562001b5b5762001b5b62003209565b634e487b7160e01b5f52603260045260245ffd5b600181811c908216806200326957607f821691505b6020821081036200328857634e487b7160e01b5f52602260045260245ffd5b50919050565b6001600160a01b031690565b5f8154620032a88162003254565b808552602060018381168015620032c85760018114620032e35762003310565b60ff1985168884015283151560051b88018301955062003310565b865f52825f205f5b85811015620033085781548a8201860152908301908401620032eb565b890184019650505b505050505092915050565b6020815262003339602082016200333384546200328e565b62002cf0565b5f6200334960018401546200328e565b62003358604084018262002cf0565b506200336860028401546200328e565b62003377606084018262002cf0565b506200338760038401546200328e565b62003396608084018262002cf0565b50620033a660048401546200328e565b620033b560a084018262002cf0565b50600583015460c08301526101408060e0840152620033dc6101608401600686016200329a565b838103601f1901610100850152620033f881600787016200329a565b9050600885015461012085015262003414600986015460ff1690565b80151585840152620015f9565b5f60018060a01b038088168352808716602084015260a060408401526200344c60a084018762002ddf565b838103606085015262003460818762002ddf565b9250508084166080840152509695505050505050565b808201808211156200083c576200083c62003209565b818103818111156200083c576200083c62003209565b5f60018201620034b657620034b662003209565b5060010190565b5f60208284031215620034ce575f80fd5b5051919050565b6001600160a01b0393841681529183166020830152909116604082015260600190565b6001600160a01b038481168252831660208201526060604082018190525f9062002b0e9083018462002ddf565b6001600160a01b0388811682528781166020830152868116604083015285811660608301528416608082015260e060a082018190525f906200356a9083018562002ddf565b82810360c08401526200357e818562002ddf565b9a9950505050505050505050565b5f602082840312156200359d575f80fd5b815160ff81168114620010c8575f80fd5b601f82111562000a3357805f5260205f20601f840160051c81016020851015620035d55750805b601f840160051c820191505b81811015620035f6575f8155600101620035e1565b5050505050565b81516001600160401b0381111562003619576200361962002ef2565b62003631816200362a845462003254565b84620035ae565b602080601f83116001811462003667575f84156200364f5750858301515b5f19600386901b1c1916600185901b178555620036c1565b5f85815260208120601f198616915b82811015620036975788860151825594840194600190910190840162003676565b5085821015620036b557878501515f19600388901b60f8161c191681555b505060018460011b0185555b505050505050565b634e487b7160e01b5f52603160045260245ffd5b5f8251620036f081846020870162002dbb565b919091019291505056fe60a060405260405162000e7f38038062000e7f8339810160408190526200002691620003ae565b828162000034828262000095565b50508160405162000045906200034c565b62000051919062000488565b604051809103905ff0801580156200006b573d5f803e3d5ffd5b506001600160a01b03166080526200008c6200008660805190565b620000fa565b505050620004b9565b620000a0826200016b565b6040516001600160a01b038316907fbc7cd75a20ee27fd9adebab32041f755214dbc6bffa90cc0225b39da2e5c2d3b905f90a2805115620000ec57620000e78282620001e7565b505050565b620000f662000260565b5050565b7f7e644d79422f17c01e4894b5f4f588d331ebfa28653d42ae832dc59e38c9798f6200013b5f8051602062000e5f833981519152546001600160a01b031690565b604080516001600160a01b03928316815291841660208301520160405180910390a1620001688162000282565b50565b806001600160a01b03163b5f03620001a35780604051634c9c8ce360e01b81526004016200019a919062000488565b60405180910390fd5b807f360894a13ba1a3210667c828492db98dca3e2076cc3735a920a3ca505d382bbc5b80546001600160a01b0319166001600160a01b039290921691909117905550565b60605f80846001600160a01b0316846040516200020591906200049c565b5f60405180830381855af49150503d805f81146200023f576040519150601f19603f3d011682016040523d82523d5f602084013e62000244565b606091505b50909250905062000257858383620002c4565b95945050505050565b3415620002805760405163b398979f60e01b815260040160405180910390fd5b565b6001600160a01b038116620002ae575f604051633173bdd160e11b81526004016200019a919062000488565b805f8051602062000e5f833981519152620001c6565b606082620002dd57620002d78262000322565b6200031b565b8151158015620002f557506001600160a01b0384163b155b15620003185783604051639996b31560e01b81526004016200019a919062000488565b50805b9392505050565b805115620003335780518082602001fd5b60405163d6bda27560e01b815260040160405180910390fd5b610526806200093983390190565b80516001600160a01b038116811462000371575f80fd5b919050565b634e487b7160e01b5f52604160045260245ffd5b5f5b83811015620003a65781810151838201526020016200038c565b50505f910152565b5f805f60608486031215620003c1575f80fd5b620003cc846200035a565b9250620003dc602085016200035a565b60408501519092506001600160401b0380821115620003f9575f80fd5b818601915086601f8301126200040d575f80fd5b81518181111562000422576200042262000376565b604051601f8201601f19908116603f011681019083821181831017156200044d576200044d62000376565b8160405282815289602084870101111562000466575f80fd5b620004798360208301602088016200038a565b80955050505050509250925092565b6001600160a01b0391909116815260200190565b5f8251620004af8184602087016200038a565b9190910192915050565b608051610468620004d15f395f601001526104685ff3fe608060405261000c61000e565b005b7f00000000000000000000000000000000000000000000000000000000000000006001600160a01b0316330361007a575f356001600160e01b03191663278f794360e11b14610070576040516334ad5dbb60e21b815260040160405180910390fd5b610078610082565b565b6100786100b0565b5f8061009136600481846102cf565b81019061009e919061030a565b915091506100ac82826100c0565b5050565b6100786100bb61011a565b61013e565b6100c98261015c565b6040516001600160a01b038316907fbc7cd75a20ee27fd9adebab32041f755214dbc6bffa90cc0225b39da2e5c2d3b905f90a28051156101125761010d82826101bf565b505050565b6100ac610231565b5f6101395f80516020610413833981519152546001600160a01b031690565b905090565b365f80375f80365f845af43d5f803e808015610158573d5ff35b3d5ffd5b806001600160a01b03163b5f036101915780604051634c9c8ce360e01b815260040161018891906103d2565b60405180910390fd5b5f8051602061041383398151915280546001600160a01b0319166001600160a01b0392909216919091179055565b60605f80846001600160a01b0316846040516101db91906103e6565b5f60405180830381855af49150503d805f8114610213576040519150601f19603f3d011682016040523d82523d5f602084013e610218565b606091505b5091509150610228858383610250565b95945050505050565b34156100785760405163b398979f60e01b815260040160405180910390fd5b60608261026557610260826102a6565b61029f565b815115801561027c57506001600160a01b0384163b155b1561029c5783604051639996b31560e01b815260040161018891906103d2565b50805b9392505050565b8051156102b65780518082602001fd5b60405163d6bda27560e01b815260040160405180910390fd5b5f80858511156102dd575f80fd5b838611156102e9575f80fd5b5050820193919092039150565b634e487b7160e01b5f52604160045260245ffd5b5f806040838503121561031b575f80fd5b82356001600160a01b0381168114610331575f80fd5b915060208301356001600160401b038082111561034c575f80fd5b818501915085601f83011261035f575f80fd5b813581811115610371576103716102f6565b604051601f8201601f19908116603f01168101908382118183101715610399576103996102f6565b816040528281528860208487010111156103b1575f80fd5b826020860160208301375f6020848301015280955050505050509250929050565b6001600160a01b0391909116815260200190565b5f82515f5b8181101561040557602081860181015185830152016103eb565b505f92019182525091905056fe360894a13ba1a3210667c828492db98dca3e2076cc3735a920a3ca505d382bbca26469706673582212201ec278aa0d2c8461eb4564c54b47e9d899976a1135ed5c96a22b1b68b2a7bf1664736f6c63430008170033608060405234801561000f575f80fd5b5060405161052638038061052683398101604081905261002e916100bb565b806001600160a01b03811661005c57604051631e4fbdf760e01b81525f600482015260240160405180910390fd5b6100658161006c565b50506100e8565b5f80546001600160a01b038381166001600160a01b0319831681178455604051919092169283917f8be0079c531659141344cd1fd0a4f28419497f9722a3daafe3b4186f6b6457e09190a35050565b5f602082840312156100cb575f80fd5b81516001600160a01b03811681146100e1575f80fd5b9392505050565b610431806100f55f395ff3fe608060405260043610610049575f3560e01c8063715018a61461004d5780638da5cb5b146100635780639623609d1461008d578063ad3cb1cc146100a0578063f2fde38b146100dd575b5f80fd5b348015610058575f80fd5b506100616100fc565b005b34801561006e575f80fd5b5061007761010f565b604051610084919061024f565b60405180910390f35b61006161009b36600461028b565b61011d565b3480156100ab575f80fd5b506100d0604051806040016040528060058152602001640352e302e360dc1b81525081565b604051610084919061039c565b3480156100e8575f80fd5b506100616100f73660046103b5565b610188565b6101046101ce565b61010d5f610200565b565b5f546001600160a01b031690565b6101256101ce565b60405163278f794360e11b81526001600160a01b03841690634f1ef28690349061015590869086906004016103d0565b5f604051808303818588803b15801561016c575f80fd5b505af115801561017e573d5f803e3d5ffd5b5050505050505050565b6101906101ce565b6001600160a01b0381166101c2575f604051631e4fbdf760e01b81526004016101b9919061024f565b60405180910390fd5b6101cb81610200565b50565b336101d761010f565b6001600160a01b03161461010d573360405163118cdaa760e01b81526004016101b9919061024f565b5f80546001600160a01b038381166001600160a01b0319831681178455604051919092169283917f8be0079c531659141344cd1fd0a4f28419497f9722a3daafe3b4186f6b6457e09190a35050565b6001600160a01b0391909116815260200190565b6001600160a01b03811681146101cb575f80fd5b634e487b7160e01b5f52604160045260245ffd5b5f805f6060848603121561029d575f80fd5b83356102a881610263565b925060208401356102b881610263565b915060408401356001600160401b03808211156102d3575f80fd5b818601915086601f8301126102e6575f80fd5b8135818111156102f8576102f8610277565b604051601f8201601f19908116603f0116810190838211818310171561032057610320610277565b81604052828152896020848701011115610338575f80fd5b826020860160208301375f6020848301015280955050505050509250925092565b5f81518084525f5b8181101561037d57602081850181015186830182015201610361565b505f602082860101526020601f19601f83011685010191505092915050565b602081525f6103ae6020830184610359565b9392505050565b5f602082840312156103c5575f80fd5b81356103ae81610263565b6001600160a01b03831681526040602082018190525f906103f390830184610359565b94935050505056fea264697066735822122039c0dbdce27d243740c4f2c5e94e6bf0f3fe46e8fb0358c11a75e9af0b18707464736f6c63430008170033b53127684a568b3173ae13b9f8a6016e243e63b6e8ee1178d6a717850b5d6103189ab7a9244df0848122154315af71fe140f3db0fe014031783b0946b8c9d2e3360894a13ba1a3210667c828492db98dca3e2076cc3735a920a3ca505d382bbc241ecf16d79d0f8dbfb92cbc07fe17840425976cf0667f022fe9877caa831b08a2646970667358221220836df337063944b7b413cd1b1530bc0a7fe1ea40a6d9ddc358ba598a385af17b64736f6c63430008170033","linkReferences":{}},"methodIdentifiers":{"DEFAULT_ADMIN_ROLE()":"a217fddf","UPGRADE_INTERFACE_VERSION()":"ad3cb1cc","addAllowedBaseAsset(address)":"7dfb0a01","allMarketOwners(uint256)":"3cfc6a8f","assetsModuleImplementation()":"a9904014","cancelUpgrade()":"55f29166","coreImplementation()":"9d492a2c","createMarket(address,string,string)":"d0c3644d","ecosystem()":"9c74a579","getAllActiveMarkets()":"780b7ae2","getAllowedBaseAssets()":"a88b1bf2","getAllowedBaseAssetsCount()":"492a4304","getMarketInfo(address,address)":"4e759755","getMarketOwnerByIndex(uint256)":"27d2fb1b","getMarketOwnersCount()":"5a8d1c09","getOwnerBaseAssets(address)":"6bb7fd2d","getOwnerMarkets(address)":"c5675f59","getRoleAdmin(bytes32)":"248a9ca3","getTotalMarketsCount()":"9c0a8ee0","govToken()":"05268cff","grantRole(bytes32,address)":"2f2ff15d","hasRole(bytes32,address)":"91d14854","initialize(address,address,address,address)":"f8c8765e","isBaseAssetAllowed(address)":"e3c6cedf","isMarketActive(address,address)":"bb5d9379","multisig()":"4783c35b","pendingUpgrade()":"95e93245","porFeedImplementation()":"76dcd3c9","positionVaultImplementation()":"677f4070","proxiableUUID()":"52d1902d","removeAllowedBaseAsset(address)":"b95ad773","renounceRole(bytes32,address)":"36568abe","revokeRole(bytes32,address)":"d547741f","scheduleUpgrade(address)":"0c80447a","setImplementations(address,address,address,address,address)":"8610292c","supportsInterface(bytes4)":"01ffc9a7","timelock()":"d33219b4","upgradeTimelockRemaining()":"ffaf73cd","upgradeToAndCall(address,bytes)":"4f1ef286","vaultImplementation()":"bba48a90","version()":"54fd4d50"},"storageLayout":{"storage":[{"astId":18004,"contract":"contracts/markets/LendefiMarketFactory.sol:LendefiMarketFactory","label":"version","offset":0,"slot":"0","type":"t_uint256"},{"astId":18007,"contract":"contracts/markets/LendefiMarketFactory.sol:LendefiMarketFactory","label":"coreImplementation","offset":0,"slot":"1","type":"t_address"},{"astId":18010,"contract":"contracts/markets/LendefiMarketFactory.sol:LendefiMarketFactory","label":"vaultImplementation","offset":0,"slot":"2","type":"t_address"},{"astId":18013,"contract":"contracts/markets/LendefiMarketFactory.sol:LendefiMarketFactory","label":"positionVaultImplementation","offset":0,"slot":"3","type":"t_address"},{"astId":18016,"contract":"contracts/markets/LendefiMarketFactory.sol:LendefiMarketFactory","label":"assetsModuleImplementation","offset":0,"slot":"4","type":"t_address"},{"astId":18019,"contract":"contracts/markets/LendefiMarketFactory.sol:LendefiMarketFactory","label":"porFeedImplementation","offset":0,"slot":"5","type":"t_address"},{"astId":18022,"contract":"contracts/markets/LendefiMarketFactory.sol:LendefiMarketFactory","label":"govToken","offset":0,"slot":"6","type":"t_address"},{"astId":18025,"contract":"contracts/markets/LendefiMarketFactory.sol:LendefiMarketFactory","label":"timelock","offset":0,"slot":"7","type":"t_address"},{"astId":18028,"contract":"contracts/markets/LendefiMarketFactory.sol:LendefiMarketFactory","label":"multisig","offset":0,"slot":"8","type":"t_address"},{"astId":18031,"contract":"contracts/markets/LendefiMarketFactory.sol:LendefiMarketFactory","label":"ecosystem","offset":0,"slot":"9","type":"t_address"},{"astId":18035,"contract":"contracts/markets/LendefiMarketFactory.sol:LendefiMarketFactory","label":"allowedBaseAssets","offset":0,"slot":"10","type":"t_struct(AddressSet)73494_storage"},{"astId":18043,"contract":"contracts/markets/LendefiMarketFactory.sol:LendefiMarketFactory","label":"markets","offset":0,"slot":"12","type":"t_mapping(t_address,t_mapping(t_address,t_struct(Market)10357_storage))"},{"astId":18049,"contract":"contracts/markets/LendefiMarketFactory.sol:LendefiMarketFactory","label":"ownerBaseAssets","offset":0,"slot":"13","type":"t_mapping(t_address,t_struct(AddressSet)73494_storage)"},{"astId":18053,"contract":"contracts/markets/LendefiMarketFactory.sol:LendefiMarketFactory","label":"allMarketOwners","offset":0,"slot":"14","type":"t_array(t_address)dyn_storage"},{"astId":18058,"contract":"contracts/markets/LendefiMarketFactory.sol:LendefiMarketFactory","label":"allMarkets","offset":0,"slot":"15","type":"t_array(t_struct(Market)10357_storage)dyn_storage"},{"astId":18062,"contract":"contracts/markets/LendefiMarketFactory.sol:LendefiMarketFactory","label":"pendingUpgrade","offset":0,"slot":"16","type":"t_struct(UpgradeRequest)18001_storage"},{"astId":18066,"contract":"contracts/markets/LendefiMarketFactory.sol:LendefiMarketFactory","label":"__gap","offset":0,"slot":"17","type":"t_array(t_uint256)14_storage"}],"types":{"t_address":{"encoding":"inplace","label":"address","numberOfBytes":"20"},"t_array(t_address)dyn_storage":{"encoding":"dynamic_array","label":"address[]","numberOfBytes":"32","base":"t_address"},"t_array(t_bytes32)dyn_storage":{"encoding":"dynamic_array","label":"bytes32[]","numberOfBytes":"32","base":"t_bytes32"},"t_array(t_struct(Market)10357_storage)dyn_storage":{"encoding":"dynamic_array","label":"struct IPROTOCOL.Market[]","numberOfBytes":"32","base":"t_struct(Market)10357_storage"},"t_array(t_uint256)14_storage":{"encoding":"inplace","label":"uint256[14]","numberOfBytes":"448","base":"t_uint256"},"t_bool":{"encoding":"inplace","label":"bool","numberOfBytes":"1"},"t_bytes32":{"encoding":"inplace","label":"bytes32","numberOfBytes":"32"},"t_mapping(t_address,t_mapping(t_address,t_struct(Market)10357_storage))":{"encoding":"mapping","key":"t_address","label":"mapping(address => mapping(address => struct IPROTOCOL.Market))","numberOfBytes":"32","value":"t_mapping(t_address,t_struct(Market)10357_storage)"},"t_mapping(t_address,t_struct(AddressSet)73494_storage)":{"encoding":"mapping","key":"t_address","label":"mapping(address => struct EnumerableSet.AddressSet)","numberOfBytes":"32","value":"t_struct(AddressSet)73494_storage"},"t_mapping(t_address,t_struct(Market)10357_storage)":{"encoding":"mapping","key":"t_address","label":"mapping(address => struct IPROTOCOL.Market)","numberOfBytes":"32","value":"t_struct(Market)10357_storage"},"t_mapping(t_bytes32,t_uint256)":{"encoding":"mapping","key":"t_bytes32","label":"mapping(bytes32 => uint256)","numberOfBytes":"32","value":"t_uint256"},"t_string_storage":{"encoding":"bytes","label":"string","numberOfBytes":"32"},"t_struct(AddressSet)73494_storage":{"encoding":"inplace","label":"struct EnumerableSet.AddressSet","numberOfBytes":"64","members":[{"astId":73493,"contract":"contracts/markets/LendefiMarketFactory.sol:LendefiMarketFactory","label":"_inner","offset":0,"slot":"0","type":"t_struct(Set)73123_storage"}]},"t_struct(Market)10357_storage":{"encoding":"inplace","label":"struct IPROTOCOL.Market","numberOfBytes":"320","members":[{"astId":10338,"contract":"contracts/markets/LendefiMarketFactory.sol:LendefiMarketFactory","label":"core","offset":0,"slot":"0","type":"t_address"},{"astId":10340,"contract":"contracts/markets/LendefiMarketFactory.sol:LendefiMarketFactory","label":"baseVault","offset":0,"slot":"1","type":"t_address"},{"astId":10342,"contract":"contracts/markets/LendefiMarketFactory.sol:LendefiMarketFactory","label":"baseAsset","offset":0,"slot":"2","type":"t_address"},{"astId":10344,"contract":"contracts/markets/LendefiMarketFactory.sol:LendefiMarketFactory","label":"assetsModule","offset":0,"slot":"3","type":"t_address"},{"astId":10346,"contract":"contracts/markets/LendefiMarketFactory.sol:LendefiMarketFactory","label":"porFeed","offset":0,"slot":"4","type":"t_address"},{"astId":10348,"contract":"contracts/markets/LendefiMarketFactory.sol:LendefiMarketFactory","label":"decimals","offset":0,"slot":"5","type":"t_uint256"},{"astId":10350,"contract":"contracts/markets/LendefiMarketFactory.sol:LendefiMarketFactory","label":"name","offset":0,"slot":"6","type":"t_string_storage"},{"astId":10352,"contract":"contracts/markets/LendefiMarketFactory.sol:LendefiMarketFactory","label":"symbol","offset":0,"slot":"7","type":"t_string_storage"},{"astId":10354,"contract":"contracts/markets/LendefiMarketFactory.sol:LendefiMarketFactory","label":"createdAt","offset":0,"slot":"8","type":"t_uint256"},{"astId":10356,"contract":"contracts/markets/LendefiMarketFactory.sol:LendefiMarketFactory","label":"active","offset":0,"slot":"9","type":"t_bool"}]},"t_struct(Set)73123_storage":{"encoding":"inplace","label":"struct EnumerableSet.Set","numberOfBytes":"64","members":[{"astId":73118,"contract":"contracts/markets/LendefiMarketFactory.sol:LendefiMarketFactory","label":"_values","offset":0,"slot":"0","type":"t_array(t_bytes32)dyn_storage"},{"astId":73122,"contract":"contracts/markets/LendefiMarketFactory.sol:LendefiMarketFactory","label":"_positions","offset":0,"slot":"1","type":"t_mapping(t_bytes32,t_uint256)"}]},"t_struct(UpgradeRequest)18001_storage":{"encoding":"inplace","label":"struct LendefiMarketFactory.UpgradeRequest","numberOfBytes":"32","members":[{"astId":17996,"contract":"contracts/markets/LendefiMarketFactory.sol:LendefiMarketFactory","label":"implementation","offset":0,"slot":"0","type":"t_address"},{"astId":17998,"contract":"contracts/markets/LendefiMarketFactory.sol:LendefiMarketFactory","label":"scheduledTime","offset":20,"slot":"0","type":"t_uint64"},{"astId":18000,"contract":"contracts/markets/LendefiMarketFactory.sol:LendefiMarketFactory","label":"exists","offset":28,"slot":"0","type":"t_bool"}]},"t_uint256":{"encoding":"inplace","label":"uint256","numberOfBytes":"32"},"t_uint64":{"encoding":"inplace","label":"uint64","numberOfBytes":"8"}}},"id":34}