{"abi":[{"type":"constructor","inputs":[],"stateMutability":"nonpayable"},{"type":"function","name":"DEFAULT_ADMIN_ROLE","inputs":[],"outputs":[{"name":"","type":"bytes32","internalType":"bytes32"}],"stateMutability":"view"},{"type":"function","name":"UPGRADE_INTERFACE_VERSION","inputs":[],"outputs":[{"name":"","type":"string","internalType":"string"}],"stateMutability":"view"},{"type":"function","name":"allowance","inputs":[{"name":"owner","type":"address","internalType":"address"},{"name":"spender","type":"address","internalType":"address"}],"outputs":[{"name":"","type":"uint256","internalType":"uint256"}],"stateMutability":"view"},{"type":"function","name":"approve","inputs":[{"name":"spender","type":"address","internalType":"address"},{"name":"value","type":"uint256","internalType":"uint256"}],"outputs":[{"name":"","type":"bool","internalType":"bool"}],"stateMutability":"nonpayable"},{"type":"function","name":"asset","inputs":[],"outputs":[{"name":"","type":"address","internalType":"address"}],"stateMutability":"view"},{"type":"function","name":"assetsModule","inputs":[],"outputs":[{"name":"","type":"address","internalType":"address"}],"stateMutability":"view"},{"type":"function","name":"balanceOf","inputs":[{"name":"account","type":"address","internalType":"address"}],"outputs":[{"name":"","type":"uint256","internalType":"uint256"}],"stateMutability":"view"},{"type":"function","name":"baseDecimals","inputs":[],"outputs":[{"name":"","type":"uint256","internalType":"uint256"}],"stateMutability":"view"},{"type":"function","name":"boostYield","inputs":[{"name":"user","type":"address","internalType":"address"},{"name":"amount","type":"uint256","internalType":"uint256"}],"outputs":[],"stateMutability":"nonpayable"},{"type":"function","name":"borrow","inputs":[{"name":"amount","type":"uint256","internalType":"uint256"},{"name":"receiver","type":"address","internalType":"address"}],"outputs":[],"stateMutability":"nonpayable"},{"type":"function","name":"borrowerDebt","inputs":[{"name":"","type":"address","internalType":"address"}],"outputs":[{"name":"","type":"uint256","internalType":"uint256"}],"stateMutability":"view"},{"type":"function","name":"checkUpkeep","inputs":[{"name":"","type":"bytes","internalType":"bytes"}],"outputs":[{"name":"upkeepNeeded","type":"bool","internalType":"bool"},{"name":"performData","type":"bytes","internalType":"bytes"}],"stateMutability":"view"},{"type":"function","name":"claimReward","inputs":[],"outputs":[{"name":"finalReward","type":"uint256","internalType":"uint256"}],"stateMutability":"nonpayable"},{"type":"function","name":"convertToAssets","inputs":[{"name":"shares","type":"uint256","internalType":"uint256"}],"outputs":[{"name":"","type":"uint256","internalType":"uint256"}],"stateMutability":"view"},{"type":"function","name":"convertToShares","inputs":[{"name":"assets","type":"uint256","internalType":"uint256"}],"outputs":[{"name":"","type":"uint256","internalType":"uint256"}],"stateMutability":"view"},{"type":"function","name":"counter","inputs":[],"outputs":[{"name":"","type":"uint256","internalType":"uint256"}],"stateMutability":"view"},{"type":"function","name":"decimals","inputs":[],"outputs":[{"name":"","type":"uint8","internalType":"uint8"}],"stateMutability":"view"},{"type":"function","name":"deposit","inputs":[{"name":"amount","type":"uint256","internalType":"uint256"},{"name":"receiver","type":"address","internalType":"address"}],"outputs":[{"name":"","type":"uint256","internalType":"uint256"}],"stateMutability":"nonpayable"},{"type":"function","name":"ecosystem","inputs":[],"outputs":[{"name":"","type":"address","internalType":"address"}],"stateMutability":"view"},{"type":"function","name":"flashLoan","inputs":[{"name":"receiver","type":"address","internalType":"address"},{"name":"amount","type":"uint256","internalType":"uint256"},{"name":"params","type":"bytes","internalType":"bytes"}],"outputs":[],"stateMutability":"nonpayable"},{"type":"function","name":"getBorrowRate","inputs":[{"name":"tier","type":"uint8","internalType":"enum IASSETS.CollateralTier"}],"outputs":[{"name":"","type":"uint256","internalType":"uint256"}],"stateMutability":"view"},{"type":"function","name":"getRoleAdmin","inputs":[{"name":"role","type":"bytes32","internalType":"bytes32"}],"outputs":[{"name":"","type":"bytes32","internalType":"bytes32"}],"stateMutability":"view"},{"type":"function","name":"getSupplyRate","inputs":[],"outputs":[{"name":"","type":"uint256","internalType":"uint256"}],"stateMutability":"view"},{"type":"function","name":"grantRole","inputs":[{"name":"role","type":"bytes32","internalType":"bytes32"},{"name":"account","type":"address","internalType":"address"}],"outputs":[],"stateMutability":"nonpayable"},{"type":"function","name":"hasRole","inputs":[{"name":"role","type":"bytes32","internalType":"bytes32"},{"name":"account","type":"address","internalType":"address"}],"outputs":[{"name":"","type":"bool","internalType":"bool"}],"stateMutability":"view"},{"type":"function","name":"initialize","inputs":[{"name":"_timelock","type":"address","internalType":"address"},{"name":"core","type":"address","internalType":"address"},{"name":"baseAsset","type":"address","internalType":"address"},{"name":"_ecosystem","type":"address","internalType":"address"},{"name":"_assetsModule","type":"address","internalType":"address"},{"name":"name","type":"string","internalType":"string"},{"name":"symbol","type":"string","internalType":"string"}],"outputs":[],"stateMutability":"nonpayable"},{"type":"function","name":"interval","inputs":[],"outputs":[{"name":"","type":"uint256","internalType":"uint256"}],"stateMutability":"view"},{"type":"function","name":"isRewardable","inputs":[{"name":"user","type":"address","internalType":"address"}],"outputs":[{"name":"","type":"bool","internalType":"bool"}],"stateMutability":"view"},{"type":"function","name":"lastTimeStamp","inputs":[],"outputs":[{"name":"","type":"uint256","internalType":"uint256"}],"stateMutability":"view"},{"type":"function","name":"lendefiCore","inputs":[],"outputs":[{"name":"","type":"address","internalType":"address"}],"stateMutability":"view"},{"type":"function","name":"maxDeposit","inputs":[{"name":"","type":"address","internalType":"address"}],"outputs":[{"name":"","type":"uint256","internalType":"uint256"}],"stateMutability":"view"},{"type":"function","name":"maxMint","inputs":[{"name":"","type":"address","internalType":"address"}],"outputs":[{"name":"","type":"uint256","internalType":"uint256"}],"stateMutability":"view"},{"type":"function","name":"maxRedeem","inputs":[{"name":"owner","type":"address","internalType":"address"}],"outputs":[{"name":"","type":"uint256","internalType":"uint256"}],"stateMutability":"view"},{"type":"function","name":"maxWithdraw","inputs":[{"name":"owner","type":"address","internalType":"address"}],"outputs":[{"name":"","type":"uint256","internalType":"uint256"}],"stateMutability":"view"},{"type":"function","name":"mint","inputs":[{"name":"shares","type":"uint256","internalType":"uint256"},{"name":"receiver","type":"address","internalType":"address"}],"outputs":[{"name":"","type":"uint256","internalType":"uint256"}],"stateMutability":"nonpayable"},{"type":"function","name":"name","inputs":[],"outputs":[{"name":"","type":"string","internalType":"string"}],"stateMutability":"view"},{"type":"function","name":"pause","inputs":[],"outputs":[],"stateMutability":"nonpayable"},{"type":"function","name":"paused","inputs":[],"outputs":[{"name":"","type":"bool","internalType":"bool"}],"stateMutability":"view"},{"type":"function","name":"performUpkeep","inputs":[{"name":"","type":"bytes","internalType":"bytes"}],"outputs":[],"stateMutability":"nonpayable"},{"type":"function","name":"porFeed","inputs":[],"outputs":[{"name":"","type":"address","internalType":"address"}],"stateMutability":"view"},{"type":"function","name":"previewDeposit","inputs":[{"name":"assets","type":"uint256","internalType":"uint256"}],"outputs":[{"name":"","type":"uint256","internalType":"uint256"}],"stateMutability":"view"},{"type":"function","name":"previewMint","inputs":[{"name":"shares","type":"uint256","internalType":"uint256"}],"outputs":[{"name":"","type":"uint256","internalType":"uint256"}],"stateMutability":"view"},{"type":"function","name":"previewRedeem","inputs":[{"name":"shares","type":"uint256","internalType":"uint256"}],"outputs":[{"name":"","type":"uint256","internalType":"uint256"}],"stateMutability":"view"},{"type":"function","name":"previewWithdraw","inputs":[{"name":"assets","type":"uint256","internalType":"uint256"}],"outputs":[{"name":"","type":"uint256","internalType":"uint256"}],"stateMutability":"view"},{"type":"function","name":"protocolConfig","inputs":[],"outputs":[{"name":"profitTargetRate","type":"uint256","internalType":"uint256"},{"name":"borrowRate","type":"uint256","internalType":"uint256"},{"name":"rewardAmount","type":"uint256","internalType":"uint256"},{"name":"rewardInterval","type":"uint256","internalType":"uint256"},{"name":"rewardableSupply","type":"uint256","internalType":"uint256"},{"name":"liquidatorThreshold","type":"uint256","internalType":"uint256"},{"name":"flashLoanFee","type":"uint32","internalType":"uint32"}],"stateMutability":"view"},{"type":"function","name":"proxiableUUID","inputs":[],"outputs":[{"name":"","type":"bytes32","internalType":"bytes32"}],"stateMutability":"view"},{"type":"function","name":"redeem","inputs":[{"name":"shares","type":"uint256","internalType":"uint256"},{"name":"receiver","type":"address","internalType":"address"},{"name":"owner","type":"address","internalType":"address"}],"outputs":[{"name":"","type":"uint256","internalType":"uint256"}],"stateMutability":"nonpayable"},{"type":"function","name":"renounceRole","inputs":[{"name":"role","type":"bytes32","internalType":"bytes32"},{"name":"callerConfirmation","type":"address","internalType":"address"}],"outputs":[],"stateMutability":"nonpayable"},{"type":"function","name":"repay","inputs":[{"name":"amount","type":"uint256","internalType":"uint256"},{"name":"sender","type":"address","internalType":"address"}],"outputs":[],"stateMutability":"nonpayable"},{"type":"function","name":"revokeRole","inputs":[{"name":"role","type":"bytes32","internalType":"bytes32"},{"name":"account","type":"address","internalType":"address"}],"outputs":[],"stateMutability":"nonpayable"},{"type":"function","name":"setProtocolConfig","inputs":[{"name":"_config","type":"tuple","internalType":"struct IPROTOCOL.ProtocolConfig","components":[{"name":"profitTargetRate","type":"uint256","internalType":"uint256"},{"name":"borrowRate","type":"uint256","internalType":"uint256"},{"name":"rewardAmount","type":"uint256","internalType":"uint256"},{"name":"rewardInterval","type":"uint256","internalType":"uint256"},{"name":"rewardableSupply","type":"uint256","internalType":"uint256"},{"name":"liquidatorThreshold","type":"uint256","internalType":"uint256"},{"name":"flashLoanFee","type":"uint32","internalType":"uint32"}]}],"outputs":[],"stateMutability":"nonpayable"},{"type":"function","name":"supportsInterface","inputs":[{"name":"interfaceId","type":"bytes4","internalType":"bytes4"}],"outputs":[{"name":"","type":"bool","internalType":"bool"}],"stateMutability":"view"},{"type":"function","name":"symbol","inputs":[],"outputs":[{"name":"","type":"string","internalType":"string"}],"stateMutability":"view"},{"type":"function","name":"timelock","inputs":[],"outputs":[{"name":"","type":"address","internalType":"address"}],"stateMutability":"view"},{"type":"function","name":"totalAccruedInterest","inputs":[],"outputs":[{"name":"","type":"uint256","internalType":"uint256"}],"stateMutability":"view"},{"type":"function","name":"totalAssets","inputs":[],"outputs":[{"name":"","type":"uint256","internalType":"uint256"}],"stateMutability":"view"},{"type":"function","name":"totalBase","inputs":[],"outputs":[{"name":"","type":"uint256","internalType":"uint256"}],"stateMutability":"view"},{"type":"function","name":"totalBorrow","inputs":[],"outputs":[{"name":"","type":"uint256","internalType":"uint256"}],"stateMutability":"view"},{"type":"function","name":"totalSuppliedLiquidity","inputs":[],"outputs":[{"name":"","type":"uint256","internalType":"uint256"}],"stateMutability":"view"},{"type":"function","name":"totalSupply","inputs":[],"outputs":[{"name":"","type":"uint256","internalType":"uint256"}],"stateMutability":"view"},{"type":"function","name":"transfer","inputs":[{"name":"to","type":"address","internalType":"address"},{"name":"value","type":"uint256","internalType":"uint256"}],"outputs":[{"name":"","type":"bool","internalType":"bool"}],"stateMutability":"nonpayable"},{"type":"function","name":"transferFrom","inputs":[{"name":"from","type":"address","internalType":"address"},{"name":"to","type":"address","internalType":"address"},{"name":"value","type":"uint256","internalType":"uint256"}],"outputs":[{"name":"","type":"bool","internalType":"bool"}],"stateMutability":"nonpayable"},{"type":"function","name":"unpause","inputs":[],"outputs":[],"stateMutability":"nonpayable"},{"type":"function","name":"upgradeToAndCall","inputs":[{"name":"newImplementation","type":"address","internalType":"address"},{"name":"data","type":"bytes","internalType":"bytes"}],"outputs":[],"stateMutability":"payable"},{"type":"function","name":"utilization","inputs":[],"outputs":[{"name":"u","type":"uint256","internalType":"uint256"}],"stateMutability":"view"},{"type":"function","name":"version","inputs":[],"outputs":[{"name":"","type":"uint32","internalType":"uint32"}],"stateMutability":"view"},{"type":"function","name":"withdraw","inputs":[{"name":"amount","type":"uint256","internalType":"uint256"},{"name":"receiver","type":"address","internalType":"address"},{"name":"owner","type":"address","internalType":"address"}],"outputs":[{"name":"","type":"uint256","internalType":"uint256"}],"stateMutability":"nonpayable"},{"type":"event","name":"Approval","inputs":[{"name":"owner","type":"address","indexed":true,"internalType":"address"},{"name":"spender","type":"address","indexed":true,"internalType":"address"},{"name":"value","type":"uint256","indexed":false,"internalType":"uint256"}],"anonymous":false},{"type":"event","name":"CollateralizationAlert","inputs":[{"name":"timestamp","type":"uint256","indexed":false,"internalType":"uint256"},{"name":"tvl","type":"uint256","indexed":false,"internalType":"uint256"},{"name":"totalSupply","type":"uint256","indexed":false,"internalType":"uint256"}],"anonymous":false},{"type":"event","name":"Deposit","inputs":[{"name":"sender","type":"address","indexed":true,"internalType":"address"},{"name":"owner","type":"address","indexed":true,"internalType":"address"},{"name":"assets","type":"uint256","indexed":false,"internalType":"uint256"},{"name":"shares","type":"uint256","indexed":false,"internalType":"uint256"}],"anonymous":false},{"type":"event","name":"Exchange","inputs":[{"name":"user","type":"address","indexed":true,"internalType":"address"},{"name":"shares","type":"uint256","indexed":false,"internalType":"uint256"},{"name":"amount","type":"uint256","indexed":false,"internalType":"uint256"}],"anonymous":false},{"type":"event","name":"FlashLoan","inputs":[{"name":"user","type":"address","indexed":true,"internalType":"address"},{"name":"receiver","type":"address","indexed":true,"internalType":"address"},{"name":"asset","type":"address","indexed":true,"internalType":"address"},{"name":"amount","type":"uint256","indexed":false,"internalType":"uint256"},{"name":"fee","type":"uint256","indexed":false,"internalType":"uint256"}],"anonymous":false},{"type":"event","name":"Initialized","inputs":[{"name":"admin","type":"address","indexed":true,"internalType":"address"}],"anonymous":false},{"type":"event","name":"Initialized","inputs":[{"name":"version","type":"uint64","indexed":false,"internalType":"uint64"}],"anonymous":false},{"type":"event","name":"Paused","inputs":[{"name":"account","type":"address","indexed":false,"internalType":"address"}],"anonymous":false},{"type":"event","name":"ProtocolConfigUpdated","inputs":[{"name":"config","type":"tuple","indexed":false,"internalType":"struct IPROTOCOL.ProtocolConfig","components":[{"name":"profitTargetRate","type":"uint256","internalType":"uint256"},{"name":"borrowRate","type":"uint256","internalType":"uint256"},{"name":"rewardAmount","type":"uint256","internalType":"uint256"},{"name":"rewardInterval","type":"uint256","internalType":"uint256"},{"name":"rewardableSupply","type":"uint256","internalType":"uint256"},{"name":"liquidatorThreshold","type":"uint256","internalType":"uint256"},{"name":"flashLoanFee","type":"uint32","internalType":"uint32"}]}],"anonymous":false},{"type":"event","name":"ProtocolFeesCollected","inputs":[{"name":"recipient","type":"address","indexed":true,"internalType":"address"},{"name":"feeShares","type":"uint256","indexed":false,"internalType":"uint256"}],"anonymous":false},{"type":"event","name":"Reward","inputs":[{"name":"user","type":"address","indexed":true,"internalType":"address"},{"name":"amount","type":"uint256","indexed":false,"internalType":"uint256"}],"anonymous":false},{"type":"event","name":"RoleAdminChanged","inputs":[{"name":"role","type":"bytes32","indexed":true,"internalType":"bytes32"},{"name":"previousAdminRole","type":"bytes32","indexed":true,"internalType":"bytes32"},{"name":"newAdminRole","type":"bytes32","indexed":true,"internalType":"bytes32"}],"anonymous":false},{"type":"event","name":"RoleGranted","inputs":[{"name":"role","type":"bytes32","indexed":true,"internalType":"bytes32"},{"name":"account","type":"address","indexed":true,"internalType":"address"},{"name":"sender","type":"address","indexed":true,"internalType":"address"}],"anonymous":false},{"type":"event","name":"RoleRevoked","inputs":[{"name":"role","type":"bytes32","indexed":true,"internalType":"bytes32"},{"name":"account","type":"address","indexed":true,"internalType":"address"},{"name":"sender","type":"address","indexed":true,"internalType":"address"}],"anonymous":false},{"type":"event","name":"SupplyLiquidity","inputs":[{"name":"user","type":"address","indexed":true,"internalType":"address"},{"name":"amount","type":"uint256","indexed":false,"internalType":"uint256"}],"anonymous":false},{"type":"event","name":"Transfer","inputs":[{"name":"from","type":"address","indexed":true,"internalType":"address"},{"name":"to","type":"address","indexed":true,"internalType":"address"},{"name":"value","type":"uint256","indexed":false,"internalType":"uint256"}],"anonymous":false},{"type":"event","name":"Unpaused","inputs":[{"name":"account","type":"address","indexed":false,"internalType":"address"}],"anonymous":false},{"type":"event","name":"Upgraded","inputs":[{"name":"implementation","type":"address","indexed":true,"internalType":"address"}],"anonymous":false},{"type":"event","name":"Withdraw","inputs":[{"name":"sender","type":"address","indexed":true,"internalType":"address"},{"name":"receiver","type":"address","indexed":true,"internalType":"address"},{"name":"owner","type":"address","indexed":true,"internalType":"address"},{"name":"assets","type":"uint256","indexed":false,"internalType":"uint256"},{"name":"shares","type":"uint256","indexed":false,"internalType":"uint256"}],"anonymous":false},{"type":"event","name":"YieldBoosted","inputs":[{"name":"user","type":"address","indexed":true,"internalType":"address"},{"name":"amount","type":"uint256","indexed":false,"internalType":"uint256"}],"anonymous":false},{"type":"error","name":"AccessControlBadConfirmation","inputs":[]},{"type":"error","name":"AccessControlUnauthorizedAccount","inputs":[{"name":"account","type":"address","internalType":"address"},{"name":"neededRole","type":"bytes32","internalType":"bytes32"}]},{"type":"error","name":"AddressEmptyCode","inputs":[{"name":"target","type":"address","internalType":"address"}]},{"type":"error","name":"ERC1967InvalidImplementation","inputs":[{"name":"implementation","type":"address","internalType":"address"}]},{"type":"error","name":"ERC1967NonPayable","inputs":[]},{"type":"error","name":"ERC20InsufficientAllowance","inputs":[{"name":"spender","type":"address","internalType":"address"},{"name":"allowance","type":"uint256","internalType":"uint256"},{"name":"needed","type":"uint256","internalType":"uint256"}]},{"type":"error","name":"ERC20InsufficientBalance","inputs":[{"name":"sender","type":"address","internalType":"address"},{"name":"balance","type":"uint256","internalType":"uint256"},{"name":"needed","type":"uint256","internalType":"uint256"}]},{"type":"error","name":"ERC20InvalidApprover","inputs":[{"name":"approver","type":"address","internalType":"address"}]},{"type":"error","name":"ERC20InvalidReceiver","inputs":[{"name":"receiver","type":"address","internalType":"address"}]},{"type":"error","name":"ERC20InvalidSender","inputs":[{"name":"sender","type":"address","internalType":"address"}]},{"type":"error","name":"ERC20InvalidSpender","inputs":[{"name":"spender","type":"address","internalType":"address"}]},{"type":"error","name":"ERC4626ExceededMaxDeposit","inputs":[{"name":"receiver","type":"address","internalType":"address"},{"name":"assets","type":"uint256","internalType":"uint256"},{"name":"max","type":"uint256","internalType":"uint256"}]},{"type":"error","name":"ERC4626ExceededMaxMint","inputs":[{"name":"receiver","type":"address","internalType":"address"},{"name":"shares","type":"uint256","internalType":"uint256"},{"name":"max","type":"uint256","internalType":"uint256"}]},{"type":"error","name":"ERC4626ExceededMaxRedeem","inputs":[{"name":"owner","type":"address","internalType":"address"},{"name":"shares","type":"uint256","internalType":"uint256"},{"name":"max","type":"uint256","internalType":"uint256"}]},{"type":"error","name":"ERC4626ExceededMaxWithdraw","inputs":[{"name":"owner","type":"address","internalType":"address"},{"name":"assets","type":"uint256","internalType":"uint256"},{"name":"max","type":"uint256","internalType":"uint256"}]},{"type":"error","name":"EnforcedPause","inputs":[]},{"type":"error","name":"ExpectedPause","inputs":[]},{"type":"error","name":"FailedCall","inputs":[]},{"type":"error","name":"FlashLoanFailed","inputs":[]},{"type":"error","name":"InvalidFee","inputs":[]},{"type":"error","name":"InvalidInitialization","inputs":[]},{"type":"error","name":"LowLiquidity","inputs":[]},{"type":"error","name":"MEVSameBlockOperation","inputs":[]},{"type":"error","name":"NotInitializing","inputs":[]},{"type":"error","name":"ReentrancyGuardReentrantCall","inputs":[]},{"type":"error","name":"RepaymentFailed","inputs":[]},{"type":"error","name":"SafeERC20FailedOperation","inputs":[{"name":"token","type":"address","internalType":"address"}]},{"type":"error","name":"UUPSUnauthorizedCallContext","inputs":[]},{"type":"error","name":"UUPSUnsupportedProxiableUUID","inputs":[{"name":"slot","type":"bytes32","internalType":"bytes32"}]},{"type":"error","name":"ZeroAddress","inputs":[]},{"type":"error","name":"ZeroAmount","inputs":[]}],"bytecode":{"object":"0x60a06040523060805234801562000014575f80fd5b506200001f62000025565b620000d9565b7ff0c57e16840df040f15088dc2f81fe391c3923bec73e23a9662efc9c229c6a00805468010000000000000000900460ff1615620000765760405163f92ee8a960e01b815260040160405180910390fd5b80546001600160401b0390811614620000d65780546001600160401b0319166001600160401b0390811782556040519081527fc7f505b2f371ae2175ee4913f4499e1f2633a7b5936321eed1cdaeb6115181d29060200160405180910390a15b50565b608051614e94620001005f395f818161273d0152818161276601526128e30152614e945ff3fe6080604052600436106102f3575f3560e01c806301e1d114146102f757806301ffc9a71461031a57806306fdde031461034957806307a2d13a1461036a578063095ea7b3146103895780630a28a477146103a85780630ac40e96146103c75780631564efda146103e657806318160ddd146103fb57806323b872dd1461040f578063248a9ca31461042e5780632f2ff15d1461044d578063313ce5671461046e57806333f761781461049457806336568abe146104a857806338d52e0f146104c75780633add60ab146104e85780633f3b3b27146105135780633f4ba83a14610528578063402d267d1461053c5780634585e33b1461055b5780634b3fd1481461057a5780634cdad5061461036a5780634de4533a146105995780634f1ef286146105b857806352d1902d146105cb57806354fd4d50146105df57806356c704b814610610578063571f09101461062f5780635c975abb1461064e57806361bc221a146106625780636e04ff0d146106775780636e553f65146106a457806370a08231146106c35780637ad62cb1146106e25780638285ef40146106f75780638456cb591461070c57806384bdc9a8146107205780638a1a1f951461073457806391d1485414610753578063947a36fb1461077257806394bf804d1461078757806395d89b41146107a65780639c74a579146107ba578063a217fddf146107d9578063a86c5e67146107ec578063a9059cbb14610812578063acb7081514610831578063ad3cb1cc14610850578063b3d7f6b914610880578063b460af941461089f578063b6445e13146108be578063b88a802f146108d3578063ba087652146108e7578063c63d75b61461053c578063c6e6f59214610906578063ce96cb7714610925578063d33219b414610944578063d547741f14610963578063d905777e14610982578063dd62ed3e146109a1578063e0232b42146109c0578063ea21cd92146109df578063ef8b30f714610906578063f0859163146109f3578063f251f45f14610a12578063f5efbb4f14610a31575b5f80fd5b348015610302575f80fd5b506003545b6040519081526020015b60405180910390f35b348015610325575f80fd5b506103396103343660046135de565b610aa0565b6040519015158152602001610311565b348015610354575f80fd5b5061035d610ad6565b6040516103119190613652565b348015610375575f80fd5b50610307610384366004613664565b610b74565b348015610394575f80fd5b506103396103a3366004613696565b610b7f565b3480156103b3575f80fd5b506103076103c2366004613664565b610b96565b3480156103d2575f80fd5b506103076103e13660046136be565b610ba2565b3480156103f1575f80fd5b5061030760025481565b348015610406575f80fd5b50610307610c30565b34801561041a575f80fd5b506103396104293660046136dc565b610c44565b348015610439575f80fd5b50610307610448366004613664565b610c69565b348015610458575f80fd5b5061046c610467366004613715565b610c87565b005b348015610479575f80fd5b50610482610ca9565b60405160ff9091168152602001610311565b34801561049f575f80fd5b506103075f5481565b3480156104b3575f80fd5b5061046c6104c2366004613715565b610cd2565b3480156104d2575f80fd5b506104db610d0a565b604051610311919061373f565b3480156104f3575f80fd5b50610307610502366004613753565b60146020525f908152604090205481565b34801561051e575f80fd5b5061030760075481565b348015610533575f80fd5b5061046c610d24565b348015610547575f80fd5b50610307610556366004613753565b610d46565b348015610566575f80fd5b5061046c6105753660046137b0565b610d4c565b348015610585575f80fd5b5061046c610594366004613715565b610e9b565b3480156105a4575f80fd5b5061046c6105b33660046137ee565b610f5a565b61046c6105c636600461388a565b610fbc565b3480156105d6575f80fd5b50610307610fd7565b3480156105ea575f80fd5b506008546105fb9063ffffffff1681565b60405163ffffffff9091168152602001610311565b34801561061b575f80fd5b50600b546104db906001600160a01b031681565b34801561063a575f80fd5b5061046c610649366004613905565b610ff3565b348015610659575f80fd5b50610339611494565b34801561066d575f80fd5b5061030760055481565b348015610682575f80fd5b506106966106913660046137b0565b6114a8565b6040516103119291906139b4565b3480156106af575f80fd5b506103076106be366004613715565b6114e5565b3480156106ce575f80fd5b506103076106dd366004613753565b6115e1565b3480156106ed575f80fd5b5061030760015481565b348015610702575f80fd5b5061030760045481565b348015610717575f80fd5b5061046c61160a565b34801561072b575f80fd5b50610307611629565b34801561073f575f80fd5b5061046c61074e366004613696565b611673565b34801561075e575f80fd5b5061033961076d366004613715565b611725565b34801561077d575f80fd5b5061030760065481565b348015610792575f80fd5b506103076107a1366004613715565b611759565b3480156107b1575f80fd5b5061035d61183b565b3480156107c5575f80fd5b50600a546104db906001600160a01b031681565b3480156107e4575f80fd5b506103075f81565b3480156107f7575f80fd5b506008546104db90600160201b90046001600160a01b031681565b34801561081d575f80fd5b5061033961082c366004613696565b611857565b34801561083c575f80fd5b5061046c61084b366004613715565b611864565b34801561085b575f80fd5b5061035d604051806040016040528060058152602001640352e302e360dc1b81525081565b34801561088b575f80fd5b5061030761089a366004613664565b61195b565b3480156108aa575f80fd5b506103076108b93660046139ce565b611967565b3480156108c9575f80fd5b5061030760035481565b3480156108de575f80fd5b50610307611b16565b3480156108f2575f80fd5b506103076109013660046139ce565b611d13565b348015610911575f80fd5b50610307610920366004613664565b611e45565b348015610930575f80fd5b5061030761093f366004613753565b611e50565b34801561094f575f80fd5b50600c546104db906001600160a01b031681565b34801561096e575f80fd5b5061046c61097d366004613715565b611e63565b34801561098d575f80fd5b5061030761099c366004613753565b611e7f565b3480156109ac575f80fd5b506103076109bb366004613a07565b611e89565b3480156109cb575f80fd5b5061046c6109da366004613a2f565b611ec3565b3480156109ea575f80fd5b506103076121ac565b3480156109fe575f80fd5b506009546104db906001600160a01b031681565b348015610a1d575f80fd5b50610339610a2c366004613753565b6121e4565b348015610a3c575f80fd5b50600d54600e54600f54601054601154601254601354610a659695949392919063ffffffff1687565b604080519788526020880196909652948601939093526060850191909152608084015260a083015263ffffffff1660c082015260e001610311565b5f6001600160e01b03198216637965db0b60e01b1480610ad057506301ffc9a760e01b6001600160e01b03198316145b92915050565b60605f610ae161229b565b9050806003018054610af290613a84565b80601f0160208091040260200160405190810160405280929190818152602001828054610b1e90613a84565b8015610b695780601f10610b4057610100808354040283529160200191610b69565b820191905f5260205f20905b815481529060010190602001808311610b4c57829003601f168201915b505050505091505090565b5f610ad0825f6122bf565b5f33610b8c818585612313565b5060019392505050565b5f610ad0826001612320565b5f610ad0610bae6121ac565b600e54600d54610bbc611629565b600b546040516324959e4360e01b81526001600160a01b03909116906324959e4390610bec908a90600401613aca565b602060405180830381865afa158015610c07573d5f803e3d5ffd5b505050506040513d601f19601f82011682018060405250810190610c2b9190613af0565b612368565b5f80610c3a61229b565b6002015492915050565b5f33610c51858285612400565b610c5c858585612454565b60019150505b9392505050565b5f80610c736124b1565b5f9384526020525050604090206001015490565b610c9082610c69565b610c99816124d5565b610ca383836124df565b50505050565b5f80610cb361257d565b90505f8154610ccc9190600160a01b900460ff16613b1b565b91505090565b6001600160a01b0381163314610cfb5760405163334bd91960e11b815260040160405180910390fd5b610d0582826125a1565b505050565b5f80610d1461257d565b546001600160a01b031692915050565b5f80516020614e3f833981519152610d3b816124d5565b610d43612617565b50565b505f1990565b600654600754610d5c9042613b34565b1115610e975742600755600554610d74906001613b47565b600555600954604080516324f1942760e11b815281515f9384936001600160a01b03909116926349e3284e92600480830193928290030181865afa158015610dbe573d5f803e3d5ffd5b505050506040513d601f19601f82011682018060405250810190610de29190613b69565b6008546040516318a491c960e11b815260048101839052929450909250600160201b90046001600160a01b0316906331492392906024015f604051808303815f87803b158015610e30575f80fd5b505af1158015610e42573d5f803e3d5ffd5b5050505081610ca3577f2015fab69098ecaaa09d2400ca97a10479fe724d223d7f270db0b532d6a30dea4282610e76610c30565b6040805193845260208401929092529082015260600160405180910390a150505b5050565b5f80516020614e1f833981519152610eb2816124d5565b610eba61266d565b610ec2612695565b60015483600454610ed39190613b47565b1115610ef2576040516343c7ad8160e11b815260040160405180910390fd5b8260045f828254610f039190613b47565b90915550506001600160a01b0382165f9081526014602052604081208054859290610f2f908490613b47565b90915550610f5290508284610f42610d0a565b6001600160a01b031691906126ca565b610d05612722565b5f80516020614e1f833981519152610f71816124d5565b81600d610f7e8282613ba4565b9050507fe2ae60967e053b5710b791d8fd7abaf142f95a5d70e18a139d70fab91ab0233f82604051610fb09190613c05565b60405180910390a15050565b610fc4612732565b610fcd826127d6565b610e978282612825565b5f610fe06128d8565b505f80516020614ddf8339815191525b90565b5f610ffc612921565b805490915060ff600160401b82041615906001600160401b03165f811580156110225750825b90505f826001600160401b0316600114801561103d5750303b155b90508115801561104b575080155b156110695760405163f92ee8a960e01b815260040160405180910390fd5b84546001600160401b0319166001178555831561109257845460ff60401b1916600160401b1785555b6001600160a01b038a166110b95760405163d92e233d60e01b815260040160405180910390fd5b6001600160a01b038c166110e05760405163d92e233d60e01b815260040160405180910390fd5b6001600160a01b038b166111075760405163d92e233d60e01b815260040160405180910390fd5b6001600160a01b03891661112e5760405163d92e233d60e01b815260040160405180910390fd5b6001600160a01b0388166111555760405163d92e233d60e01b815260040160405180910390fd5b896001600160a01b031663313ce5676040518163ffffffff1660e01b8152600401602060405180830381865afa158015611191573d5f803e3d5ffd5b505050506040513d601f19601f820116820180604052508101906111b59190613c63565b6111c090600a613d63565b5f55600980546001600160a01b03808e166001600160a01b031992831617909255600a80548c8416908316179055600b80548b8416908316179055600c8054928f16929091169190911790556008805463ffffffff1916600117905561a8c060065542600755604051611232906135d1565b604051809103905ff08015801561124b573d5f803e3d5ffd5b5060088054600160201b600160c01b031916600160201b6001600160a01b039384168102919091179182905560405163c0c53b8b60e01b81528d841660048201523060248201528f8416604482015291049091169063c0c53b8b906064015f604051808303815f87803b1580156112c0575f80fd5b505af11580156112d2573d5f803e3d5ffd5b505050508a6001600160a01b031663c3f909d46040518163ffffffff1660e01b815260040160e060405180830381865afa158015611312573d5f803e3d5ffd5b505050506040513d601f19601f820116820180604052508101906113369190613d71565b8051600d556020810151600e556040810151600f556060810151601055608081015160115560a081015160125560c001516013805463ffffffff191663ffffffff9092169190911790556113898a612949565b611393878761295a565b61139b61296c565b6113a3612974565b6113ab61296c565b6113b55f8d6124df565b506113cd5f80516020614e3f8339815191528d6124df565b506113e55f80516020614e1f8339815191528c6124df565b506113fd5f80516020614dbf8339815191528d6124df565b506114155f80516020614dff8339815191528d6124df565b5060405133907f908408e307fc569b417f6cbec5d5a06f44a0a505ac0479b47d421a4b2fd6a1e6905f90a2831561148657845460ff60401b19168555604051600181527fc7f505b2f371ae2175ee4913f4499e1f2633a7b5936321eed1cdaeb6115181d29060200160405180910390a15b505050505050505050505050565b5f8061149e612984565b5460ff1692915050565b5f6060600654600754426114bc9190613b34565b119150604051806040016040528060048152602001630307830360e41b81525090509250929050565b5f82805f0361150757604051631f2a200560e01b815260040160405180910390fd5b826001600160a01b03811661152f5760405163d92e233d60e01b815260040160405180910390fd5b61153761266d565b61153f612695565b6001600160a01b0384165f908152601560205260409020544380821061157857604051630d8e872960e31b815260040160405180910390fd5b6001600160a01b0386165f90815260156020526040812082905561159c88886129a8565b90508760035f8282546115af9190613b47565b925050819055508760015f8282546115c79190613b47565b909155509095505050506115d9612722565b505092915050565b5f806115eb61229b565b6001600160a01b039093165f9081526020939093525050604090205490565b5f80516020614e3f833981519152611621816124d5565b610d436129fc565b5f80611633610c30565b9050805f03611643575f91505090565b5f61164e5f54610b74565b90505f5481111561166a575f546116659082613b34565b61166c565b5f5b9250505090565b5f80516020614dff83398151915261168a816124d5565b61169261266d565b61169a612695565b8160035f8282546116ab9190613b47565b925050819055508160025f8282546116c39190613b47565b90915550506040518281526001600160a01b038416907f0271558059bfceecf8a6bf0e824fe8584d388bb71c5378783c0da993a6f9ad909060200160405180910390a2610f52333084611714610d0a565b6001600160a01b0316929190612a42565b5f8061172f6124b1565b5f948552602090815260408086206001600160a01b03959095168652939052505090205460ff1690565b5f82805f0361177b57604051631f2a200560e01b815260040160405180910390fd5b826001600160a01b0381166117a35760405163d92e233d60e01b815260040160405180910390fd5b6117ab61266d565b6117b3612695565b6001600160a01b0384165f90815260156020526040902054438082106117ec57604051630d8e872960e31b815260040160405180910390fd5b6001600160a01b0386165f9081526015602052604081208290556118108888612a7b565b90508060035f8282546118239190613b47565b925050819055508060015f8282546115c79190613b47565b60605f61184661229b565b9050806004018054610af290613a84565b5f33610b8c818585612454565b5f80516020614e1f83398151915261187b816124d5565b61188361266d565b61188b612695565b6001600160a01b0382165f90815260146020526040812054908185116118b157846118b3565b815b90505f8286116118c3575f6118cd565b6118cd8387613b34565b90508160045f8282546118e09190613b34565b90915550506001600160a01b0385165f908152601460205260408120805484929061190c908490613b34565b925050819055508060025f8282546119249190613b47565b925050819055508060035f82825461193c9190613b47565b909155506119509050333088611714610d0a565b505050610d05612722565b5f610ad08260016122bf565b5f826001600160a01b0381166119905760405163d92e233d60e01b815260040160405180910390fd5b826001600160a01b0381166119b85760405163d92e233d60e01b815260040160405180910390fd5b85805f036119d957604051631f2a200560e01b815260040160405180910390fd5b6119e161266d565b6119e9612695565b6001600160a01b0385165f9081526015602052604090205443808210611a2257604051630d8e872960e31b815260040160405180910390fd5b6001600160a01b0387165f908152601560205260408120829055611a44612ac7565b90505f611a4f610c30565b90505f611a5d8c8c8c612b21565b90505f611a6e82600154855f612b6e565b90508c60035f828254611a819190613b34565b925050819055508060015f828254611a999190613b34565b90915550508315611afd57600c54611aba906001600160a01b031685612bb0565b600c546040518581526001600160a01b03909116907fd72df92d2a1deb61bf4978dfd140c21dcb0a449bd22cb16af2cd7a853d2505269060200160405180910390a25b50975050505050611b0c612722565b5050509392505050565b5f611b1f612695565b611b2761266d565b611b30336121e4565b15611d0b57600954604080516330fe427560e21b815290515f926001600160a01b03169163c3f909d49160048083019260e09291908290030181865afa158015611b7c573d5f803e3d5ffd5b505050506040513d601f19601f82011682018060405250810190611ba09190613d71565b600a54335f908152601560205260408120549293506001600160a01b0390911691904390611bce8383613b34565b90505f611be586604001518388606001515f612b6e565b90505f856001600160a01b03166366a78e6c6040518163ffffffff1660e01b8152600401602060405180830381865afa158015611c24573d5f803e3d5ffd5b505050506040513d601f19601f82011682018060405250810190611c489190613af0565b9050808211611c575781611c59565b805b335f818152601560205260409081902087905551919950907f619caafabdd75649b302ba8419e48cccf64f37f1983ac4727cfb38b57703ffc990611ca0908b815260200190565b60405180910390a26040516310b3879160e11b81526001600160a01b038716906321670f2290611cd69033908c90600401613df8565b5f604051808303815f87803b158015611ced575f80fd5b505af1158015611cff573d5f803e3d5ffd5b50505050505050505050505b610ff0612722565b5f83805f03611d3557604051631f2a200560e01b815260040160405180910390fd5b836001600160a01b038116611d5d5760405163d92e233d60e01b815260040160405180910390fd5b836001600160a01b038116611d855760405163d92e233d60e01b815260040160405180910390fd5b611d8d61266d565b611d95612695565b6001600160a01b0385165f9081526015602052604090205443808210611dce57604051630d8e872960e31b815260040160405180910390fd5b6001600160a01b0387165f908152601560205260408120829055611df0612ac7565b90505f611dfb610c30565b90505f611e098c8c8c612be4565b90508060035f828254611e1c9190613b34565b925050819055505f611e326001548e855f612b6e565b90508060015f828254611a999190613b34565b5f610ad0825f612320565b5f610ad0611e5d836115e1565b5f6122bf565b611e6c82610c69565b611e75816124d5565b610ca383836125a1565b5f610ad0826115e1565b5f80611e9361229b565b6001600160a01b039485165f90815260019190910160209081526040808320959096168252939093525050205490565b82805f03611ee457604051631f2a200560e01b815260040160405180910390fd5b846001600160a01b038116611f0c5760405163d92e233d60e01b815260040160405180910390fd5b611f14612695565b611f1c61266d565b5f611f25610d0a565b6040516370a0823160e01b815290915081905f906001600160a01b038316906370a0823190611f5890309060040161373f565b602060405180830381865afa158015611f73573d5f803e3d5ffd5b505050506040513d601f19601f82011682018060405250810190611f979190613af0565b905080881115611fba576040516343c7ad8160e11b815260040160405180910390fd5b6013545f90611fd4908a9063ffffffff1661271084612b6e565b90505f611fe18284613b47565b90508160035f828254611ff49190613b47565b9091555061200e90506001600160a01b0385168c8c6126ca565b5f8b6001600160a01b0316631b11d0ff878d86338f8f6040518763ffffffff1660e01b815260040161204596959493929190613e11565b6020604051808303815f875af1158015612061573d5f803e3d5ffd5b505050506040513d601f19601f820116820180604052508101906120859190613e6b565b9050806120a5576040516349088f5960e11b815260040160405180910390fd5b6040516370a0823160e01b81525f906001600160a01b038716906370a08231906120d390309060040161373f565b602060405180830381865afa1580156120ee573d5f803e3d5ffd5b505050506040513d601f19601f820116820180604052508101906121129190613af0565b90508281101561213557604051630505530760e31b815260040160405180910390fd5b866001600160a01b03168d6001600160a01b0316336001600160a01b03167f3659d15bd4bb92ab352a8d35bc3119ec6e7e0ab48e4d46201c8a28e02b6a8a868f8860405161218d929190918252602082015260400190565b60405180910390a4505050505050506121a4612722565b505050505050565b6001546004545f91908115806121c0575080155b6121d9576121d15f5482845f612b6e565b9250826121de565b5f9250825b50505090565b6001600160a01b0381165f9081526015602052604081205480820361220b57505f92915050565b6040805160e081018252600d548152600e546020820152600f549181018290526010546060820152601154608082015260125460a082015260135463ffffffff1660c0820152905f0361226157505f9392505050565b5f61226e610384866115e1565b60608301519091506122808443613b34565b10158015612292575081608001518110155b95945050505050565b7f52c63247e1f47db19d5ce0460030c497f067ca4cebf71ba98eeadabe20bace0090565b5f806122c9610c30565b90505f6122d4612ac7565b6122de9083613b47565b9050612292856122ed60035490565b6122f8906001613b47565b6123035f600a613d63565b61230d9085613b47565b87612b6e565b610d058383836001612c31565b5f8061232a610c30565b90505f612335612ac7565b61233f9083613b47565b9050612292856123505f600a613d63565b61235a9084613b47565b60035461230d906001613b47565b5f855f03612377575083612292565b6301e13380620f42405f61238d828a8184612b6e565b90505f61239987612d12565b90505f6123a7848387612d69565b90505f6123b48483612d88565b90505f6123c18b83613b47565b90505f8c82116123d1578c6123d3565b815b90506123e48a8f620f42405f612b6e565b6123ee9082613b47565b9e9d5050505050505050505050505050565b5f61240b8484611e89565b90505f19811015610ca3578181101561244657828183604051637dc7a0d960e11b815260040161243d93929190613e84565b60405180910390fd5b610ca384848484035f612c31565b6001600160a01b03831661247d575f604051634b637e8f60e11b815260040161243d919061373f565b6001600160a01b0382166124a6575f60405163ec442f0560e01b815260040161243d919061373f565b610d05838383612dac565b7f02dd7bc7dec4dceedda775e58dd541e08a116c6c53815c0bd028192f7b62680090565b610d438133612ecf565b5f806124e96124b1565b90506124f58484611725565b612574575f848152602082815260408083206001600160a01b03871684529091529020805460ff1916600117905561252a3390565b6001600160a01b0316836001600160a01b0316857f2f8788117e7eff1d82e926ec794901d17c78024a50270940304540a733656f0d60405160405180910390a46001915050610ad0565b5f915050610ad0565b7f0773e532dfede91f04b12a73d3d2acd361424f41f76b4fb79f090161e36b4e0090565b5f806125ab6124b1565b90506125b78484611725565b15612574575f848152602082815260408083206001600160a01b0387168085529252808320805460ff1916905551339287917ff6391f5c32d9c69d2a47ea670b442974b53935d1edc7fd64eb21e047a839171b9190a46001915050610ad0565b61261f612efa565b5f612628612984565b805460ff1916815590507f5db9ee0a495bf2e6ff9c91a7834c1ba4fdd244a5e8aa4e537bd38aeae4b073aa335b604051612662919061373f565b60405180910390a150565b612675611494565b156126935760405163d93c066560e01b815260040160405180910390fd5b565b5f61269e612f1f565b8054909150600119016126c457604051633ee5aeb560e01b815260040160405180910390fd5b60029055565b610d0583846001600160a01b031663a9059cbb85856040516024016126f0929190613df8565b604051602081830303815290604052915060e01b6020820180516001600160e01b038381831617835250505050612f43565b5f61272b612f1f565b6001905550565b306001600160a01b037f00000000000000000000000000000000000000000000000000000000000000001614806127b857507f00000000000000000000000000000000000000000000000000000000000000006001600160a01b03166127ac5f80516020614ddf833981519152546001600160a01b031690565b6001600160a01b031614155b156126935760405163703e46dd60e11b815260040160405180910390fd5b5f80516020614dbf8339815191526127ed816124d5565b6008805463ffffffff16905f61280283613ea5565b91906101000a81548163ffffffff021916908363ffffffff160217905550505050565b816001600160a01b03166352d1902d6040518163ffffffff1660e01b8152600401602060405180830381865afa92505050801561287f575060408051601f3d908101601f1916820190925261287c91810190613af0565b60015b61289e5781604051634c9c8ce360e01b815260040161243d919061373f565b5f80516020614ddf83398151915281146128ce57604051632a87526960e21b81526004810182905260240161243d565b610d058383612fa6565b306001600160a01b037f000000000000000000000000000000000000000000000000000000000000000016146126935760405163703e46dd60e11b815260040160405180910390fd5b5f807ff0c57e16840df040f15088dc2f81fe391c3923bec73e23a9662efc9c229c6a00610ad0565b612951612ffb565b610d4381613020565b612962612ffb565b610e97828261308d565b612693612ffb565b61297c612ffb565b6126936130bd565b7fcd5ed15c6e187e77e9aee88184c21f4f2182ab5827cb3b7e07fbedcd63f0330090565b5f806129b383610d46565b9050808411156129dc57828482604051633c8097d960e11b815260040161243d93929190613e84565b5f6129e685611e45565b90506129f4338587846130c5565b949350505050565b612a0461266d565b5f612a0d612984565b805460ff1916600117815590507f62e78cea01bee320cd4e420270b5ea74000d11b0c9f74754ebdbfc544b05a2586126553390565b6040516001600160a01b038481166024830152838116604483015260648201839052610ca39186918216906323b872dd906084016126f0565b5f80612a8683610d46565b905080841115612aaf5782848260405163284ff66760e01b815260040161243d93929190613e84565b5f612ab98561195b565b90506129f4338583886130c5565b5f80612ad1610c30565b9050805f03612ae1575f91505090565b5f60035490505f612afb600154600d5f01545f545f612b6e565b905080600154612b0b9190613b47565b8210612b18579392505050565b5f935050505090565b5f80612b2c83611e50565b905080851115612b5557828582604051633fa733bb60e21b815260040161243d93929190613e84565b5f612b5f86610b96565b90506122923386868985613130565b5f612b9b612b7b836131d7565b8015612b9657505f8480612b9157612b91613ec7565b868809115b151590565b612ba6868686613203565b6122929190613b47565b6001600160a01b038216612bd9575f60405163ec442f0560e01b815260040161243d919061373f565b610e975f8383612dac565b5f80612bef83611e7f565b905080851115612c1857828582604051632e52afbb60e21b815260040161243d93929190613e84565b5f612c2286610b74565b9050612292338686848a613130565b5f612c3a61229b565b90506001600160a01b038516612c65575f60405163e602df0560e01b815260040161243d919061373f565b6001600160a01b038416612c8e575f604051634a1406b160e11b815260040161243d919061373f565b6001600160a01b038086165f90815260018301602090815260408083209388168352929052208390558115612d0b57836001600160a01b0316856001600160a01b03167f8c5be1e5ebec7d5bd14f71427d1e84f3dd0314c0f7b2291e5b200ac8c7c3b92585604051612d0291815260200190565b60405180910390a35b5050505050565b5f80612d2e83676765c793fa10079d601b1b620f42405f612b6e565b9050612d5481676765c793fa10079d601b1b612d4e816301e13380613edb565b5f612b6e565b610c6290676765c793fa10079d601b1b613b47565b5f83612d7e85612d7986866132b3565b61330a565b6129f49190613b34565b5f620f4240612da281612d9b8587613b47565b865f612b6e565b610c629190613b34565b5f612db561229b565b90506001600160a01b038416612de35781816002015f828254612dd89190613b47565b90915550612e409050565b6001600160a01b0384165f9081526020829052604090205482811015612e225784818460405163391434e360e21b815260040161243d93929190613e84565b6001600160a01b0385165f9081526020839052604090209083900390555b6001600160a01b038316612e5e576002810180548390039055612e7c565b6001600160a01b0383165f9081526020829052604090208054830190555b826001600160a01b0316846001600160a01b03167fddf252ad1be2c89b69c2b068fc378daa952ba7f163c4a11628f55a4df523b3ef84604051612ec191815260200190565b60405180910390a350505050565b612ed98282611725565b610e9757808260405163e2517d3f60e01b815260040161243d929190613df8565b612f02611494565b61269357604051638dfc202b60e01b815260040160405180910390fd5b7f9b779b17422d0df92223018b32b4d1fa46e071723d6817e2486d003becc55f0090565b5f8060205f8451602086015f885af180612f62576040513d5f823e3d81fd5b50505f513d91508115612f79578060011415612f86565b6001600160a01b0384163b155b15610ca35783604051635274afe760e01b815260040161243d919061373f565b612faf82613323565b6040516001600160a01b038316907fbc7cd75a20ee27fd9adebab32041f755214dbc6bffa90cc0225b39da2e5c2d3b905f90a2805115612ff357610d05828261337d565b610e976133e6565b613003613405565b61269357604051631afcd79f60e31b815260040160405180910390fd5b613028612ffb565b5f61303161257d565b90505f8061303e8461341e565b915091508161304e576012613050565b805b83546001600160a81b031916600160a01b60ff92909216919091026001600160a01b031916176001600160a01b0394909416939093179091555050565b613095612ffb565b5f61309e61229b565b9050600381016130ae8482613f36565b5060048101610ca38382613f36565b612722612ffb565b6130d86130d0610d0a565b853085612a42565b6130e28382612bb0565b826001600160a01b0316846001600160a01b03167fdcbc1c05240f31ff3ad067ef1ee35ce4997762752e3a095284754544f4c709d78484604051612ec1929190918252602082015260400190565b826001600160a01b0316856001600160a01b03161461315457613154838683612400565b61315e83826134f4565b613170613169610d0a565b85846126ca565b826001600160a01b0316846001600160a01b0316866001600160a01b03167ffbde797d201c681b91056529119e0b02407c7bb96a4a2c75c01fc9667232c8db85856040516131c8929190918252602082015260400190565b60405180910390a45050505050565b5f60028260038111156131ec576131ec613ab6565b6131f69190613ff1565b60ff166001149050919050565b5f805f6132108686613528565b91509150815f036132345783818161322a5761322a613ec7565b0492505050610c62565b81841161324b5761324b6003851502601118613544565b5f848688095f868103871696879004966002600389028118808a02820302808a02820302808a02820302808a02820302808a02820302808a02909103029181900381900460010185841190960395909502919093039390930492909217029150509392505050565b676765c793fa10079d601b1b8115610ad057816001036132d4575081610ad0565b8115610ad057816001166001036132f2576132ef818461330a565b90505b6132fc838461330a565b9250600182901c91506132d4565b5f610c628383676765c793fa10079d601b1b6001612b6e565b806001600160a01b03163b5f0361334f5780604051634c9c8ce360e01b815260040161243d919061373f565b5f80516020614ddf83398151915280546001600160a01b0319166001600160a01b0392909216919091179055565b60605f80846001600160a01b031684604051613399919061401e565b5f60405180830381855af49150503d805f81146133d1576040519150601f19603f3d011682016040523d82523d5f602084013e6133d6565b606091505b5091509150612292858383613555565b34156126935760405163b398979f60e01b815260040160405180910390fd5b5f61340e612921565b54600160401b900460ff16919050565b60408051600481526024810182526020810180516001600160e01b031663313ce56760e01b17905290515f918291829182916001600160a01b038716916134649161401e565b5f60405180830381855afa9150503d805f811461349c576040519150601f19603f3d011682016040523d82523d5f602084013e6134a1565b606091505b50915091508180156134b557506020815110155b156134e8575f818060200190518101906134cf9190613af0565b905060ff81116134e6576001969095509350505050565b505b505f9485945092505050565b6001600160a01b03821661351d575f604051634b637e8f60e11b815260040161243d919061373f565b610e97825f83612dac565b5f805f1983850993909202808410938190039390930393915050565b634e487b715f52806020526024601cfd5b60608261356a57613565826135a8565b610c62565b815115801561358157506001600160a01b0384163b155b156135a15783604051639996b31560e01b815260040161243d919061373f565b5080610c62565b8051156135b85780518082602001fd5b60405163d6bda27560e01b815260040160405180910390fd5b610d858061403a83390190565b5f602082840312156135ee575f80fd5b81356001600160e01b031981168114610c62575f80fd5b5f5b8381101561361f578181015183820152602001613607565b50505f910152565b5f815180845261363e816020860160208601613605565b601f01601f19169290920160200192915050565b602081525f610c626020830184613627565b5f60208284031215613674575f80fd5b5035919050565b80356001600160a01b0381168114613691575f80fd5b919050565b5f80604083850312156136a7575f80fd5b6136b08361367b565b946020939093013593505050565b5f602082840312156136ce575f80fd5b813560048110610c62575f80fd5b5f805f606084860312156136ee575f80fd5b6136f78461367b565b92506137056020850161367b565b9150604084013590509250925092565b5f8060408385031215613726575f80fd5b823591506137366020840161367b565b90509250929050565b6001600160a01b0391909116815260200190565b5f60208284031215613763575f80fd5b610c628261367b565b5f8083601f84011261377c575f80fd5b5081356001600160401b03811115613792575f80fd5b6020830191508360208285010111156137a9575f80fd5b9250929050565b5f80602083850312156137c1575f80fd5b82356001600160401b038111156137d6575f80fd5b6137e28582860161376c565b90969095509350505050565b5f60e082840312156137fe575f80fd5b50919050565b634e487b7160e01b5f52604160045260245ffd5b5f6001600160401b038084111561383157613831613804565b604051601f8501601f19908116603f0116810190828211818310171561385957613859613804565b81604052809350858152868686011115613871575f80fd5b858560208301375f602087830101525050509392505050565b5f806040838503121561389b575f80fd5b6138a48361367b565b915060208301356001600160401b038111156138be575f80fd5b8301601f810185136138ce575f80fd5b6138dd85823560208401613818565b9150509250929050565b5f82601f8301126138f6575f80fd5b610c6283833560208501613818565b5f805f805f805f60e0888a03121561391b575f80fd5b6139248861367b565b96506139326020890161367b565b95506139406040890161367b565b945061394e6060890161367b565b935061395c6080890161367b565b925060a08801356001600160401b0380821115613977575f80fd5b6139838b838c016138e7565b935060c08a0135915080821115613998575f80fd5b506139a58a828b016138e7565b91505092959891949750929550565b8215158152604060208201525f6129f46040830184613627565b5f805f606084860312156139e0575f80fd5b833592506139f06020850161367b565b91506139fe6040850161367b565b90509250925092565b5f8060408385031215613a18575f80fd5b613a218361367b565b91506137366020840161367b565b5f805f8060608587031215613a42575f80fd5b613a4b8561367b565b93506020850135925060408501356001600160401b03811115613a6c575f80fd5b613a788782880161376c565b95989497509550505050565b600181811c90821680613a9857607f821691505b6020821081036137fe57634e487b7160e01b5f52602260045260245ffd5b634e487b7160e01b5f52602160045260245ffd5b6020810160048310613aea57634e487b7160e01b5f52602160045260245ffd5b91905290565b5f60208284031215613b00575f80fd5b5051919050565b634e487b7160e01b5f52601160045260245ffd5b60ff8181168382160190811115610ad057610ad0613b07565b81810381811115610ad057610ad0613b07565b80820180821115610ad057610ad0613b07565b80518015158114613691575f80fd5b5f8060408385031215613b7a575f80fd5b613b8383613b5a565b9150602083015190509250929050565b63ffffffff81168114610d43575f80fd5b813581556020820135600182015560408201356002820155606082013560038201556080820135600482015560a082013560058201556006810160c0830135613bec81613b93565b815463ffffffff191663ffffffff919091161790555050565b5f60e082019050823582526020830135602083015260408301356040830152606083013560608301526080830135608083015260a083013560a083015260c0830135613c5081613b93565b63ffffffff811660c08401525092915050565b5f60208284031215613c73575f80fd5b815160ff81168114610c62575f80fd5b600181815b80851115613cbd57815f1904821115613ca357613ca3613b07565b80851615613cb057918102915b93841c9390800290613c88565b509250929050565b5f82613cd357506001610ad0565b81613cdf57505f610ad0565b8160018114613cf55760028114613cff57613d1b565b6001915050610ad0565b60ff841115613d1057613d10613b07565b50506001821b610ad0565b5060208310610133831016604e8410600b8410161715613d3e575081810a610ad0565b613d488383613c83565b805f1904821115613d5b57613d5b613b07565b029392505050565b5f610c6260ff841683613cc5565b5f60e08284031215613d81575f80fd5b60405160e081016001600160401b0381118282101715613da357613da3613804565b8060405250825181526020830151602082015260408301516040820152606083015160608201526080830151608082015260a083015160a082015260c0830151613dec81613b93565b60c08201529392505050565b6001600160a01b03929092168252602082015260400190565b6001600160a01b03878116825260208201879052604082018690528416606082015260a06080820181905281018290525f828460c08401375f60c0848401015260c0601f19601f8501168301019050979650505050505050565b5f60208284031215613e7b575f80fd5b610c6282613b5a565b6001600160a01b039390931683526020830191909152604082015260600190565b5f63ffffffff808316818103613ebd57613ebd613b07565b6001019392505050565b634e487b7160e01b5f52601260045260245ffd5b8082028115828204841417610ad057610ad0613b07565b601f821115610d0557805f5260205f20601f840160051c81016020851015613f175750805b601f840160051c820191505b81811015612d0b575f8155600101613f23565b81516001600160401b03811115613f4f57613f4f613804565b613f6381613f5d8454613a84565b84613ef2565b602080601f831160018114613f96575f8415613f7f5750858301515b5f19600386901b1c1916600185901b1785556121a4565b5f85815260208120601f198616915b82811015613fc457888601518255948401946001909101908401613fa5565b5085821015613fe157878501515f19600388901b60f8161c191681555b5050505050600190811b01905550565b5f60ff83168061400f57634e487b7160e01b5f52601260045260245ffd5b8060ff84160691505092915050565b5f825161402f818460208701613605565b919091019291505056fe608060405234801561000f575f80fd5b50610d688061001d5f395ff3fe608060405234801561000f575f80fd5b50600436106100b8575f3560e01c806311a8f413146100bc578063313ce567146100ec578063314923921461010657806338d52e0f1461011b57806354fd4d50146101455780637284e416146101545780638da5cb5b146101695780639a6fc8f51461017c5780639d54f419146101c3578063baecb749146101d6578063c0c53b8b146101e9578063df034cd0146101fc578063f2fde38b1461020f578063feaf968c14610222575b5f80fd5b6004546100cf906001600160501b031681565b6040516001600160501b0390911681526020015b60405180910390f35b6100f461022a565b60405160ff90911681526020016100e3565b610119610114366004610aa2565b6102a7565b005b5f5461012d906001600160a01b031681565b6040516001600160a01b0390911681526020016100e3565b604051600381526020016100e3565b61015c6103aa565b6040516100e39190610adb565b60025461012d906001600160a01b031681565b61018f61018a366004610b23565b61045b565b604080516001600160501b03968716815260208101959095528401929092526060830152909116608082015260a0016100e3565b6101196101d1366004610b59565b61051c565b6101196101e4366004610b72565b6105be565b6101196101f7366004610b9a565b6106cb565b60015461012d906001600160a01b031681565b61011961021d366004610b59565b610939565b61018f6109db565b5f805f9054906101000a90046001600160a01b03166001600160a01b031663313ce5676040518163ffffffff1660e01b8152600401602060405180830381865afa925050508015610298575060408051601f3d908101601f1916820190925261029591810190610bda565b60015b6102a25750601290565b919050565b6001546001600160a01b031633146102d1576040516282b42960e81b815260040160405180910390fd5b600480546001600160501b0316905f6102e983610bfa565b82546101009290920a6001600160501b0381810219909316918316021790915560408051608081018252848152426020808301828152838501838152600480548816606087018181525f9182526003808752918990209751885593516001880155915160028701559151940180546001600160501b03191694871694909417909355915483519416845290830185905292507f9b8b2840c7ec477c182adc799001d8b54c03e8249c14c945216b4a72b764a817910160405180910390a15050565b60408051808201825260078152662aa725a727aba760c91b60208201525f805483516395d89b4160e01b815293516060946001600160a01b03909216926395d89b4192600480820193918290030181865afa92505050801561042d57506040513d5f823e601f3d908101601f1916820160405261042a9190810190610c47565b60015b156104355790505b806040516020016104469190610cee565b60405160208183030381529060405291505090565b6001600160501b038082165f908152600360208181526040808420815160808101835281548152600182015493810193909352600281015491830182905290920154909316606084015290918291829182918291906104f85760405162461bcd60e51b8152602060048201526014602482015273149bdd5b9908191bd95cc81b9bdd08195e1a5cdd60621b60448201526064015b60405180910390fd5b80516020820151604083015160609093015198999198909750919550909350915050565b6002546001600160a01b03163314610546576040516282b42960e81b815260040160405180910390fd5b6001600160a01b03811661056d5760405163d92e233d60e01b815260040160405180910390fd5b600180546001600160a01b038381166001600160a01b0319831681179093556040519116919082907f662a4a4a892f5f13cf7ee050fdaa045f8641601fdbc843e8a71f418099cacd4e905f90a35050565b6001546001600160a01b031633146105e8576040516282b42960e81b815260040160405180910390fd5b6004546001600160501b03908116908316116106175760405163bfbe031f60e01b815260040160405180910390fd5b600480546001600160501b038085166001600160501b0319928316811790935560408051608081018252858152426020808301828152838501838152606085018981525f8a8152600394859052879020955186559151600186015551600285015551920180549290941691909416179091555190919083907f0559884fd3a460db3073b7fc896cc77986f16e378210ded43186175bf646fc5f906106be9085815260200190565b60405180910390a3505050565b7ff0c57e16840df040f15088dc2f81fe391c3923bec73e23a9662efc9c229c6a008054600160401b810460ff1615906001600160401b03165f8115801561070f5750825b90505f826001600160401b0316600114801561072a5750303b155b905081158015610738575080155b156107565760405163f92ee8a960e01b815260040160405180910390fd5b84546001600160401b0319166001178555831561077f57845460ff60401b1916600160401b1785555b6001600160a01b038816158061079c57506001600160a01b038716155b806107ae57506001600160a01b038616155b156107cc5760405163d92e233d60e01b815260040160405180910390fd5b5f80546001600160a01b03199081166001600160a01b038b81169190911783556001805483168b831617815560028054909316918a1691909117909155600480546001600160501b031990811683179091556040805160808101825284815242602080830182815293830191825260608301868152959096526003909552517fa15bc60c955c405d20d9149c709e2460f1c2d9a497496a7f46004d1772c3054c55517fa15bc60c955c405d20d9149c709e2460f1c2d9a497496a7f46004d1772c3054d5591517fa15bc60c955c405d20d9149c709e2460f1c2d9a497496a7f46004d1772c3054e55517fa15bc60c955c405d20d9149c709e2460f1c2d9a497496a7f46004d1772c3054f80549092166001600160501b03909116179055831561092f57845460ff60401b19168555604051600181527fc7f505b2f371ae2175ee4913f4499e1f2633a7b5936321eed1cdaeb6115181d29060200160405180910390a15b5050505050505050565b6002546001600160a01b03163314610963576040516282b42960e81b815260040160405180910390fd5b6001600160a01b03811661098a5760405163d92e233d60e01b815260040160405180910390fd5b600280546001600160a01b038381166001600160a01b0319831681179093556040519116919082907f8be0079c531659141344cd1fd0a4f28419497f9722a3daafe3b4186f6b6457e0905f90a35050565b6004546001600160501b039081165f90815260036020818152604080842081516080810183528154815260018201549381019390935260028101549183018290529092015490931660608401529091829182918291829190610a735760405162461bcd60e51b81526020600482015260116024820152704e6f206461746120617661696c61626c6560781b60448201526064016104ef565b6004548151602083015160408401516060909401516001600160501b0390931699919850965091945092509050565b5f60208284031215610ab2575f80fd5b5035919050565b5f5b83811015610ad3578181015183820152602001610abb565b50505f910152565b602081525f8251806020840152610af9816040850160208701610ab9565b601f01601f19169190910160400192915050565b80356001600160501b03811681146102a2575f80fd5b5f60208284031215610b33575f80fd5b610b3c82610b0d565b9392505050565b80356001600160a01b03811681146102a2575f80fd5b5f60208284031215610b69575f80fd5b610b3c82610b43565b5f8060408385031215610b83575f80fd5b610b8c83610b0d565b946020939093013593505050565b5f805f60608486031215610bac575f80fd5b610bb584610b43565b9250610bc360208501610b43565b9150610bd160408501610b43565b90509250925092565b5f60208284031215610bea575f80fd5b815160ff81168114610b3c575f80fd5b5f6001600160501b038281166002600160501b03198101610c2957634e487b7160e01b5f52601160045260245ffd5b6001019392505050565b634e487b7160e01b5f52604160045260245ffd5b5f60208284031215610c57575f80fd5b81516001600160401b0380821115610c6d575f80fd5b818401915084601f830112610c80575f80fd5b815181811115610c9257610c92610c33565b604051601f8201601f19908116603f01168101908382118183101715610cba57610cba610c33565b81604052828152876020848701011115610cd2575f80fd5b610ce3836020830160208801610ab9565b979650505050505050565b7f4c656e646566692050726f746f636f6c20526573657276657320666f7220000081525f8251610d2581601e850160208701610ab9565b91909101601e019291505056fea2646970667358221220203c99c9279e3e06ac272fbc2d8539ef152e536c6aeeea3a064998f2bd82771564736f6c63430008170033189ab7a9244df0848122154315af71fe140f3db0fe014031783b0946b8c9d2e3360894a13ba1a3210667c828492db98dca3e2076cc3735a920a3ca505d382bbc241ecf16d79d0f8dbfb92cbc07fe17840425976cf0667f022fe9877caa831b08ba279271fb7bbf76a6f3df3cc57bf80647fcafdea60ec3383d90f459de74e7c065d7a28e3265b37a6474929f336521b332c1681b933f6cb9f3376673440d862aa26469706673582212203ec16ce8247d74c306c8a96ca6e088b339939d49f46afffcd4bfbb8dcf67255564736f6c63430008170033","linkReferences":{}},"methodIdentifiers":{"DEFAULT_ADMIN_ROLE()":"a217fddf","UPGRADE_INTERFACE_VERSION()":"ad3cb1cc","allowance(address,address)":"dd62ed3e","approve(address,uint256)":"095ea7b3","asset()":"38d52e0f","assetsModule()":"56c704b8","balanceOf(address)":"70a08231","baseDecimals()":"33f76178","boostYield(address,uint256)":"8a1a1f95","borrow(uint256,address)":"4b3fd148","borrowerDebt(address)":"3add60ab","checkUpkeep(bytes)":"6e04ff0d","claimReward()":"b88a802f","convertToAssets(uint256)":"07a2d13a","convertToShares(uint256)":"c6e6f592","counter()":"61bc221a","decimals()":"313ce567","deposit(uint256,address)":"6e553f65","ecosystem()":"9c74a579","flashLoan(address,uint256,bytes)":"e0232b42","getBorrowRate(uint8)":"0ac40e96","getRoleAdmin(bytes32)":"248a9ca3","getSupplyRate()":"84bdc9a8","grantRole(bytes32,address)":"2f2ff15d","hasRole(bytes32,address)":"91d14854","initialize(address,address,address,address,address,string,string)":"571f0910","interval()":"947a36fb","isRewardable(address)":"f251f45f","lastTimeStamp()":"3f3b3b27","lendefiCore()":"f0859163","maxDeposit(address)":"402d267d","maxMint(address)":"c63d75b6","maxRedeem(address)":"d905777e","maxWithdraw(address)":"ce96cb77","mint(uint256,address)":"94bf804d","name()":"06fdde03","pause()":"8456cb59","paused()":"5c975abb","performUpkeep(bytes)":"4585e33b","porFeed()":"a86c5e67","previewDeposit(uint256)":"ef8b30f7","previewMint(uint256)":"b3d7f6b9","previewRedeem(uint256)":"4cdad506","previewWithdraw(uint256)":"0a28a477","protocolConfig()":"f5efbb4f","proxiableUUID()":"52d1902d","redeem(uint256,address,address)":"ba087652","renounceRole(bytes32,address)":"36568abe","repay(uint256,address)":"acb70815","revokeRole(bytes32,address)":"d547741f","setProtocolConfig((uint256,uint256,uint256,uint256,uint256,uint256,uint32))":"4de4533a","supportsInterface(bytes4)":"01ffc9a7","symbol()":"95d89b41","timelock()":"d33219b4","totalAccruedInterest()":"1564efda","totalAssets()":"01e1d114","totalBase()":"b6445e13","totalBorrow()":"8285ef40","totalSuppliedLiquidity()":"7ad62cb1","totalSupply()":"18160ddd","transfer(address,uint256)":"a9059cbb","transferFrom(address,address,uint256)":"23b872dd","unpause()":"3f4ba83a","upgradeToAndCall(address,bytes)":"4f1ef286","utilization()":"ea21cd92","version()":"54fd4d50","withdraw(uint256,address,address)":"b460af94"},"storageLayout":{"storage":[{"astId":19259,"contract":"contracts/markets/LendefiMarketVault.sol:LendefiMarketVault","label":"baseDecimals","offset":0,"slot":"0","type":"t_uint256"},{"astId":19262,"contract":"contracts/markets/LendefiMarketVault.sol:LendefiMarketVault","label":"totalSuppliedLiquidity","offset":0,"slot":"1","type":"t_uint256"},{"astId":19265,"contract":"contracts/markets/LendefiMarketVault.sol:LendefiMarketVault","label":"totalAccruedInterest","offset":0,"slot":"2","type":"t_uint256"},{"astId":19268,"contract":"contracts/markets/LendefiMarketVault.sol:LendefiMarketVault","label":"totalBase","offset":0,"slot":"3","type":"t_uint256"},{"astId":19271,"contract":"contracts/markets/LendefiMarketVault.sol:LendefiMarketVault","label":"totalBorrow","offset":0,"slot":"4","type":"t_uint256"},{"astId":19274,"contract":"contracts/markets/LendefiMarketVault.sol:LendefiMarketVault","label":"counter","offset":0,"slot":"5","type":"t_uint256"},{"astId":19277,"contract":"contracts/markets/LendefiMarketVault.sol:LendefiMarketVault","label":"interval","offset":0,"slot":"6","type":"t_uint256"},{"astId":19280,"contract":"contracts/markets/LendefiMarketVault.sol:LendefiMarketVault","label":"lastTimeStamp","offset":0,"slot":"7","type":"t_uint256"},{"astId":19283,"contract":"contracts/markets/LendefiMarketVault.sol:LendefiMarketVault","label":"version","offset":0,"slot":"8","type":"t_uint32"},{"astId":19286,"contract":"contracts/markets/LendefiMarketVault.sol:LendefiMarketVault","label":"porFeed","offset":4,"slot":"8","type":"t_address"},{"astId":19289,"contract":"contracts/markets/LendefiMarketVault.sol:LendefiMarketVault","label":"lendefiCore","offset":0,"slot":"9","type":"t_address"},{"astId":19292,"contract":"contracts/markets/LendefiMarketVault.sol:LendefiMarketVault","label":"ecosystem","offset":0,"slot":"10","type":"t_address"},{"astId":19295,"contract":"contracts/markets/LendefiMarketVault.sol:LendefiMarketVault","label":"assetsModule","offset":0,"slot":"11","type":"t_address"},{"astId":19298,"contract":"contracts/markets/LendefiMarketVault.sol:LendefiMarketVault","label":"timelock","offset":0,"slot":"12","type":"t_address"},{"astId":19302,"contract":"contracts/markets/LendefiMarketVault.sol:LendefiMarketVault","label":"protocolConfig","offset":0,"slot":"13","type":"t_struct(ProtocolConfig)10280_storage"},{"astId":19307,"contract":"contracts/markets/LendefiMarketVault.sol:LendefiMarketVault","label":"borrowerDebt","offset":0,"slot":"20","type":"t_mapping(t_address,t_uint256)"},{"astId":19312,"contract":"contracts/markets/LendefiMarketVault.sol:LendefiMarketVault","label":"liquidityOperationBlock","offset":0,"slot":"21","type":"t_mapping(t_address,t_uint256)"},{"astId":19317,"contract":"contracts/markets/LendefiMarketVault.sol:LendefiMarketVault","label":"__gap","offset":0,"slot":"22","type":"t_array(t_uint256)10_storage"}],"types":{"t_address":{"encoding":"inplace","label":"address","numberOfBytes":"20"},"t_array(t_uint256)10_storage":{"encoding":"inplace","label":"uint256[10]","numberOfBytes":"320","base":"t_uint256"},"t_mapping(t_address,t_uint256)":{"encoding":"mapping","key":"t_address","label":"mapping(address => uint256)","numberOfBytes":"32","value":"t_uint256"},"t_struct(ProtocolConfig)10280_storage":{"encoding":"inplace","label":"struct IPROTOCOL.ProtocolConfig","numberOfBytes":"224","members":[{"astId":10267,"contract":"contracts/markets/LendefiMarketVault.sol:LendefiMarketVault","label":"profitTargetRate","offset":0,"slot":"0","type":"t_uint256"},{"astId":10269,"contract":"contracts/markets/LendefiMarketVault.sol:LendefiMarketVault","label":"borrowRate","offset":0,"slot":"1","type":"t_uint256"},{"astId":10271,"contract":"contracts/markets/LendefiMarketVault.sol:LendefiMarketVault","label":"rewardAmount","offset":0,"slot":"2","type":"t_uint256"},{"astId":10273,"contract":"contracts/markets/LendefiMarketVault.sol:LendefiMarketVault","label":"rewardInterval","offset":0,"slot":"3","type":"t_uint256"},{"astId":10275,"contract":"contracts/markets/LendefiMarketVault.sol:LendefiMarketVault","label":"rewardableSupply","offset":0,"slot":"4","type":"t_uint256"},{"astId":10277,"contract":"contracts/markets/LendefiMarketVault.sol:LendefiMarketVault","label":"liquidatorThreshold","offset":0,"slot":"5","type":"t_uint256"},{"astId":10279,"contract":"contracts/markets/LendefiMarketVault.sol:LendefiMarketVault","label":"flashLoanFee","offset":0,"slot":"6","type":"t_uint32"}]},"t_uint256":{"encoding":"inplace","label":"uint256","numberOfBytes":"32"},"t_uint32":{"encoding":"inplace","label":"uint32","numberOfBytes":"4"}}},"id":35}